{
  "_format": "hh-sol-artifact-1",
  "contractName": "MigrationOperationalStaking",
  "sourceName": "contracts/MigrationOperationalStaking.sol",
  "abi": [
    {
      "anonymous": false,
      "inputs": [
        {
          "indexed": false,
          "internalType": "uint128",
          "name": "amount",
          "type": "uint128"
        }
      ],
      "name": "AllocatedTokensTaken",
      "type": "event"
    },
    {
      "anonymous": false,
      "inputs": [
        {
          "indexed": true,
          "internalType": "address",
          "name": "cqt",
          "type": "address"
        }
      ],
      "name": "CQTAddressChanged",
      "type": "event"
    },
    {
      "anonymous": false,
      "inputs": [
        {
          "indexed": true,
          "internalType": "uint128",
          "name": "validatorId",
          "type": "uint128"
        },
        {
          "indexed": true,
          "internalType": "address",
          "name": "beneficiary",
          "type": "address"
        },
        {
          "indexed": false,
          "internalType": "uint128",
          "name": "amount",
          "type": "uint128"
        }
      ],
      "name": "CommissionRewardRedeemed",
      "type": "event"
    },
    {
      "anonymous": false,
      "inputs": [
        {
          "indexed": true,
          "internalType": "uint128",
          "name": "validatorId",
          "type": "uint128"
        },
        {
          "indexed": true,
          "internalType": "address",
          "name": "delegator",
          "type": "address"
        }
      ],
      "name": "DelegatorBurnt",
      "type": "event"
    },
    {
      "anonymous": false,
      "inputs": [
        {
          "indexed": false,
          "internalType": "address",
          "name": "cqt",
          "type": "address"
        },
        {
          "indexed": false,
          "internalType": "uint128",
          "name": "validatorCoolDown",
          "type": "uint128"
        },
        {
          "indexed": false,
          "internalType": "uint128",
          "name": "delegatorCoolDown",
          "type": "uint128"
        },
        {
          "indexed": false,
          "internalType": "uint128",
          "name": "maxCapMultiplier",
          "type": "uint128"
        },
        {
          "indexed": false,
          "internalType": "uint128",
          "name": "validatorMaxStake",
          "type": "uint128"
        }
      ],
      "name": "Initialized",
      "type": "event"
    },
    {
      "anonymous": false,
      "inputs": [
        {
          "indexed": false,
          "internalType": "uint8",
          "name": "version",
          "type": "uint8"
        }
      ],
      "name": "Initialized",
      "type": "event"
    },
    {
      "anonymous": false,
      "inputs": [
        {
          "indexed": true,
          "internalType": "uint128",
          "name": "amount",
          "type": "uint128"
        }
      ],
      "name": "MadCQTBurnt",
      "type": "event"
    },
    {
      "anonymous": false,
      "inputs": [
        {
          "indexed": true,
          "internalType": "address",
          "name": "cqt",
          "type": "address"
        },
        {
          "indexed": true,
          "internalType": "uint256",
          "name": "amount",
          "type": "uint256"
        }
      ],
      "name": "MadCQTWithdrawn",
      "type": "event"
    },
    {
      "anonymous": false,
      "inputs": [
        {
          "indexed": false,
          "internalType": "uint128",
          "name": "newMaxCapMultiplier",
          "type": "uint128"
        }
      ],
      "name": "MaxCapMultiplierChanged",
      "type": "event"
    },
    {
      "anonymous": false,
      "inputs": [
        {
          "indexed": true,
          "internalType": "address",
          "name": "previousOwner",
          "type": "address"
        },
        {
          "indexed": true,
          "internalType": "address",
          "name": "newOwner",
          "type": "address"
        }
      ],
      "name": "OwnershipTransferred",
      "type": "event"
    },
    {
      "anonymous": false,
      "inputs": [
        {
          "indexed": true,
          "internalType": "uint128",
          "name": "validatorId",
          "type": "uint128"
        },
        {
          "indexed": true,
          "internalType": "address",
          "name": "delegator",
          "type": "address"
        },
        {
          "indexed": false,
          "internalType": "uint128",
          "name": "amount",
          "type": "uint128"
        },
        {
          "indexed": false,
          "internalType": "uint128",
          "name": "unstakingId",
          "type": "uint128"
        }
      ],
      "name": "RecoveredUnstake",
      "type": "event"
    },
    {
      "anonymous": false,
      "inputs": [
        {
          "indexed": true,
          "internalType": "uint128",
          "name": "oldValidatorId",
          "type": "uint128"
        },
        {
          "indexed": true,
          "internalType": "uint128",
          "name": "newValidatorId",
          "type": "uint128"
        },
        {
          "indexed": true,
          "internalType": "address",
          "name": "delegator",
          "type": "address"
        },
        {
          "indexed": false,
          "internalType": "uint128",
          "name": "amount",
          "type": "uint128"
        },
        {
          "indexed": false,
          "internalType": "uint128",
          "name": "unstakingId",
          "type": "uint128"
        }
      ],
      "name": "Redelegated",
      "type": "event"
    },
    {
      "anonymous": false,
      "inputs": [
        {
          "indexed": true,
          "internalType": "uint128",
          "name": "validatorId",
          "type": "uint128"
        },
        {
          "indexed": false,
          "internalType": "uint128",
          "name": "amount",
          "type": "uint128"
        }
      ],
      "name": "RewardFailedDueLowPool",
      "type": "event"
    },
    {
      "anonymous": false,
      "inputs": [
        {
          "indexed": true,
          "internalType": "uint128",
          "name": "validatorId",
          "type": "uint128"
        },
        {
          "indexed": false,
          "internalType": "uint128",
          "name": "amount",
          "type": "uint128"
        }
      ],
      "name": "RewardFailedDueZeroStake",
      "type": "event"
    },
    {
      "anonymous": false,
      "inputs": [
        {
          "indexed": true,
          "internalType": "uint128",
          "name": "validatorId",
          "type": "uint128"
        },
        {
          "indexed": true,
          "internalType": "address",
          "name": "beneficiary",
          "type": "address"
        },
        {
          "indexed": false,
          "internalType": "uint128",
          "name": "amount",
          "type": "uint128"
        }
      ],
      "name": "RewardRedeemed",
      "type": "event"
    },
    {
      "anonymous": false,
      "inputs": [
        {
          "indexed": false,
          "internalType": "uint128",
          "name": "amount",
          "type": "uint128"
        }
      ],
      "name": "RewardTokensDeposited",
      "type": "event"
    },
    {
      "anonymous": false,
      "inputs": [
        {
          "indexed": true,
          "internalType": "uint128",
          "name": "validatorId",
          "type": "uint128"
        },
        {
          "indexed": false,
          "internalType": "address",
          "name": "delegator",
          "type": "address"
        },
        {
          "indexed": false,
          "internalType": "uint128",
          "name": "amount",
          "type": "uint128"
        }
      ],
      "name": "Staked",
      "type": "event"
    },
    {
      "anonymous": false,
      "inputs": [
        {
          "indexed": true,
          "internalType": "address",
          "name": "operationalManager",
          "type": "address"
        }
      ],
      "name": "StakingManagerAddressChanged",
      "type": "event"
    },
    {
      "anonymous": false,
      "inputs": [
        {
          "indexed": true,
          "internalType": "uint128",
          "name": "validatorId",
          "type": "uint128"
        },
        {
          "indexed": true,
          "internalType": "address",
          "name": "delegator",
          "type": "address"
        },
        {
          "indexed": true,
          "internalType": "uint128",
          "name": "unstakeId",
          "type": "uint128"
        },
        {
          "indexed": false,
          "internalType": "uint128",
          "name": "amount",
          "type": "uint128"
        }
      ],
      "name": "UnstakeRedeemed",
      "type": "event"
    },
    {
      "anonymous": false,
      "inputs": [
        {
          "indexed": true,
          "internalType": "uint128",
          "name": "validatorId",
          "type": "uint128"
        },
        {
          "indexed": true,
          "internalType": "address",
          "name": "delegator",
          "type": "address"
        },
        {
          "indexed": false,
          "internalType": "uint128",
          "name": "amount",
          "type": "uint128"
        },
        {
          "indexed": false,
          "internalType": "uint128",
          "name": "unstakeId",
          "type": "uint128"
        }
      ],
      "name": "Unstaked",
      "type": "event"
    },
    {
      "anonymous": false,
      "inputs": [
        {
          "indexed": true,
          "internalType": "uint128",
          "name": "id",
          "type": "uint128"
        },
        {
          "indexed": false,
          "internalType": "uint128",
          "name": "commissionRate",
          "type": "uint128"
        },
        {
          "indexed": true,
          "internalType": "address",
          "name": "validator",
          "type": "address"
        }
      ],
      "name": "ValidatorAdded",
      "type": "event"
    },
    {
      "anonymous": false,
      "inputs": [
        {
          "indexed": true,
          "internalType": "uint128",
          "name": "validatorId",
          "type": "uint128"
        },
        {
          "indexed": true,
          "internalType": "address",
          "name": "newAddress",
          "type": "address"
        }
      ],
      "name": "ValidatorAddressChanged",
      "type": "event"
    },
    {
      "anonymous": false,
      "inputs": [
        {
          "indexed": true,
          "internalType": "uint128",
          "name": "validatorId",
          "type": "uint128"
        },
        {
          "indexed": false,
          "internalType": "uint128",
          "name": "amount",
          "type": "uint128"
        }
      ],
      "name": "ValidatorCommissionRateChanged",
      "type": "event"
    },
    {
      "anonymous": false,
      "inputs": [
        {
          "indexed": true,
          "internalType": "uint128",
          "name": "validatorId",
          "type": "uint128"
        },
        {
          "indexed": false,
          "internalType": "uint256",
          "name": "blockNumber",
          "type": "uint256"
        }
      ],
      "name": "ValidatorDisabled",
      "type": "event"
    },
    {
      "anonymous": false,
      "inputs": [
        {
          "indexed": true,
          "internalType": "uint128",
          "name": "validatorId",
          "type": "uint128"
        }
      ],
      "name": "ValidatorEnabled",
      "type": "event"
    },
    {
      "anonymous": false,
      "inputs": [
        {
          "indexed": false,
          "internalType": "uint128",
          "name": "amount",
          "type": "uint128"
        }
      ],
      "name": "ValidatorMaxCapChanged",
      "type": "event"
    },
    {
      "inputs": [],
      "name": "CQT",
      "outputs": [
        {
          "internalType": "contract IERC20Upgradeable",
          "name": "",
          "type": "address"
        }
      ],
      "stateMutability": "view",
      "type": "function"
    },
    {
      "inputs": [],
      "name": "DIVIDER",
      "outputs": [
        {
          "internalType": "uint256",
          "name": "",
          "type": "uint256"
        }
      ],
      "stateMutability": "view",
      "type": "function"
    },
    {
      "inputs": [],
      "name": "REWARD_REDEEM_THRESHOLD",
      "outputs": [
        {
          "internalType": "uint128",
          "name": "",
          "type": "uint128"
        }
      ],
      "stateMutability": "view",
      "type": "function"
    },
    {
      "inputs": [],
      "name": "burnDefaultDelegators",
      "outputs": [],
      "stateMutability": "nonpayable",
      "type": "function"
    },
    {
      "inputs": [
        {
          "internalType": "uint128",
          "name": "validatorId",
          "type": "uint128"
        },
        {
          "internalType": "address",
          "name": "delegator",
          "type": "address"
        }
      ],
      "name": "burnDelegatorBalance",
      "outputs": [],
      "stateMutability": "nonpayable",
      "type": "function"
    },
    {
      "inputs": [],
      "name": "delegatorCoolDown",
      "outputs": [
        {
          "internalType": "uint128",
          "name": "",
          "type": "uint128"
        }
      ],
      "stateMutability": "view",
      "type": "function"
    },
    {
      "inputs": [
        {
          "internalType": "address",
          "name": "delegator",
          "type": "address"
        },
        {
          "internalType": "uint128",
          "name": "validatorId",
          "type": "uint128"
        }
      ],
      "name": "getDelegatorMetadata",
      "outputs": [
        {
          "internalType": "uint128",
          "name": "staked",
          "type": "uint128"
        },
        {
          "internalType": "uint128",
          "name": "rewards",
          "type": "uint128"
        },
        {
          "internalType": "uint128",
          "name": "commissionEarned",
          "type": "uint128"
        },
        {
          "internalType": "uint128[]",
          "name": "unstakingAmounts",
          "type": "uint128[]"
        },
        {
          "internalType": "uint128[]",
          "name": "unstakingsEndEpochs",
          "type": "uint128[]"
        }
      ],
      "stateMutability": "view",
      "type": "function"
    },
    {
      "inputs": [],
      "name": "getMetadata",
      "outputs": [
        {
          "internalType": "address",
          "name": "CQTaddress",
          "type": "address"
        },
        {
          "internalType": "address",
          "name": "_stakingManager",
          "type": "address"
        },
        {
          "internalType": "uint128",
          "name": "_validatorsN",
          "type": "uint128"
        },
        {
          "internalType": "uint128",
          "name": "_rewardPool",
          "type": "uint128"
        },
        {
          "internalType": "uint128",
          "name": "_validatorCoolDown",
          "type": "uint128"
        },
        {
          "internalType": "uint128",
          "name": "_delegatorCoolDown",
          "type": "uint128"
        },
        {
          "internalType": "uint128",
          "name": "_maxCapMultiplier",
          "type": "uint128"
        },
        {
          "internalType": "uint128",
          "name": "_validatorMaxStake",
          "type": "uint128"
        }
      ],
      "stateMutability": "view",
      "type": "function"
    },
    {
      "inputs": [
        {
          "internalType": "uint128",
          "name": "validatorId",
          "type": "uint128"
        }
      ],
      "name": "getValidatorCompoundedStakingData",
      "outputs": [
        {
          "internalType": "uint128",
          "name": "staked",
          "type": "uint128"
        },
        {
          "internalType": "uint128",
          "name": "delegated",
          "type": "uint128"
        }
      ],
      "stateMutability": "view",
      "type": "function"
    },
    {
      "inputs": [
        {
          "internalType": "uint128",
          "name": "validatorId",
          "type": "uint128"
        }
      ],
      "name": "getValidatorStakingData",
      "outputs": [
        {
          "internalType": "uint128",
          "name": "staked",
          "type": "uint128"
        },
        {
          "internalType": "uint128",
          "name": "delegated",
          "type": "uint128"
        }
      ],
      "stateMutability": "view",
      "type": "function"
    },
    {
      "inputs": [],
      "name": "maxCapMultiplier",
      "outputs": [
        {
          "internalType": "uint128",
          "name": "",
          "type": "uint128"
        }
      ],
      "stateMutability": "view",
      "type": "function"
    },
    {
      "inputs": [],
      "name": "owner",
      "outputs": [
        {
          "internalType": "address",
          "name": "",
          "type": "address"
        }
      ],
      "stateMutability": "view",
      "type": "function"
    },
    {
      "inputs": [],
      "name": "renounceOwnership",
      "outputs": [],
      "stateMutability": "nonpayable",
      "type": "function"
    },
    {
      "inputs": [],
      "name": "rewardPool",
      "outputs": [
        {
          "internalType": "uint128",
          "name": "",
          "type": "uint128"
        }
      ],
      "stateMutability": "view",
      "type": "function"
    },
    {
      "inputs": [
        {
          "internalType": "address",
          "name": "newCQT",
          "type": "address"
        }
      ],
      "name": "setCQTAddress",
      "outputs": [],
      "stateMutability": "nonpayable",
      "type": "function"
    },
    {
      "inputs": [],
      "name": "stakingManager",
      "outputs": [
        {
          "internalType": "address",
          "name": "",
          "type": "address"
        }
      ],
      "stateMutability": "view",
      "type": "function"
    },
    {
      "inputs": [
        {
          "internalType": "address",
          "name": "newOwner",
          "type": "address"
        }
      ],
      "name": "transferOwnership",
      "outputs": [],
      "stateMutability": "nonpayable",
      "type": "function"
    },
    {
      "inputs": [],
      "name": "validatorCoolDown",
      "outputs": [
        {
          "internalType": "uint128",
          "name": "",
          "type": "uint128"
        }
      ],
      "stateMutability": "view",
      "type": "function"
    },
    {
      "inputs": [],
      "name": "validatorMaxStake",
      "outputs": [
        {
          "internalType": "uint128",
          "name": "",
          "type": "uint128"
        }
      ],
      "stateMutability": "view",
      "type": "function"
    },
    {
      "inputs": [],
      "name": "validatorsN",
      "outputs": [
        {
          "internalType": "uint128",
          "name": "",
          "type": "uint128"
        }
      ],
      "stateMutability": "view",
      "type": "function"
    },
    {
      "inputs": [
        {
          "internalType": "address",
          "name": "recoveryWallet",
          "type": "address"
        }
      ],
      "name": "withdrawAllMadCQT",
      "outputs": [],
      "stateMutability": "nonpayable",
      "type": "function"
    }
  ],
  "bytecode": "0x608060405234801561001057600080fd5b5061157b806100206000396000f3fe608060405234801561001057600080fd5b50600436106101075760003560e01c8063099912231461010c5780630f04adfe1461013457806322828cc214610154578063473065a3146101675780634c4a17091461017c57806353b74922146101af5780635b216723146101c95780635b88d89e146101ed57806362043bd814610200578063650de76b1461021d57806366666aa914610237578063715018a61461024a5780637a5b4f59146102525780637ef1bc8a146102c75780638a810324146102da5780638da5cb5b146102ed5780639860fa25146102f55780639f10816f14610308578063b3c3976c1461031b578063dfc50f6514610323578063f2fde38b14610336575b600080fd5b6101176305f5e10081565b6040516001600160801b0390911681526020015b60405180910390f35b606554610147906001600160a01b031681565b60405161012b91906111d3565b606954610147906001600160a01b031681565b61017a610175366004611203565b610349565b005b61018f61018a366004611235565b610461565b604080516001600160801b0393841681529290911660208301520161012b565b60665461011790600160801b90046001600160801b031681565b6101dc6101d7366004611250565b6104f2565b60405161012b9594939291906112c7565b61017a6101fb366004611203565b6107c9565b61020f670de0b6b3a764000081565b60405190815260200161012b565b60675461011790600160801b90046001600160801b031681565b606654610117906001600160801b031681565b61017a6108f1565b606554606954606a54606654606754606854604080516001600160a01b0397881681529690951660208701526001600160801b03938416948601949094528282166060860152600160801b918290048316608086015282811660a086015204811660c08401521660e08201526101000161012b565b61017a6102d5366004611319565b6108fb565b606a54610117906001600160801b031681565b61014761090d565b61018f610303366004611235565b61091c565b606854610117906001600160801b031681565b61017a6109a1565b606754610117906001600160801b031681565b61017a610344366004611203565b610ad1565b610351610b4a565b6001600160a01b0381166103a25760405162461bcd60e51b8152602060048201526013602482015272496e76616c696420435154206164647265737360681b60448201526064015b60405180910390fd5b6065546001600160a01b03908116908216036104175760405162461bcd60e51b815260206004820152602e60248201527f4e65772043515420616464726573732063616e6e6f7420626520657175616c2060448201526d746f20746865206f6c64206f6e6560901b6064820152608401610399565b606580546001600160a01b0319166001600160a01b0383169081179091556040517f484a4a6b1a32628ffcec67227a0d357c38c5524aa5db3ecd1fa955c9a6989f2490600090a250565b6001600160801b038082166000908152606b6020908152604080832060018101546001600160a01b03168452600581019092528220548154929384936104b292821691600160801b90910416610ba9565b6002820154825491945084916104e0916001600160801b03600160801b918290048116929190910416610ba9565b6104ea9190611359565b915050915091565b606a5460009081908190606090819086906001600160801b039081169082161061052e5760405162461bcd60e51b815260040161039990611381565b6001600160801b038088166000908152606b602090815260408083206001600160a01b038d16845260058101909252822080548254600160801b80830487169c5093959294936105849392831692910416610ba9565b82549091506001600160801b03600160801b9091048116908216116105ac57600097506105cb565b81546105c890600160801b90046001600160801b031682611359565b97505b60018301546001600160a01b03808d169116036105f05782546001600160801b031696505b6001600160a01b038b166000908152600684016020908152604080832080548251818502810185019093528083529192909190849084015b8282101561067157600084815260209081902060408051808201909152908401546001600160801b038082168352600160801b9091041681830152825260019092019101610628565b50508251929350829150506001600160401b03811115610693576106936113ac565b6040519080825280602002602001820160405280156106bc578160200160208202803683370190505b509750806001600160401b038111156106d7576106d76113ac565b604051908082528060200260200182016040528015610700578160200160208202803683370190505b50965060005b818110156107b857828181518110610720576107206113c2565b60200260200101516020015189828151811061073e5761073e6113c2565b60200260200101906001600160801b031690816001600160801b031681525050828181518110610770576107706113c2565b60200260200101516000015188828151811061078e5761078e6113c2565b6001600160801b0390921660209283029190910190910152806107b0816113d8565b915050610706565b505050505050509295509295909350565b6107d1610b4a565b6001600160a01b0381166108275760405162461bcd60e51b815260206004820152601f60248201527f496e76616c6964207265636f766572792077616c6c65742061646472657373006044820152606401610399565b6065546040516370a0823160e01b81526000916001600160a01b0316906370a08231906108589030906004016111d3565b602060405180830381865afa158015610875573d6000803e3d6000fd5b505050506040513d601f19601f8201168201806040525081019061089991906113f1565b60655460405191925082916001600160a01b03909116907f1564cce072d1d8284465e76f318392f40d5ed6cacd9de4a84451e7e025c6bff190600090a36065546108ed906001600160a01b03168383610bdb565b5050565b6108f9610b4a565b565b610903610b4a565b6108ed8282610c2d565b6033546001600160a01b031690565b606a54600090819083906001600160801b03908116908216106109515760405162461bcd60e51b815260040161039990611381565b5050506001600160801b039081166000908152606b6020908152604080832060018101546001600160a01b031684526005810190925290912054600290910154600160801b909104821692911690565b6109a9610b4a565b6040805160c08101825273e7ccfcc5815131b129c82322b4ba9e10b0159291815273122f83ae6b1677082f2541686b74ca55ebb1b58b602082015273db6ee35ddba6ab1f39d4a1369104a543e5de0e119181019190915273128e6bbaa2d269a7d26a3e3af13ea86943a05c24606082015273a312f7156a2f4290d53e5694afe44e9cc7f1b8116080820152731db596c09f5b37013b3cc263b9903d2474050f3f60a0820152600660005b81816001600160801b03161015610acc5760005b606a546001600160801b039081169082161015610ab957610aa78185846001600160801b031660068110610a9d57610a9d6113c2565b6020020151610c2d565b80610ab18161140a565b915050610a67565b5080610ac48161140a565b915050610a53565b505050565b610ad9610b4a565b6001600160a01b038116610b3e5760405162461bcd60e51b815260206004820152602660248201527f4f776e61626c653a206e6577206f776e657220697320746865207a65726f206160448201526564647265737360d01b6064820152608401610399565b610b4781610eea565b50565b33610b5361090d565b6001600160a01b0316146108f95760405162461bcd60e51b815260206004820181905260248201527f4f776e61626c653a2063616c6c6572206973206e6f7420746865206f776e65726044820152606401610399565b6000670de0b6b3a7640000610bca6001600160801b03808516908616611438565b610bd49190611457565b9392505050565b604080516001600160a01b038416602482015260448082018490528251808303909101815260649091019091526020810180516001600160e01b031663a9059cbb60e01b179052610acc908490610f3c565b606a5482906001600160801b0390811690821610610c5d5760405162461bcd60e51b815260040161039990611381565b6001600160801b0383166000908152606b602090815260408083206001600160a01b0380871680865260058301909452919093206001840154909291169003610ca7575050505050565b80548254600091610ccc916001600160801b0391821691600160801b90910416610ba9565b82546002850180549293506001600160801b03918216929091601091610cfb918591600160801b900416611359565b82546101009290920a6001600160801b038181021990931691831602179091558354600286018054600160801b9092048316935091600091610d3f91859116611359565b82546001600160801b039182166101009390930a92830291909202199091161790555060008083556001600160a01b0386168152600684016020908152604080832080548251818502810185019093528083529192909190849084015b82821015610de557600084815260209081902060408051808201909152908401546001600160801b038082168352600160801b9091041681830152825260019092019101610d9c565b5050825192935060009150505b81816001600160801b03161015610e495782816001600160801b031681518110610e1e57610e1e6113c2565b60200260200101516020015184610e359190611479565b935080610e418161140a565b915050610df2565b506001600160a01b03871660009081526006860160205260408120610e6d916111a1565b6040516001600160a01b038816906001600160801b038a16907fe0e17aaf7e5e93700670c4ec514b818327ef1f29af2bb13d1dbf5062e2bcae3390600090a36040516001600160801b038416907f2271025ead37498adb64f5677e2ec0f1946f7634fb8935b65ba93ac894c3c1da90600090a25050505050505050565b603380546001600160a01b038381166001600160a01b0319831681179093556040519116919082907f8be0079c531659141344cd1fd0a4f28419497f9722a3daafe3b4186f6b6457e090600090a35050565b6000610f91826040518060400160405280602081526020017f5361666545524332303a206c6f772d6c6576656c2063616c6c206661696c6564815250856001600160a01b03166110119092919063ffffffff16565b9050805160001480610fb2575080806020019051810190610fb291906114a4565b610acc5760405162461bcd60e51b815260206004820152602a60248201527f5361666545524332303a204552433230206f7065726174696f6e20646964206e6044820152691bdd081cdd58d8d9595960b21b6064820152608401610399565b60606110208484600085611028565b949350505050565b6060824710156110895760405162461bcd60e51b815260206004820152602660248201527f416464726573733a20696e73756666696369656e742062616c616e636520666f6044820152651c8818d85b1b60d21b6064820152608401610399565b600080866001600160a01b031685876040516110a591906114f6565b60006040518083038185875af1925050503d80600081146110e2576040519150601f19603f3d011682016040523d82523d6000602084013e6110e7565b606091505b50915091506110f887838387611103565b979650505050505050565b6060831561117257825160000361116b576001600160a01b0385163b61116b5760405162461bcd60e51b815260206004820152601d60248201527f416464726573733a2063616c6c20746f206e6f6e2d636f6e74726163740000006044820152606401610399565b5081611020565b61102083838151156111875781518083602001fd5b8060405162461bcd60e51b81526004016103999190611512565b5080546000825590600052602060002090810190610b4791905b808211156111cf57600081556001016111bb565b5090565b6001600160a01b0391909116815260200190565b80356001600160a01b03811681146111fe57600080fd5b919050565b60006020828403121561121557600080fd5b610bd4826111e7565b80356001600160801b03811681146111fe57600080fd5b60006020828403121561124757600080fd5b610bd48261121e565b6000806040838503121561126357600080fd5b61126c836111e7565b915061127a6020840161121e565b90509250929050565b600081518084526020808501945080840160005b838110156112bc5781516001600160801b031687529582019590820190600101611297565b509495945050505050565b6001600160801b03868116825285811660208301528416604082015260a0606082018190526000906112fb90830185611283565b828103608084015261130d8185611283565b98975050505050505050565b6000806040838503121561132c57600080fd5b6113358361121e565b915061127a602084016111e7565b634e487b7160e01b600052601160045260246000fd5b60006001600160801b038381169083168181101561137957611379611343565b039392505050565b60208082526011908201527024b73b30b634b2103b30b634b230ba37b960791b604082015260600190565b634e487b7160e01b600052604160045260246000fd5b634e487b7160e01b600052603260045260246000fd5b6000600182016113ea576113ea611343565b5060010190565b60006020828403121561140357600080fd5b5051919050565b60006001600160801b038281166002600160801b0319810161142e5761142e611343565b6001019392505050565b600081600019048311821515161561145257611452611343565b500290565b60008261147457634e487b7160e01b600052601260045260246000fd5b500490565b60006001600160801b0382811684821680830382111561149b5761149b611343565b01949350505050565b6000602082840312156114b657600080fd5b81518015158114610bd457600080fd5b60005b838110156114e15781810151838201526020016114c9565b838111156114f0576000848401525b50505050565b600082516115088184602087016114c6565b9190910192915050565b60208152600082518060208401526115318160408501602087016114c6565b601f01601f1916919091016040019291505056fea264697066735822122002577d522e43707e3443be353b62740084c6242e8ed2503e43bfe86849ab6a9864736f6c634300080d0033",
  "linkReferences": {},
  "deployedLinkReferences": {}
}