{
  "_format": "hh-sol-artifact-1",
  "contractName": "OperationalStaking",
  "sourceName": "contracts/OperationalStaking.sol",
  "abi": [
    {
      "anonymous": false,
      "inputs": [
        {
          "indexed": false,
          "internalType": "uint128",
          "name": "amount",
          "type": "uint128"
        }
      ],
      "name": "AllocatedTokensTaken",
      "type": "event"
    },
    {
      "anonymous": false,
      "inputs": [
        {
          "indexed": true,
          "internalType": "uint128",
          "name": "validatorId",
          "type": "uint128"
        },
        {
          "indexed": true,
          "internalType": "address",
          "name": "beneficiary",
          "type": "address"
        },
        {
          "indexed": false,
          "internalType": "uint128",
          "name": "amount",
          "type": "uint128"
        }
      ],
      "name": "CommissionRewardRedeemed",
      "type": "event"
    },
    {
      "anonymous": false,
      "inputs": [
        {
          "indexed": false,
          "internalType": "address",
          "name": "cqt",
          "type": "address"
        },
        {
          "indexed": false,
          "internalType": "uint128",
          "name": "validatorCoolDown",
          "type": "uint128"
        },
        {
          "indexed": false,
          "internalType": "uint128",
          "name": "delegatorCoolDown",
          "type": "uint128"
        },
        {
          "indexed": false,
          "internalType": "uint128",
          "name": "maxCapMultiplier",
          "type": "uint128"
        },
        {
          "indexed": false,
          "internalType": "uint128",
          "name": "validatorMaxStake",
          "type": "uint128"
        }
      ],
      "name": "Initialized",
      "type": "event"
    },
    {
      "anonymous": false,
      "inputs": [
        {
          "indexed": false,
          "internalType": "uint128",
          "name": "newMaxCapMultiplier",
          "type": "uint128"
        }
      ],
      "name": "MaxCapMultiplierChanged",
      "type": "event"
    },
    {
      "anonymous": false,
      "inputs": [
        {
          "indexed": true,
          "internalType": "address",
          "name": "previousOwner",
          "type": "address"
        },
        {
          "indexed": true,
          "internalType": "address",
          "name": "newOwner",
          "type": "address"
        }
      ],
      "name": "OwnershipTransferred",
      "type": "event"
    },
    {
      "anonymous": false,
      "inputs": [
        {
          "indexed": true,
          "internalType": "uint128",
          "name": "validatorId",
          "type": "uint128"
        },
        {
          "indexed": true,
          "internalType": "address",
          "name": "delegator",
          "type": "address"
        },
        {
          "indexed": false,
          "internalType": "uint128",
          "name": "amount",
          "type": "uint128"
        },
        {
          "indexed": false,
          "internalType": "uint128",
          "name": "unstakingId",
          "type": "uint128"
        }
      ],
      "name": "RecoveredUnstake",
      "type": "event"
    },
    {
      "anonymous": false,
      "inputs": [
        {
          "indexed": true,
          "internalType": "uint128",
          "name": "oldValidatorId",
          "type": "uint128"
        },
        {
          "indexed": true,
          "internalType": "uint128",
          "name": "newValidatorId",
          "type": "uint128"
        },
        {
          "indexed": true,
          "internalType": "address",
          "name": "delegator",
          "type": "address"
        },
        {
          "indexed": false,
          "internalType": "uint128",
          "name": "amount",
          "type": "uint128"
        },
        {
          "indexed": false,
          "internalType": "uint128",
          "name": "unstakingId",
          "type": "uint128"
        }
      ],
      "name": "Redelegated",
      "type": "event"
    },
    {
      "anonymous": false,
      "inputs": [
        {
          "indexed": true,
          "internalType": "uint128",
          "name": "validatorId",
          "type": "uint128"
        },
        {
          "indexed": false,
          "internalType": "uint128",
          "name": "amount",
          "type": "uint128"
        }
      ],
      "name": "RewardFailedDueLowPool",
      "type": "event"
    },
    {
      "anonymous": false,
      "inputs": [
        {
          "indexed": true,
          "internalType": "uint128",
          "name": "validatorId",
          "type": "uint128"
        },
        {
          "indexed": false,
          "internalType": "uint128",
          "name": "amount",
          "type": "uint128"
        }
      ],
      "name": "RewardFailedDueZeroStake",
      "type": "event"
    },
    {
      "anonymous": false,
      "inputs": [
        {
          "indexed": true,
          "internalType": "uint128",
          "name": "validatorId",
          "type": "uint128"
        },
        {
          "indexed": true,
          "internalType": "address",
          "name": "beneficiary",
          "type": "address"
        },
        {
          "indexed": false,
          "internalType": "uint128",
          "name": "amount",
          "type": "uint128"
        }
      ],
      "name": "RewardRedeemed",
      "type": "event"
    },
    {
      "anonymous": false,
      "inputs": [
        {
          "indexed": false,
          "internalType": "uint128",
          "name": "amount",
          "type": "uint128"
        }
      ],
      "name": "RewardTokensDeposited",
      "type": "event"
    },
    {
      "anonymous": false,
      "inputs": [
        {
          "indexed": true,
          "internalType": "uint128",
          "name": "validatorId",
          "type": "uint128"
        },
        {
          "indexed": false,
          "internalType": "address",
          "name": "delegator",
          "type": "address"
        },
        {
          "indexed": false,
          "internalType": "uint128",
          "name": "amount",
          "type": "uint128"
        }
      ],
      "name": "Staked",
      "type": "event"
    },
    {
      "anonymous": false,
      "inputs": [
        {
          "indexed": true,
          "internalType": "address",
          "name": "operationalManager",
          "type": "address"
        }
      ],
      "name": "StakingManagerAddressChanged",
      "type": "event"
    },
    {
      "anonymous": false,
      "inputs": [
        {
          "indexed": true,
          "internalType": "uint128",
          "name": "validatorId",
          "type": "uint128"
        },
        {
          "indexed": true,
          "internalType": "address",
          "name": "delegator",
          "type": "address"
        },
        {
          "indexed": true,
          "internalType": "uint128",
          "name": "unstakeId",
          "type": "uint128"
        },
        {
          "indexed": false,
          "internalType": "uint128",
          "name": "amount",
          "type": "uint128"
        }
      ],
      "name": "UnstakeRedeemed",
      "type": "event"
    },
    {
      "anonymous": false,
      "inputs": [
        {
          "indexed": true,
          "internalType": "uint128",
          "name": "validatorId",
          "type": "uint128"
        },
        {
          "indexed": true,
          "internalType": "address",
          "name": "delegator",
          "type": "address"
        },
        {
          "indexed": false,
          "internalType": "uint128",
          "name": "amount",
          "type": "uint128"
        },
        {
          "indexed": false,
          "internalType": "uint128",
          "name": "unstakeId",
          "type": "uint128"
        }
      ],
      "name": "Unstaked",
      "type": "event"
    },
    {
      "anonymous": false,
      "inputs": [
        {
          "indexed": true,
          "internalType": "uint128",
          "name": "id",
          "type": "uint128"
        },
        {
          "indexed": false,
          "internalType": "uint128",
          "name": "commissionRate",
          "type": "uint128"
        },
        {
          "indexed": true,
          "internalType": "address",
          "name": "validator",
          "type": "address"
        }
      ],
      "name": "ValidatorAdded",
      "type": "event"
    },
    {
      "anonymous": false,
      "inputs": [
        {
          "indexed": true,
          "internalType": "uint128",
          "name": "validatorId",
          "type": "uint128"
        },
        {
          "indexed": true,
          "internalType": "address",
          "name": "newAddress",
          "type": "address"
        }
      ],
      "name": "ValidatorAddressChanged",
      "type": "event"
    },
    {
      "anonymous": false,
      "inputs": [
        {
          "indexed": true,
          "internalType": "uint128",
          "name": "validatorId",
          "type": "uint128"
        },
        {
          "indexed": false,
          "internalType": "uint128",
          "name": "amount",
          "type": "uint128"
        }
      ],
      "name": "ValidatorCommissionRateChanged",
      "type": "event"
    },
    {
      "anonymous": false,
      "inputs": [
        {
          "indexed": true,
          "internalType": "uint128",
          "name": "validatorId",
          "type": "uint128"
        },
        {
          "indexed": false,
          "internalType": "uint256",
          "name": "blockNumber",
          "type": "uint256"
        }
      ],
      "name": "ValidatorDisabled",
      "type": "event"
    },
    {
      "anonymous": false,
      "inputs": [
        {
          "indexed": true,
          "internalType": "uint128",
          "name": "validatorId",
          "type": "uint128"
        }
      ],
      "name": "ValidatorEnabled",
      "type": "event"
    },
    {
      "anonymous": false,
      "inputs": [
        {
          "indexed": false,
          "internalType": "uint128",
          "name": "amount",
          "type": "uint128"
        }
      ],
      "name": "ValidatorMaxCapChanged",
      "type": "event"
    },
    {
      "inputs": [],
      "name": "CQT",
      "outputs": [
        {
          "internalType": "contract IERC20Upgradeable",
          "name": "",
          "type": "address"
        }
      ],
      "stateMutability": "view",
      "type": "function"
    },
    {
      "inputs": [],
      "name": "DIVIDER",
      "outputs": [
        {
          "internalType": "uint256",
          "name": "",
          "type": "uint256"
        }
      ],
      "stateMutability": "view",
      "type": "function"
    },
    {
      "inputs": [],
      "name": "REWARD_REDEEM_THRESHOLD",
      "outputs": [
        {
          "internalType": "uint128",
          "name": "",
          "type": "uint128"
        }
      ],
      "stateMutability": "view",
      "type": "function"
    },
    {
      "inputs": [
        {
          "internalType": "address",
          "name": "validator",
          "type": "address"
        },
        {
          "internalType": "uint128",
          "name": "commissionRate",
          "type": "uint128"
        }
      ],
      "name": "addValidator",
      "outputs": [
        {
          "internalType": "uint256",
          "name": "id",
          "type": "uint256"
        }
      ],
      "stateMutability": "nonpayable",
      "type": "function"
    },
    {
      "inputs": [],
      "name": "delegatorCoolDown",
      "outputs": [
        {
          "internalType": "uint128",
          "name": "",
          "type": "uint128"
        }
      ],
      "stateMutability": "view",
      "type": "function"
    },
    {
      "inputs": [
        {
          "internalType": "uint128",
          "name": "amount",
          "type": "uint128"
        }
      ],
      "name": "depositRewardTokens",
      "outputs": [],
      "stateMutability": "nonpayable",
      "type": "function"
    },
    {
      "inputs": [
        {
          "internalType": "uint128",
          "name": "validatorId",
          "type": "uint128"
        },
        {
          "internalType": "uint256",
          "name": "blockNumber",
          "type": "uint256"
        }
      ],
      "name": "disableValidator",
      "outputs": [],
      "stateMutability": "nonpayable",
      "type": "function"
    },
    {
      "inputs": [
        {
          "internalType": "uint128",
          "name": "validatorId",
          "type": "uint128"
        }
      ],
      "name": "enableValidator",
      "outputs": [],
      "stateMutability": "nonpayable",
      "type": "function"
    },
    {
      "inputs": [],
      "name": "getAllValidatorsMetadata",
      "outputs": [
        {
          "internalType": "address[]",
          "name": "addresses",
          "type": "address[]"
        },
        {
          "internalType": "uint128[]",
          "name": "staked",
          "type": "uint128[]"
        },
        {
          "internalType": "uint128[]",
          "name": "delegated",
          "type": "uint128[]"
        },
        {
          "internalType": "uint128[]",
          "name": "commissionRates",
          "type": "uint128[]"
        },
        {
          "internalType": "uint256[]",
          "name": "disabledAtBlocks",
          "type": "uint256[]"
        }
      ],
      "stateMutability": "view",
      "type": "function"
    },
    {
      "inputs": [
        {
          "internalType": "address",
          "name": "delegator",
          "type": "address"
        },
        {
          "internalType": "uint128",
          "name": "validatorId",
          "type": "uint128"
        }
      ],
      "name": "getDelegatorMetadata",
      "outputs": [
        {
          "internalType": "uint128",
          "name": "staked",
          "type": "uint128"
        },
        {
          "internalType": "uint128",
          "name": "rewards",
          "type": "uint128"
        },
        {
          "internalType": "uint128",
          "name": "commissionEarned",
          "type": "uint128"
        },
        {
          "internalType": "uint128[]",
          "name": "unstakingAmounts",
          "type": "uint128[]"
        },
        {
          "internalType": "uint128[]",
          "name": "unstakingsEndEpochs",
          "type": "uint128[]"
        }
      ],
      "stateMutability": "view",
      "type": "function"
    },
    {
      "inputs": [],
      "name": "getMetadata",
      "outputs": [
        {
          "internalType": "address",
          "name": "CQTaddress",
          "type": "address"
        },
        {
          "internalType": "address",
          "name": "_stakingManager",
          "type": "address"
        },
        {
          "internalType": "uint128",
          "name": "_validatorsN",
          "type": "uint128"
        },
        {
          "internalType": "uint128",
          "name": "_rewardPool",
          "type": "uint128"
        },
        {
          "internalType": "uint128",
          "name": "_validatorCoolDown",
          "type": "uint128"
        },
        {
          "internalType": "uint128",
          "name": "_delegatorCoolDown",
          "type": "uint128"
        },
        {
          "internalType": "uint128",
          "name": "_maxCapMultiplier",
          "type": "uint128"
        },
        {
          "internalType": "uint128",
          "name": "_validatorMaxStake",
          "type": "uint128"
        }
      ],
      "stateMutability": "view",
      "type": "function"
    },
    {
      "inputs": [
        {
          "internalType": "uint128",
          "name": "validatorId",
          "type": "uint128"
        }
      ],
      "name": "getValidatorCompoundedStakingData",
      "outputs": [
        {
          "internalType": "uint128",
          "name": "staked",
          "type": "uint128"
        },
        {
          "internalType": "uint128",
          "name": "delegated",
          "type": "uint128"
        }
      ],
      "stateMutability": "view",
      "type": "function"
    },
    {
      "inputs": [
        {
          "internalType": "uint128",
          "name": "validatorId",
          "type": "uint128"
        }
      ],
      "name": "getValidatorMetadata",
      "outputs": [
        {
          "internalType": "address",
          "name": "_address",
          "type": "address"
        },
        {
          "internalType": "uint128",
          "name": "staked",
          "type": "uint128"
        },
        {
          "internalType": "uint128",
          "name": "delegated",
          "type": "uint128"
        },
        {
          "internalType": "uint128",
          "name": "commissionRate",
          "type": "uint128"
        },
        {
          "internalType": "uint256",
          "name": "disabledAtBlock",
          "type": "uint256"
        }
      ],
      "stateMutability": "view",
      "type": "function"
    },
    {
      "inputs": [
        {
          "internalType": "uint128",
          "name": "validatorId",
          "type": "uint128"
        }
      ],
      "name": "getValidatorStakingData",
      "outputs": [
        {
          "internalType": "uint128",
          "name": "staked",
          "type": "uint128"
        },
        {
          "internalType": "uint128",
          "name": "delegated",
          "type": "uint128"
        }
      ],
      "stateMutability": "view",
      "type": "function"
    },
    {
      "inputs": [
        {
          "internalType": "uint128",
          "name": "startId",
          "type": "uint128"
        },
        {
          "internalType": "uint128",
          "name": "endId",
          "type": "uint128"
        }
      ],
      "name": "getValidatorsMetadata",
      "outputs": [
        {
          "internalType": "address[]",
          "name": "addresses",
          "type": "address[]"
        },
        {
          "internalType": "uint128[]",
          "name": "staked",
          "type": "uint128[]"
        },
        {
          "internalType": "uint128[]",
          "name": "delegated",
          "type": "uint128[]"
        },
        {
          "internalType": "uint128[]",
          "name": "commissionRates",
          "type": "uint128[]"
        },
        {
          "internalType": "uint256[]",
          "name": "disabledAtBlocks",
          "type": "uint256[]"
        }
      ],
      "stateMutability": "view",
      "type": "function"
    },
    {
      "inputs": [
        {
          "internalType": "address",
          "name": "cqt",
          "type": "address"
        },
        {
          "internalType": "uint128",
          "name": "dCoolDown",
          "type": "uint128"
        },
        {
          "internalType": "uint128",
          "name": "vCoolDown",
          "type": "uint128"
        },
        {
          "internalType": "uint128",
          "name": "maxCapM",
          "type": "uint128"
        },
        {
          "internalType": "uint128",
          "name": "vMaxStake",
          "type": "uint128"
        }
      ],
      "name": "initialize",
      "outputs": [],
      "stateMutability": "nonpayable",
      "type": "function"
    },
    {
      "inputs": [],
      "name": "maxCapMultiplier",
      "outputs": [
        {
          "internalType": "uint128",
          "name": "",
          "type": "uint128"
        }
      ],
      "stateMutability": "view",
      "type": "function"
    },
    {
      "inputs": [],
      "name": "owner",
      "outputs": [
        {
          "internalType": "address",
          "name": "",
          "type": "address"
        }
      ],
      "stateMutability": "view",
      "type": "function"
    },
    {
      "inputs": [
        {
          "internalType": "uint128",
          "name": "amount",
          "type": "uint128"
        },
        {
          "internalType": "uint128",
          "name": "validatorId",
          "type": "uint128"
        },
        {
          "internalType": "uint128",
          "name": "unstakingId",
          "type": "uint128"
        }
      ],
      "name": "recoverUnstaking",
      "outputs": [],
      "stateMutability": "nonpayable",
      "type": "function"
    },
    {
      "inputs": [
        {
          "internalType": "uint128",
          "name": "validatorId",
          "type": "uint128"
        },
        {
          "internalType": "address",
          "name": "beneficiary",
          "type": "address"
        }
      ],
      "name": "redeemAllCommission",
      "outputs": [],
      "stateMutability": "nonpayable",
      "type": "function"
    },
    {
      "inputs": [
        {
          "internalType": "uint128",
          "name": "validatorId",
          "type": "uint128"
        },
        {
          "internalType": "address",
          "name": "beneficiary",
          "type": "address"
        }
      ],
      "name": "redeemAllRewards",
      "outputs": [],
      "stateMutability": "nonpayable",
      "type": "function"
    },
    {
      "inputs": [
        {
          "internalType": "uint128",
          "name": "validatorId",
          "type": "uint128"
        },
        {
          "internalType": "address",
          "name": "beneficiary",
          "type": "address"
        },
        {
          "internalType": "uint128",
          "name": "amount",
          "type": "uint128"
        }
      ],
      "name": "redeemCommission",
      "outputs": [],
      "stateMutability": "nonpayable",
      "type": "function"
    },
    {
      "inputs": [
        {
          "internalType": "uint128",
          "name": "validatorId",
          "type": "uint128"
        },
        {
          "internalType": "address",
          "name": "beneficiary",
          "type": "address"
        },
        {
          "internalType": "uint128",
          "name": "amount",
          "type": "uint128"
        }
      ],
      "name": "redeemRewards",
      "outputs": [],
      "stateMutability": "nonpayable",
      "type": "function"
    },
    {
      "inputs": [
        {
          "internalType": "uint128",
          "name": "amount",
          "type": "uint128"
        },
        {
          "internalType": "uint128",
          "name": "oldValidatorId",
          "type": "uint128"
        },
        {
          "internalType": "uint128",
          "name": "newValidatorId",
          "type": "uint128"
        },
        {
          "internalType": "uint128",
          "name": "unstakingId",
          "type": "uint128"
        }
      ],
      "name": "redelegateUnstaked",
      "outputs": [],
      "stateMutability": "nonpayable",
      "type": "function"
    },
    {
      "inputs": [],
      "name": "renounceOwnership",
      "outputs": [],
      "stateMutability": "nonpayable",
      "type": "function"
    },
    {
      "inputs": [],
      "name": "rewardPool",
      "outputs": [
        {
          "internalType": "uint128",
          "name": "",
          "type": "uint128"
        }
      ],
      "stateMutability": "view",
      "type": "function"
    },
    {
      "inputs": [
        {
          "internalType": "uint128[]",
          "name": "ids",
          "type": "uint128[]"
        },
        {
          "internalType": "uint128[]",
          "name": "amounts",
          "type": "uint128[]"
        }
      ],
      "name": "rewardValidators",
      "outputs": [],
      "stateMutability": "nonpayable",
      "type": "function"
    },
    {
      "inputs": [
        {
          "internalType": "uint128",
          "name": "newMaxCapMultiplier",
          "type": "uint128"
        }
      ],
      "name": "setMaxCapMultiplier",
      "outputs": [],
      "stateMutability": "nonpayable",
      "type": "function"
    },
    {
      "inputs": [
        {
          "internalType": "address",
          "name": "newAddress",
          "type": "address"
        }
      ],
      "name": "setStakingManagerAddress",
      "outputs": [],
      "stateMutability": "nonpayable",
      "type": "function"
    },
    {
      "inputs": [
        {
          "internalType": "uint128",
          "name": "validatorId",
          "type": "uint128"
        },
        {
          "internalType": "address",
          "name": "newAddress",
          "type": "address"
        }
      ],
      "name": "setValidatorAddress",
      "outputs": [],
      "stateMutability": "nonpayable",
      "type": "function"
    },
    {
      "inputs": [
        {
          "internalType": "uint128",
          "name": "validatorId",
          "type": "uint128"
        },
        {
          "internalType": "uint128",
          "name": "amount",
          "type": "uint128"
        }
      ],
      "name": "setValidatorCommissionRate",
      "outputs": [],
      "stateMutability": "nonpayable",
      "type": "function"
    },
    {
      "inputs": [
        {
          "internalType": "uint128",
          "name": "maxStake",
          "type": "uint128"
        }
      ],
      "name": "setValidatorMaxStake",
      "outputs": [],
      "stateMutability": "nonpayable",
      "type": "function"
    },
    {
      "inputs": [
        {
          "internalType": "uint128",
          "name": "validatorId",
          "type": "uint128"
        },
        {
          "internalType": "uint128",
          "name": "amount",
          "type": "uint128"
        }
      ],
      "name": "stake",
      "outputs": [],
      "stateMutability": "nonpayable",
      "type": "function"
    },
    {
      "inputs": [],
      "name": "stakingManager",
      "outputs": [
        {
          "internalType": "address",
          "name": "",
          "type": "address"
        }
      ],
      "stateMutability": "view",
      "type": "function"
    },
    {
      "inputs": [
        {
          "internalType": "uint128",
          "name": "amount",
          "type": "uint128"
        }
      ],
      "name": "takeOutRewardTokens",
      "outputs": [],
      "stateMutability": "nonpayable",
      "type": "function"
    },
    {
      "inputs": [
        {
          "internalType": "address",
          "name": "newOwner",
          "type": "address"
        }
      ],
      "name": "transferOwnership",
      "outputs": [],
      "stateMutability": "nonpayable",
      "type": "function"
    },
    {
      "inputs": [
        {
          "internalType": "uint128",
          "name": "amount",
          "type": "uint128"
        },
        {
          "internalType": "uint128",
          "name": "validatorId",
          "type": "uint128"
        },
        {
          "internalType": "uint128",
          "name": "unstakingId",
          "type": "uint128"
        }
      ],
      "name": "transferUnstakedOut",
      "outputs": [],
      "stateMutability": "nonpayable",
      "type": "function"
    },
    {
      "inputs": [
        {
          "internalType": "uint128",
          "name": "validatorId",
          "type": "uint128"
        },
        {
          "internalType": "uint128",
          "name": "amount",
          "type": "uint128"
        }
      ],
      "name": "unstake",
      "outputs": [],
      "stateMutability": "nonpayable",
      "type": "function"
    },
    {
      "inputs": [],
      "name": "validatorCoolDown",
      "outputs": [
        {
          "internalType": "uint128",
          "name": "",
          "type": "uint128"
        }
      ],
      "stateMutability": "view",
      "type": "function"
    },
    {
      "inputs": [],
      "name": "validatorMaxStake",
      "outputs": [
        {
          "internalType": "uint128",
          "name": "",
          "type": "uint128"
        }
      ],
      "stateMutability": "view",
      "type": "function"
    },
    {
      "inputs": [],
      "name": "validatorsN",
      "outputs": [
        {
          "internalType": "uint128",
          "name": "",
          "type": "uint128"
        }
      ],
      "stateMutability": "view",
      "type": "function"
    }
  ],
  "bytecode": "0x608060405234801561001057600080fd5b50615eeb80620000216000396000f3fe608060405234801561001057600080fd5b50600436106102d35760003560e01c8063715018a6116101865780639ea05077116100e3578063ad9e91ee11610097578063edff4b6111610071578063edff4b611461078d578063f1aa0c65146107a0578063f2fde38b146107b357600080fd5b8063ad9e91ee1461074b578063dfc50f651461075e578063eabc89d71461077a57600080fd5b8063a2e7e441116100c8578063a2e7e44114610712578063a3e89bac14610725578063a50481f11461073857600080fd5b80639ea05077146106e35780639f10816f146106f657600080fd5b80638a8103241161013a5780638da5cb5b1161011f5780638da5cb5b1461069f57806391609449146106bd5780639860fa25146106d057600080fd5b80638a810324146106705780638b877db21461068c57600080fd5b80638459ec681161016b5780638459ec68146105e057806387326a0c146105f3578063884ef0aa1461065d57600080fd5b8063715018a6146105405780637a5b4f591461054857600080fd5b8063445c81d71161023457806362043bd8116101e8578063650de76b116101cd578063650de76b146104e157806366666aa9146105115780636cb4ded31461052d57600080fd5b806362043bd8146104b15780636459db95146104ce57600080fd5b806353b749221161021957806353b749221461044a5780635b2167231461047a578063605a50171461049e57600080fd5b8063445c81d7146103fb5780634c4a17091461040e57600080fd5b806322828cc21161028b57806337e15bce1161027057806337e15bce146103c25780633a64440b146103d557806340e7e9f0146103e857600080fd5b806322828cc21461038f5780632a019e6f146103af57600080fd5b80630b56a2bc116102bc5780630b56a2bc1461031e5780630f04adfe1461033757806317c2b0a91461037c57600080fd5b806307fd8763146102d857806309991223146102ed575b600080fd5b6102eb6102e636600461579c565b6107c6565b005b6102f86305f5e10081565b6040516fffffffffffffffffffffffffffffffff90911681526020015b60405180910390f35b6103266107d6565b60405161031595949392919061584c565b6065546103579073ffffffffffffffffffffffffffffffffffffffff1681565b60405173ffffffffffffffffffffffffffffffffffffffff9091168152602001610315565b6102eb61038a36600461579c565b610818565b6069546103579073ffffffffffffffffffffffffffffffffffffffff1681565b6102eb6103bd36600461591c565b610a31565b6102eb6103d036600461595f565b610abd565b6102eb6103e336600461597a565b610c2a565b6102eb6103f63660046159a6565b610f7f565b6102eb6104093660046159fa565b6113d5565b61042161041c366004615a24565b6118fb565b604080516fffffffffffffffffffffffffffffffff938416815292909116602083015201610315565b6066546102f89070010000000000000000000000000000000090046fffffffffffffffffffffffffffffffff1681565b61048d610488366004615a3f565b6119c5565b604051610315959493929190615a5b565b6102eb6104ac366004615af6565b611d94565b6104c0670de0b6b3a764000081565b604051908152602001610315565b6102eb6104dc3660046159fa565b6121e0565b6067546102f89070010000000000000000000000000000000090046fffffffffffffffffffffffffffffffff1681565b6066546102f8906fffffffffffffffffffffffffffffffff1681565b6102eb61053b366004615a24565b612211565b6102eb612379565b606554606954606a546066546067546068546040805173ffffffffffffffffffffffffffffffffffffffff97881681529690951660208701526fffffffffffffffffffffffffffffffff938416948601949094528282166060860152700100000000000000000000000000000000918290048316608086015282811660a086015204811660c08401521660e082015261010001610315565b6102eb6105ee3660046159fa565b6123fc565b610606610601366004615a24565b612408565b6040805173ffffffffffffffffffffffffffffffffffffffff90961686526fffffffffffffffffffffffffffffffff948516602087015292841692850192909252919091166060830152608082015260a001610315565b6102eb61066b36600461597a565b61251f565b606a546102f8906fffffffffffffffffffffffffffffffff1681565b6102eb61069a366004615a24565b6127f2565b60335473ffffffffffffffffffffffffffffffffffffffff16610357565b6102eb6106cb36600461579c565b6129f7565b6104216106de366004615a24565b612f85565b6102eb6106f1366004615a24565b613080565b6068546102f8906fffffffffffffffffffffffffffffffff1681565b6104c0610720366004615a3f565b6131ec565b61032661073336600461579c565b6134de565b6102eb610746366004615b62565b61395a565b6102eb610759366004615bc7565b613b86565b6067546102f8906fffffffffffffffffffffffffffffffff1681565b6102eb61078836600461591c565b613d4d565b6102eb61079b366004615a24565b614168565b6102eb6107ae366004615a24565b6142bd565b6102eb6107c136600461595f565b614448565b6107d282826001614575565b5050565b60608060608060606108076000606a60009054906101000a90046fffffffffffffffffffffffffffffffff166134de565b945094509450945094509091929394565b60335473ffffffffffffffffffffffffffffffffffffffff16331461089e576040517f08c379a000000000000000000000000000000000000000000000000000000000815260206004820181905260248201527f4f776e61626c653a2063616c6c6572206973206e6f7420746865206f776e657260448201526064015b60405180910390fd5b606a5482906fffffffffffffffffffffffffffffffff90811690821610610921576040517f08c379a000000000000000000000000000000000000000000000000000000000815260206004820152601160248201527f496e76616c69642076616c696461746f720000000000000000000000000000006044820152606401610895565b670de0b6b3a7640000826fffffffffffffffffffffffffffffffff16106109a4576040517f08c379a000000000000000000000000000000000000000000000000000000000815260206004820152601b60248201527f52617465206d757374206265206c657373207468616e203130302500000000006044820152606401610895565b6fffffffffffffffffffffffffffffffff8381166000818152606b602090815260409182902060030180547fffffffffffffffffffffffffffffffff00000000000000000000000000000000169487169485179055905192835290917f0f8cc456c84d934a2b1eb24d7b56c2304c9e61aed06c7e67aa5167ff06c0bc6591015b60405180910390a2505050565b6000816fffffffffffffffffffffffffffffffff1611610aad576040517f08c379a000000000000000000000000000000000000000000000000000000000815260206004820152600b60248201527f416d6f756e7420697320300000000000000000000000000000000000000000006044820152606401610895565b610ab8838383614b5a565b505050565b60335473ffffffffffffffffffffffffffffffffffffffff163314610b3e576040517f08c379a000000000000000000000000000000000000000000000000000000000815260206004820181905260248201527f4f776e61626c653a2063616c6c6572206973206e6f7420746865206f776e65726044820152606401610895565b73ffffffffffffffffffffffffffffffffffffffff8116610bbb576040517f08c379a000000000000000000000000000000000000000000000000000000000815260206004820152600f60248201527f496e76616c6964206164647265737300000000000000000000000000000000006044820152606401610895565b606980547fffffffffffffffffffffffff00000000000000000000000000000000000000001673ffffffffffffffffffffffffffffffffffffffff83169081179091556040517f806e006f6f107ac370f162bdeec43a7db0f2d47ca85ba3da932d442771912a3590600090a250565b606a5482906fffffffffffffffffffffffffffffffff90811690821610610cad576040517f08c379a000000000000000000000000000000000000000000000000000000000815260206004820152601160248201527f496e76616c69642076616c696461746f720000000000000000000000000000006044820152606401610895565b6fffffffffffffffffffffffffffffffff8381166000908152606b6020908152604080832033845260060190915290205490831610610d48576040517f08c379a000000000000000000000000000000000000000000000000000000000815260206004820152601860248201527f556e7374616b696e6720646f6573206e6f7420657869737400000000000000006044820152606401610895565b6fffffffffffffffffffffffffffffffff8084166000908152606b602090815260408083203384526006019091528120805491929091908516908110610d9057610d90615bf1565b600091825260209091200180549091506fffffffffffffffffffffffffffffffff9081164390911611610e1f576040517f08c379a000000000000000000000000000000000000000000000000000000000815260206004820152601d60248201527f436f6f6c646f776e20706572696f6420686173206e6f7420656e6465640000006044820152606401610895565b80546fffffffffffffffffffffffffffffffff808716700100000000000000000000000000000000909204161015610eb3576040517f08c379a000000000000000000000000000000000000000000000000000000000815260206004820152601260248201527f416d6f756e7420697320746f6f206869676800000000000000000000000000006044820152606401610895565b80546fffffffffffffffffffffffffffffffff80821670010000000000000000000000000000000092839004821688900382168302178084559190910416600003610f1f5780547fffffffffffffffffffffffffffffffff000000000000000000000000000000001681555b6040516fffffffffffffffffffffffffffffffff86811682528085169133918716907fa907b4e09e37315c70c013b1855950857585ae1efd206f344d5507f3b7a440d79060200160405180910390a4610f783386615068565b5050505050565b606a5483906fffffffffffffffffffffffffffffffff90811690821610611002576040517f08c379a000000000000000000000000000000000000000000000000000000000815260206004820152601160248201527f496e76616c69642076616c696461746f720000000000000000000000000000006044820152606401610895565b606a5483906fffffffffffffffffffffffffffffffff90811690821610611085576040517f08c379a000000000000000000000000000000000000000000000000000000000815260206004820152601160248201527f496e76616c69642076616c696461746f720000000000000000000000000000006044820152606401610895565b6fffffffffffffffffffffffffffffffff85166000908152606b602052604081206004810154909103611114576040517f08c379a000000000000000000000000000000000000000000000000000000000815260206004820152601960248201527f56616c696461746f72206973206e6f742064697361626c6564000000000000006044820152606401610895565b60018101543373ffffffffffffffffffffffffffffffffffffffff90911603611199576040517f08c379a000000000000000000000000000000000000000000000000000000000815260206004820152601b60248201527f56616c696461746f722063616e6e6f7420726564656c656761746500000000006044820152606401610895565b3360009081526006820160205260409020546fffffffffffffffffffffffffffffffff851610611225576040517f08c379a000000000000000000000000000000000000000000000000000000000815260206004820152601860248201527f556e7374616b696e6720646f6573206e6f7420657869737400000000000000006044820152606401610895565b336000908152600682016020526040812080546fffffffffffffffffffffffffffffffff871690811061125a5761125a615bf1565b600091825260209091200180549091506fffffffffffffffffffffffffffffffff808a167001000000000000000000000000000000009092041610156112fc576040517f08c379a000000000000000000000000000000000000000000000000000000000815260206004820152601960248201527f556e7374616b696e6720686173206c65737320746f6b656e73000000000000006044820152606401610895565b80546fffffffffffffffffffffffffffffffff8082167001000000000000000000000000000000009283900482168b9003821683021780845591909104166000036113685780547fffffffffffffffffffffffffffffffff000000000000000000000000000000001681555b604080516fffffffffffffffffffffffffffffffff8a8116825287811660208301523392818a1692918b16917fad667f96915cdefb4384b6fc59780e6f35a72cffecee152d5b83c2ec4bd16e3a910160405180910390a46113cb86896000614575565b5050505050505050565b6fffffffffffffffffffffffffffffffff82166000908152606b60205260409020600181015473ffffffffffffffffffffffffffffffffffffffff163314611479576040517f08c379a000000000000000000000000000000000000000000000000000000000815260206004820152601b60248201527f53656e646572206973206e6f74207468652076616c696461746f7200000000006044820152606401610895565b600181015473ffffffffffffffffffffffffffffffffffffffff80841691160361152757604080517f08c379a00000000000000000000000000000000000000000000000000000000081526020600482015260248101919091527f546865206e657720616464726573732063616e6e6f7420626520657175616c2060448201527f746f207468652063757272656e742076616c696461746f7220616464726573736064820152608401610895565b73ffffffffffffffffffffffffffffffffffffffff82166115a4576040517f08c379a000000000000000000000000000000000000000000000000000000000815260206004820152601960248201527f496e76616c69642076616c696461746f722061646472657373000000000000006044820152606401610895565b3360009081526005820160205260408082205473ffffffffffffffffffffffffffffffffffffffff8516835290822080546fffffffffffffffffffffffffffffffff9283169391926115f891859116615c4f565b82546101009290920a6fffffffffffffffffffffffffffffffff8181021990931691831602179091553360009081526005840160205260408082205473ffffffffffffffffffffffffffffffffffffffff87168352912080547001000000000000000000000000000000009283900484169450909260109261167f92869291900416615c4f565b82546fffffffffffffffffffffffffffffffff9182166101009390930a9283029190920219909116179055503360009081526005820160209081526040808320839055600684019091529020805461012c81111561175f576040517f08c379a000000000000000000000000000000000000000000000000000000000815260206004820152602860248201527f43616e6e6f74207472616e73666572206d6f7265207468616e2033303020756e60448201527f7374616b696e67730000000000000000000000000000000000000000000000006064820152608401610895565b73ffffffffffffffffffffffffffffffffffffffff841660009081526006840160205260408120905b82816fffffffffffffffffffffffffffffffff161015611856578184826fffffffffffffffffffffffffffffffff16815481106117c7576117c7615bf1565b6000918252602080832084546001810186559484529220910180549190920180547fffffffffffffffffffffffffffffffff00000000000000000000000000000000166fffffffffffffffffffffffffffffffff9283169081178255925470010000000000000000000000000000000090819004909216909102909117905561184f81615c83565b9050611788565b50336000908152600685016020526040812061187191615745565b6001840180547fffffffffffffffffffffffff00000000000000000000000000000000000000001673ffffffffffffffffffffffffffffffffffffffff87169081179091556040516fffffffffffffffffffffffffffffffff8816907f440fb92be8d36802cfffb11ceda74bc13f38abab2e6f8675b9b1725787a6e52990600090a3505050505050565b6fffffffffffffffffffffffffffffffff8082166000908152606b60209081526040808320600181015473ffffffffffffffffffffffffffffffffffffffff1684526005810190925282205481549293849361196f928216917001000000000000000000000000000000009091041661509e565b6002820154825491945084916119b3916fffffffffffffffffffffffffffffffff70010000000000000000000000000000000091829004811692919091041661509e565b6119bd9190615cb2565b915050915091565b606a5460009081908190606090819086906fffffffffffffffffffffffffffffffff90811690821610611a54576040517f08c379a000000000000000000000000000000000000000000000000000000000815260206004820152601160248201527f496e76616c69642076616c696461746f720000000000000000000000000000006044820152606401610895565b6fffffffffffffffffffffffffffffffff8088166000908152606b6020908152604080832073ffffffffffffffffffffffffffffffffffffffff8d1684526005810190925282208054825470010000000000000000000000000000000080830487169c509395929493611acd939283169291041661509e565b82549091506fffffffffffffffffffffffffffffffff700100000000000000000000000000000000909104811690821611611b0b5760009750611b40565b8154611b3d9070010000000000000000000000000000000090046fffffffffffffffffffffffffffffffff1682615cb2565b97505b600183015473ffffffffffffffffffffffffffffffffffffffff808d16911603611b7b5782546fffffffffffffffffffffffffffffffff1696505b73ffffffffffffffffffffffffffffffffffffffff8b166000908152600684016020908152604080832080548251818502810185019093528083529192909190849084015b82821015611c1f57600084815260209081902060408051808201909152908401546fffffffffffffffffffffffffffffffff80821683527001000000000000000000000000000000009091041681830152825260019092019101611bc0565b505082519293508291505067ffffffffffffffff811115611c4257611c42615ce3565b604051908082528060200260200182016040528015611c6b578160200160208202803683370190505b5097508067ffffffffffffffff811115611c8757611c87615ce3565b604051908082528060200260200182016040528015611cb0578160200160208202803683370190505b50965060005b81811015611d8357828181518110611cd057611cd0615bf1565b602002602001015160200151898281518110611cee57611cee615bf1565b60200260200101906fffffffffffffffffffffffffffffffff1690816fffffffffffffffffffffffffffffffff1681525050828181518110611d3257611d32615bf1565b602002602001015160000151888281518110611d5057611d50615bf1565b6fffffffffffffffffffffffffffffffff9092166020928302919091019091015280611d7b81615d12565b915050611cb6565b505050505050509295509295909350565b60695473ffffffffffffffffffffffffffffffffffffffff163314611e15576040517f08c379a000000000000000000000000000000000000000000000000000000000815260206004820152601c60248201527f43616c6c6572206973206e6f74207374616b696e674d616e61676572000000006044820152606401610895565b828114611ea4576040517f08c379a000000000000000000000000000000000000000000000000000000000815260206004820152603760248201527f476976656e2069647320616e6420616d6f756e747320617272617973206d757360448201527f74206265206f66207468652073616d65206c656e6774680000000000000000006064820152608401610895565b6066546fffffffffffffffffffffffffffffffff1660008080805b8781101561219457868682818110611ed957611ed9615bf1565b9050602002016020810190611eee9190615a24565b9350888882818110611f0257611f02615bf1565b9050602002016020810190611f179190615a24565b9250836fffffffffffffffffffffffffffffffff16856fffffffffffffffffffffffffffffffff161015611f93576040516fffffffffffffffffffffffffffffffff85811682528416907f0fe05e323c51ec64db29d65e4471f535fbed63586f534f452455b30e985424839060200160405180910390a2612182565b6fffffffffffffffffffffffffffffffff8084166000908152606b60205260408120600281015490927001000000000000000000000000000000009091041690819003612028576040516fffffffffffffffffffffffffffffffff87811682528616907f7110409a3c69501d520618529eec9541a3d35ae7b4c5df2a4e5271438105cee39060200160405180910390a261217f565b6003820154670de0b6b3a764000090612057906fffffffffffffffffffffffffffffffff908116908916615d4a565b6120619190615d87565b935080670de0b6b3a76400006120778689615cb2565b6fffffffffffffffffffffffffffffffff166120939190615d4a565b61209d9190615d87565b825483906010906120d590849070010000000000000000000000000000000090046fffffffffffffffffffffffffffffffff16615c4f565b92506101000a8154816fffffffffffffffffffffffffffffffff02191690836fffffffffffffffffffffffffffffffff160217905550838260000160008282829054906101000a90046fffffffffffffffffffffffffffffffff1661213a9190615c4f565b92506101000a8154816fffffffffffffffffffffffffffffffff02191690836fffffffffffffffffffffffffffffffff160217905550858761217c9190615cb2565b96505b50505b8061218c81615d12565b915050611ebf565b5050606680547fffffffffffffffffffffffffffffffff00000000000000000000000000000000166fffffffffffffffffffffffffffffffff9490941693909317909255505050505050565b6fffffffffffffffffffffffffffffffff8083166000908152606b60205260409020546107d2918491849116613d4d565b60335473ffffffffffffffffffffffffffffffffffffffff163314612292576040517f08c379a000000000000000000000000000000000000000000000000000000000815260206004820181905260248201527f4f776e61626c653a2063616c6c6572206973206e6f7420746865206f776e65726044820152606401610895565b6000816fffffffffffffffffffffffffffffffff161161230e576040517f08c379a000000000000000000000000000000000000000000000000000000000815260206004820152601660248201527f4d7573742062652067726561746572207468616e2030000000000000000000006044820152606401610895565b606780546fffffffffffffffffffffffffffffffff908116700100000000000000000000000000000000918416918202179091556040519081527fbe85ebc47051eb40cf466cba324b4ceee119941ef0101ec0123999a5b6794099906020015b60405180910390a150565b60335473ffffffffffffffffffffffffffffffffffffffff1633146123fa576040517f08c379a000000000000000000000000000000000000000000000000000000000815260206004820181905260248201527f4f776e61626c653a2063616c6c6572206973206e6f7420746865206f776e65726044820152606401610895565b565b6107d282826000614b5a565b606a54600090819081908190819086906fffffffffffffffffffffffffffffffff90811690821610612496576040517f08c379a000000000000000000000000000000000000000000000000000000000815260206004820152601160248201527f496e76616c69642076616c696461746f720000000000000000000000000000006044820152606401610895565b505050506fffffffffffffffffffffffffffffffff9283166000908152606b60209081526040808320600181015473ffffffffffffffffffffffffffffffffffffffff1680855260058201909352922054600283015460038401546004909401549297700100000000000000000000000000000000909204871696908116955092909216925090565b606a5482906fffffffffffffffffffffffffffffffff908116908216106125a2576040517f08c379a000000000000000000000000000000000000000000000000000000000815260206004820152601160248201527f496e76616c69642076616c696461746f720000000000000000000000000000006044820152606401610895565b6fffffffffffffffffffffffffffffffff8381166000908152606b602090815260408083203384526006019091529020549083161061263d576040517f08c379a000000000000000000000000000000000000000000000000000000000815260206004820152601860248201527f556e7374616b696e6720646f6573206e6f7420657869737400000000000000006044820152606401610895565b6fffffffffffffffffffffffffffffffff8084166000908152606b60209081526040808320338452600601909152812080549192909190851690811061268557612685615bf1565b600091825260209091200180549091506fffffffffffffffffffffffffffffffff808716700100000000000000000000000000000000909204161015612727576040517f08c379a000000000000000000000000000000000000000000000000000000000815260206004820152601960248201527f556e7374616b696e6720686173206c65737320746f6b656e73000000000000006044820152606401610895565b80546fffffffffffffffffffffffffffffffff808216700100000000000000000000000000000000928390048216889003821683021780845591909104166000036127935780547fffffffffffffffffffffffffffffffff000000000000000000000000000000001681555b604080516fffffffffffffffffffffffffffffffff878116825285811660208301523392908716917ff9087cb83487275bb1784df2905fb9038a38f2423637cba5910e5e638147b546910160405180910390a3610f7884866000614575565b60335473ffffffffffffffffffffffffffffffffffffffff163314612873576040517f08c379a000000000000000000000000000000000000000000000000000000000815260206004820181905260248201527f4f776e61626c653a2063616c6c6572206973206e6f7420746865206f776e65726044820152606401610895565b6000816fffffffffffffffffffffffffffffffff16116128ef576040517f08c379a000000000000000000000000000000000000000000000000000000000815260206004820152600b60248201527f416d6f756e7420697320300000000000000000000000000000000000000000006044820152606401610895565b6066546fffffffffffffffffffffffffffffffff9081169082161115612971576040517f08c379a000000000000000000000000000000000000000000000000000000000815260206004820152601860248201527f52657761726420706f6f6c20697320746f6f20736d616c6c00000000000000006044820152606401610895565b606680547fffffffffffffffffffffffffffffffff0000000000000000000000000000000081166fffffffffffffffffffffffffffffffff91821684900382161790915560405190821681527fb377d2221ae3ae0038f8a2593ce854d79cc6d598036b3acb67a2bed08557ee2e9060200160405180910390a16129f43382615068565b50565b606a5482906fffffffffffffffffffffffffffffffff90811690821610612a7a576040517f08c379a000000000000000000000000000000000000000000000000000000000815260206004820152601160248201527f496e76616c69642076616c696461746f720000000000000000000000000000006044820152606401610895565b6305f5e1006fffffffffffffffffffffffffffffffff83161015612afa576040517f08c379a000000000000000000000000000000000000000000000000000000000815260206004820152601b60248201527f556e7374616b6520616d6f756e7420697320746f6f20736d616c6c00000000006044820152606401610895565b6fffffffffffffffffffffffffffffffff8084166000908152606b60209081526040808320338452600581019092529091208054919290918582167001000000000000000000000000000000009091049091161015612bb5576040517f08c379a000000000000000000000000000000000000000000000000000000000815260206004820152601860248201527f5374616b6564203c20616d6f756e742070726f766964656400000000000000006044820152606401610895565b600182015473ffffffffffffffffffffffffffffffffffffffff163314808015612be157506004830154155b15612cb85760675482546000916fffffffffffffffffffffffffffffffff70010000000000000000000000000000000091829004811692612c26928a92910416615cb2565b612c309190615dc2565b60028501549091506fffffffffffffffffffffffffffffffff80831691161115612cb6576040517f08c379a000000000000000000000000000000000000000000000000000000000815260206004820152601d60248201527f43616e6e6f7420756e7374616b65206265796f6e64206d6178206361700000006044820152606401610895565b505b80612d1d57600283018054869190600090612ce69084906fffffffffffffffffffffffffffffffff16615cb2565b92506101000a8154816fffffffffffffffffffffffffffffffff02191690836fffffffffffffffffffffffffffffffff1602179055505b8254600090612d5390879070010000000000000000000000000000000090046fffffffffffffffffffffffffffffffff166150d9565b83549091506fffffffffffffffffffffffffffffffff9081169082161115612d8b575081546fffffffffffffffffffffffffffffffff165b82547fffffffffffffffffffffffffffffffff0000000000000000000000000000000081166fffffffffffffffffffffffffffffffff91821683900382161784556002850180548392601091612df7918591700100000000000000000000000000000000900416615cb2565b82546fffffffffffffffffffffffffffffffff9182166101009390930a928302928202191691909117909155845470010000000000000000000000000000000080820483168a900383160291161784555060048401546000908103612e5c5743612e62565b84600401545b905082612e83576067546fffffffffffffffffffffffffffffffff16612ead565b60665470010000000000000000000000000000000090046fffffffffffffffffffffffffffffffff165b33600081815260068801602090815260408083208054825180840184526fffffffffffffffffffffffffffffffff9790980187811689528e881689860190815260018301845592865293909420965190518616700100000000000000000000000000000000029086161795830195909555935190928b16907ffd593fe24ae9d02e348b533a8253aaf9904b266a7b65556ae6181dd5cc58703b90612f72908c9086906fffffffffffffffffffffffffffffffff92831681529116602082015260400190565b60405180910390a3505050505050505050565b606a54600090819083906fffffffffffffffffffffffffffffffff9081169082161061300d576040517f08c379a000000000000000000000000000000000000000000000000000000000815260206004820152601160248201527f496e76616c69642076616c696461746f720000000000000000000000000000006044820152606401610895565b5050506fffffffffffffffffffffffffffffffff9081166000908152606b60209081526040808320600181015473ffffffffffffffffffffffffffffffffffffffff1684526005810190925290912054600290910154700100000000000000000000000000000000909104821692911690565b60335473ffffffffffffffffffffffffffffffffffffffff163314613101576040517f08c379a000000000000000000000000000000000000000000000000000000000815260206004820181905260248201527f4f776e61626c653a2063616c6c6572206973206e6f7420746865206f776e65726044820152606401610895565b6000816fffffffffffffffffffffffffffffffff161161317d576040517f08c379a000000000000000000000000000000000000000000000000000000000815260206004820152601760248201527f50726f7669646564206d6178207374616b6520697320300000000000000000006044820152606401610895565b606880547fffffffffffffffffffffffffffffffff00000000000000000000000000000000166fffffffffffffffffffffffffffffffff83169081179091556040519081527fc85c2d6ddb875b53634093f65fbea4ed8eba0b4efca26b87bc17ffedb66891649060200161236e565b60695460009073ffffffffffffffffffffffffffffffffffffffff163314613270576040517f08c379a000000000000000000000000000000000000000000000000000000000815260206004820152601c60248201527f43616c6c6572206973206e6f74207374616b696e674d616e61676572000000006044820152606401610895565b670de0b6b3a7640000826fffffffffffffffffffffffffffffffff16106132f3576040517f08c379a000000000000000000000000000000000000000000000000000000000815260206004820152601b60248201527f52617465206d757374206265206c657373207468616e203130302500000000006044820152606401610895565b73ffffffffffffffffffffffffffffffffffffffff8316613370576040517f08c379a000000000000000000000000000000000000000000000000000000000815260206004820152601660248201527f56616c696461746f7220616464726573732069732030000000000000000000006044820152606401610895565b606a80546fffffffffffffffffffffffffffffffff9081166000908152606b6020908152604091829020600180820180547fffffffffffffffffffffffff00000000000000000000000000000000000000001673ffffffffffffffffffffffffffffffffffffffff8b1690811790915582548616770de0b6b3a7640000000000000000000000000000000000001783556003830180547fffffffffffffffffffffffffffffffff00000000000000000000000000000000168a881690811790915560048401929092559554935190815290949392909216917f5a7dc0f8a1745e71f29bb12198638d3c7284ae1227928e679ab6bf3dc1f28617910160405180910390a3606a80547fffffffffffffffffffffffffffffffff00000000000000000000000000000000811660016fffffffffffffffffffffffffffffffff92831681019092169081179092556134c491615cb2565b6fffffffffffffffffffffffffffffffff16949350505050565b606a5460609081908190819081906fffffffffffffffffffffffffffffffff908116908716111561356b576040517f08c379a000000000000000000000000000000000000000000000000000000000815260206004820152600e60248201527f496e76616c696420656e642069640000000000000000000000000000000000006044820152606401610895565b856fffffffffffffffffffffffffffffffff16876fffffffffffffffffffffffffffffffff161061361e576040517f08c379a000000000000000000000000000000000000000000000000000000000815260206004820152602160248201527f5374617274206964206d757374206265206c657373207468616e20656e64206960448201527f64000000000000000000000000000000000000000000000000000000000000006064820152608401610895565b600061362a8888615cb2565b9050806fffffffffffffffffffffffffffffffff1667ffffffffffffffff81111561365757613657615ce3565b604051908082528060200260200182016040528015613680578160200160208202803683370190505b509550806fffffffffffffffffffffffffffffffff1667ffffffffffffffff8111156136ae576136ae615ce3565b6040519080825280602002602001820160405280156136d7578160200160208202803683370190505b509450806fffffffffffffffffffffffffffffffff1667ffffffffffffffff81111561370557613705615ce3565b60405190808252806020026020018201604052801561372e578160200160208202803683370190505b509350806fffffffffffffffffffffffffffffffff1667ffffffffffffffff81111561375c5761375c615ce3565b604051908082528060200260200182016040528015613785578160200160208202803683370190505b509250806fffffffffffffffffffffffffffffffff1667ffffffffffffffff8111156137b3576137b3615ce3565b6040519080825280602002602001820160405280156137dc578160200160208202803683370190505b5091506000885b886fffffffffffffffffffffffffffffffff16816fffffffffffffffffffffffffffffffff16101561394d576138198a82615cb2565b915061382481612408565b8c876fffffffffffffffffffffffffffffffff168151811061384857613848615bf1565b602002602001018c886fffffffffffffffffffffffffffffffff168151811061387357613873615bf1565b602002602001018c896fffffffffffffffffffffffffffffffff168151811061389e5761389e615bf1565b602002602001018c8a6fffffffffffffffffffffffffffffffff16815181106138c9576138c9615bf1565b602002602001018c8b6fffffffffffffffffffffffffffffffff16815181106138f4576138f4615bf1565b60209081029190910101949094526fffffffffffffffffffffffffffffffff9485169093529383169091529216905273ffffffffffffffffffffffffffffffffffffffff909116905261394681615c83565b90506137e3565b5050509295509295909350565b600054610100900460ff166139755760005460ff1615613979565b303b155b613a05576040517f08c379a000000000000000000000000000000000000000000000000000000000815260206004820152602e60248201527f496e697469616c697a61626c653a20636f6e747261637420697320616c72656160448201527f647920696e697469616c697a65640000000000000000000000000000000000006064820152608401610895565b600054610100900460ff16158015613a4457600080547fffffffffffffffffffffffffffffffffffffffffffffffffffffffffffff0000166101011790555b613a4c615114565b606680546fffffffffffffffffffffffffffffffff908116700100000000000000000000000000000000878316818102929092179093558782168683169384028117606755606880547fffffffffffffffffffffffffffffffff00000000000000000000000000000000169387169384179055606580547fffffffffffffffffffffffff00000000000000000000000000000000000000001673ffffffffffffffffffffffffffffffffffffffff8c1690811790915560408051918252602082019390935291820152606081019290925260808201527f0d020790a4661b48ba70c972576a0ef9415e63f7d4f70620772b456804be11859060a00160405180910390a18015613b7e57600080547fffffffffffffffffffffffffffffffffffffffffffffffffffffffffffff00ff1690555b505050505050565b60695473ffffffffffffffffffffffffffffffffffffffff163314613c07576040517f08c379a000000000000000000000000000000000000000000000000000000000815260206004820152601c60248201527f43616c6c6572206973206e6f74207374616b696e674d616e61676572000000006044820152606401610895565b606a5482906fffffffffffffffffffffffffffffffff90811690821610613c8a576040517f08c379a000000000000000000000000000000000000000000000000000000000815260206004820152601160248201527f496e76616c69642076616c696461746f720000000000000000000000000000006044820152606401610895565b60008211613cf4576040517f08c379a000000000000000000000000000000000000000000000000000000000815260206004820152601960248201527f44697361626c6520626c6f636b2063616e6e6f742062652030000000000000006044820152606401610895565b6fffffffffffffffffffffffffffffffff83166000818152606b602052604090819020600401849055517f890228cff135716fe461694a594a1308c48a00abf62b3fcff51a2fbabf23471290610a249085815260200190565b606a5483906fffffffffffffffffffffffffffffffff90811690821610613dd0576040517f08c379a000000000000000000000000000000000000000000000000000000000815260206004820152601160248201527f496e76616c69642076616c696461746f720000000000000000000000000000006044820152606401610895565b73ffffffffffffffffffffffffffffffffffffffff8316613e4d576040517f08c379a000000000000000000000000000000000000000000000000000000000815260206004820152601360248201527f496e76616c69642062656e6566696369617279000000000000000000000000006044820152606401610895565b6fffffffffffffffffffffffffffffffff84166000908152606b60205260409020600181015473ffffffffffffffffffffffffffffffffffffffff163314613ef1576040517f08c379a000000000000000000000000000000000000000000000000000000000815260206004820152601f60248201527f5468652073656e646572206973206e6f74207468652076616c696461746f72006044820152606401610895565b80546fffffffffffffffffffffffffffffffff16613f91576040517f08c379a000000000000000000000000000000000000000000000000000000000815260206004820152602160248201527f4e6f20636f6d6d697373696f6e20617661696c61626c6520746f20726564656560448201527f6d000000000000000000000000000000000000000000000000000000000000006064820152608401610895565b6000836fffffffffffffffffffffffffffffffff161161400d576040517f08c379a000000000000000000000000000000000000000000000000000000000815260206004820152601960248201527f5468652072657175657374656420616d6f756e742069732030000000000000006044820152606401610895565b80546fffffffffffffffffffffffffffffffff90811690841611156140b4576040517f08c379a000000000000000000000000000000000000000000000000000000000815260206004820152603e60248201527f52657175657374656420616d6f756e7420697320686967686572207468616e2060448201527f636f6d6d697373696f6e20617661696c61626c6520746f2072656465656d00006064820152608401610895565b80546fffffffffffffffffffffffffffffffff808216859003167fffffffffffffffffffffffffffffffff000000000000000000000000000000009091161781556140ff8484615068565b6040516fffffffffffffffffffffffffffffffff848116825273ffffffffffffffffffffffffffffffffffffffff861691908716907fca484c45ad2d2422ff409731d1783446054a9a6549f63f4e668f85d03513624c9060200160405180910390a35050505050565b60695473ffffffffffffffffffffffffffffffffffffffff1633146141e9576040517f08c379a000000000000000000000000000000000000000000000000000000000815260206004820152601c60248201527f43616c6c6572206973206e6f74207374616b696e674d616e61676572000000006044820152606401610895565b606a5481906fffffffffffffffffffffffffffffffff9081169082161061426c576040517f08c379a000000000000000000000000000000000000000000000000000000000815260206004820152601160248201527f496e76616c69642076616c696461746f720000000000000000000000000000006044820152606401610895565b6fffffffffffffffffffffffffffffffff82166000818152606b6020526040808220600401829055517f553b029ba5c74688a5da732136d246f722502db24ed6b4aaf1cdc9f2f9ef23ef9190a25050565b60335473ffffffffffffffffffffffffffffffffffffffff16331461433e576040517f08c379a000000000000000000000000000000000000000000000000000000000815260206004820181905260248201527f4f776e61626c653a2063616c6c6572206973206e6f7420746865206f776e65726044820152606401610895565b6000816fffffffffffffffffffffffffffffffff16116143ba576040517f08c379a000000000000000000000000000000000000000000000000000000000815260206004820152600b60248201527f416d6f756e7420697320300000000000000000000000000000000000000000006044820152606401610895565b606680546fffffffffffffffffffffffffffffffff8082168401167fffffffffffffffffffffffffffffffff0000000000000000000000000000000090911617905561440633826151b3565b6040516fffffffffffffffffffffffffffffffff821681527f2db5044922a44e715fdfd31c569712694c5956bbd41e06011f1c8ed339f5ff8f9060200161236e565b60335473ffffffffffffffffffffffffffffffffffffffff1633146144c9576040517f08c379a000000000000000000000000000000000000000000000000000000000815260206004820181905260248201527f4f776e61626c653a2063616c6c6572206973206e6f7420746865206f776e65726044820152606401610895565b73ffffffffffffffffffffffffffffffffffffffff811661456c576040517f08c379a000000000000000000000000000000000000000000000000000000000815260206004820152602660248201527f4f776e61626c653a206e6577206f776e657220697320746865207a65726f206160448201527f64647265737300000000000000000000000000000000000000000000000000006064820152608401610895565b6129f4816151ea565b606a5483906fffffffffffffffffffffffffffffffff908116908216106145f8576040517f08c379a000000000000000000000000000000000000000000000000000000000815260206004820152601160248201527f496e76616c69642076616c696461746f720000000000000000000000000000006044820152606401610895565b6305f5e1006fffffffffffffffffffffffffffffffff84161015614678576040517f08c379a000000000000000000000000000000000000000000000000000000000815260206004820152601960248201527f5374616b6520616d6f756e7420697320746f6f20736d616c6c000000000000006044820152606401610895565b6fffffffffffffffffffffffffffffffff84166000908152606b60205260409020600181015473ffffffffffffffffffffffffffffffffffffffff1633148061472757600482015415614727576040517f08c379a000000000000000000000000000000000000000000000000000000000815260206004820152601560248201527f56616c696461746f722069732064697361626c656400000000000000000000006044820152606401610895565b815460009061475d90879070010000000000000000000000000000000090046fffffffffffffffffffffffffffffffff166150d9565b336000908152600585016020526040902090915082156148385780546000906147ad90899070010000000000000000000000000000000090046fffffffffffffffffffffffffffffffff16615c4f565b6068549091506fffffffffffffffffffffffffffffffff9081169082161115614832576040517f08c379a000000000000000000000000000000000000000000000000000000000815260206004820152601c60248201527f56616c696461746f72206d6178207374616b65206578636565646564000000006044820152606401610895565b506149c3565b606754600185015473ffffffffffffffffffffffffffffffffffffffff16600090815260058601602052604081205490916148a0916fffffffffffffffffffffffffffffffff7001000000000000000000000000000000009283900481169290910416615dc2565b60028601549091506000906148c8908a906fffffffffffffffffffffffffffffffff16615c4f565b9050816fffffffffffffffffffffffffffffffff16816fffffffffffffffffffffffffffffffff16111561497e576040517f08c379a000000000000000000000000000000000000000000000000000000000815260206004820152602160248201527f56616c696461746f72206d61782064656c65676174696f6e206578636565646560448201527f64000000000000000000000000000000000000000000000000000000000000006064820152608401610895565b6002860180547fffffffffffffffffffffffffffffffff00000000000000000000000000000000166fffffffffffffffffffffffffffffffff92909216919091179055505b818460020160108282829054906101000a90046fffffffffffffffffffffffffffffffff166149f29190615c4f565b92506101000a8154816fffffffffffffffffffffffffffffffff02191690836fffffffffffffffffffffffffffffffff160217905550818160000160008282829054906101000a90046fffffffffffffffffffffffffffffffff16614a579190615c4f565b92506101000a8154816fffffffffffffffffffffffffffffffff02191690836fffffffffffffffffffffffffffffffff160217905550868160000160108282829054906101000a90046fffffffffffffffffffffffffffffffff16614abc9190615c4f565b92506101000a8154816fffffffffffffffffffffffffffffffff02191690836fffffffffffffffffffffffffffffffff1602179055508515614b0257614b0233886151b3565b604080513381526fffffffffffffffffffffffffffffffff89811660208301528a16917fc833924412a8727ace4d92945c637ad2d4b389e582bfd4a95cdee608eee9720a910160405180910390a25050505050505050565b606a5483906fffffffffffffffffffffffffffffffff90811690821610614bdd576040517f08c379a000000000000000000000000000000000000000000000000000000000815260206004820152601160248201527f496e76616c69642076616c696461746f720000000000000000000000000000006044820152606401610895565b73ffffffffffffffffffffffffffffffffffffffff8316614c5a576040517f08c379a000000000000000000000000000000000000000000000000000000000815260206004820152601360248201527f496e76616c69642062656e6566696369617279000000000000000000000000006044820152606401610895565b6fffffffffffffffffffffffffffffffff8085166000908152606b60209081526040808320338452600581019092528220805482549294919392614cb792918216917001000000000000000000000000000000009091041661509e565b90506fffffffffffffffffffffffffffffffff8516158015614d8a5782546305f5e10090614d0b9070010000000000000000000000000000000090046fffffffffffffffffffffffffffffffff1684615cb2565b6fffffffffffffffffffffffffffffffff161015614d85576040517f08c379a000000000000000000000000000000000000000000000000000000000815260206004820152601160248201527f4e6f7468696e6720746f2072656465656d0000000000000000000000000000006044820152606401610895565b614ee1565b82546fffffffffffffffffffffffffffffffff80881691614dc1917001000000000000000000000000000000009091041684615cb2565b6fffffffffffffffffffffffffffffffff161015614e3b576040517f08c379a000000000000000000000000000000000000000000000000000000000815260206004820152601c60248201527f52657175657374656420616d6f756e7420697320746f6f2068696768000000006044820152606401610895565b6305f5e1006fffffffffffffffffffffffffffffffff87161015614ee1576040517f08c379a000000000000000000000000000000000000000000000000000000000815260206004820152603560248201527f52657175657374656420616d6f756e74206d757374206265206869676865722060448201527f7468616e2072656465656d207468726573686f6c6400000000000000000000006064820152608401610895565b600081614eee5786614f20565b8354614f209070010000000000000000000000000000000090046fffffffffffffffffffffffffffffffff1684615cb2565b8554909150600090614f5990839070010000000000000000000000000000000090046fffffffffffffffffffffffffffffffff166150d9565b85549091506fffffffffffffffffffffffffffffffff9081169082161115614f91575083546fffffffffffffffffffffffffffffffff165b6002860180546fffffffffffffffffffffffffffffffff80821670010000000000000000000000000000000092839004821685900382169092029190911790915585547fffffffffffffffffffffffffffffffff0000000000000000000000000000000081169082168390038216178655604051838216815273ffffffffffffffffffffffffffffffffffffffff8b16918c16907fbf3f2aa111a63b63567f864e18723c486b9276b75fdadebb83f62cd228263e0c9060200160405180910390a361505c8983615068565b50505050505050505050565b6065546107d29073ffffffffffffffffffffffffffffffffffffffff16836fffffffffffffffffffffffffffffffff8416615261565b6000670de0b6b3a76400006150c86fffffffffffffffffffffffffffffffff808516908616615d4a565b6150d29190615d87565b9392505050565b6000816fffffffffffffffffffffffffffffffff16670de0b6b3a7640000846fffffffffffffffffffffffffffffffff166150c89190615d4a565b600054610100900460ff166151ab576040517f08c379a000000000000000000000000000000000000000000000000000000000815260206004820152602b60248201527f496e697469616c697a61626c653a20636f6e7472616374206973206e6f74206960448201527f6e697469616c697a696e670000000000000000000000000000000000000000006064820152608401610895565b6123fa615335565b6065546107d29073ffffffffffffffffffffffffffffffffffffffff1683306fffffffffffffffffffffffffffffffff85166153d5565b6033805473ffffffffffffffffffffffffffffffffffffffff8381167fffffffffffffffffffffffff0000000000000000000000000000000000000000831681179093556040519116919082907f8be0079c531659141344cd1fd0a4f28419497f9722a3daafe3b4186f6b6457e090600090a35050565b60405173ffffffffffffffffffffffffffffffffffffffff8316602482015260448101829052610ab89084907fa9059cbb00000000000000000000000000000000000000000000000000000000906064015b604080517fffffffffffffffffffffffffffffffffffffffffffffffffffffffffffffffe08184030181529190526020810180517bffffffffffffffffffffffffffffffffffffffffffffffffffffffff167fffffffff0000000000000000000000000000000000000000000000000000000090931692909217909152615439565b600054610100900460ff166153cc576040517f08c379a000000000000000000000000000000000000000000000000000000000815260206004820152602b60248201527f496e697469616c697a61626c653a20636f6e7472616374206973206e6f74206960448201527f6e697469616c697a696e670000000000000000000000000000000000000000006064820152608401610895565b6123fa336151ea565b60405173ffffffffffffffffffffffffffffffffffffffff808516602483015283166044820152606481018290526154339085907f23b872dd00000000000000000000000000000000000000000000000000000000906084016152b3565b50505050565b600061549b826040518060400160405280602081526020017f5361666545524332303a206c6f772d6c6576656c2063616c6c206661696c65648152508573ffffffffffffffffffffffffffffffffffffffff166155459092919063ffffffff16565b805190915015610ab857808060200190518101906154b99190615dfa565b610ab8576040517f08c379a000000000000000000000000000000000000000000000000000000000815260206004820152602a60248201527f5361666545524332303a204552433230206f7065726174696f6e20646964206e60448201527f6f742073756363656564000000000000000000000000000000000000000000006064820152608401610895565b6060615554848460008561555c565b949350505050565b6060824710156155ee576040517f08c379a000000000000000000000000000000000000000000000000000000000815260206004820152602660248201527f416464726573733a20696e73756666696369656e742062616c616e636520666f60448201527f722063616c6c00000000000000000000000000000000000000000000000000006064820152608401610895565b73ffffffffffffffffffffffffffffffffffffffff85163b61566c576040517f08c379a000000000000000000000000000000000000000000000000000000000815260206004820152601d60248201527f416464726573733a2063616c6c20746f206e6f6e2d636f6e74726163740000006044820152606401610895565b6000808673ffffffffffffffffffffffffffffffffffffffff1685876040516156959190615e48565b60006040518083038185875af1925050503d80600081146156d2576040519150601f19603f3d011682016040523d82523d6000602084013e6156d7565b606091505b50915091506156e78282866156f2565b979650505050505050565b606083156157015750816150d2565b8251156157115782518084602001fd5b816040517f08c379a00000000000000000000000000000000000000000000000000000000081526004016108959190615e64565b50805460008255906000526020600020908101906129f491905b80821115615773576000815560010161575f565b5090565b80356fffffffffffffffffffffffffffffffff8116811461579757600080fd5b919050565b600080604083850312156157af57600080fd5b6157b883615777565b91506157c660208401615777565b90509250929050565b600081518084526020808501945080840160005b838110156158115781516fffffffffffffffffffffffffffffffff16875295820195908201906001016157e3565b509495945050505050565b600081518084526020808501945080840160005b8381101561581157815187529582019590820190600101615830565b60a0808252865190820181905260009060209060c0840190828a01845b8281101561589b57815173ffffffffffffffffffffffffffffffffffffffff1684529284019290840190600101615869565b505050838103828501526158af81896157cf565b91505082810360408401526158c481876157cf565b905082810360608401526158d881866157cf565b905082810360808401526158ec818561581c565b98975050505050505050565b803573ffffffffffffffffffffffffffffffffffffffff8116811461579757600080fd5b60008060006060848603121561593157600080fd5b61593a84615777565b9250615948602085016158f8565b915061595660408501615777565b90509250925092565b60006020828403121561597157600080fd5b6150d2826158f8565b60008060006060848603121561598f57600080fd5b61599884615777565b925061594860208501615777565b600080600080608085870312156159bc57600080fd5b6159c585615777565b93506159d360208601615777565b92506159e160408601615777565b91506159ef60608601615777565b905092959194509250565b60008060408385031215615a0d57600080fd5b615a1683615777565b91506157c6602084016158f8565b600060208284031215615a3657600080fd5b6150d282615777565b60008060408385031215615a5257600080fd5b6157b8836158f8565b60006fffffffffffffffffffffffffffffffff8088168352808716602084015280861660408401525060a06060830152615a9860a08301856157cf565b82810360808401526158ec81856157cf565b60008083601f840112615abc57600080fd5b50813567ffffffffffffffff811115615ad457600080fd5b6020830191508360208260051b8501011115615aef57600080fd5b9250929050565b60008060008060408587031215615b0c57600080fd5b843567ffffffffffffffff80821115615b2457600080fd5b615b3088838901615aaa565b90965094506020870135915080821115615b4957600080fd5b50615b5687828801615aaa565b95989497509550505050565b600080600080600060a08688031215615b7a57600080fd5b615b83866158f8565b9450615b9160208701615777565b9350615b9f60408701615777565b9250615bad60608701615777565b9150615bbb60808701615777565b90509295509295909350565b60008060408385031215615bda57600080fd5b615be383615777565b946020939093013593505050565b7f4e487b7100000000000000000000000000000000000000000000000000000000600052603260045260246000fd5b7f4e487b7100000000000000000000000000000000000000000000000000000000600052601160045260246000fd5b60006fffffffffffffffffffffffffffffffff808316818516808303821115615c7a57615c7a615c20565b01949350505050565b60006fffffffffffffffffffffffffffffffff808316818103615ca857615ca8615c20565b6001019392505050565b60006fffffffffffffffffffffffffffffffff83811690831681811015615cdb57615cdb615c20565b039392505050565b7f4e487b7100000000000000000000000000000000000000000000000000000000600052604160045260246000fd5b60007fffffffffffffffffffffffffffffffffffffffffffffffffffffffffffffffff8203615d4357615d43615c20565b5060010190565b6000817fffffffffffffffffffffffffffffffffffffffffffffffffffffffffffffffff0483118215151615615d8257615d82615c20565b500290565b600082615dbd577f4e487b7100000000000000000000000000000000000000000000000000000000600052601260045260246000fd5b500490565b60006fffffffffffffffffffffffffffffffff80831681851681830481118215151615615df157615df1615c20565b02949350505050565b600060208284031215615e0c57600080fd5b815180151581146150d257600080fd5b60005b83811015615e37578181015183820152602001615e1f565b838111156154335750506000910152565b60008251615e5a818460208701615e1c565b9190910192915050565b6020815260008251806020840152615e83816040850160208701615e1c565b601f017fffffffffffffffffffffffffffffffffffffffffffffffffffffffffffffffe016919091016040019291505056fea2646970667358221220c05b8de488f80e1fc3f3ae7be341a2c7f6a115b0a2d857d2311e27d78cb59ac864736f6c634300080d0033",
  "linkReferences": {},
  "deployedLinkReferences": {}
}