{
  "_format": "hh-sol-artifact-1",
  "contractName": "OperationalStaking",
  "sourceName": "contracts/OperationalStaking.sol",
  "abi": [
    {
      "anonymous": false,
      "inputs": [
        {
          "indexed": false,
          "internalType": "uint128",
          "name": "amount",
          "type": "uint128"
        }
      ],
      "name": "AllocatedTokensTaken",
      "type": "event"
    },
    {
      "anonymous": false,
      "inputs": [
        {
          "indexed": true,
          "internalType": "uint128",
          "name": "validatorId",
          "type": "uint128"
        },
        {
          "indexed": true,
          "internalType": "address",
          "name": "beneficiary",
          "type": "address"
        },
        {
          "indexed": false,
          "internalType": "uint128",
          "name": "amount",
          "type": "uint128"
        }
      ],
      "name": "CommissionRewardRedeemed",
      "type": "event"
    },
    {
      "anonymous": false,
      "inputs": [
        {
          "indexed": false,
          "internalType": "uint128",
          "name": "amount",
          "type": "uint128"
        }
      ],
      "name": "DelegatorMinStakeChanged",
      "type": "event"
    },
    {
      "anonymous": false,
      "inputs": [
        {
          "indexed": false,
          "internalType": "uint128",
          "name": "amount",
          "type": "uint128"
        }
      ],
      "name": "DelegatorUnstakeCooldownChanged",
      "type": "event"
    },
    {
      "anonymous": false,
      "inputs": [
        {
          "indexed": false,
          "internalType": "uint8",
          "name": "version",
          "type": "uint8"
        }
      ],
      "name": "Initialized",
      "type": "event"
    },
    {
      "anonymous": false,
      "inputs": [
        {
          "indexed": false,
          "internalType": "address",
          "name": "cqt",
          "type": "address"
        },
        {
          "indexed": false,
          "internalType": "uint128",
          "name": "validatorCoolDown",
          "type": "uint128"
        },
        {
          "indexed": false,
          "internalType": "uint128",
          "name": "delegatorCoolDown",
          "type": "uint128"
        },
        {
          "indexed": false,
          "internalType": "uint128",
          "name": "maxCapMultiplier",
          "type": "uint128"
        },
        {
          "indexed": false,
          "internalType": "uint128",
          "name": "validatorMaxStake",
          "type": "uint128"
        },
        {
          "indexed": false,
          "internalType": "uint128",
          "name": "validatorEnableMinStake",
          "type": "uint128"
        },
        {
          "indexed": false,
          "internalType": "uint128",
          "name": "delegatorMinStake",
          "type": "uint128"
        }
      ],
      "name": "InitializedSemantics",
      "type": "event"
    },
    {
      "anonymous": false,
      "inputs": [
        {
          "indexed": false,
          "internalType": "uint128",
          "name": "newMaxCapMultiplier",
          "type": "uint128"
        }
      ],
      "name": "MaxCapMultiplierChanged",
      "type": "event"
    },
    {
      "anonymous": false,
      "inputs": [
        {
          "indexed": true,
          "internalType": "address",
          "name": "previousOwner",
          "type": "address"
        },
        {
          "indexed": true,
          "internalType": "address",
          "name": "newOwner",
          "type": "address"
        }
      ],
      "name": "OwnershipTransferred",
      "type": "event"
    },
    {
      "anonymous": false,
      "inputs": [
        {
          "indexed": false,
          "internalType": "address",
          "name": "account",
          "type": "address"
        }
      ],
      "name": "Paused",
      "type": "event"
    },
    {
      "anonymous": false,
      "inputs": [
        {
          "indexed": true,
          "internalType": "uint128",
          "name": "validatorId",
          "type": "uint128"
        },
        {
          "indexed": true,
          "internalType": "address",
          "name": "delegator",
          "type": "address"
        },
        {
          "indexed": false,
          "internalType": "uint128",
          "name": "amount",
          "type": "uint128"
        },
        {
          "indexed": false,
          "internalType": "uint128",
          "name": "unstakingId",
          "type": "uint128"
        }
      ],
      "name": "RecoveredUnstake",
      "type": "event"
    },
    {
      "anonymous": false,
      "inputs": [
        {
          "indexed": true,
          "internalType": "uint128",
          "name": "oldValidatorId",
          "type": "uint128"
        },
        {
          "indexed": true,
          "internalType": "uint128",
          "name": "newValidatorId",
          "type": "uint128"
        },
        {
          "indexed": true,
          "internalType": "address",
          "name": "delegator",
          "type": "address"
        },
        {
          "indexed": false,
          "internalType": "uint128",
          "name": "amount",
          "type": "uint128"
        },
        {
          "indexed": false,
          "internalType": "uint128",
          "name": "unstakingId",
          "type": "uint128"
        }
      ],
      "name": "Redelegated",
      "type": "event"
    },
    {
      "anonymous": false,
      "inputs": [
        {
          "indexed": true,
          "internalType": "uint128",
          "name": "validatorId",
          "type": "uint128"
        },
        {
          "indexed": false,
          "internalType": "uint128",
          "name": "amount",
          "type": "uint128"
        }
      ],
      "name": "RewardFailedDueLowPool",
      "type": "event"
    },
    {
      "anonymous": false,
      "inputs": [
        {
          "indexed": true,
          "internalType": "uint128",
          "name": "validatorId",
          "type": "uint128"
        },
        {
          "indexed": false,
          "internalType": "uint128",
          "name": "amount",
          "type": "uint128"
        }
      ],
      "name": "RewardFailedDueValidatorDisabled",
      "type": "event"
    },
    {
      "anonymous": false,
      "inputs": [
        {
          "indexed": true,
          "internalType": "uint128",
          "name": "validatorId",
          "type": "uint128"
        },
        {
          "indexed": false,
          "internalType": "uint128",
          "name": "amount",
          "type": "uint128"
        }
      ],
      "name": "RewardFailedDueValidatorFrozen",
      "type": "event"
    },
    {
      "anonymous": false,
      "inputs": [
        {
          "indexed": true,
          "internalType": "uint128",
          "name": "validatorId",
          "type": "uint128"
        },
        {
          "indexed": false,
          "internalType": "uint128",
          "name": "amount",
          "type": "uint128"
        }
      ],
      "name": "RewardFailedDueZeroStake",
      "type": "event"
    },
    {
      "anonymous": false,
      "inputs": [
        {
          "indexed": true,
          "internalType": "uint128",
          "name": "validatorId",
          "type": "uint128"
        },
        {
          "indexed": true,
          "internalType": "address",
          "name": "beneficiary",
          "type": "address"
        },
        {
          "indexed": false,
          "internalType": "uint128",
          "name": "amount",
          "type": "uint128"
        }
      ],
      "name": "RewardRedeemed",
      "type": "event"
    },
    {
      "anonymous": false,
      "inputs": [
        {
          "indexed": false,
          "internalType": "uint128",
          "name": "amount",
          "type": "uint128"
        }
      ],
      "name": "RewardTokensDeposited",
      "type": "event"
    },
    {
      "anonymous": false,
      "inputs": [
        {
          "indexed": true,
          "internalType": "uint128",
          "name": "validatorId",
          "type": "uint128"
        },
        {
          "indexed": false,
          "internalType": "address",
          "name": "delegator",
          "type": "address"
        },
        {
          "indexed": false,
          "internalType": "uint128",
          "name": "amount",
          "type": "uint128"
        }
      ],
      "name": "Staked",
      "type": "event"
    },
    {
      "anonymous": false,
      "inputs": [
        {
          "indexed": true,
          "internalType": "address",
          "name": "operationalManager",
          "type": "address"
        }
      ],
      "name": "StakingManagerAddressChanged",
      "type": "event"
    },
    {
      "anonymous": false,
      "inputs": [
        {
          "indexed": false,
          "internalType": "address",
          "name": "account",
          "type": "address"
        }
      ],
      "name": "Unpaused",
      "type": "event"
    },
    {
      "anonymous": false,
      "inputs": [
        {
          "indexed": true,
          "internalType": "uint128",
          "name": "validatorId",
          "type": "uint128"
        },
        {
          "indexed": true,
          "internalType": "address",
          "name": "delegator",
          "type": "address"
        },
        {
          "indexed": true,
          "internalType": "uint128",
          "name": "unstakeId",
          "type": "uint128"
        },
        {
          "indexed": false,
          "internalType": "uint128",
          "name": "amount",
          "type": "uint128"
        }
      ],
      "name": "UnstakeRedeemed",
      "type": "event"
    },
    {
      "anonymous": false,
      "inputs": [
        {
          "indexed": true,
          "internalType": "uint128",
          "name": "validatorId",
          "type": "uint128"
        },
        {
          "indexed": true,
          "internalType": "address",
          "name": "delegator",
          "type": "address"
        },
        {
          "indexed": false,
          "internalType": "uint128",
          "name": "amount",
          "type": "uint128"
        },
        {
          "indexed": false,
          "internalType": "uint128",
          "name": "unstakeId",
          "type": "uint128"
        }
      ],
      "name": "Unstaked",
      "type": "event"
    },
    {
      "anonymous": false,
      "inputs": [
        {
          "indexed": true,
          "internalType": "uint128",
          "name": "id",
          "type": "uint128"
        },
        {
          "indexed": false,
          "internalType": "uint128",
          "name": "commissionRate",
          "type": "uint128"
        },
        {
          "indexed": true,
          "internalType": "address",
          "name": "validator",
          "type": "address"
        }
      ],
      "name": "ValidatorAdded",
      "type": "event"
    },
    {
      "anonymous": false,
      "inputs": [
        {
          "indexed": true,
          "internalType": "uint128",
          "name": "validatorId",
          "type": "uint128"
        },
        {
          "indexed": true,
          "internalType": "address",
          "name": "newAddress",
          "type": "address"
        }
      ],
      "name": "ValidatorAddressChanged",
      "type": "event"
    },
    {
      "anonymous": false,
      "inputs": [
        {
          "indexed": true,
          "internalType": "uint128",
          "name": "validatorId",
          "type": "uint128"
        },
        {
          "indexed": false,
          "internalType": "uint128",
          "name": "amount",
          "type": "uint128"
        }
      ],
      "name": "ValidatorCommissionRateChanged",
      "type": "event"
    },
    {
      "anonymous": false,
      "inputs": [
        {
          "indexed": true,
          "internalType": "uint128",
          "name": "validatorId",
          "type": "uint128"
        },
        {
          "indexed": false,
          "internalType": "uint256",
          "name": "blockNumber",
          "type": "uint256"
        }
      ],
      "name": "ValidatorDisabled",
      "type": "event"
    },
    {
      "anonymous": false,
      "inputs": [
        {
          "indexed": false,
          "internalType": "uint128",
          "name": "amount",
          "type": "uint128"
        }
      ],
      "name": "ValidatorEnableMinStakeChanged",
      "type": "event"
    },
    {
      "anonymous": false,
      "inputs": [
        {
          "indexed": true,
          "internalType": "uint128",
          "name": "validatorId",
          "type": "uint128"
        }
      ],
      "name": "ValidatorEnabled",
      "type": "event"
    },
    {
      "anonymous": false,
      "inputs": [
        {
          "indexed": true,
          "internalType": "uint128",
          "name": "validatorId",
          "type": "uint128"
        },
        {
          "indexed": false,
          "internalType": "string",
          "name": "reason",
          "type": "string"
        }
      ],
      "name": "ValidatorFrozen",
      "type": "event"
    },
    {
      "anonymous": false,
      "inputs": [
        {
          "indexed": false,
          "internalType": "uint128",
          "name": "amount",
          "type": "uint128"
        }
      ],
      "name": "ValidatorMaxCapChanged",
      "type": "event"
    },
    {
      "anonymous": false,
      "inputs": [
        {
          "indexed": true,
          "internalType": "uint128",
          "name": "validatorId",
          "type": "uint128"
        }
      ],
      "name": "ValidatorUnfrozen",
      "type": "event"
    },
    {
      "anonymous": false,
      "inputs": [
        {
          "indexed": false,
          "internalType": "uint128",
          "name": "amount",
          "type": "uint128"
        }
      ],
      "name": "ValidatorUnstakeCooldownChanged",
      "type": "event"
    },
    {
      "inputs": [],
      "name": "CQT",
      "outputs": [
        {
          "internalType": "contract IERC20Upgradeable",
          "name": "",
          "type": "address"
        }
      ],
      "stateMutability": "view",
      "type": "function"
    },
    {
      "inputs": [],
      "name": "CURRENT_MIGRATION_STEPPING",
      "outputs": [
        {
          "internalType": "uint256",
          "name": "",
          "type": "uint256"
        }
      ],
      "stateMutability": "view",
      "type": "function"
    },
    {
      "inputs": [],
      "name": "DEFAULT_DELEGATOR_MIN_STAKE",
      "outputs": [
        {
          "internalType": "uint128",
          "name": "",
          "type": "uint128"
        }
      ],
      "stateMutability": "view",
      "type": "function"
    },
    {
      "inputs": [],
      "name": "DEFAULT_VALIDATOR_ENABLE_MIN_STAKE",
      "outputs": [
        {
          "internalType": "uint128",
          "name": "",
          "type": "uint128"
        }
      ],
      "stateMutability": "view",
      "type": "function"
    },
    {
      "inputs": [],
      "name": "DIVIDER",
      "outputs": [
        {
          "internalType": "uint256",
          "name": "",
          "type": "uint256"
        }
      ],
      "stateMutability": "view",
      "type": "function"
    },
    {
      "inputs": [],
      "name": "REWARD_REDEEM_THRESHOLD",
      "outputs": [
        {
          "internalType": "uint128",
          "name": "",
          "type": "uint128"
        }
      ],
      "stateMutability": "view",
      "type": "function"
    },
    {
      "inputs": [
        {
          "internalType": "address",
          "name": "validator",
          "type": "address"
        },
        {
          "internalType": "uint128",
          "name": "commissionRate",
          "type": "uint128"
        }
      ],
      "name": "addValidator",
      "outputs": [
        {
          "internalType": "uint256",
          "name": "id",
          "type": "uint256"
        }
      ],
      "stateMutability": "nonpayable",
      "type": "function"
    },
    {
      "inputs": [],
      "name": "delegatorCoolDown",
      "outputs": [
        {
          "internalType": "uint128",
          "name": "",
          "type": "uint128"
        }
      ],
      "stateMutability": "view",
      "type": "function"
    },
    {
      "inputs": [],
      "name": "delegatorMinStake",
      "outputs": [
        {
          "internalType": "uint128",
          "name": "",
          "type": "uint128"
        }
      ],
      "stateMutability": "view",
      "type": "function"
    },
    {
      "inputs": [
        {
          "internalType": "uint128",
          "name": "amount",
          "type": "uint128"
        }
      ],
      "name": "depositRewardTokens",
      "outputs": [],
      "stateMutability": "nonpayable",
      "type": "function"
    },
    {
      "inputs": [
        {
          "internalType": "uint128",
          "name": "validatorId",
          "type": "uint128"
        },
        {
          "internalType": "uint256",
          "name": "blockNumber",
          "type": "uint256"
        }
      ],
      "name": "disableValidator",
      "outputs": [],
      "stateMutability": "nonpayable",
      "type": "function"
    },
    {
      "inputs": [
        {
          "internalType": "uint128",
          "name": "validatorId",
          "type": "uint128"
        }
      ],
      "name": "enableValidator",
      "outputs": [],
      "stateMutability": "nonpayable",
      "type": "function"
    },
    {
      "inputs": [
        {
          "internalType": "uint128",
          "name": "validatorId",
          "type": "uint128"
        },
        {
          "internalType": "string",
          "name": "reason",
          "type": "string"
        }
      ],
      "name": "freezeValidator",
      "outputs": [],
      "stateMutability": "nonpayable",
      "type": "function"
    },
    {
      "inputs": [],
      "name": "getAllValidatorsMetadata",
      "outputs": [
        {
          "internalType": "address[]",
          "name": "addresses",
          "type": "address[]"
        },
        {
          "internalType": "uint128[]",
          "name": "staked",
          "type": "uint128[]"
        },
        {
          "internalType": "uint128[]",
          "name": "delegated",
          "type": "uint128[]"
        },
        {
          "internalType": "uint128[]",
          "name": "commissionRates",
          "type": "uint128[]"
        },
        {
          "internalType": "uint256[]",
          "name": "disabledAtBlocks",
          "type": "uint256[]"
        }
      ],
      "stateMutability": "view",
      "type": "function"
    },
    {
      "inputs": [
        {
          "internalType": "address",
          "name": "delegator",
          "type": "address"
        },
        {
          "internalType": "uint128",
          "name": "validatorId",
          "type": "uint128"
        }
      ],
      "name": "getDelegatorMetadata",
      "outputs": [
        {
          "internalType": "uint128",
          "name": "staked",
          "type": "uint128"
        },
        {
          "internalType": "uint128",
          "name": "rewards",
          "type": "uint128"
        },
        {
          "internalType": "uint128",
          "name": "commissionEarned",
          "type": "uint128"
        },
        {
          "internalType": "uint128[]",
          "name": "unstakingAmounts",
          "type": "uint128[]"
        },
        {
          "internalType": "uint128[]",
          "name": "unstakingsEndEpochs",
          "type": "uint128[]"
        }
      ],
      "stateMutability": "view",
      "type": "function"
    },
    {
      "inputs": [],
      "name": "getMetadata",
      "outputs": [
        {
          "internalType": "address",
          "name": "CQTaddress",
          "type": "address"
        },
        {
          "internalType": "address",
          "name": "_stakingManager",
          "type": "address"
        },
        {
          "internalType": "uint128",
          "name": "_validatorsN",
          "type": "uint128"
        },
        {
          "internalType": "uint128",
          "name": "_rewardPool",
          "type": "uint128"
        },
        {
          "internalType": "uint128",
          "name": "_validatorCoolDown",
          "type": "uint128"
        },
        {
          "internalType": "uint128",
          "name": "_delegatorCoolDown",
          "type": "uint128"
        },
        {
          "internalType": "uint128",
          "name": "_maxCapMultiplier",
          "type": "uint128"
        },
        {
          "internalType": "uint128",
          "name": "_validatorMaxStake",
          "type": "uint128"
        }
      ],
      "stateMutability": "view",
      "type": "function"
    },
    {
      "inputs": [
        {
          "internalType": "uint128",
          "name": "validatorId",
          "type": "uint128"
        }
      ],
      "name": "getValidatorCompoundedStakingData",
      "outputs": [
        {
          "internalType": "uint128",
          "name": "staked",
          "type": "uint128"
        },
        {
          "internalType": "uint128",
          "name": "delegated",
          "type": "uint128"
        }
      ],
      "stateMutability": "view",
      "type": "function"
    },
    {
      "inputs": [
        {
          "internalType": "uint128",
          "name": "validatorId",
          "type": "uint128"
        }
      ],
      "name": "getValidatorMetadata",
      "outputs": [
        {
          "internalType": "address",
          "name": "_address",
          "type": "address"
        },
        {
          "internalType": "uint128",
          "name": "staked",
          "type": "uint128"
        },
        {
          "internalType": "uint128",
          "name": "delegated",
          "type": "uint128"
        },
        {
          "internalType": "uint128",
          "name": "commissionRate",
          "type": "uint128"
        },
        {
          "internalType": "uint256",
          "name": "disabledAtBlock",
          "type": "uint256"
        }
      ],
      "stateMutability": "view",
      "type": "function"
    },
    {
      "inputs": [
        {
          "internalType": "uint128",
          "name": "validatorId",
          "type": "uint128"
        }
      ],
      "name": "getValidatorStakingData",
      "outputs": [
        {
          "internalType": "uint128",
          "name": "staked",
          "type": "uint128"
        },
        {
          "internalType": "uint128",
          "name": "delegated",
          "type": "uint128"
        }
      ],
      "stateMutability": "view",
      "type": "function"
    },
    {
      "inputs": [
        {
          "internalType": "uint128",
          "name": "startId",
          "type": "uint128"
        },
        {
          "internalType": "uint128",
          "name": "endId",
          "type": "uint128"
        }
      ],
      "name": "getValidatorsMetadata",
      "outputs": [
        {
          "internalType": "address[]",
          "name": "addresses",
          "type": "address[]"
        },
        {
          "internalType": "uint128[]",
          "name": "staked",
          "type": "uint128[]"
        },
        {
          "internalType": "uint128[]",
          "name": "delegated",
          "type": "uint128[]"
        },
        {
          "internalType": "uint128[]",
          "name": "commissionRates",
          "type": "uint128[]"
        },
        {
          "internalType": "uint256[]",
          "name": "disabledAtBlocks",
          "type": "uint256[]"
        }
      ],
      "stateMutability": "view",
      "type": "function"
    },
    {
      "inputs": [
        {
          "internalType": "address",
          "name": "cqt",
          "type": "address"
        },
        {
          "internalType": "uint128",
          "name": "dCoolDown",
          "type": "uint128"
        },
        {
          "internalType": "uint128",
          "name": "vCoolDown",
          "type": "uint128"
        },
        {
          "internalType": "uint128",
          "name": "maxCapM",
          "type": "uint128"
        },
        {
          "internalType": "uint128",
          "name": "vMaxStake",
          "type": "uint128"
        }
      ],
      "name": "initialize",
      "outputs": [],
      "stateMutability": "nonpayable",
      "type": "function"
    },
    {
      "inputs": [
        {
          "internalType": "uint128",
          "name": "validatorId",
          "type": "uint128"
        }
      ],
      "name": "isValidatorEnabled",
      "outputs": [
        {
          "internalType": "bool",
          "name": "",
          "type": "bool"
        }
      ],
      "stateMutability": "view",
      "type": "function"
    },
    {
      "inputs": [],
      "name": "maxCapMultiplier",
      "outputs": [
        {
          "internalType": "uint128",
          "name": "",
          "type": "uint128"
        }
      ],
      "stateMutability": "view",
      "type": "function"
    },
    {
      "inputs": [
        {
          "internalType": "uint256",
          "name": "goalStepping",
          "type": "uint256"
        }
      ],
      "name": "migrateTo",
      "outputs": [],
      "stateMutability": "nonpayable",
      "type": "function"
    },
    {
      "inputs": [],
      "name": "owner",
      "outputs": [
        {
          "internalType": "address",
          "name": "",
          "type": "address"
        }
      ],
      "stateMutability": "view",
      "type": "function"
    },
    {
      "inputs": [],
      "name": "pause",
      "outputs": [],
      "stateMutability": "nonpayable",
      "type": "function"
    },
    {
      "inputs": [],
      "name": "paused",
      "outputs": [
        {
          "internalType": "bool",
          "name": "",
          "type": "bool"
        }
      ],
      "stateMutability": "view",
      "type": "function"
    },
    {
      "inputs": [
        {
          "internalType": "uint128",
          "name": "amount",
          "type": "uint128"
        },
        {
          "internalType": "uint128",
          "name": "validatorId",
          "type": "uint128"
        },
        {
          "internalType": "uint128",
          "name": "unstakingId",
          "type": "uint128"
        }
      ],
      "name": "recoverUnstaking",
      "outputs": [],
      "stateMutability": "nonpayable",
      "type": "function"
    },
    {
      "inputs": [
        {
          "internalType": "uint128",
          "name": "validatorId",
          "type": "uint128"
        },
        {
          "internalType": "address",
          "name": "beneficiary",
          "type": "address"
        }
      ],
      "name": "redeemAllCommission",
      "outputs": [],
      "stateMutability": "nonpayable",
      "type": "function"
    },
    {
      "inputs": [
        {
          "internalType": "uint128",
          "name": "validatorId",
          "type": "uint128"
        },
        {
          "internalType": "address",
          "name": "beneficiary",
          "type": "address"
        }
      ],
      "name": "redeemAllRewards",
      "outputs": [],
      "stateMutability": "nonpayable",
      "type": "function"
    },
    {
      "inputs": [
        {
          "internalType": "uint128",
          "name": "validatorId",
          "type": "uint128"
        },
        {
          "internalType": "address",
          "name": "beneficiary",
          "type": "address"
        },
        {
          "internalType": "uint128",
          "name": "amount",
          "type": "uint128"
        }
      ],
      "name": "redeemCommission",
      "outputs": [],
      "stateMutability": "nonpayable",
      "type": "function"
    },
    {
      "inputs": [
        {
          "internalType": "uint128",
          "name": "validatorId",
          "type": "uint128"
        },
        {
          "internalType": "address",
          "name": "beneficiary",
          "type": "address"
        },
        {
          "internalType": "uint128",
          "name": "amount",
          "type": "uint128"
        }
      ],
      "name": "redeemRewards",
      "outputs": [],
      "stateMutability": "nonpayable",
      "type": "function"
    },
    {
      "inputs": [
        {
          "internalType": "uint128",
          "name": "amount",
          "type": "uint128"
        },
        {
          "internalType": "uint128",
          "name": "oldValidatorId",
          "type": "uint128"
        },
        {
          "internalType": "uint128",
          "name": "newValidatorId",
          "type": "uint128"
        },
        {
          "internalType": "uint128",
          "name": "unstakingId",
          "type": "uint128"
        }
      ],
      "name": "redelegateUnstaked",
      "outputs": [],
      "stateMutability": "nonpayable",
      "type": "function"
    },
    {
      "inputs": [],
      "name": "renounceOwnership",
      "outputs": [],
      "stateMutability": "nonpayable",
      "type": "function"
    },
    {
      "inputs": [],
      "name": "rewardPool",
      "outputs": [
        {
          "internalType": "uint128",
          "name": "",
          "type": "uint128"
        }
      ],
      "stateMutability": "view",
      "type": "function"
    },
    {
      "inputs": [
        {
          "internalType": "uint128[]",
          "name": "ids",
          "type": "uint128[]"
        },
        {
          "internalType": "uint128[]",
          "name": "amounts",
          "type": "uint128[]"
        }
      ],
      "name": "rewardValidators",
      "outputs": [],
      "stateMutability": "nonpayable",
      "type": "function"
    },
    {
      "inputs": [
        {
          "internalType": "uint128",
          "name": "coolDown",
          "type": "uint128"
        }
      ],
      "name": "setDelegatorCoolDown",
      "outputs": [],
      "stateMutability": "nonpayable",
      "type": "function"
    },
    {
      "inputs": [
        {
          "internalType": "uint128",
          "name": "minStake",
          "type": "uint128"
        }
      ],
      "name": "setDelegatorMinStake",
      "outputs": [],
      "stateMutability": "nonpayable",
      "type": "function"
    },
    {
      "inputs": [
        {
          "internalType": "uint128",
          "name": "newMaxCapMultiplier",
          "type": "uint128"
        }
      ],
      "name": "setMaxCapMultiplier",
      "outputs": [],
      "stateMutability": "nonpayable",
      "type": "function"
    },
    {
      "inputs": [
        {
          "internalType": "address",
          "name": "newAddress",
          "type": "address"
        }
      ],
      "name": "setStakingManagerAddress",
      "outputs": [],
      "stateMutability": "nonpayable",
      "type": "function"
    },
    {
      "inputs": [
        {
          "internalType": "uint128",
          "name": "validatorId",
          "type": "uint128"
        },
        {
          "internalType": "address",
          "name": "newAddress",
          "type": "address"
        }
      ],
      "name": "setValidatorAddress",
      "outputs": [],
      "stateMutability": "nonpayable",
      "type": "function"
    },
    {
      "inputs": [
        {
          "internalType": "uint128",
          "name": "validatorId",
          "type": "uint128"
        },
        {
          "internalType": "uint128",
          "name": "amount",
          "type": "uint128"
        }
      ],
      "name": "setValidatorCommissionRate",
      "outputs": [],
      "stateMutability": "nonpayable",
      "type": "function"
    },
    {
      "inputs": [
        {
          "internalType": "uint128",
          "name": "coolDown",
          "type": "uint128"
        }
      ],
      "name": "setValidatorCoolDown",
      "outputs": [],
      "stateMutability": "nonpayable",
      "type": "function"
    },
    {
      "inputs": [
        {
          "internalType": "uint128",
          "name": "minStake",
          "type": "uint128"
        }
      ],
      "name": "setValidatorEnableMinStake",
      "outputs": [],
      "stateMutability": "nonpayable",
      "type": "function"
    },
    {
      "inputs": [
        {
          "internalType": "uint128",
          "name": "maxStake",
          "type": "uint128"
        }
      ],
      "name": "setValidatorMaxStake",
      "outputs": [],
      "stateMutability": "nonpayable",
      "type": "function"
    },
    {
      "inputs": [
        {
          "internalType": "uint128",
          "name": "validatorId",
          "type": "uint128"
        },
        {
          "internalType": "uint128",
          "name": "amount",
          "type": "uint128"
        }
      ],
      "name": "stake",
      "outputs": [],
      "stateMutability": "nonpayable",
      "type": "function"
    },
    {
      "inputs": [],
      "name": "stakingManager",
      "outputs": [
        {
          "internalType": "address",
          "name": "",
          "type": "address"
        }
      ],
      "stateMutability": "view",
      "type": "function"
    },
    {
      "inputs": [
        {
          "internalType": "uint128",
          "name": "amount",
          "type": "uint128"
        }
      ],
      "name": "takeOutRewardTokens",
      "outputs": [],
      "stateMutability": "nonpayable",
      "type": "function"
    },
    {
      "inputs": [
        {
          "internalType": "address",
          "name": "newOwner",
          "type": "address"
        }
      ],
      "name": "transferOwnership",
      "outputs": [],
      "stateMutability": "nonpayable",
      "type": "function"
    },
    {
      "inputs": [
        {
          "internalType": "uint128",
          "name": "amount",
          "type": "uint128"
        },
        {
          "internalType": "uint128",
          "name": "validatorId",
          "type": "uint128"
        },
        {
          "internalType": "uint128",
          "name": "unstakingId",
          "type": "uint128"
        }
      ],
      "name": "transferUnstakedOut",
      "outputs": [],
      "stateMutability": "nonpayable",
      "type": "function"
    },
    {
      "inputs": [
        {
          "internalType": "uint128",
          "name": "validatorId",
          "type": "uint128"
        }
      ],
      "name": "unfreezeValidator",
      "outputs": [],
      "stateMutability": "nonpayable",
      "type": "function"
    },
    {
      "inputs": [],
      "name": "unpause",
      "outputs": [],
      "stateMutability": "nonpayable",
      "type": "function"
    },
    {
      "inputs": [
        {
          "internalType": "uint128",
          "name": "validatorId",
          "type": "uint128"
        },
        {
          "internalType": "uint128",
          "name": "amount",
          "type": "uint128"
        }
      ],
      "name": "unstake",
      "outputs": [],
      "stateMutability": "nonpayable",
      "type": "function"
    },
    {
      "inputs": [
        {
          "internalType": "uint128",
          "name": "validatorId",
          "type": "uint128"
        }
      ],
      "name": "unstakeAll",
      "outputs": [],
      "stateMutability": "nonpayable",
      "type": "function"
    },
    {
      "inputs": [],
      "name": "validatorCoolDown",
      "outputs": [
        {
          "internalType": "uint128",
          "name": "",
          "type": "uint128"
        }
      ],
      "stateMutability": "view",
      "type": "function"
    },
    {
      "inputs": [],
      "name": "validatorEnableMinStake",
      "outputs": [
        {
          "internalType": "uint128",
          "name": "",
          "type": "uint128"
        }
      ],
      "stateMutability": "view",
      "type": "function"
    },
    {
      "inputs": [],
      "name": "validatorMaxStake",
      "outputs": [
        {
          "internalType": "uint128",
          "name": "",
          "type": "uint128"
        }
      ],
      "stateMutability": "view",
      "type": "function"
    },
    {
      "inputs": [],
      "name": "validatorsN",
      "outputs": [
        {
          "internalType": "uint128",
          "name": "",
          "type": "uint128"
        }
      ],
      "stateMutability": "view",
      "type": "function"
    }
  ],
  "bytecode": "0x608060405234801561001057600080fd5b50615076806100206000396000f3fe608060405234801561001057600080fd5b506004361061029e5760003560e01c806307fd8763146102a357806309991223146102b85780630b56a2bc146102d95780630f04adfe146102f257806317c2b0a91461031257806322828cc2146103255780632a019e6f1461033857806337e15bce1461034b5780633a64440b1461035e5780633b4e76c1146103715780633f4ba83a1461038457806340e7e9f01461038c578063429a481b1461039f5780634365c74f146103c257806344524386146103d5578063445c81d7146103eb5780634c4a1709146103fe57806353b749221461041f5780635b216723146104395780635c975abb1461045d5780635ed24cb714610469578063605a50171461047c57806362043bd81461048f5780636423bf1b1461049e5780636459db95146104af578063650de76b146104c257806366666aa9146104dc5780636c6dca5c146104ef5780636cb4ded3146105025780637106aa8414610515578063715018a6146105285780637a5b4f59146105305780638456cb59146105a55780638459ec68146105ad57806385632db1146105c057806387326a0c146105d3578063884ef0aa146106275780638a8103241461063a5780638b877db21461064d5780638da5cb5b146106605780639099ac1014610668578063916094491461067b5780639860fa251461068e5780639ea05077146106a15780639f10816f146106b4578063a2e7e441146106c7578063a3e89bac146106da578063a50481f1146106ed578063abfd6fa914610700578063ad9e91ee1461070f578063c6c60a1814610722578063da7a9b6a14610735578063dfc50f651461074f578063eabc89d714610762578063edff4b6114610775578063eead9d9414610788578063f1aa0c651461079b578063f2fde38b146107ae575b600080fd5b6102b66102b1366004614650565b6107c1565b005b6102c36305f5e10081565b6040516102d09190614683565b60405180910390f35b6102e16107fc565b6040516102d095949392919061470b565b606554610305906001600160a01b031681565b6040516102d091906147aa565b6102b6610320366004614650565b610835565b606954610305906001600160a01b031681565b6102b66103463660046147d5565b61090a565b6102b6610359366004614818565b610965565b6102b661036c366004614833565b6109ff565b6102b661037f36600461485f565b610c3e565b6102b6610c9c565b6102b661039a36600461487a565b610d34565b6103b26103ad36600461485f565b610fbd565b60405190151581526020016102d0565b6102b66103d036600461485f565b61100e565b6103dd600381565b6040519081526020016102d0565b6102b66103f93660046148ce565b611060565b61041161040c36600461485f565b61145d565b6040516102d09291906148f8565b6066546102c390600160801b90046001600160801b031681565b61044c610447366004614912565b6114ee565b6040516102d095949392919061492e565b606e5460ff16156103b2565b6102b661047736600461485f565b6117c2565b6102b661048a3660046149bf565b611844565b6103dd670de0b6b3a764000081565b6102c36907695a92c20d6fe0000081565b6102b66104bd3660046148ce565b611c24565b6067546102c390600160801b90046001600160801b031681565b6066546102c3906001600160801b031681565b6102b66104fd36600461485f565b611c6e565b6102b661051036600461485f565b611c9e565b6102b661052336600461485f565b611d42565b6102b6611e1f565b606554606954606a54606654606754606854604080516001600160a01b0397881681529690951660208701526001600160801b03938416948601949094528282166060860152600160801b918290048316608086015282811660a086015204811660c08401521660e0820152610100016102d0565b6102b6611e29565b6102b66105bb3660046148ce565b611e84565b606c546102c3906001600160801b031681565b6105e66105e136600461485f565b611eb2565b604080516001600160a01b0390961686526001600160801b03948516602087015292841692850192909252919091166060830152608082015260a0016102d0565b6102b6610635366004614833565b611f4f565b606a546102c3906001600160801b031681565b6102b661065b36600461485f565b6120ff565b6103056121ee565b6102b661067636600461485f565b6121fd565b6102b6610689366004614650565b61227e565b61041161069c36600461485f565b6122d3565b6102b66106af36600461485f565b612355565b6068546102c3906001600160801b031681565b6103dd6106d5366004614912565b6123fb565b6102e16106e8366004614650565b6125ba565b6102b66106fb366004614a2a565b612935565b6102c3670de0b6b3a764000081565b6102b661071d366004614a8f565b612b4a565b6102b6610730366004614ab9565b612c4f565b606c546102c390600160801b90046001600160801b031681565b6067546102c3906001600160801b031681565b6102b66107703660046147d5565b612d04565b6102b661078336600461485f565b612fc8565b6102b6610796366004614ae8565b613155565b6102b66107a936600461485f565b61324d565b6102b66107bc366004614818565b6132d8565b606e5460ff166107ec5760405162461bcd60e51b81526004016107e390614ba9565b60405180910390fd5b6107f88282600161334e565b5050565b60608060608060606108246000606a60009054906101000a90046001600160801b03166125ba565b945094509450945094509091929394565b61083d6137b1565b606a546001600160801b039081169083161061086b5760405162461bcd60e51b81526004016107e390614bc9565b670de0b6b3a7640000816001600160801b03161061089b5760405162461bcd60e51b81526004016107e390614bf4565b6001600160801b038281166000818152606b60205260409081902060030180546001600160801b0319169385169390931790925590517f0f8cc456c84d934a2b1eb24d7b56c2304c9e61aed06c7e67aa5167ff06c0bc65906108fe908490614683565b60405180910390a25050565b606e5460ff1661092c5760405162461bcd60e51b81526004016107e390614ba9565b6000816001600160801b0316116109555760405162461bcd60e51b81526004016107e390614c29565b610960838383613810565b505050565b61096d6137b1565b6001600160a01b0381166109b55760405162461bcd60e51b815260206004820152600f60248201526e496e76616c6964206164647265737360881b60448201526064016107e3565b606980546001600160a01b0319166001600160a01b0383169081179091556040517f806e006f6f107ac370f162bdeec43a7db0f2d47ca85ba3da932d442771912a3590600090a250565b606e5460ff16610a215760405162461bcd60e51b81526004016107e390614ba9565b606a546001600160801b0390811690831610610a4f5760405162461bcd60e51b81526004016107e390614bc9565b6001600160801b038281166000908152606b6020908152604080832033845260060190915290205490821610610a975760405162461bcd60e51b81526004016107e390614c4e565b6001600160801b038083166000908152606b602090815260408083203384526006019091528120805491929091908416908110610ad657610ad6614c80565b600091825260209091200180549091506001600160801b039081164390911611610b425760405162461bcd60e51b815260206004820152601d60248201527f436f6f6c646f776e20706572696f6420686173206e6f7420656e64656400000060448201526064016107e3565b80546001600160801b03808616600160801b909204161015610b9b5760405162461bcd60e51b8152602060048201526012602482015271082dadeeadce840d2e640e8dede40d0d2ced60731b60448201526064016107e3565b80546001600160801b03808216600160801b92839004821687900382168302178084559190910416600003610bd95780546001600160801b03191681555b816001600160801b0316336001600160a01b0316846001600160801b03167fa907b4e09e37315c70c013b1855950857585ae1efd206f344d5507f3b7a440d787604051610c269190614683565b60405180910390a4610c383385613b65565b50505050565b610c466137b1565b606780546001600160801b0319166001600160801b0383161790556040517f07e1dd3aeb6786f7e65f705157791b46bb0c3a23c63ce60f6bce52060addc8a790610c91908390614683565b60405180910390a150565b610ca46137b1565b606e5460ff1615610ce85760405162461bcd60e51b815260206004820152600e60248201526d1b5d5cdd081899481c185d5cd95960921b60448201526064016107e3565b606e805460ff191660011790557f5db9ee0a495bf2e6ff9c91a7834c1ba4fdd244a5e8aa4e537bd38aeae4b073aa610d1d3390565b604051610d2a91906147aa565b60405180910390a1565b606e5460ff16610d565760405162461bcd60e51b81526004016107e390614ba9565b606a546001600160801b0390811690841610610d845760405162461bcd60e51b81526004016107e390614bc9565b6001600160801b0383166000908152606b60205260409020600781015460ff1615610dc15760405162461bcd60e51b81526004016107e390614c96565b8060040154600003610e115760405162461bcd60e51b815260206004820152601960248201527815985b1a59185d1bdc881a5cc81b9bdd08191a5cd8589b1959603a1b60448201526064016107e3565b6001810154336001600160a01b0390911603610e6d5760405162461bcd60e51b815260206004820152601b60248201527a56616c696461746f722063616e6e6f7420726564656c656761746560281b60448201526064016107e3565b3360009081526006820160205260409020546001600160801b03831610610ea65760405162461bcd60e51b81526004016107e390614c4e565b336000908152600682016020526040812080546001600160801b038516908110610ed257610ed2614c80565b600091825260209091200180549091506001600160801b03808816600160801b909204161015610f145760405162461bcd60e51b81526004016107e390614cc3565b80546001600160801b03808216600160801b92839004821689900382168302178084559190910416600003610f525780546001600160801b03191681555b336001600160a01b0316846001600160801b0316866001600160801b03167fad667f96915cdefb4384b6fc59780e6f35a72cffecee152d5b83c2ec4bd16e3a8987604051610fa19291906148f8565b60405180910390a4610fb58487600061334e565b505050505050565b606a546000906001600160801b0390811690831610610fee5760405162461bcd60e51b81526004016107e390614bc9565b506001600160801b03166000908152606b60205260409020600401541590565b6110166137b1565b606680546001600160801b03808416600160801b0291161790556040517f975929c98e941a24cd7efdf9d3246bce86fae97c36c96865237dc361de5db26190610c91908390614683565b606e5460ff166110825760405162461bcd60e51b81526004016107e390614ba9565b6001600160801b0382166000908152606b6020526040902060018101546001600160a01b031633146110f45760405162461bcd60e51b815260206004820152601b60248201527a29b2b73232b91034b9903737ba103a3432903b30b634b230ba37b960291b60448201526064016107e3565b60018101546001600160a01b0380841691160361117b576040805162461bcd60e51b81526020600482015260248101919091527f546865206e657720616464726573732063616e6e6f7420626520657175616c2060448201527f746f207468652063757272656e742076616c696461746f72206164647265737360648201526084016107e3565b6001600160a01b0382166111cd5760405162461bcd60e51b8152602060048201526019602482015278496e76616c69642076616c696461746f72206164647265737360381b60448201526064016107e3565b600781015460ff16156111f25760405162461bcd60e51b81526004016107e390614c96565b336000908152600582016020526040808220546001600160a01b038516835290822080546001600160801b0392831693919261123091859116614d0c565b82546101009290920a6001600160801b03818102199093169183160217909155336000908152600584016020526040808220546001600160a01b038716835291208054600160801b9283900484169450909260109261129492869291900416614d0c565b82546001600160801b039182166101009390930a9283029190920219909116179055503360009081526005820160209081526040808320839055600684019091529020805461012c81111561133c5760405162461bcd60e51b815260206004820152602860248201527f43616e6e6f74207472616e73666572206d6f7265207468616e2033303020756e6044820152677374616b696e677360c01b60648201526084016107e3565b6001600160a01b03841660009081526006840160205260408120905b82816001600160801b031610156113e6578184826001600160801b03168154811061138557611385614c80565b6000918252602080832084546001810186559484529220910180549190920180546001600160801b0319166001600160801b0392831690811782559254600160801b9081900490921690910290911790556113df81614d37565b9050611358565b50336000908152600685016020526040812061140191614602565b6001840180546001600160a01b0319166001600160a01b0387169081179091556040516001600160801b038816907f440fb92be8d36802cfffb11ceda74bc13f38abab2e6f8675b9b1725787a6e52990600090a3505050505050565b6001600160801b038082166000908152606b6020908152604080832060018101546001600160a01b03168452600581019092528220548154929384936114ae92821691600160801b90910416613b85565b6002820154825491945084916114dc916001600160801b03600160801b918290048116929190910416613b85565b6114e69190614d65565b915050915091565b606a546000908190819060609081906001600160801b03908116908716106115285760405162461bcd60e51b81526004016107e390614bc9565b6001600160801b038087166000908152606b602090815260408083206001600160a01b038c16845260058101909252822080548254600160801b80830487169b50939592949361157e9392831692910416613b85565b82549091506001600160801b03600160801b9091048116908216116115a657600096506115c5565b81546115c290600160801b90046001600160801b031682614d65565b96505b60018301546001600160a01b03808c169116036115ea5782546001600160801b031695505b6001600160a01b038a166000908152600684016020908152604080832080548251818502810185019093528083529192909190849084015b8282101561166b57600084815260209081902060408051808201909152908401546001600160801b038082168352600160801b9091041681830152825260019092019101611622565b50508251929350829150506001600160401b0381111561168d5761168d614ad2565b6040519080825280602002602001820160405280156116b6578160200160208202803683370190505b509650806001600160401b038111156116d1576116d1614ad2565b6040519080825280602002602001820160405280156116fa578160200160208202803683370190505b50955060005b818110156117b25782818151811061171a5761171a614c80565b60200260200101516020015188828151811061173857611738614c80565b60200260200101906001600160801b031690816001600160801b03168152505082818151811061176a5761176a614c80565b60200260200101516000015187828151811061178857611788614c80565b6001600160801b0390921660209283029190910190910152806117aa81614d8d565b915050611700565b5050505050509295509295909350565b6117ca6137b1565b6068546001600160801b0390811690821611156117f95760405162461bcd60e51b81526004016107e390614da6565b606c80546001600160801b0319166001600160801b0383161790556040517f96615934d2bb7b5a5040acb500498ac22e70b228607abe42d1c5fb66410306a590610c91908390614683565b6069546001600160a01b0316331461186e5760405162461bcd60e51b81526004016107e390614df7565b606e5460ff166118905760405162461bcd60e51b81526004016107e390614ba9565b8281146118ff5760405162461bcd60e51b815260206004820152603760248201527f476976656e2069647320616e6420616d6f756e747320617272617973206d75736044820152760e840c4ca40decc40e8d0ca40e6c2daca40d8cadccee8d604b1b60648201526084016107e3565b6066546001600160801b031660008080805b87811015611bf95786868281811061192b5761192b614c80565b9050602002016020810190611940919061485f565b935088888281811061195457611954614c80565b9050602002016020810190611969919061485f565b9250836001600160801b0316856001600160801b031610156119cb57826001600160801b03167f0fe05e323c51ec64db29d65e4471f535fbed63586f534f452455b30e98542483856040516119be9190614683565b60405180910390a2611be7565b6001600160801b0383166000908152606b60205260409020600781015460ff1615611a3757836001600160801b03167fc2bdf82af0e9f6a6a8f058a552be64fe1e51323a57e371f35ad21244fae47b1a86604051611a299190614683565b60405180910390a250611be7565b600481015415611a7a57836001600160801b03167f3f3428e3eab4bb899c776a5ee201ed7966fab0436396bb5fbf2d185f9af07c1f86604051611a299190614683565b6002810154600160801b90046001600160801b0316600003611acf57836001600160801b03167f7110409a3c69501d520618529eec9541a3d35ae7b4c5df2a4e5271438105cee386604051611a299190614683565b6003810154670de0b6b3a764000090611af5906001600160801b03908116908816614e2d565b611aff9190614e4c565b6002820154909350600160801b90046001600160801b0316670de0b6b3a7640000611b2a8588614d65565b6001600160801b0316611b3d9190614e2d565b611b479190614e4c565b81548290601090611b69908490600160801b90046001600160801b0316614d0c565b92506101000a8154816001600160801b0302191690836001600160801b03160217905550828160000160008282829054906101000a90046001600160801b0316611bb39190614d0c565b92506101000a8154816001600160801b0302191690836001600160801b031602179055508486611be39190614d65565b9550505b80611bf181614d8d565b915050611911565b5050606680546001600160801b0319166001600160801b039490941693909317909255505050505050565b606e5460ff16611c465760405162461bcd60e51b81526004016107e390614ba9565b6001600160801b038083166000908152606b60205260409020546107f8918491849116612d04565b606e5460ff16611c905760405162461bcd60e51b81526004016107e390614ba9565b611c9b816000613bb7565b50565b611ca66137b1565b6000816001600160801b031611611cf85760405162461bcd60e51b815260206004820152601660248201527504d7573742062652067726561746572207468616e20360541b60448201526064016107e3565b606780546001600160801b03808416600160801b0291161790556040517fbe85ebc47051eb40cf466cba324b4ceee119941ef0101ec0123999a5b679409990610c91908390614683565b611d4a6137b1565b606a546001600160801b0390811690821610611d785760405162461bcd60e51b81526004016107e390614bc9565b6001600160801b0381166000908152606b60205260409020600781015460ff16611ddb5760405162461bcd60e51b81526020600482015260146024820152732b30b634b230ba37b9103737ba10333937bd32b760611b60448201526064016107e3565b60078101805460ff191690556040516001600160801b038316907fea4a8e0f0ee4183a88d61c99c0c349b672a9931dca611802e7d489cac22ac70090600090a25050565b611e276137b1565b565b611e316137b1565b606e5460ff16611e535760405162461bcd60e51b81526004016107e390614ba9565b606e805460ff191690557f62e78cea01bee320cd4e420270b5ea74000d11b0c9f74754ebdbfc544b05a25833610d1d565b606e5460ff16611ea65760405162461bcd60e51b81526004016107e390614ba9565b6107f882826000613810565b606a5460009081908190819081906001600160801b0390811690871610611eeb5760405162461bcd60e51b81526004016107e390614bc9565b505050506001600160801b039182166000908152606b6020908152604080832060018101546001600160a01b031680855260058201909352922054600283015460038401546004909401549296600160801b90920486169590811694509290921691565b606e5460ff16611f715760405162461bcd60e51b81526004016107e390614ba9565b606a546001600160801b0390811690831610611f9f5760405162461bcd60e51b81526004016107e390614bc9565b6001600160801b038281166000908152606b6020908152604080832033845260060190915290205490821610611fe75760405162461bcd60e51b81526004016107e390614c4e565b6001600160801b038083166000908152606b60209081526040808320338452600601909152812080549192909190841690811061202657612026614c80565b600091825260209091200180549091506001600160801b03808616600160801b9092041610156120685760405162461bcd60e51b81526004016107e390614cc3565b80546001600160801b03808216600160801b928390048216879003821683021780845591909104166000036120a65780546001600160801b03191681555b336001600160a01b0316836001600160801b03167ff9087cb83487275bb1784df2905fb9038a38f2423637cba5910e5e638147b54686856040516120eb9291906148f8565b60405180910390a3610c388385600061334e565b6121076137b1565b6000816001600160801b0316116121305760405162461bcd60e51b81526004016107e390614c29565b6066546001600160801b03908116908216111561218a5760405162461bcd60e51b815260206004820152601860248201527714995dd85c99081c1bdbdb081a5cc81d1bdbc81cdb585b1b60421b60448201526064016107e3565b606680546001600160801b03808216849003166001600160801b03199091161790556040517fb377d2221ae3ae0038f8a2593ce854d79cc6d598036b3acb67a2bed08557ee2e906121dc908390614683565b60405180910390a1611c9b3382613b65565b6033546001600160a01b031690565b6122056137b1565b6068546001600160801b0390811690821611156122345760405162461bcd60e51b81526004016107e390614da6565b606c80546001600160801b03808416600160801b0291161790556040517f159c54a1ee3a0b6b82a6af64b4ca254a0c24088fac62ae018204136aa590d3f990610c91908390614683565b606e5460ff166122a05760405162461bcd60e51b81526004016107e390614ba9565b6000816001600160801b0316116122c95760405162461bcd60e51b81526004016107e390614c29565b6107f88282613bb7565b606a5460009081906001600160801b03908116908416106123065760405162461bcd60e51b81526004016107e390614bc9565b50506001600160801b039081166000908152606b6020908152604080832060018101546001600160a01b031684526005810190925290912054600290910154600160801b909104821692911690565b61235d6137b1565b6000816001600160801b0316116123b05760405162461bcd60e51b8152602060048201526017602482015276050726f7669646564206d6178207374616b65206973203604c1b60448201526064016107e3565b606880546001600160801b0319166001600160801b0383161790556040517fc85c2d6ddb875b53634093f65fbea4ed8eba0b4efca26b87bc17ffedb668916490610c91908390614683565b6069546000906001600160a01b031633146124285760405162461bcd60e51b81526004016107e390614df7565b606e5460ff1661244a5760405162461bcd60e51b81526004016107e390614ba9565b670de0b6b3a7640000826001600160801b03161061247a5760405162461bcd60e51b81526004016107e390614bf4565b6001600160a01b0383166124c95760405162461bcd60e51b8152602060048201526016602482015275056616c696461746f72206164647265737320697320360541b60448201526064016107e3565b606a80546001600160801b039081166000908152606b602052604090819020600180820180546001600160a01b0319166001600160a01b038a16908117909155825485166503782dace9d960921b1783556003830180546001600160801b03191689871617905560048301919091559354915190939291909116907f5a7dc0f8a1745e71f29bb12198638d3c7284ae1227928e679ab6bf3dc1f2861790612571908790614683565b60405180910390a3606a80546001600160801b0319811660016001600160801b0392831681019092169081179092556125a991614d65565b6001600160801b0316949350505050565b606a5460609081908190819081906001600160801b0390811690871611156126155760405162461bcd60e51b815260206004820152600e60248201526d125b9d985b1a5908195b99081a5960921b60448201526064016107e3565b856001600160801b0316876001600160801b0316106126805760405162461bcd60e51b815260206004820152602160248201527f5374617274206964206d757374206265206c657373207468616e20656e6420696044820152601960fa1b60648201526084016107e3565b600061268c8888614d65565b9050806001600160801b03166001600160401b038111156126af576126af614ad2565b6040519080825280602002602001820160405280156126d8578160200160208202803683370190505b509550806001600160801b03166001600160401b038111156126fc576126fc614ad2565b604051908082528060200260200182016040528015612725578160200160208202803683370190505b509450806001600160801b03166001600160401b0381111561274957612749614ad2565b604051908082528060200260200182016040528015612772578160200160208202803683370190505b509350806001600160801b03166001600160401b0381111561279657612796614ad2565b6040519080825280602002602001820160405280156127bf578160200160208202803683370190505b509250806001600160801b03166001600160401b038111156127e3576127e3614ad2565b60405190808252806020026020018201604052801561280c578160200160208202803683370190505b5091506000885b886001600160801b0316816001600160801b03161015612928576128378a82614d65565b915061284281611eb2565b8c876001600160801b03168151811061285d5761285d614c80565b602002602001018c886001600160801b03168151811061287f5761287f614c80565b602002602001018c896001600160801b0316815181106128a1576128a1614c80565b602002602001018c8a6001600160801b0316815181106128c3576128c3614c80565b602002602001018c8b6001600160801b0316815181106128e5576128e5614c80565b60209081029190910101949094526001600160801b03948516909352938316909152921690526001600160a01b03909116905261292181614d37565b9050612813565b5050509295509295909350565b600054610100900460ff16158080156129555750600054600160ff909116105b806129765750612964306141fd565b158015612976575060005460ff166001145b6129d95760405162461bcd60e51b815260206004820152602e60248201527f496e697469616c697a61626c653a20636f6e747261637420697320616c72656160448201526d191e481a5b9a5d1a585b1a5e995960921b60648201526084016107e3565b6000805460ff1916600117905580156129fc576000805461ff0019166101001790555b612a0461420c565b606680546001600160801b03908116600160801b878316818102929092179093558782168683169384028117606755606880546001600160801b03191693871693841790556907695a92c20d6fe000006503782dace9d960921b01606c55606e805460ff191660011790556000606d55606580546001600160a01b0319166001600160a01b038c1690811790915560408051918252602082019390935291820152606081019290925260808201526907695a92c20d6fe0000060a0820152670de0b6b3a764000060c08201527f3a6f36977cdc91f7bb8ccc219e89b93cafcf52a56962dae594720be479f2744f9060e00160405180910390a18015610fb5576000805461ff0019169055604051600181527f7f26b83ff96e1f2b6a682f133852f6798a09c465da95921460cefb38474024989060200160405180910390a1505050505050565b6069546001600160a01b0316331480612b7b5750612b666121ee565b6001600160a01b0316336001600160a01b0316145b612b975760405162461bcd60e51b81526004016107e390614e6e565b606a546001600160801b0390811690831610612bc55760405162461bcd60e51b81526004016107e390614bc9565b60008111612c115760405162461bcd60e51b8152602060048201526019602482015278044697361626c6520626c6f636b2063616e6e6f74206265203603c1b60448201526064016107e3565b6001600160801b0382166000818152606b60205260409081902060040183905551600080516020615021833981519152906108fe9084815260200190565b612c576137b1565b6003811115612cb25760405162461bcd60e51b815260206004820152602160248201527f696e76616c696420746172676574206d6967726174696f6e207374657070696e6044820152606760f81b60648201526084016107e3565b80606d5410612cf65760405162461bcd60e51b815260206004820152601060248201526f185b1c9958591e481b5a59dc985d195960821b60448201526064016107e3565b50606e805461ff0019169055565b606e5460ff16612d265760405162461bcd60e51b81526004016107e390614ba9565b606a546001600160801b0390811690841610612d545760405162461bcd60e51b81526004016107e390614bc9565b6001600160a01b038216612d7a5760405162461bcd60e51b81526004016107e390614eb3565b6001600160801b0383166000908152606b6020526040902060018101546001600160a01b03163314612dee5760405162461bcd60e51b815260206004820152601f60248201527f5468652073656e646572206973206e6f74207468652076616c696461746f720060448201526064016107e3565b600781015460ff1615612e135760405162461bcd60e51b81526004016107e390614c96565b80546001600160801b0316612e745760405162461bcd60e51b815260206004820152602160248201527f4e6f20636f6d6d697373696f6e20617661696c61626c6520746f2072656465656044820152606d60f81b60648201526084016107e3565b6000826001600160801b031611612ec95760405162461bcd60e51b815260206004820152601960248201527805468652072657175657374656420616d6f756e74206973203603c1b60448201526064016107e3565b80546001600160801b039081169083161115612f4d5760405162461bcd60e51b815260206004820152603e60248201527f52657175657374656420616d6f756e7420697320686967686572207468616e2060448201527f636f6d6d697373696f6e20617661696c61626c6520746f2072656465656d000060648201526084016107e3565b80546001600160801b03808216849003166001600160801b0319909116178155612f778383613b65565b826001600160a01b0316846001600160801b03167fca484c45ad2d2422ff409731d1783446054a9a6549f63f4e668f85d03513624c84604051612fba9190614683565b60405180910390a350505050565b6069546001600160a01b0316331480612ff95750612fe46121ee565b6001600160a01b0316336001600160a01b0316145b6130155760405162461bcd60e51b81526004016107e390614e6e565b606a546001600160801b03908116908216106130435760405162461bcd60e51b81526004016107e390614bc9565b6001600160801b0381166000908152606b60205260408120600481015490910361306b575050565b60018101546001600160a01b0316600090815260058201602052604081205482546130a9916001600160801b0390811691600160801b900416613b85565b606c549091506001600160801b0390811690821610156131165760405162461bcd60e51b815260206004820152602260248201527f56616c696461746f7220697320696e73756666696369656e746c79207374616b604482015261195960f21b60648201526084016107e3565b6000600483018190556040516001600160801b038516917f553b029ba5c74688a5da732136d246f722502db24ed6b4aaf1cdc9f2f9ef23ef91a2505050565b61315d6137b1565b606a546001600160801b039081169083161061318b5760405162461bcd60e51b81526004016107e390614bc9565b6001600160801b0382166000908152606b60205260409020600781015460ff16156131f65760405162461bcd60e51b815260206004820152601b60248201527a2b30b634b230ba37b91034b99030b63932b0b23c90333937bd32b760291b60448201526064016107e3565b60078101805460ff191660011790556040516001600160801b038416907fb1faebd90b927d5787302f4faf38c6007fc7f13f72dc6ab940882c4298fab0bc90613240908590614f0c565b60405180910390a2505050565b6132556137b1565b6000816001600160801b03161161327e5760405162461bcd60e51b81526004016107e390614c29565b606680546001600160801b038082168401166001600160801b03199091161790556132a9338261423b565b7f2db5044922a44e715fdfd31c569712694c5956bbd41e06011f1c8ed339f5ff8f81604051610c919190614683565b6132e06137b1565b6001600160a01b0381166133455760405162461bcd60e51b815260206004820152602660248201527f4f776e61626c653a206e6577206f776e657220697320746865207a65726f206160448201526564647265737360d01b60648201526084016107e3565b611c9b8161425c565b606a546001600160801b039081169084161061337c5760405162461bcd60e51b81526004016107e390614bc9565b6305f5e1006001600160801b03831610156133d55760405162461bcd60e51b815260206004820152601960248201527814dd185ad948185b5bdd5b9d081a5cc81d1bdbc81cdb585b1b603a1b60448201526064016107e3565b6001600160801b0383166000908152606b60205260409020600181015460078201546001600160a01b0390911633149060ff16156134255760405162461bcd60e51b81526004016107e390614c96565b80613474576004820154156134745760405162461bcd60e51b815260206004820152601560248201527415985b1a59185d1bdc881a5cc8191a5cd8589b1959605a1b60448201526064016107e3565b336000908152600583016020526040812080549091906134a5908790600160801b90046001600160801b0316614d0c565b606c549091506001600160801b03600160801b9091048116908216101561352d5760405162461bcd60e51b815260206004820152603660248201527f43616e6e6f74207374616b6520746f206120706f736974696f6e206c657373206044820152757468616e2064656c656761746f724d696e5374616b6560501b60648201526084016107e3565b835460009061354d908890600160801b90046001600160801b03166142ae565b905083156135b8576068546001600160801b0390811690831611156135b35760405162461bcd60e51b815260206004820152601c60248201527b15985b1a59185d1bdc881b585e081cdd185ad948195e18d95959195960221b60448201526064016107e3565b6136ae565b60675460018601546001600160a01b0316600090815260058701602052604081205490916135fd916001600160801b03600160801b9283900481169290910416614f3f565b600287015490915060009061361c908a906001600160801b0316614d0c565b9050816001600160801b0316816001600160801b0316111561368a5760405162461bcd60e51b815260206004820152602160248201527f56616c696461746f72206d61782064656c65676174696f6e20657863656564656044820152601960fa1b60648201526084016107e3565b6002870180546001600160801b0319166001600160801b0392909216919091179055505b808560020160108282829054906101000a90046001600160801b03166136d49190614d0c565b92506101000a8154816001600160801b0302191690836001600160801b03160217905550808360000160008282829054906101000a90046001600160801b031661371e9190614d0c565b82546001600160801b039182166101009390930a9283029282021916919091179091558454848216600160801b02911617845550851561376257613762338861423b565b604080513381526001600160801b0389811660208301528a16917fc833924412a8727ace4d92945c637ad2d4b389e582bfd4a95cdee608eee9720a910160405180910390a25050505050505050565b336137ba6121ee565b6001600160a01b031614611e275760405162461bcd60e51b815260206004820181905260248201527f4f776e61626c653a2063616c6c6572206973206e6f7420746865206f776e657260448201526064016107e3565b606a546001600160801b039081169084161061383e5760405162461bcd60e51b81526004016107e390614bc9565b6001600160a01b0382166138645760405162461bcd60e51b81526004016107e390614eb3565b6001600160801b0383166000908152606b6020908152604080832033845260058101909252909120600782015460ff16156138b15760405162461bcd60e51b81526004016107e390614c96565b805482546000916138d6916001600160801b0391821691600160801b90910416613b85565b82549091506000906001600160801b03600160801b90910481169083161061391957825461391490600160801b90046001600160801b031683614d65565b61391c565b60005b905060006001600160801b03861615806139475750816001600160801b0316866001600160801b0316145b9050816001600160801b0316866001600160801b031611156139cc5760405162461bcd60e51b815260206004820152603860248201527f43616e6e6f742072656465656d20616d6f756e742067726561746572207468616044820152776e2068656c642c20756e7374616b6564207265776172647360401b60648201526084016107e3565b6000816139d957866139db565b825b90506305f5e1006001600160801b0382161015613a585760405162461bcd60e51b815260206004820152603560248201527f52657175657374656420616d6f756e74206d75737420626520686967686572206044820152741d1a185b881c995919595b481d1a1c995cda1bdb19605a1b60648201526084016107e3565b8554600090613a78908390600160801b90046001600160801b03166142ae565b86549091506001600160801b039081169082161115613a9e575084546001600160801b03165b6000816001600160801b031611613ac75760405162461bcd60e51b81526004016107e390614f6e565b6002870180546001600160801b03600160801b808304821685900382160291811691909117909155865480821683900382166001600160801b0319919091161787556040516001600160a01b038b16918c16907fbf3f2aa111a63b63567f864e18723c486b9276b75fdadebb83f62cd228263e0c90613b47908690614683565b60405180910390a3613b598983613b65565b50505050505050505050565b6065546107f8906001600160a01b0316836001600160801b0384166142d7565b6000670de0b6b3a7640000613ba66001600160801b03808516908616614e2d565b613bb09190614e4c565b9392505050565b606a546001600160801b0390811690831610613be55760405162461bcd60e51b81526004016107e390614bc9565b6001600160801b0382166000908152606b6020908152604080832033845260058101909252909120600782015460ff1615613c325760405162461bcd60e51b81526004016107e390614c96565b80546001600160801b03600160801b90910481169084161115613cb05760405162461bcd60e51b815260206004820152603060248201527f43616e6e6f7420756e7374616b6520616d6f756e74206772656174657220746860448201526f616e2063757272656e74207374616b6560801b60648201526084016107e3565b60006001600160801b0384161580613cdb575081546001600160801b03858116600160801b90920416145b9050600081613cea5784613cfd565b8254600160801b90046001600160801b03165b8354909150600090613d20908390600160801b90046001600160801b0316614d65565b90508215613d7f576000826001600160801b031611613d7a5760405162461bcd60e51b8152602060048201526016602482015275105b1c9958591e48199d5b1b1e481d5b9cdd185ad95960521b60448201526064016107e3565b613e74565b6305f5e1006001600160801b0383161015613dda5760405162461bcd60e51b815260206004820152601b60248201527a155b9cdd185ad948185b5bdd5b9d081a5cc81d1bdbc81cdb585b1b602a1b60448201526064016107e3565b606c546001600160801b03600160801b90910481169082161015613e745760405162461bcd60e51b815260206004820152604560248201527f43616e6e6f7420756e7374616b6520746f206120706f736974696f6e2062656c60448201527f6f772064656c656761746f724d696e5374616b65202865786365707420746f206064820152647a65726f2960d81b608482015260a4016107e3565b60018501546001600160a01b03163314808015613e9357506004860154155b15613f6257606754600090613eb890600160801b90046001600160801b031684614f3f565b60028801549091506001600160801b0380831691161115613f605760405162461bcd60e51b815260206004820152605660248201527f43616e6e6f742064656372656173652064656c65676174696f6e206d61782d6360448201527f61702062656c6f772063757272656e742064656c65676174696f6e207768696c60648201527519481d985b1a59185d1bdc881a5cc8195b98589b195960521b608482015260a4016107e3565b505b80613fac57600286018054849190600090613f879084906001600160801b0316614d65565b92506101000a8154816001600160801b0302191690836001600160801b031602179055505b8554600090613fcc908590600160801b90046001600160801b03166142ae565b86549091506001600160801b039081169082161115613ff2575084546001600160801b03165b6000816001600160801b03161161401b5760405162461bcd60e51b81526004016107e390614f6e565b85546001600160801b031981166001600160801b0391821683900382161787556002880180548392601091614059918591600160801b900416614d65565b82546001600160801b039182166101009390930a9283029282021916919091179091558754858216600160801b029116178755508180156140a45750606c546001600160801b031615155b80156140b257506004870154155b80156140d65750606c5486546001600160801b03918216600160801b909104909116105b156141115743600488018190556040518181526001600160801b038b16906000805160206150218339815191529060200160405180910390a2505b60008760040154600003614125574361412b565b87600401545b905082614143576067546001600160801b0316614157565b606654600160801b90046001600160801b03165b33600081815260068b01602090815260408083208054825180840184526001600160801b039790980187811689528c881689860190815260018301845592865293909420965190518616600160801b029086161795830195909555935190928d16907ffd593fe24ae9d02e348b533a8253aaf9904b266a7b65556ae6181dd5cc58703b906141e8908a9086906148f8565b60405180910390a35050505050505050505050565b6001600160a01b03163b151590565b600054610100900460ff166142335760405162461bcd60e51b81526004016107e390614f97565b611e2761433a565b6065546107f8906001600160a01b031683306001600160801b03851661436a565b603380546001600160a01b038381166001600160a01b0319831681179093556040519116919082907f8be0079c531659141344cd1fd0a4f28419497f9722a3daafe3b4186f6b6457e090600090a35050565b6000816001600160801b0316670de0b6b3a7640000846001600160801b0316613ba69190614e2d565b6040516001600160a01b03831660248201526044810182905261096090849063a9059cbb60e01b906064015b60408051601f198184030181529190526020810180516001600160e01b03166001600160e01b0319909316929092179091526143a2565b600054610100900460ff166143615760405162461bcd60e51b81526004016107e390614f97565b611e273361425c565b6040516001600160a01b0380851660248301528316604482015260648101829052610c389085906323b872dd60e01b90608401614303565b60006143f7826040518060400160405280602081526020017f5361666545524332303a206c6f772d6c6576656c2063616c6c206661696c6564815250856001600160a01b03166144749092919063ffffffff16565b80519091501561096057808060200190518101906144159190614fe2565b6109605760405162461bcd60e51b815260206004820152602a60248201527f5361666545524332303a204552433230206f7065726174696f6e20646964206e6044820152691bdd081cdd58d8d9595960b21b60648201526084016107e3565b6060614483848460008561448b565b949350505050565b6060824710156144ec5760405162461bcd60e51b815260206004820152602660248201527f416464726573733a20696e73756666696369656e742062616c616e636520666f6044820152651c8818d85b1b60d21b60648201526084016107e3565b600080866001600160a01b031685876040516145089190615004565b60006040518083038185875af1925050503d8060008114614545576040519150601f19603f3d011682016040523d82523d6000602084013e61454a565b606091505b509150915061455b87838387614566565b979650505050505050565b606083156145d35782516000036145cc57614580856141fd565b6145cc5760405162461bcd60e51b815260206004820152601d60248201527f416464726573733a2063616c6c20746f206e6f6e2d636f6e747261637400000060448201526064016107e3565b5081614483565b61448383838151156145e85781518083602001fd5b8060405162461bcd60e51b81526004016107e39190614f0c565b5080546000825590600052602060002090810190611c9b91905b80821115614630576000815560010161461c565b5090565b80356001600160801b038116811461464b57600080fd5b919050565b6000806040838503121561466357600080fd5b61466c83614634565b915061467a60208401614634565b90509250929050565b6001600160801b0391909116815260200190565b600081518084526020808501945080840160005b838110156146d05781516001600160801b0316875295820195908201906001016146ab565b509495945050505050565b600081518084526020808501945080840160005b838110156146d0578151875295820195908201906001016146ef565b60a0808252865190820181905260009060209060c0840190828a01845b8281101561474d5781516001600160a01b031684529284019290840190600101614728565b505050838103828501526147618189614697565b91505082810360408401526147768187614697565b9050828103606084015261478a8186614697565b9050828103608084015261479e81856146db565b98975050505050505050565b6001600160a01b0391909116815260200190565b80356001600160a01b038116811461464b57600080fd5b6000806000606084860312156147ea57600080fd5b6147f384614634565b9250614801602085016147be565b915061480f60408501614634565b90509250925092565b60006020828403121561482a57600080fd5b613bb0826147be565b60008060006060848603121561484857600080fd5b61485184614634565b925061480160208501614634565b60006020828403121561487157600080fd5b613bb082614634565b6000806000806080858703121561489057600080fd5b61489985614634565b93506148a760208601614634565b92506148b560408601614634565b91506148c360608601614634565b905092959194509250565b600080604083850312156148e157600080fd5b6148ea83614634565b915061467a602084016147be565b6001600160801b0392831681529116602082015260400190565b6000806040838503121561492557600080fd5b61466c836147be565b6001600160801b03868116825285811660208301528416604082015260a06060820181905260009061496290830185614697565b828103608084015261479e8185614697565b60008083601f84011261498657600080fd5b5081356001600160401b0381111561499d57600080fd5b6020830191508360208260051b85010111156149b857600080fd5b9250929050565b600080600080604085870312156149d557600080fd5b84356001600160401b03808211156149ec57600080fd5b6149f888838901614974565b90965094506020870135915080821115614a1157600080fd5b50614a1e87828801614974565b95989497509550505050565b600080600080600060a08688031215614a4257600080fd5b614a4b866147be565b9450614a5960208701614634565b9350614a6760408701614634565b9250614a7560608701614634565b9150614a8360808701614634565b90509295509295909350565b60008060408385031215614aa257600080fd5b614aab83614634565b946020939093013593505050565b600060208284031215614acb57600080fd5b5035919050565b634e487b7160e01b600052604160045260246000fd5b60008060408385031215614afb57600080fd5b614b0483614634565b915060208301356001600160401b0380821115614b2057600080fd5b818501915085601f830112614b3457600080fd5b813581811115614b4657614b46614ad2565b604051601f8201601f19908116603f01168101908382118183101715614b6e57614b6e614ad2565b81604052828152886020848701011115614b8757600080fd5b8260208601602083013760006020848301015280955050505050509250929050565b6020808252600690820152651c185d5cd95960d21b604082015260600190565b60208082526011908201527024b73b30b634b2103b30b634b230ba37b960791b604082015260600190565b6020808252601b908201527a52617465206d757374206265206c657373207468616e203130302560281b604082015260600190565b6020808252600b908201526a0416d6f756e7420697320360ac1b604082015260600190565b602080825260189082015277155b9cdd185ada5b99c8191bd95cc81b9bdd08195e1a5cdd60421b604082015260600190565b634e487b7160e01b600052603260045260246000fd5b6020808252601390820152722b30b634b230ba37b91034b990333937bd32b760691b604082015260600190565b602080825260199082015278556e7374616b696e6720686173206c65737320746f6b656e7360381b604082015260600190565b634e487b7160e01b600052601160045260246000fd5b60006001600160801b03828116848216808303821115614d2e57614d2e614cf6565b01949350505050565b60006001600160801b038281166002600160801b03198101614d5b57614d5b614cf6565b6001019392505050565b60006001600160801b0383811690831681811015614d8557614d85614cf6565b039392505050565b600060018201614d9f57614d9f614cf6565b5060010190565b60208082526031908201527f6d696e5374616b652063616e6e6f742062652067726561746572207468616e2060408201527076616c696461746f724d61785374616b6560781b606082015260800190565b6020808252601c908201527b21b0b63632b91034b9903737ba1039ba30b5b4b733a6b0b730b3b2b960211b604082015260600190565b6000816000190483118215151615614e4757614e47614cf6565b500290565b600082614e6957634e487b7160e01b600052601260045260246000fd5b500490565b60208082526025908201527f43616c6c6572206973206e6f74207374616b696e674d616e61676572206f722060408201526437bbb732b960d91b606082015260800190565b602080825260139082015272496e76616c69642062656e656669636961727960681b604082015260600190565b60005b83811015614efb578181015183820152602001614ee3565b83811115610c385750506000910152565b6020815260008251806020840152614f2b816040850160208701614ee0565b601f01601f19169190910160400192915050565b60006001600160801b0382811684821681151582840482111615614f6557614f65614cf6565b02949350505050565b6020808252600f908201526e2ab73232b9333637bb9032b93937b960891b604082015260600190565b6020808252602b908201527f496e697469616c697a61626c653a20636f6e7472616374206973206e6f74206960408201526a6e697469616c697a696e6760a81b606082015260800190565b600060208284031215614ff457600080fd5b81518015158114613bb057600080fd5b60008251615016818460208701614ee0565b919091019291505056fe890228cff135716fe461694a594a1308c48a00abf62b3fcff51a2fbabf234712a26469706673582212203dbefd9726dcebac6a9f54694b28f9d78d4f06e654a15bc7f6542a3ce3dded9364736f6c634300080d0033",
  "linkReferences": {},
  "deployedLinkReferences": {}
}