{
  "_format": "hh-sol-artifact-1",
  "contractName": "OperationalStaking",
  "sourceName": "contracts/OperationalStaking.sol",
  "abi": [
    {
      "anonymous": false,
      "inputs": [
        {
          "indexed": false,
          "internalType": "uint128",
          "name": "amount",
          "type": "uint128"
        }
      ],
      "name": "AllocatedTokensTaken",
      "type": "event"
    },
    {
      "anonymous": false,
      "inputs": [
        {
          "indexed": true,
          "internalType": "uint128",
          "name": "validatorId",
          "type": "uint128"
        },
        {
          "indexed": true,
          "internalType": "address",
          "name": "beneficiary",
          "type": "address"
        },
        {
          "indexed": false,
          "internalType": "uint128",
          "name": "amount",
          "type": "uint128"
        }
      ],
      "name": "CommissionRewardRedeemed",
      "type": "event"
    },
    {
      "anonymous": false,
      "inputs": [
        {
          "indexed": false,
          "internalType": "address",
          "name": "cqt",
          "type": "address"
        },
        {
          "indexed": false,
          "internalType": "uint128",
          "name": "validatorCoolDown",
          "type": "uint128"
        },
        {
          "indexed": false,
          "internalType": "uint128",
          "name": "delegatorCoolDown",
          "type": "uint128"
        },
        {
          "indexed": false,
          "internalType": "uint128",
          "name": "maxCapMultiplier",
          "type": "uint128"
        },
        {
          "indexed": false,
          "internalType": "uint128",
          "name": "validatorMaxStake",
          "type": "uint128"
        }
      ],
      "name": "Initialized",
      "type": "event"
    },
    {
      "anonymous": false,
      "inputs": [
        {
          "indexed": false,
          "internalType": "uint8",
          "name": "version",
          "type": "uint8"
        }
      ],
      "name": "Initialized",
      "type": "event"
    },
    {
      "anonymous": false,
      "inputs": [
        {
          "indexed": false,
          "internalType": "uint128",
          "name": "newMaxCapMultiplier",
          "type": "uint128"
        }
      ],
      "name": "MaxCapMultiplierChanged",
      "type": "event"
    },
    {
      "anonymous": false,
      "inputs": [
        {
          "indexed": true,
          "internalType": "address",
          "name": "previousOwner",
          "type": "address"
        },
        {
          "indexed": true,
          "internalType": "address",
          "name": "newOwner",
          "type": "address"
        }
      ],
      "name": "OwnershipTransferred",
      "type": "event"
    },
    {
      "anonymous": false,
      "inputs": [
        {
          "indexed": true,
          "internalType": "uint128",
          "name": "validatorId",
          "type": "uint128"
        },
        {
          "indexed": true,
          "internalType": "address",
          "name": "delegator",
          "type": "address"
        },
        {
          "indexed": false,
          "internalType": "uint128",
          "name": "amount",
          "type": "uint128"
        },
        {
          "indexed": false,
          "internalType": "uint128",
          "name": "unstakingId",
          "type": "uint128"
        }
      ],
      "name": "RecoveredUnstake",
      "type": "event"
    },
    {
      "anonymous": false,
      "inputs": [
        {
          "indexed": true,
          "internalType": "uint128",
          "name": "oldValidatorId",
          "type": "uint128"
        },
        {
          "indexed": true,
          "internalType": "uint128",
          "name": "newValidatorId",
          "type": "uint128"
        },
        {
          "indexed": true,
          "internalType": "address",
          "name": "delegator",
          "type": "address"
        },
        {
          "indexed": false,
          "internalType": "uint128",
          "name": "amount",
          "type": "uint128"
        },
        {
          "indexed": false,
          "internalType": "uint128",
          "name": "unstakingId",
          "type": "uint128"
        }
      ],
      "name": "Redelegated",
      "type": "event"
    },
    {
      "anonymous": false,
      "inputs": [
        {
          "indexed": true,
          "internalType": "uint128",
          "name": "validatorId",
          "type": "uint128"
        },
        {
          "indexed": false,
          "internalType": "uint128",
          "name": "amount",
          "type": "uint128"
        }
      ],
      "name": "RewardFailedDueLowPool",
      "type": "event"
    },
    {
      "anonymous": false,
      "inputs": [
        {
          "indexed": true,
          "internalType": "uint128",
          "name": "validatorId",
          "type": "uint128"
        },
        {
          "indexed": false,
          "internalType": "uint128",
          "name": "amount",
          "type": "uint128"
        }
      ],
      "name": "RewardFailedDueZeroStake",
      "type": "event"
    },
    {
      "anonymous": false,
      "inputs": [
        {
          "indexed": true,
          "internalType": "uint128",
          "name": "validatorId",
          "type": "uint128"
        },
        {
          "indexed": true,
          "internalType": "address",
          "name": "beneficiary",
          "type": "address"
        },
        {
          "indexed": false,
          "internalType": "uint128",
          "name": "amount",
          "type": "uint128"
        }
      ],
      "name": "RewardRedeemed",
      "type": "event"
    },
    {
      "anonymous": false,
      "inputs": [
        {
          "indexed": false,
          "internalType": "uint128",
          "name": "amount",
          "type": "uint128"
        }
      ],
      "name": "RewardTokensDeposited",
      "type": "event"
    },
    {
      "anonymous": false,
      "inputs": [
        {
          "indexed": true,
          "internalType": "uint128",
          "name": "validatorId",
          "type": "uint128"
        },
        {
          "indexed": false,
          "internalType": "address",
          "name": "delegator",
          "type": "address"
        },
        {
          "indexed": false,
          "internalType": "uint128",
          "name": "amount",
          "type": "uint128"
        }
      ],
      "name": "Staked",
      "type": "event"
    },
    {
      "anonymous": false,
      "inputs": [
        {
          "indexed": true,
          "internalType": "address",
          "name": "operationalManager",
          "type": "address"
        }
      ],
      "name": "StakingManagerAddressChanged",
      "type": "event"
    },
    {
      "anonymous": false,
      "inputs": [
        {
          "indexed": true,
          "internalType": "uint128",
          "name": "validatorId",
          "type": "uint128"
        },
        {
          "indexed": true,
          "internalType": "address",
          "name": "delegator",
          "type": "address"
        },
        {
          "indexed": true,
          "internalType": "uint128",
          "name": "unstakeId",
          "type": "uint128"
        },
        {
          "indexed": false,
          "internalType": "uint128",
          "name": "amount",
          "type": "uint128"
        }
      ],
      "name": "UnstakeRedeemed",
      "type": "event"
    },
    {
      "anonymous": false,
      "inputs": [
        {
          "indexed": true,
          "internalType": "uint128",
          "name": "validatorId",
          "type": "uint128"
        },
        {
          "indexed": true,
          "internalType": "address",
          "name": "delegator",
          "type": "address"
        },
        {
          "indexed": false,
          "internalType": "uint128",
          "name": "amount",
          "type": "uint128"
        },
        {
          "indexed": false,
          "internalType": "uint128",
          "name": "unstakeId",
          "type": "uint128"
        }
      ],
      "name": "Unstaked",
      "type": "event"
    },
    {
      "anonymous": false,
      "inputs": [
        {
          "indexed": true,
          "internalType": "uint128",
          "name": "id",
          "type": "uint128"
        },
        {
          "indexed": false,
          "internalType": "uint128",
          "name": "commissionRate",
          "type": "uint128"
        },
        {
          "indexed": true,
          "internalType": "address",
          "name": "validator",
          "type": "address"
        }
      ],
      "name": "ValidatorAdded",
      "type": "event"
    },
    {
      "anonymous": false,
      "inputs": [
        {
          "indexed": true,
          "internalType": "uint128",
          "name": "validatorId",
          "type": "uint128"
        },
        {
          "indexed": true,
          "internalType": "address",
          "name": "newAddress",
          "type": "address"
        }
      ],
      "name": "ValidatorAddressChanged",
      "type": "event"
    },
    {
      "anonymous": false,
      "inputs": [
        {
          "indexed": true,
          "internalType": "uint128",
          "name": "validatorId",
          "type": "uint128"
        },
        {
          "indexed": false,
          "internalType": "uint128",
          "name": "amount",
          "type": "uint128"
        }
      ],
      "name": "ValidatorCommissionRateChanged",
      "type": "event"
    },
    {
      "anonymous": false,
      "inputs": [
        {
          "indexed": true,
          "internalType": "uint128",
          "name": "validatorId",
          "type": "uint128"
        },
        {
          "indexed": false,
          "internalType": "uint256",
          "name": "blockNumber",
          "type": "uint256"
        }
      ],
      "name": "ValidatorDisabled",
      "type": "event"
    },
    {
      "anonymous": false,
      "inputs": [
        {
          "indexed": true,
          "internalType": "uint128",
          "name": "validatorId",
          "type": "uint128"
        }
      ],
      "name": "ValidatorEnabled",
      "type": "event"
    },
    {
      "anonymous": false,
      "inputs": [
        {
          "indexed": false,
          "internalType": "uint128",
          "name": "amount",
          "type": "uint128"
        }
      ],
      "name": "ValidatorMaxCapChanged",
      "type": "event"
    },
    {
      "inputs": [],
      "name": "CQT",
      "outputs": [
        {
          "internalType": "contract IERC20Upgradeable",
          "name": "",
          "type": "address"
        }
      ],
      "stateMutability": "view",
      "type": "function"
    },
    {
      "inputs": [],
      "name": "DIVIDER",
      "outputs": [
        {
          "internalType": "uint256",
          "name": "",
          "type": "uint256"
        }
      ],
      "stateMutability": "view",
      "type": "function"
    },
    {
      "inputs": [],
      "name": "REWARD_REDEEM_THRESHOLD",
      "outputs": [
        {
          "internalType": "uint128",
          "name": "",
          "type": "uint128"
        }
      ],
      "stateMutability": "view",
      "type": "function"
    },
    {
      "inputs": [
        {
          "internalType": "address",
          "name": "validator",
          "type": "address"
        },
        {
          "internalType": "uint128",
          "name": "commissionRate",
          "type": "uint128"
        }
      ],
      "name": "addValidator",
      "outputs": [
        {
          "internalType": "uint256",
          "name": "id",
          "type": "uint256"
        }
      ],
      "stateMutability": "nonpayable",
      "type": "function"
    },
    {
      "inputs": [],
      "name": "delegatorCoolDown",
      "outputs": [
        {
          "internalType": "uint128",
          "name": "",
          "type": "uint128"
        }
      ],
      "stateMutability": "view",
      "type": "function"
    },
    {
      "inputs": [
        {
          "internalType": "uint128",
          "name": "amount",
          "type": "uint128"
        }
      ],
      "name": "depositRewardTokens",
      "outputs": [],
      "stateMutability": "nonpayable",
      "type": "function"
    },
    {
      "inputs": [
        {
          "internalType": "uint128",
          "name": "validatorId",
          "type": "uint128"
        },
        {
          "internalType": "uint256",
          "name": "blockNumber",
          "type": "uint256"
        }
      ],
      "name": "disableValidator",
      "outputs": [],
      "stateMutability": "nonpayable",
      "type": "function"
    },
    {
      "inputs": [
        {
          "internalType": "uint128",
          "name": "validatorId",
          "type": "uint128"
        }
      ],
      "name": "enableValidator",
      "outputs": [],
      "stateMutability": "nonpayable",
      "type": "function"
    },
    {
      "inputs": [],
      "name": "getAllValidatorsMetadata",
      "outputs": [
        {
          "internalType": "address[]",
          "name": "addresses",
          "type": "address[]"
        },
        {
          "internalType": "uint128[]",
          "name": "staked",
          "type": "uint128[]"
        },
        {
          "internalType": "uint128[]",
          "name": "delegated",
          "type": "uint128[]"
        },
        {
          "internalType": "uint128[]",
          "name": "commissionRates",
          "type": "uint128[]"
        },
        {
          "internalType": "uint256[]",
          "name": "disabledAtBlocks",
          "type": "uint256[]"
        }
      ],
      "stateMutability": "view",
      "type": "function"
    },
    {
      "inputs": [
        {
          "internalType": "address",
          "name": "delegator",
          "type": "address"
        },
        {
          "internalType": "uint128",
          "name": "validatorId",
          "type": "uint128"
        }
      ],
      "name": "getDelegatorMetadata",
      "outputs": [
        {
          "internalType": "uint128",
          "name": "staked",
          "type": "uint128"
        },
        {
          "internalType": "uint128",
          "name": "rewards",
          "type": "uint128"
        },
        {
          "internalType": "uint128",
          "name": "commissionEarned",
          "type": "uint128"
        },
        {
          "internalType": "uint128[]",
          "name": "unstakingAmounts",
          "type": "uint128[]"
        },
        {
          "internalType": "uint128[]",
          "name": "unstakingsEndEpochs",
          "type": "uint128[]"
        }
      ],
      "stateMutability": "view",
      "type": "function"
    },
    {
      "inputs": [],
      "name": "getMetadata",
      "outputs": [
        {
          "internalType": "address",
          "name": "CQTaddress",
          "type": "address"
        },
        {
          "internalType": "address",
          "name": "_stakingManager",
          "type": "address"
        },
        {
          "internalType": "uint128",
          "name": "_validatorsN",
          "type": "uint128"
        },
        {
          "internalType": "uint128",
          "name": "_rewardPool",
          "type": "uint128"
        },
        {
          "internalType": "uint128",
          "name": "_validatorCoolDown",
          "type": "uint128"
        },
        {
          "internalType": "uint128",
          "name": "_delegatorCoolDown",
          "type": "uint128"
        },
        {
          "internalType": "uint128",
          "name": "_maxCapMultiplier",
          "type": "uint128"
        },
        {
          "internalType": "uint128",
          "name": "_validatorMaxStake",
          "type": "uint128"
        }
      ],
      "stateMutability": "view",
      "type": "function"
    },
    {
      "inputs": [
        {
          "internalType": "uint128",
          "name": "validatorId",
          "type": "uint128"
        }
      ],
      "name": "getValidatorCompoundedStakingData",
      "outputs": [
        {
          "internalType": "uint128",
          "name": "staked",
          "type": "uint128"
        },
        {
          "internalType": "uint128",
          "name": "delegated",
          "type": "uint128"
        }
      ],
      "stateMutability": "view",
      "type": "function"
    },
    {
      "inputs": [
        {
          "internalType": "uint128",
          "name": "validatorId",
          "type": "uint128"
        }
      ],
      "name": "getValidatorMetadata",
      "outputs": [
        {
          "internalType": "address",
          "name": "_address",
          "type": "address"
        },
        {
          "internalType": "uint128",
          "name": "staked",
          "type": "uint128"
        },
        {
          "internalType": "uint128",
          "name": "delegated",
          "type": "uint128"
        },
        {
          "internalType": "uint128",
          "name": "commissionRate",
          "type": "uint128"
        },
        {
          "internalType": "uint256",
          "name": "disabledAtBlock",
          "type": "uint256"
        }
      ],
      "stateMutability": "view",
      "type": "function"
    },
    {
      "inputs": [
        {
          "internalType": "uint128",
          "name": "validatorId",
          "type": "uint128"
        }
      ],
      "name": "getValidatorStakingData",
      "outputs": [
        {
          "internalType": "uint128",
          "name": "staked",
          "type": "uint128"
        },
        {
          "internalType": "uint128",
          "name": "delegated",
          "type": "uint128"
        }
      ],
      "stateMutability": "view",
      "type": "function"
    },
    {
      "inputs": [
        {
          "internalType": "uint128",
          "name": "startId",
          "type": "uint128"
        },
        {
          "internalType": "uint128",
          "name": "endId",
          "type": "uint128"
        }
      ],
      "name": "getValidatorsMetadata",
      "outputs": [
        {
          "internalType": "address[]",
          "name": "addresses",
          "type": "address[]"
        },
        {
          "internalType": "uint128[]",
          "name": "staked",
          "type": "uint128[]"
        },
        {
          "internalType": "uint128[]",
          "name": "delegated",
          "type": "uint128[]"
        },
        {
          "internalType": "uint128[]",
          "name": "commissionRates",
          "type": "uint128[]"
        },
        {
          "internalType": "uint256[]",
          "name": "disabledAtBlocks",
          "type": "uint256[]"
        }
      ],
      "stateMutability": "view",
      "type": "function"
    },
    {
      "inputs": [
        {
          "internalType": "address",
          "name": "cqt",
          "type": "address"
        },
        {
          "internalType": "uint128",
          "name": "dCoolDown",
          "type": "uint128"
        },
        {
          "internalType": "uint128",
          "name": "vCoolDown",
          "type": "uint128"
        },
        {
          "internalType": "uint128",
          "name": "maxCapM",
          "type": "uint128"
        },
        {
          "internalType": "uint128",
          "name": "vMaxStake",
          "type": "uint128"
        }
      ],
      "name": "initialize",
      "outputs": [],
      "stateMutability": "nonpayable",
      "type": "function"
    },
    {
      "inputs": [],
      "name": "maxCapMultiplier",
      "outputs": [
        {
          "internalType": "uint128",
          "name": "",
          "type": "uint128"
        }
      ],
      "stateMutability": "view",
      "type": "function"
    },
    {
      "inputs": [],
      "name": "owner",
      "outputs": [
        {
          "internalType": "address",
          "name": "",
          "type": "address"
        }
      ],
      "stateMutability": "view",
      "type": "function"
    },
    {
      "inputs": [],
      "name": "renounceOwnership",
      "outputs": [],
      "stateMutability": "nonpayable",
      "type": "function"
    },
    {
      "inputs": [],
      "name": "rewardPool",
      "outputs": [
        {
          "internalType": "uint128",
          "name": "",
          "type": "uint128"
        }
      ],
      "stateMutability": "view",
      "type": "function"
    },
    {
      "inputs": [
        {
          "internalType": "uint128[]",
          "name": "ids",
          "type": "uint128[]"
        },
        {
          "internalType": "uint128[]",
          "name": "amounts",
          "type": "uint128[]"
        }
      ],
      "name": "rewardValidators",
      "outputs": [],
      "stateMutability": "nonpayable",
      "type": "function"
    },
    {
      "inputs": [
        {
          "internalType": "uint128",
          "name": "newMaxCapMultiplier",
          "type": "uint128"
        }
      ],
      "name": "setMaxCapMultiplier",
      "outputs": [],
      "stateMutability": "nonpayable",
      "type": "function"
    },
    {
      "inputs": [
        {
          "internalType": "address",
          "name": "newAddress",
          "type": "address"
        }
      ],
      "name": "setStakingManagerAddress",
      "outputs": [],
      "stateMutability": "nonpayable",
      "type": "function"
    },
    {
      "inputs": [
        {
          "internalType": "uint128",
          "name": "validatorId",
          "type": "uint128"
        },
        {
          "internalType": "address",
          "name": "newAddress",
          "type": "address"
        }
      ],
      "name": "setValidatorAddress",
      "outputs": [],
      "stateMutability": "nonpayable",
      "type": "function"
    },
    {
      "inputs": [
        {
          "internalType": "uint128",
          "name": "validatorId",
          "type": "uint128"
        },
        {
          "internalType": "uint128",
          "name": "amount",
          "type": "uint128"
        }
      ],
      "name": "setValidatorCommissionRate",
      "outputs": [],
      "stateMutability": "nonpayable",
      "type": "function"
    },
    {
      "inputs": [
        {
          "internalType": "uint128",
          "name": "maxStake",
          "type": "uint128"
        }
      ],
      "name": "setValidatorMaxStake",
      "outputs": [],
      "stateMutability": "nonpayable",
      "type": "function"
    },
    {
      "inputs": [],
      "name": "stakingManager",
      "outputs": [
        {
          "internalType": "address",
          "name": "",
          "type": "address"
        }
      ],
      "stateMutability": "view",
      "type": "function"
    },
    {
      "inputs": [
        {
          "internalType": "uint128",
          "name": "amount",
          "type": "uint128"
        }
      ],
      "name": "takeOutRewardTokens",
      "outputs": [],
      "stateMutability": "nonpayable",
      "type": "function"
    },
    {
      "inputs": [
        {
          "internalType": "address",
          "name": "newOwner",
          "type": "address"
        }
      ],
      "name": "transferOwnership",
      "outputs": [],
      "stateMutability": "nonpayable",
      "type": "function"
    },
    {
      "inputs": [
        {
          "internalType": "uint128",
          "name": "amount",
          "type": "uint128"
        },
        {
          "internalType": "uint128",
          "name": "validatorId",
          "type": "uint128"
        },
        {
          "internalType": "uint128",
          "name": "unstakingId",
          "type": "uint128"
        }
      ],
      "name": "transferUnstakedOut",
      "outputs": [],
      "stateMutability": "nonpayable",
      "type": "function"
    },
    {
      "inputs": [],
      "name": "validatorCoolDown",
      "outputs": [
        {
          "internalType": "uint128",
          "name": "",
          "type": "uint128"
        }
      ],
      "stateMutability": "view",
      "type": "function"
    },
    {
      "inputs": [],
      "name": "validatorMaxStake",
      "outputs": [
        {
          "internalType": "uint128",
          "name": "",
          "type": "uint128"
        }
      ],
      "stateMutability": "view",
      "type": "function"
    },
    {
      "inputs": [],
      "name": "validatorsN",
      "outputs": [
        {
          "internalType": "uint128",
          "name": "",
          "type": "uint128"
        }
      ],
      "stateMutability": "view",
      "type": "function"
    }
  ],
  "bytecode": "0x608060405234801561001057600080fd5b50613d39806100206000396000f3fe608060405234801561001057600080fd5b506004361061020b5760003560e01c8063715018a61161012a5780639f10816f116100bd578063ad9e91ee1161008c578063edff4b6111610071578063edff4b611461062d578063f1aa0c6514610640578063f2fde38b1461065357600080fd5b8063ad9e91ee146105fe578063dfc50f651461061157600080fd5b80639f10816f146105a9578063a2e7e441146105c5578063a3e89bac146105d8578063a50481f1146105eb57600080fd5b80638b877db2116100f95780638b877db2146105525780638da5cb5b146105655780639860fa25146105835780639ea050771461059657600080fd5b8063715018a61461042c5780637a5b4f591461043457806387326a0c146104cc5780638a8103241461053657600080fd5b80634c4a1709116101a257806362043bd81161017157806362043bd8146103b0578063650de76b146103cd57806366666aa9146103fd5780636cb4ded31461041957600080fd5b80634c4a17091461030d57806353b74922146103495780635b21672314610379578063605a50171461039d57600080fd5b806322828cc2116101de57806322828cc2146102b457806337e15bce146102d45780633a64440b146102e7578063445c81d7146102fa57600080fd5b806309991223146102105780630b56a2bc146102415780630f04adfe1461025a57806317c2b0a91461029f575b600080fd5b61021b6305f5e10081565b6040516fffffffffffffffffffffffffffffffff90911681526020015b60405180910390f35b610249610666565b6040516102389594939291906136fa565b60655461027a9073ffffffffffffffffffffffffffffffffffffffff1681565b60405173ffffffffffffffffffffffffffffffffffffffff9091168152602001610238565b6102b26102ad3660046137cb565b6106a8565b005b60695461027a9073ffffffffffffffffffffffffffffffffffffffff1681565b6102b26102e2366004613822565b610848565b6102b26102f536600461383d565b61093c565b6102b2610308366004613880565b610c91565b61032061031b3660046138aa565b6111b7565b604080516fffffffffffffffffffffffffffffffff938416815292909116602083015201610238565b60665461021b9070010000000000000000000000000000000090046fffffffffffffffffffffffffffffffff1681565b61038c6103873660046138c5565b611281565b6040516102389594939291906138e1565b6102b26103ab36600461397c565b611650565b6103bf670de0b6b3a764000081565b604051908152602001610238565b60675461021b9070010000000000000000000000000000000090046fffffffffffffffffffffffffffffffff1681565b60665461021b906fffffffffffffffffffffffffffffffff1681565b6102b26104273660046138aa565b611a9c565b6102b2611b8b565b606554606954606a546066546067546068546040805173ffffffffffffffffffffffffffffffffffffffff97881681529690951660208701526fffffffffffffffffffffffffffffffff938416948601949094528282166060860152700100000000000000000000000000000000918290048316608086015282811660a086015204811660c08401521660e082015261010001610238565b6104df6104da3660046138aa565b611b95565b6040805173ffffffffffffffffffffffffffffffffffffffff90961686526fffffffffffffffffffffffffffffffff948516602087015292841692850192909252919091166060830152608082015260a001610238565b606a5461021b906fffffffffffffffffffffffffffffffff1681565b6102b26105603660046138aa565b611cac565b60335473ffffffffffffffffffffffffffffffffffffffff1661027a565b6103206105913660046138aa565b611e38565b6102b26105a43660046138aa565b611f33565b60685461021b906fffffffffffffffffffffffffffffffff1681565b6103bf6105d33660046138c5565b612026565b6102496105e63660046137cb565b612318565b6102b26105f93660046139e8565b612794565b6102b261060c366004613a4d565b612a2e565b60675461021b906fffffffffffffffffffffffffffffffff1681565b6102b261063b3660046138aa565b612bf5565b6102b261064e3660046138aa565b612d4a565b6102b2610661366004613822565b612e5c565b60608060608060606106976000606a60009054906101000a90046fffffffffffffffffffffffffffffffff16612318565b945094509450945094509091929394565b6106b0612f10565b606a5482906fffffffffffffffffffffffffffffffff90811690821610610738576040517f08c379a000000000000000000000000000000000000000000000000000000000815260206004820152601160248201527f496e76616c69642076616c696461746f7200000000000000000000000000000060448201526064015b60405180910390fd5b670de0b6b3a7640000826fffffffffffffffffffffffffffffffff16106107bb576040517f08c379a000000000000000000000000000000000000000000000000000000000815260206004820152601b60248201527f52617465206d757374206265206c657373207468616e20313030250000000000604482015260640161072f565b6fffffffffffffffffffffffffffffffff8381166000818152606b602090815260409182902060030180547fffffffffffffffffffffffffffffffff00000000000000000000000000000000169487169485179055905192835290917f0f8cc456c84d934a2b1eb24d7b56c2304c9e61aed06c7e67aa5167ff06c0bc6591015b60405180910390a2505050565b610850612f10565b73ffffffffffffffffffffffffffffffffffffffff81166108cd576040517f08c379a000000000000000000000000000000000000000000000000000000000815260206004820152600f60248201527f496e76616c696420616464726573730000000000000000000000000000000000604482015260640161072f565b606980547fffffffffffffffffffffffff00000000000000000000000000000000000000001673ffffffffffffffffffffffffffffffffffffffff83169081179091556040517f806e006f6f107ac370f162bdeec43a7db0f2d47ca85ba3da932d442771912a3590600090a250565b606a5482906fffffffffffffffffffffffffffffffff908116908216106109bf576040517f08c379a000000000000000000000000000000000000000000000000000000000815260206004820152601160248201527f496e76616c69642076616c696461746f72000000000000000000000000000000604482015260640161072f565b6fffffffffffffffffffffffffffffffff8381166000908152606b6020908152604080832033845260060190915290205490831610610a5a576040517f08c379a000000000000000000000000000000000000000000000000000000000815260206004820152601860248201527f556e7374616b696e6720646f6573206e6f742065786973740000000000000000604482015260640161072f565b6fffffffffffffffffffffffffffffffff8084166000908152606b602090815260408083203384526006019091528120805491929091908516908110610aa257610aa2613a77565b600091825260209091200180549091506fffffffffffffffffffffffffffffffff9081164390911611610b31576040517f08c379a000000000000000000000000000000000000000000000000000000000815260206004820152601d60248201527f436f6f6c646f776e20706572696f6420686173206e6f7420656e646564000000604482015260640161072f565b80546fffffffffffffffffffffffffffffffff808716700100000000000000000000000000000000909204161015610bc5576040517f08c379a000000000000000000000000000000000000000000000000000000000815260206004820152601260248201527f416d6f756e7420697320746f6f20686967680000000000000000000000000000604482015260640161072f565b80546fffffffffffffffffffffffffffffffff80821670010000000000000000000000000000000092839004821688900382168302178084559190910416600003610c315780547fffffffffffffffffffffffffffffffff000000000000000000000000000000001681555b6040516fffffffffffffffffffffffffffffffff86811682528085169133918716907fa907b4e09e37315c70c013b1855950857585ae1efd206f344d5507f3b7a440d79060200160405180910390a4610c8a3386612f91565b5050505050565b6fffffffffffffffffffffffffffffffff82166000908152606b60205260409020600181015473ffffffffffffffffffffffffffffffffffffffff163314610d35576040517f08c379a000000000000000000000000000000000000000000000000000000000815260206004820152601b60248201527f53656e646572206973206e6f74207468652076616c696461746f720000000000604482015260640161072f565b600181015473ffffffffffffffffffffffffffffffffffffffff808416911603610de357604080517f08c379a00000000000000000000000000000000000000000000000000000000081526020600482015260248101919091527f546865206e657720616464726573732063616e6e6f7420626520657175616c2060448201527f746f207468652063757272656e742076616c696461746f722061646472657373606482015260840161072f565b73ffffffffffffffffffffffffffffffffffffffff8216610e60576040517f08c379a000000000000000000000000000000000000000000000000000000000815260206004820152601960248201527f496e76616c69642076616c696461746f72206164647265737300000000000000604482015260640161072f565b3360009081526005820160205260408082205473ffffffffffffffffffffffffffffffffffffffff8516835290822080546fffffffffffffffffffffffffffffffff928316939192610eb491859116613ad5565b82546101009290920a6fffffffffffffffffffffffffffffffff8181021990931691831602179091553360009081526005840160205260408082205473ffffffffffffffffffffffffffffffffffffffff871683529120805470010000000000000000000000000000000092839004841694509092601092610f3b92869291900416613ad5565b82546fffffffffffffffffffffffffffffffff9182166101009390930a9283029190920219909116179055503360009081526005820160209081526040808320839055600684019091529020805461012c81111561101b576040517f08c379a000000000000000000000000000000000000000000000000000000000815260206004820152602860248201527f43616e6e6f74207472616e73666572206d6f7265207468616e2033303020756e60448201527f7374616b696e6773000000000000000000000000000000000000000000000000606482015260840161072f565b73ffffffffffffffffffffffffffffffffffffffff841660009081526006840160205260408120905b82816fffffffffffffffffffffffffffffffff161015611112578184826fffffffffffffffffffffffffffffffff168154811061108357611083613a77565b6000918252602080832084546001810186559484529220910180549190920180547fffffffffffffffffffffffffffffffff00000000000000000000000000000000166fffffffffffffffffffffffffffffffff9283169081178255925470010000000000000000000000000000000090819004909216909102909117905561110b81613b09565b9050611044565b50336000908152600685016020526040812061112d9161364b565b6001840180547fffffffffffffffffffffffff00000000000000000000000000000000000000001673ffffffffffffffffffffffffffffffffffffffff87169081179091556040516fffffffffffffffffffffffffffffffff8816907f440fb92be8d36802cfffb11ceda74bc13f38abab2e6f8675b9b1725787a6e52990600090a3505050505050565b6fffffffffffffffffffffffffffffffff8082166000908152606b60209081526040808320600181015473ffffffffffffffffffffffffffffffffffffffff1684526005810190925282205481549293849361122b9282169170010000000000000000000000000000000090910416612fcb565b60028201548254919450849161126f916fffffffffffffffffffffffffffffffff700100000000000000000000000000000000918290048116929190910416612fcb565b6112799190613b38565b915050915091565b606a5460009081908190606090819086906fffffffffffffffffffffffffffffffff90811690821610611310576040517f08c379a000000000000000000000000000000000000000000000000000000000815260206004820152601160248201527f496e76616c69642076616c696461746f72000000000000000000000000000000604482015260640161072f565b6fffffffffffffffffffffffffffffffff8088166000908152606b6020908152604080832073ffffffffffffffffffffffffffffffffffffffff8d1684526005810190925282208054825470010000000000000000000000000000000080830487169c5093959294936113899392831692910416612fcb565b82549091506fffffffffffffffffffffffffffffffff7001000000000000000000000000000000009091048116908216116113c757600097506113fc565b81546113f99070010000000000000000000000000000000090046fffffffffffffffffffffffffffffffff1682613b38565b97505b600183015473ffffffffffffffffffffffffffffffffffffffff808d169116036114375782546fffffffffffffffffffffffffffffffff1696505b73ffffffffffffffffffffffffffffffffffffffff8b166000908152600684016020908152604080832080548251818502810185019093528083529192909190849084015b828210156114db57600084815260209081902060408051808201909152908401546fffffffffffffffffffffffffffffffff8082168352700100000000000000000000000000000000909104168183015282526001909201910161147c565b505082519293508291505067ffffffffffffffff8111156114fe576114fe613b69565b604051908082528060200260200182016040528015611527578160200160208202803683370190505b5097508067ffffffffffffffff81111561154357611543613b69565b60405190808252806020026020018201604052801561156c578160200160208202803683370190505b50965060005b8181101561163f5782818151811061158c5761158c613a77565b6020026020010151602001518982815181106115aa576115aa613a77565b60200260200101906fffffffffffffffffffffffffffffffff1690816fffffffffffffffffffffffffffffffff16815250508281815181106115ee576115ee613a77565b60200260200101516000015188828151811061160c5761160c613a77565b6fffffffffffffffffffffffffffffffff909216602092830291909101909101528061163781613b98565b915050611572565b505050505050509295509295909350565b60695473ffffffffffffffffffffffffffffffffffffffff1633146116d1576040517f08c379a000000000000000000000000000000000000000000000000000000000815260206004820152601c60248201527f43616c6c6572206973206e6f74207374616b696e674d616e6167657200000000604482015260640161072f565b828114611760576040517f08c379a000000000000000000000000000000000000000000000000000000000815260206004820152603760248201527f476976656e2069647320616e6420616d6f756e747320617272617973206d757360448201527f74206265206f66207468652073616d65206c656e677468000000000000000000606482015260840161072f565b6066546fffffffffffffffffffffffffffffffff1660008080805b87811015611a505786868281811061179557611795613a77565b90506020020160208101906117aa91906138aa565b93508888828181106117be576117be613a77565b90506020020160208101906117d391906138aa565b9250836fffffffffffffffffffffffffffffffff16856fffffffffffffffffffffffffffffffff16101561184f576040516fffffffffffffffffffffffffffffffff85811682528416907f0fe05e323c51ec64db29d65e4471f535fbed63586f534f452455b30e985424839060200160405180910390a2611a3e565b6fffffffffffffffffffffffffffffffff8084166000908152606b602052604081206002810154909270010000000000000000000000000000000090910416908190036118e4576040516fffffffffffffffffffffffffffffffff87811682528616907f7110409a3c69501d520618529eec9541a3d35ae7b4c5df2a4e5271438105cee39060200160405180910390a2611a3b565b6003820154670de0b6b3a764000090611913906fffffffffffffffffffffffffffffffff908116908916613bd0565b61191d9190613c0d565b935080670de0b6b3a76400006119338689613b38565b6fffffffffffffffffffffffffffffffff1661194f9190613bd0565b6119599190613c0d565b8254839060109061199190849070010000000000000000000000000000000090046fffffffffffffffffffffffffffffffff16613ad5565b92506101000a8154816fffffffffffffffffffffffffffffffff02191690836fffffffffffffffffffffffffffffffff160217905550838260000160008282829054906101000a90046fffffffffffffffffffffffffffffffff166119f69190613ad5565b92506101000a8154816fffffffffffffffffffffffffffffffff02191690836fffffffffffffffffffffffffffffffff1602179055508587611a389190613b38565b96505b50505b80611a4881613b98565b91505061177b565b5050606680547fffffffffffffffffffffffffffffffff00000000000000000000000000000000166fffffffffffffffffffffffffffffffff9490941693909317909255505050505050565b611aa4612f10565b6000816fffffffffffffffffffffffffffffffff1611611b20576040517f08c379a000000000000000000000000000000000000000000000000000000000815260206004820152601660248201527f4d7573742062652067726561746572207468616e203000000000000000000000604482015260640161072f565b606780546fffffffffffffffffffffffffffffffff908116700100000000000000000000000000000000918416918202179091556040519081527fbe85ebc47051eb40cf466cba324b4ceee119941ef0101ec0123999a5b6794099906020015b60405180910390a150565b611b93612f10565b565b606a54600090819081908190819086906fffffffffffffffffffffffffffffffff90811690821610611c23576040517f08c379a000000000000000000000000000000000000000000000000000000000815260206004820152601160248201527f496e76616c69642076616c696461746f72000000000000000000000000000000604482015260640161072f565b505050506fffffffffffffffffffffffffffffffff9283166000908152606b60209081526040808320600181015473ffffffffffffffffffffffffffffffffffffffff1680855260058201909352922054600283015460038401546004909401549297700100000000000000000000000000000000909204871696908116955092909216925090565b611cb4612f10565b6000816fffffffffffffffffffffffffffffffff1611611d30576040517f08c379a000000000000000000000000000000000000000000000000000000000815260206004820152600b60248201527f416d6f756e742069732030000000000000000000000000000000000000000000604482015260640161072f565b6066546fffffffffffffffffffffffffffffffff9081169082161115611db2576040517f08c379a000000000000000000000000000000000000000000000000000000000815260206004820152601860248201527f52657761726420706f6f6c20697320746f6f20736d616c6c0000000000000000604482015260640161072f565b606680547fffffffffffffffffffffffffffffffff0000000000000000000000000000000081166fffffffffffffffffffffffffffffffff91821684900382161790915560405190821681527fb377d2221ae3ae0038f8a2593ce854d79cc6d598036b3acb67a2bed08557ee2e9060200160405180910390a1611e353382612f91565b50565b606a54600090819083906fffffffffffffffffffffffffffffffff90811690821610611ec0576040517f08c379a000000000000000000000000000000000000000000000000000000000815260206004820152601160248201527f496e76616c69642076616c696461746f72000000000000000000000000000000604482015260640161072f565b5050506fffffffffffffffffffffffffffffffff9081166000908152606b60209081526040808320600181015473ffffffffffffffffffffffffffffffffffffffff1684526005810190925290912054600290910154700100000000000000000000000000000000909104821692911690565b611f3b612f10565b6000816fffffffffffffffffffffffffffffffff1611611fb7576040517f08c379a000000000000000000000000000000000000000000000000000000000815260206004820152601760248201527f50726f7669646564206d6178207374616b652069732030000000000000000000604482015260640161072f565b606880547fffffffffffffffffffffffffffffffff00000000000000000000000000000000166fffffffffffffffffffffffffffffffff83169081179091556040519081527fc85c2d6ddb875b53634093f65fbea4ed8eba0b4efca26b87bc17ffedb668916490602001611b80565b60695460009073ffffffffffffffffffffffffffffffffffffffff1633146120aa576040517f08c379a000000000000000000000000000000000000000000000000000000000815260206004820152601c60248201527f43616c6c6572206973206e6f74207374616b696e674d616e6167657200000000604482015260640161072f565b670de0b6b3a7640000826fffffffffffffffffffffffffffffffff161061212d576040517f08c379a000000000000000000000000000000000000000000000000000000000815260206004820152601b60248201527f52617465206d757374206265206c657373207468616e20313030250000000000604482015260640161072f565b73ffffffffffffffffffffffffffffffffffffffff83166121aa576040517f08c379a000000000000000000000000000000000000000000000000000000000815260206004820152601660248201527f56616c696461746f722061646472657373206973203000000000000000000000604482015260640161072f565b606a80546fffffffffffffffffffffffffffffffff9081166000908152606b6020908152604091829020600180820180547fffffffffffffffffffffffff00000000000000000000000000000000000000001673ffffffffffffffffffffffffffffffffffffffff8b1690811790915582548616770de0b6b3a7640000000000000000000000000000000000001783556003830180547fffffffffffffffffffffffffffffffff00000000000000000000000000000000168a881690811790915560048401929092559554935190815290949392909216917f5a7dc0f8a1745e71f29bb12198638d3c7284ae1227928e679ab6bf3dc1f28617910160405180910390a3606a80547fffffffffffffffffffffffffffffffff00000000000000000000000000000000811660016fffffffffffffffffffffffffffffffff92831681019092169081179092556122fe91613b38565b6fffffffffffffffffffffffffffffffff16949350505050565b606a5460609081908190819081906fffffffffffffffffffffffffffffffff90811690871611156123a5576040517f08c379a000000000000000000000000000000000000000000000000000000000815260206004820152600e60248201527f496e76616c696420656e64206964000000000000000000000000000000000000604482015260640161072f565b856fffffffffffffffffffffffffffffffff16876fffffffffffffffffffffffffffffffff1610612458576040517f08c379a000000000000000000000000000000000000000000000000000000000815260206004820152602160248201527f5374617274206964206d757374206265206c657373207468616e20656e64206960448201527f6400000000000000000000000000000000000000000000000000000000000000606482015260840161072f565b60006124648888613b38565b9050806fffffffffffffffffffffffffffffffff1667ffffffffffffffff81111561249157612491613b69565b6040519080825280602002602001820160405280156124ba578160200160208202803683370190505b509550806fffffffffffffffffffffffffffffffff1667ffffffffffffffff8111156124e8576124e8613b69565b604051908082528060200260200182016040528015612511578160200160208202803683370190505b509450806fffffffffffffffffffffffffffffffff1667ffffffffffffffff81111561253f5761253f613b69565b604051908082528060200260200182016040528015612568578160200160208202803683370190505b509350806fffffffffffffffffffffffffffffffff1667ffffffffffffffff81111561259657612596613b69565b6040519080825280602002602001820160405280156125bf578160200160208202803683370190505b509250806fffffffffffffffffffffffffffffffff1667ffffffffffffffff8111156125ed576125ed613b69565b604051908082528060200260200182016040528015612616578160200160208202803683370190505b5091506000885b886fffffffffffffffffffffffffffffffff16816fffffffffffffffffffffffffffffffff161015612787576126538a82613b38565b915061265e81611b95565b8c876fffffffffffffffffffffffffffffffff168151811061268257612682613a77565b602002602001018c886fffffffffffffffffffffffffffffffff16815181106126ad576126ad613a77565b602002602001018c896fffffffffffffffffffffffffffffffff16815181106126d8576126d8613a77565b602002602001018c8a6fffffffffffffffffffffffffffffffff168151811061270357612703613a77565b602002602001018c8b6fffffffffffffffffffffffffffffffff168151811061272e5761272e613a77565b60209081029190910101949094526fffffffffffffffffffffffffffffffff9485169093529383169091529216905273ffffffffffffffffffffffffffffffffffffffff909116905261278081613b09565b905061261d565b5050509295509295909350565b600054610100900460ff16158080156127b45750600054600160ff909116105b806127ce5750303b1580156127ce575060005460ff166001145b61285a576040517f08c379a000000000000000000000000000000000000000000000000000000000815260206004820152602e60248201527f496e697469616c697a61626c653a20636f6e747261637420697320616c72656160448201527f647920696e697469616c697a6564000000000000000000000000000000000000606482015260840161072f565b600080547fffffffffffffffffffffffffffffffffffffffffffffffffffffffffffffff0016600117905580156128b857600080547fffffffffffffffffffffffffffffffffffffffffffffffffffffffffffff00ff166101001790555b6128c0613006565b606680546fffffffffffffffffffffffffffffffff908116700100000000000000000000000000000000878316818102929092179093558782168683169384028117606755606880547fffffffffffffffffffffffffffffffff00000000000000000000000000000000169387169384179055606580547fffffffffffffffffffffffff00000000000000000000000000000000000000001673ffffffffffffffffffffffffffffffffffffffff8c1690811790915560408051918252602082019390935291820152606081019290925260808201527f0d020790a4661b48ba70c972576a0ef9415e63f7d4f70620772b456804be11859060a00160405180910390a18015612a2657600080547fffffffffffffffffffffffffffffffffffffffffffffffffffffffffffff00ff169055604051600181527f7f26b83ff96e1f2b6a682f133852f6798a09c465da95921460cefb38474024989060200160405180910390a15b505050505050565b60695473ffffffffffffffffffffffffffffffffffffffff163314612aaf576040517f08c379a000000000000000000000000000000000000000000000000000000000815260206004820152601c60248201527f43616c6c6572206973206e6f74207374616b696e674d616e6167657200000000604482015260640161072f565b606a5482906fffffffffffffffffffffffffffffffff90811690821610612b32576040517f08c379a000000000000000000000000000000000000000000000000000000000815260206004820152601160248201527f496e76616c69642076616c696461746f72000000000000000000000000000000604482015260640161072f565b60008211612b9c576040517f08c379a000000000000000000000000000000000000000000000000000000000815260206004820152601960248201527f44697361626c6520626c6f636b2063616e6e6f74206265203000000000000000604482015260640161072f565b6fffffffffffffffffffffffffffffffff83166000818152606b602052604090819020600401849055517f890228cff135716fe461694a594a1308c48a00abf62b3fcff51a2fbabf2347129061083b9085815260200190565b60695473ffffffffffffffffffffffffffffffffffffffff163314612c76576040517f08c379a000000000000000000000000000000000000000000000000000000000815260206004820152601c60248201527f43616c6c6572206973206e6f74207374616b696e674d616e6167657200000000604482015260640161072f565b606a5481906fffffffffffffffffffffffffffffffff90811690821610612cf9576040517f08c379a000000000000000000000000000000000000000000000000000000000815260206004820152601160248201527f496e76616c69642076616c696461746f72000000000000000000000000000000604482015260640161072f565b6fffffffffffffffffffffffffffffffff82166000818152606b6020526040808220600401829055517f553b029ba5c74688a5da732136d246f722502db24ed6b4aaf1cdc9f2f9ef23ef9190a25050565b612d52612f10565b6000816fffffffffffffffffffffffffffffffff1611612dce576040517f08c379a000000000000000000000000000000000000000000000000000000000815260206004820152600b60248201527f416d6f756e742069732030000000000000000000000000000000000000000000604482015260640161072f565b606680546fffffffffffffffffffffffffffffffff8082168401167fffffffffffffffffffffffffffffffff00000000000000000000000000000000909116179055612e1a33826130a5565b6040516fffffffffffffffffffffffffffffffff821681527f2db5044922a44e715fdfd31c569712694c5956bbd41e06011f1c8ed339f5ff8f90602001611b80565b612e64612f10565b73ffffffffffffffffffffffffffffffffffffffff8116612f07576040517f08c379a000000000000000000000000000000000000000000000000000000000815260206004820152602660248201527f4f776e61626c653a206e6577206f776e657220697320746865207a65726f206160448201527f6464726573730000000000000000000000000000000000000000000000000000606482015260840161072f565b611e35816130dc565b60335473ffffffffffffffffffffffffffffffffffffffff163314611b93576040517f08c379a000000000000000000000000000000000000000000000000000000000815260206004820181905260248201527f4f776e61626c653a2063616c6c6572206973206e6f7420746865206f776e6572604482015260640161072f565b606554612fc79073ffffffffffffffffffffffffffffffffffffffff16836fffffffffffffffffffffffffffffffff8416613153565b5050565b6000670de0b6b3a7640000612ff56fffffffffffffffffffffffffffffffff808516908616613bd0565b612fff9190613c0d565b9392505050565b600054610100900460ff1661309d576040517f08c379a000000000000000000000000000000000000000000000000000000000815260206004820152602b60248201527f496e697469616c697a61626c653a20636f6e7472616374206973206e6f74206960448201527f6e697469616c697a696e67000000000000000000000000000000000000000000606482015260840161072f565b611b9361322c565b606554612fc79073ffffffffffffffffffffffffffffffffffffffff1683306fffffffffffffffffffffffffffffffff85166132cc565b6033805473ffffffffffffffffffffffffffffffffffffffff8381167fffffffffffffffffffffffff0000000000000000000000000000000000000000831681179093556040519116919082907f8be0079c531659141344cd1fd0a4f28419497f9722a3daafe3b4186f6b6457e090600090a35050565b60405173ffffffffffffffffffffffffffffffffffffffff83166024820152604481018290526132279084907fa9059cbb00000000000000000000000000000000000000000000000000000000906064015b604080517fffffffffffffffffffffffffffffffffffffffffffffffffffffffffffffffe08184030181529190526020810180517bffffffffffffffffffffffffffffffffffffffffffffffffffffffff167fffffffff0000000000000000000000000000000000000000000000000000000090931692909217909152613330565b505050565b600054610100900460ff166132c3576040517f08c379a000000000000000000000000000000000000000000000000000000000815260206004820152602b60248201527f496e697469616c697a61626c653a20636f6e7472616374206973206e6f74206960448201527f6e697469616c697a696e67000000000000000000000000000000000000000000606482015260840161072f565b611b93336130dc565b60405173ffffffffffffffffffffffffffffffffffffffff8085166024830152831660448201526064810182905261332a9085907f23b872dd00000000000000000000000000000000000000000000000000000000906084016131a5565b50505050565b6000613392826040518060400160405280602081526020017f5361666545524332303a206c6f772d6c6576656c2063616c6c206661696c65648152508573ffffffffffffffffffffffffffffffffffffffff1661343c9092919063ffffffff16565b80519091501561322757808060200190518101906133b09190613c48565b613227576040517f08c379a000000000000000000000000000000000000000000000000000000000815260206004820152602a60248201527f5361666545524332303a204552433230206f7065726174696f6e20646964206e60448201527f6f74207375636365656400000000000000000000000000000000000000000000606482015260840161072f565b606061344b8484600085613453565b949350505050565b6060824710156134e5576040517f08c379a000000000000000000000000000000000000000000000000000000000815260206004820152602660248201527f416464726573733a20696e73756666696369656e742062616c616e636520666f60448201527f722063616c6c0000000000000000000000000000000000000000000000000000606482015260840161072f565b6000808673ffffffffffffffffffffffffffffffffffffffff16858760405161350e9190613c96565b60006040518083038185875af1925050503d806000811461354b576040519150601f19603f3d011682016040523d82523d6000602084013e613550565b606091505b50915091506135618783838761356c565b979650505050505050565b606083156136025782516000036135fb5773ffffffffffffffffffffffffffffffffffffffff85163b6135fb576040517f08c379a000000000000000000000000000000000000000000000000000000000815260206004820152601d60248201527f416464726573733a2063616c6c20746f206e6f6e2d636f6e7472616374000000604482015260640161072f565b508161344b565b61344b83838151156136175781518083602001fd5b806040517f08c379a000000000000000000000000000000000000000000000000000000000815260040161072f9190613cb2565b5080546000825590600052602060002090810190611e3591905b808211156136795760008155600101613665565b5090565b600081518084526020808501945080840160005b838110156136bf5781516fffffffffffffffffffffffffffffffff1687529582019590820190600101613691565b509495945050505050565b600081518084526020808501945080840160005b838110156136bf578151875295820195908201906001016136de565b60a0808252865190820181905260009060209060c0840190828a01845b8281101561374957815173ffffffffffffffffffffffffffffffffffffffff1684529284019290840190600101613717565b5050508381038285015261375d818961367d565b9150508281036040840152613772818761367d565b90508281036060840152613786818661367d565b9050828103608084015261379a81856136ca565b98975050505050505050565b80356fffffffffffffffffffffffffffffffff811681146137c657600080fd5b919050565b600080604083850312156137de57600080fd5b6137e7836137a6565b91506137f5602084016137a6565b90509250929050565b803573ffffffffffffffffffffffffffffffffffffffff811681146137c657600080fd5b60006020828403121561383457600080fd5b612fff826137fe565b60008060006060848603121561385257600080fd5b61385b846137a6565b9250613869602085016137a6565b9150613877604085016137a6565b90509250925092565b6000806040838503121561389357600080fd5b61389c836137a6565b91506137f5602084016137fe565b6000602082840312156138bc57600080fd5b612fff826137a6565b600080604083850312156138d857600080fd5b6137e7836137fe565b60006fffffffffffffffffffffffffffffffff8088168352808716602084015280861660408401525060a0606083015261391e60a083018561367d565b828103608084015261379a818561367d565b60008083601f84011261394257600080fd5b50813567ffffffffffffffff81111561395a57600080fd5b6020830191508360208260051b850101111561397557600080fd5b9250929050565b6000806000806040858703121561399257600080fd5b843567ffffffffffffffff808211156139aa57600080fd5b6139b688838901613930565b909650945060208701359150808211156139cf57600080fd5b506139dc87828801613930565b95989497509550505050565b600080600080600060a08688031215613a0057600080fd5b613a09866137fe565b9450613a17602087016137a6565b9350613a25604087016137a6565b9250613a33606087016137a6565b9150613a41608087016137a6565b90509295509295909350565b60008060408385031215613a6057600080fd5b613a69836137a6565b946020939093013593505050565b7f4e487b7100000000000000000000000000000000000000000000000000000000600052603260045260246000fd5b7f4e487b7100000000000000000000000000000000000000000000000000000000600052601160045260246000fd5b60006fffffffffffffffffffffffffffffffff808316818516808303821115613b0057613b00613aa6565b01949350505050565b60006fffffffffffffffffffffffffffffffff808316818103613b2e57613b2e613aa6565b6001019392505050565b60006fffffffffffffffffffffffffffffffff83811690831681811015613b6157613b61613aa6565b039392505050565b7f4e487b7100000000000000000000000000000000000000000000000000000000600052604160045260246000fd5b60007fffffffffffffffffffffffffffffffffffffffffffffffffffffffffffffffff8203613bc957613bc9613aa6565b5060010190565b6000817fffffffffffffffffffffffffffffffffffffffffffffffffffffffffffffffff0483118215151615613c0857613c08613aa6565b500290565b600082613c43577f4e487b7100000000000000000000000000000000000000000000000000000000600052601260045260246000fd5b500490565b600060208284031215613c5a57600080fd5b81518015158114612fff57600080fd5b60005b83811015613c85578181015183820152602001613c6d565b8381111561332a5750506000910152565b60008251613ca8818460208701613c6a565b9190910192915050565b6020815260008251806020840152613cd1816040850160208701613c6a565b601f017fffffffffffffffffffffffffffffffffffffffffffffffffffffffffffffffe016919091016040019291505056fea264697066735822122009415a4849ada97914904c75d70f47826127f0b6b10be9074dfa9cf31413a39c64736f6c634300080d0033",
  "linkReferences": {},
  "deployedLinkReferences": {}
}