{
  "_format": "hh-sol-artifact-1",
  "contractName": "MigrationOperationalStaking",
  "sourceName": "contracts/MigrationOperationalStaking.sol",
  "abi": [
    {
      "anonymous": false,
      "inputs": [
        {
          "indexed": false,
          "internalType": "uint128",
          "name": "amount",
          "type": "uint128"
        }
      ],
      "name": "AllocatedTokensTaken",
      "type": "event"
    },
    {
      "anonymous": false,
      "inputs": [
        {
          "indexed": true,
          "internalType": "address",
          "name": "cqt",
          "type": "address"
        }
      ],
      "name": "CQTAddressChanged",
      "type": "event"
    },
    {
      "anonymous": false,
      "inputs": [
        {
          "indexed": true,
          "internalType": "uint128",
          "name": "validatorId",
          "type": "uint128"
        },
        {
          "indexed": true,
          "internalType": "address",
          "name": "beneficiary",
          "type": "address"
        },
        {
          "indexed": false,
          "internalType": "uint128",
          "name": "amount",
          "type": "uint128"
        }
      ],
      "name": "CommissionRewardRedeemed",
      "type": "event"
    },
    {
      "anonymous": false,
      "inputs": [
        {
          "indexed": true,
          "internalType": "uint128",
          "name": "validatorId",
          "type": "uint128"
        },
        {
          "indexed": true,
          "internalType": "address",
          "name": "delegator",
          "type": "address"
        }
      ],
      "name": "DelegatorBurnt",
      "type": "event"
    },
    {
      "anonymous": false,
      "inputs": [
        {
          "indexed": false,
          "internalType": "address",
          "name": "cqt",
          "type": "address"
        },
        {
          "indexed": false,
          "internalType": "uint128",
          "name": "validatorCoolDown",
          "type": "uint128"
        },
        {
          "indexed": false,
          "internalType": "uint128",
          "name": "delegatorCoolDown",
          "type": "uint128"
        },
        {
          "indexed": false,
          "internalType": "uint128",
          "name": "maxCapMultiplier",
          "type": "uint128"
        },
        {
          "indexed": false,
          "internalType": "uint128",
          "name": "validatorMaxStake",
          "type": "uint128"
        }
      ],
      "name": "Initialized",
      "type": "event"
    },
    {
      "anonymous": false,
      "inputs": [
        {
          "indexed": false,
          "internalType": "uint8",
          "name": "version",
          "type": "uint8"
        }
      ],
      "name": "Initialized",
      "type": "event"
    },
    {
      "anonymous": false,
      "inputs": [
        {
          "indexed": true,
          "internalType": "uint128",
          "name": "amount",
          "type": "uint128"
        }
      ],
      "name": "MadCQTBurnt",
      "type": "event"
    },
    {
      "anonymous": false,
      "inputs": [
        {
          "indexed": false,
          "internalType": "uint128",
          "name": "newMaxCapMultiplier",
          "type": "uint128"
        }
      ],
      "name": "MaxCapMultiplierChanged",
      "type": "event"
    },
    {
      "anonymous": false,
      "inputs": [
        {
          "indexed": true,
          "internalType": "address",
          "name": "previousOwner",
          "type": "address"
        },
        {
          "indexed": true,
          "internalType": "address",
          "name": "newOwner",
          "type": "address"
        }
      ],
      "name": "OwnershipTransferred",
      "type": "event"
    },
    {
      "anonymous": false,
      "inputs": [
        {
          "indexed": true,
          "internalType": "uint128",
          "name": "validatorId",
          "type": "uint128"
        },
        {
          "indexed": true,
          "internalType": "address",
          "name": "delegator",
          "type": "address"
        },
        {
          "indexed": false,
          "internalType": "uint128",
          "name": "amount",
          "type": "uint128"
        },
        {
          "indexed": false,
          "internalType": "uint128",
          "name": "unstakingId",
          "type": "uint128"
        }
      ],
      "name": "RecoveredUnstake",
      "type": "event"
    },
    {
      "anonymous": false,
      "inputs": [
        {
          "indexed": true,
          "internalType": "uint128",
          "name": "oldValidatorId",
          "type": "uint128"
        },
        {
          "indexed": true,
          "internalType": "uint128",
          "name": "newValidatorId",
          "type": "uint128"
        },
        {
          "indexed": true,
          "internalType": "address",
          "name": "delegator",
          "type": "address"
        },
        {
          "indexed": false,
          "internalType": "uint128",
          "name": "amount",
          "type": "uint128"
        },
        {
          "indexed": false,
          "internalType": "uint128",
          "name": "unstakingId",
          "type": "uint128"
        }
      ],
      "name": "Redelegated",
      "type": "event"
    },
    {
      "anonymous": false,
      "inputs": [
        {
          "indexed": true,
          "internalType": "uint128",
          "name": "validatorId",
          "type": "uint128"
        },
        {
          "indexed": false,
          "internalType": "uint128",
          "name": "amount",
          "type": "uint128"
        }
      ],
      "name": "RewardFailedDueLowPool",
      "type": "event"
    },
    {
      "anonymous": false,
      "inputs": [
        {
          "indexed": true,
          "internalType": "uint128",
          "name": "validatorId",
          "type": "uint128"
        },
        {
          "indexed": false,
          "internalType": "uint128",
          "name": "amount",
          "type": "uint128"
        }
      ],
      "name": "RewardFailedDueZeroStake",
      "type": "event"
    },
    {
      "anonymous": false,
      "inputs": [
        {
          "indexed": true,
          "internalType": "uint128",
          "name": "validatorId",
          "type": "uint128"
        },
        {
          "indexed": true,
          "internalType": "address",
          "name": "beneficiary",
          "type": "address"
        },
        {
          "indexed": false,
          "internalType": "uint128",
          "name": "amount",
          "type": "uint128"
        }
      ],
      "name": "RewardRedeemed",
      "type": "event"
    },
    {
      "anonymous": false,
      "inputs": [
        {
          "indexed": false,
          "internalType": "uint128",
          "name": "amount",
          "type": "uint128"
        }
      ],
      "name": "RewardTokensDeposited",
      "type": "event"
    },
    {
      "anonymous": false,
      "inputs": [
        {
          "indexed": true,
          "internalType": "uint128",
          "name": "validatorId",
          "type": "uint128"
        },
        {
          "indexed": false,
          "internalType": "address",
          "name": "delegator",
          "type": "address"
        },
        {
          "indexed": false,
          "internalType": "uint128",
          "name": "amount",
          "type": "uint128"
        }
      ],
      "name": "Staked",
      "type": "event"
    },
    {
      "anonymous": false,
      "inputs": [
        {
          "indexed": true,
          "internalType": "address",
          "name": "operationalManager",
          "type": "address"
        }
      ],
      "name": "StakingManagerAddressChanged",
      "type": "event"
    },
    {
      "anonymous": false,
      "inputs": [
        {
          "indexed": true,
          "internalType": "uint128",
          "name": "validatorId",
          "type": "uint128"
        },
        {
          "indexed": true,
          "internalType": "address",
          "name": "delegator",
          "type": "address"
        },
        {
          "indexed": true,
          "internalType": "uint128",
          "name": "unstakeId",
          "type": "uint128"
        },
        {
          "indexed": false,
          "internalType": "uint128",
          "name": "amount",
          "type": "uint128"
        }
      ],
      "name": "UnstakeRedeemed",
      "type": "event"
    },
    {
      "anonymous": false,
      "inputs": [
        {
          "indexed": true,
          "internalType": "uint128",
          "name": "validatorId",
          "type": "uint128"
        },
        {
          "indexed": true,
          "internalType": "address",
          "name": "delegator",
          "type": "address"
        },
        {
          "indexed": false,
          "internalType": "uint128",
          "name": "amount",
          "type": "uint128"
        },
        {
          "indexed": false,
          "internalType": "uint128",
          "name": "unstakeId",
          "type": "uint128"
        }
      ],
      "name": "Unstaked",
      "type": "event"
    },
    {
      "anonymous": false,
      "inputs": [
        {
          "indexed": true,
          "internalType": "uint128",
          "name": "id",
          "type": "uint128"
        },
        {
          "indexed": false,
          "internalType": "uint128",
          "name": "commissionRate",
          "type": "uint128"
        },
        {
          "indexed": true,
          "internalType": "address",
          "name": "validator",
          "type": "address"
        }
      ],
      "name": "ValidatorAdded",
      "type": "event"
    },
    {
      "anonymous": false,
      "inputs": [
        {
          "indexed": true,
          "internalType": "uint128",
          "name": "validatorId",
          "type": "uint128"
        },
        {
          "indexed": true,
          "internalType": "address",
          "name": "newAddress",
          "type": "address"
        }
      ],
      "name": "ValidatorAddressChanged",
      "type": "event"
    },
    {
      "anonymous": false,
      "inputs": [
        {
          "indexed": true,
          "internalType": "uint128",
          "name": "validatorId",
          "type": "uint128"
        },
        {
          "indexed": false,
          "internalType": "uint128",
          "name": "amount",
          "type": "uint128"
        }
      ],
      "name": "ValidatorCommissionRateChanged",
      "type": "event"
    },
    {
      "anonymous": false,
      "inputs": [
        {
          "indexed": true,
          "internalType": "uint128",
          "name": "validatorId",
          "type": "uint128"
        },
        {
          "indexed": false,
          "internalType": "uint256",
          "name": "blockNumber",
          "type": "uint256"
        }
      ],
      "name": "ValidatorDisabled",
      "type": "event"
    },
    {
      "anonymous": false,
      "inputs": [
        {
          "indexed": true,
          "internalType": "uint128",
          "name": "validatorId",
          "type": "uint128"
        }
      ],
      "name": "ValidatorEnabled",
      "type": "event"
    },
    {
      "anonymous": false,
      "inputs": [
        {
          "indexed": false,
          "internalType": "uint128",
          "name": "amount",
          "type": "uint128"
        }
      ],
      "name": "ValidatorMaxCapChanged",
      "type": "event"
    },
    {
      "inputs": [],
      "name": "CQT",
      "outputs": [
        {
          "internalType": "contract IERC20Upgradeable",
          "name": "",
          "type": "address"
        }
      ],
      "stateMutability": "view",
      "type": "function"
    },
    {
      "inputs": [],
      "name": "DIVIDER",
      "outputs": [
        {
          "internalType": "uint256",
          "name": "",
          "type": "uint256"
        }
      ],
      "stateMutability": "view",
      "type": "function"
    },
    {
      "inputs": [],
      "name": "REWARD_REDEEM_THRESHOLD",
      "outputs": [
        {
          "internalType": "uint128",
          "name": "",
          "type": "uint128"
        }
      ],
      "stateMutability": "view",
      "type": "function"
    },
    {
      "inputs": [],
      "name": "burnDefaultDelegators",
      "outputs": [],
      "stateMutability": "nonpayable",
      "type": "function"
    },
    {
      "inputs": [
        {
          "internalType": "uint128",
          "name": "validatorId",
          "type": "uint128"
        },
        {
          "internalType": "address",
          "name": "delegator",
          "type": "address"
        }
      ],
      "name": "burnDelegatorBalance",
      "outputs": [],
      "stateMutability": "nonpayable",
      "type": "function"
    },
    {
      "inputs": [],
      "name": "delegatorCoolDown",
      "outputs": [
        {
          "internalType": "uint128",
          "name": "",
          "type": "uint128"
        }
      ],
      "stateMutability": "view",
      "type": "function"
    },
    {
      "inputs": [
        {
          "internalType": "address",
          "name": "delegator",
          "type": "address"
        },
        {
          "internalType": "uint128",
          "name": "validatorId",
          "type": "uint128"
        }
      ],
      "name": "getDelegatorMetadata",
      "outputs": [
        {
          "internalType": "uint128",
          "name": "staked",
          "type": "uint128"
        },
        {
          "internalType": "uint128",
          "name": "rewards",
          "type": "uint128"
        },
        {
          "internalType": "uint128",
          "name": "commissionEarned",
          "type": "uint128"
        },
        {
          "internalType": "uint128[]",
          "name": "unstakingAmounts",
          "type": "uint128[]"
        },
        {
          "internalType": "uint128[]",
          "name": "unstakingsEndEpochs",
          "type": "uint128[]"
        }
      ],
      "stateMutability": "view",
      "type": "function"
    },
    {
      "inputs": [],
      "name": "getMetadata",
      "outputs": [
        {
          "internalType": "address",
          "name": "CQTaddress",
          "type": "address"
        },
        {
          "internalType": "address",
          "name": "_stakingManager",
          "type": "address"
        },
        {
          "internalType": "uint128",
          "name": "_validatorsN",
          "type": "uint128"
        },
        {
          "internalType": "uint128",
          "name": "_rewardPool",
          "type": "uint128"
        },
        {
          "internalType": "uint128",
          "name": "_validatorCoolDown",
          "type": "uint128"
        },
        {
          "internalType": "uint128",
          "name": "_delegatorCoolDown",
          "type": "uint128"
        },
        {
          "internalType": "uint128",
          "name": "_maxCapMultiplier",
          "type": "uint128"
        },
        {
          "internalType": "uint128",
          "name": "_validatorMaxStake",
          "type": "uint128"
        }
      ],
      "stateMutability": "view",
      "type": "function"
    },
    {
      "inputs": [
        {
          "internalType": "uint128",
          "name": "validatorId",
          "type": "uint128"
        }
      ],
      "name": "getValidatorCompoundedStakingData",
      "outputs": [
        {
          "internalType": "uint128",
          "name": "staked",
          "type": "uint128"
        },
        {
          "internalType": "uint128",
          "name": "delegated",
          "type": "uint128"
        }
      ],
      "stateMutability": "view",
      "type": "function"
    },
    {
      "inputs": [
        {
          "internalType": "uint128",
          "name": "validatorId",
          "type": "uint128"
        }
      ],
      "name": "getValidatorStakingData",
      "outputs": [
        {
          "internalType": "uint128",
          "name": "staked",
          "type": "uint128"
        },
        {
          "internalType": "uint128",
          "name": "delegated",
          "type": "uint128"
        }
      ],
      "stateMutability": "view",
      "type": "function"
    },
    {
      "inputs": [],
      "name": "maxCapMultiplier",
      "outputs": [
        {
          "internalType": "uint128",
          "name": "",
          "type": "uint128"
        }
      ],
      "stateMutability": "view",
      "type": "function"
    },
    {
      "inputs": [],
      "name": "owner",
      "outputs": [
        {
          "internalType": "address",
          "name": "",
          "type": "address"
        }
      ],
      "stateMutability": "view",
      "type": "function"
    },
    {
      "inputs": [],
      "name": "renounceOwnership",
      "outputs": [],
      "stateMutability": "nonpayable",
      "type": "function"
    },
    {
      "inputs": [],
      "name": "rewardPool",
      "outputs": [
        {
          "internalType": "uint128",
          "name": "",
          "type": "uint128"
        }
      ],
      "stateMutability": "view",
      "type": "function"
    },
    {
      "inputs": [
        {
          "internalType": "address",
          "name": "newCQT",
          "type": "address"
        }
      ],
      "name": "setCQTAddress",
      "outputs": [],
      "stateMutability": "nonpayable",
      "type": "function"
    },
    {
      "inputs": [],
      "name": "stakingManager",
      "outputs": [
        {
          "internalType": "address",
          "name": "",
          "type": "address"
        }
      ],
      "stateMutability": "view",
      "type": "function"
    },
    {
      "inputs": [
        {
          "internalType": "address",
          "name": "newOwner",
          "type": "address"
        }
      ],
      "name": "transferOwnership",
      "outputs": [],
      "stateMutability": "nonpayable",
      "type": "function"
    },
    {
      "inputs": [],
      "name": "validatorCoolDown",
      "outputs": [
        {
          "internalType": "uint128",
          "name": "",
          "type": "uint128"
        }
      ],
      "stateMutability": "view",
      "type": "function"
    },
    {
      "inputs": [],
      "name": "validatorMaxStake",
      "outputs": [
        {
          "internalType": "uint128",
          "name": "",
          "type": "uint128"
        }
      ],
      "stateMutability": "view",
      "type": "function"
    },
    {
      "inputs": [],
      "name": "validatorsN",
      "outputs": [
        {
          "internalType": "uint128",
          "name": "",
          "type": "uint128"
        }
      ],
      "stateMutability": "view",
      "type": "function"
    },
    {
      "inputs": [
        {
          "internalType": "address",
          "name": "recoveryWallet",
          "type": "address"
        }
      ],
      "name": "withdrawAllMadCQT",
      "outputs": [],
      "stateMutability": "nonpayable",
      "type": "function"
    }
  ],
  "bytecode": "0x608060405234801561001057600080fd5b50611a88806100206000396000f3fe608060405234801561001057600080fd5b50600436106101775760003560e01c806366666aa9116100d85780638da5cb5b1161008c578063b3c3976c11610066578063b3c3976c1461044f578063dfc50f6514610457578063f2fde38b1461047357600080fd5b80638da5cb5b146104025780639860fa25146104205780639f10816f1461043357600080fd5b80637a5b4f59116100bd5780637a5b4f591461033b5780637ef1bc8a146103d35780638a810324146103e657600080fd5b806366666aa914610317578063715018a61461033357600080fd5b806353b749221161012f5780635b88d89e116101145780635b88d89e146102b757806362043bd8146102ca578063650de76b146102e757600080fd5b806353b74922146102635780635b2167231461029357600080fd5b806322828cc21161016057806322828cc2146101f2578063473065a3146102125780634c4a17091461022757600080fd5b8063099912231461017c5780630f04adfe146101ad575b600080fd5b6101876305f5e10081565b6040516fffffffffffffffffffffffffffffffff90911681526020015b60405180910390f35b6065546101cd9073ffffffffffffffffffffffffffffffffffffffff1681565b60405173ffffffffffffffffffffffffffffffffffffffff90911681526020016101a4565b6069546101cd9073ffffffffffffffffffffffffffffffffffffffff1681565b61022561022036600461164e565b610486565b005b61023a610235366004611689565b6104fd565b604080516fffffffffffffffffffffffffffffffff9384168152929091166020830152016101a4565b6066546101879070010000000000000000000000000000000090046fffffffffffffffffffffffffffffffff1681565b6102a66102a13660046116a4565b6105c7565b6040516101a4959493929190611724565b6102256102c536600461164e565b610998565b6102d9670de0b6b3a764000081565b6040519081526020016101a4565b6067546101879070010000000000000000000000000000000090046fffffffffffffffffffffffffffffffff1681565b606654610187906fffffffffffffffffffffffffffffffff1681565b610225610a5e565b606554606954606a546066546067546068546040805173ffffffffffffffffffffffffffffffffffffffff97881681529690951660208701526fffffffffffffffffffffffffffffffff938416948601949094528282166060860152700100000000000000000000000000000000918290048316608086015282811660a086015204811660c08401521660e0820152610100016101a4565b6102256103e136600461177f565b610a68565b606a54610187906fffffffffffffffffffffffffffffffff1681565b60335473ffffffffffffffffffffffffffffffffffffffff166101cd565b61023a61042e366004611689565b610a7a565b606854610187906fffffffffffffffffffffffffffffffff1681565b610225610b72565b606754610187906fffffffffffffffffffffffffffffffff1681565b61022561048136600461164e565b610c9d565b61048e610d54565b606580547fffffffffffffffffffffffff00000000000000000000000000000000000000001673ffffffffffffffffffffffffffffffffffffffff83169081179091556040517f484a4a6b1a32628ffcec67227a0d357c38c5524aa5db3ecd1fa955c9a6989f2490600090a250565b6fffffffffffffffffffffffffffffffff8082166000908152606b60209081526040808320600181015473ffffffffffffffffffffffffffffffffffffffff168452600581019092528220548154929384936105719282169170010000000000000000000000000000000090910416610dd5565b6002820154825491945084916105b5916fffffffffffffffffffffffffffffffff700100000000000000000000000000000000918290048116929190910416610dd5565b6105bf91906117d8565b915050915091565b606a546000908190819060609081906fffffffffffffffffffffffffffffffff90811690871610610659576040517f08c379a000000000000000000000000000000000000000000000000000000000815260206004820152601160248201527f496e76616c69642076616c696461746f7200000000000000000000000000000060448201526064015b60405180910390fd5b6fffffffffffffffffffffffffffffffff8087166000908152606b6020908152604080832073ffffffffffffffffffffffffffffffffffffffff8c1684526005810190925282208054825470010000000000000000000000000000000080830487169b5093959294936106d29392831692910416610dd5565b82549091506fffffffffffffffffffffffffffffffff7001000000000000000000000000000000009091048116908216116107105760009650610745565b81546107429070010000000000000000000000000000000090046fffffffffffffffffffffffffffffffff16826117d8565b96505b600183015473ffffffffffffffffffffffffffffffffffffffff808c169116036107805782546fffffffffffffffffffffffffffffffff1695505b73ffffffffffffffffffffffffffffffffffffffff8a166000908152600684016020908152604080832080548251818502810185019093528083529192909190849084015b8282101561082457600084815260209081902060408051808201909152908401546fffffffffffffffffffffffffffffffff808216835270010000000000000000000000000000000090910416818301528252600190920191016107c5565b505082519293508291505067ffffffffffffffff81111561084757610847611809565b604051908082528060200260200182016040528015610870578160200160208202803683370190505b5096508067ffffffffffffffff81111561088c5761088c611809565b6040519080825280602002602001820160405280156108b5578160200160208202803683370190505b50955060005b81811015610988578281815181106108d5576108d5611838565b6020026020010151602001518882815181106108f3576108f3611838565b60200260200101906fffffffffffffffffffffffffffffffff1690816fffffffffffffffffffffffffffffffff168152505082818151811061093757610937611838565b60200260200101516000015187828151811061095557610955611838565b6fffffffffffffffffffffffffffffffff909216602092830291909101909101528061098081611867565b9150506108bb565b5050505050509295509295909350565b6109a0610d54565b6065546040517f70a0823100000000000000000000000000000000000000000000000000000000815230600482015260009173ffffffffffffffffffffffffffffffffffffffff16906370a0823190602401602060405180830381865afa158015610a0f573d6000803e3d6000fd5b505050506040513d601f19601f82011682018060405250810190610a33919061189f565b606554909150610a5a9073ffffffffffffffffffffffffffffffffffffffff168383610e10565b5050565b610a66610d54565b565b610a70610d54565b610a5a8282610ea2565b606a5460009081906fffffffffffffffffffffffffffffffff90811690841610610b00576040517f08c379a000000000000000000000000000000000000000000000000000000000815260206004820152601160248201527f496e76616c69642076616c696461746f720000000000000000000000000000006044820152606401610650565b50506fffffffffffffffffffffffffffffffff9081166000908152606b60209081526040808320600181015473ffffffffffffffffffffffffffffffffffffffff1684526005810190925290912054600290910154700100000000000000000000000000000000909104821692911690565b610b7a610d54565b6040805160a0810182527394a8930e6f3508a3f1ac716c8035ecb61c20c25b81527318e23dc40c83f71fc81a720054794a7f0046604a602082015273e9258079b3a42e7ce040ef5a861069ef3810bd659181019190915273b2f37f36ef7ed54c1ad8adaba2b05cc02f1da38d6060820152731ed3ccc793b62909996d2ab6159aef1ca530fca7608082015260005b6005816fffffffffffffffffffffffffffffffff161015610a5a5760005b606a546fffffffffffffffffffffffffffffffff9081169082161015610c8a57610c788184846fffffffffffffffffffffffffffffffff1660058110610c6e57610c6e611838565b6020020151610ea2565b80610c82816118b8565b915050610c26565b5080610c95816118b8565b915050610c08565b610ca5610d54565b73ffffffffffffffffffffffffffffffffffffffff8116610d48576040517f08c379a000000000000000000000000000000000000000000000000000000000815260206004820152602660248201527f4f776e61626c653a206e6577206f776e657220697320746865207a65726f206160448201527f64647265737300000000000000000000000000000000000000000000000000006064820152608401610650565b610d5181611270565b50565b60335473ffffffffffffffffffffffffffffffffffffffff163314610a66576040517f08c379a000000000000000000000000000000000000000000000000000000000815260206004820181905260248201527f4f776e61626c653a2063616c6c6572206973206e6f7420746865206f776e65726044820152606401610650565b6000670de0b6b3a7640000610dff6fffffffffffffffffffffffffffffffff8085169086166118e7565b610e099190611924565b9392505050565b6040805173ffffffffffffffffffffffffffffffffffffffff8416602482015260448082018490528251808303909101815260649091019091526020810180517bffffffffffffffffffffffffffffffffffffffffffffffffffffffff167fa9059cbb00000000000000000000000000000000000000000000000000000000179052610e9d9084906112e7565b505050565b606a546fffffffffffffffffffffffffffffffff90811690831610610f23576040517f08c379a000000000000000000000000000000000000000000000000000000000815260206004820152601160248201527f496e76616c69642076616c696461746f720000000000000000000000000000006044820152606401610650565b6fffffffffffffffffffffffffffffffff82166000908152606b6020908152604080832073ffffffffffffffffffffffffffffffffffffffff80861680865260058301909452919093206001840154909291169003610f825750505050565b80548254600091610fbd916fffffffffffffffffffffffffffffffff9182169170010000000000000000000000000000000090910416610dd5565b82546002850180549293506fffffffffffffffffffffffffffffffff9182169290916010916110029185917001000000000000000000000000000000009004166117d8565b82546101009290920a6fffffffffffffffffffffffffffffffff8181021990931691831602179091558354600286018054700100000000000000000000000000000000909204831693509160009161105c918591166117d8565b82546fffffffffffffffffffffffffffffffff9182166101009390930a928302919092021990911617905550600080835573ffffffffffffffffffffffffffffffffffffffff85168152600684016020908152604080832080548251818502810185019093528083529192909190849084015b8282101561112e57600084815260209081902060408051808201909152908401546fffffffffffffffffffffffffffffffff808216835270010000000000000000000000000000000090910416818301528252600190920191016110cf565b5050825192935060009150505b81816fffffffffffffffffffffffffffffffff1610156111a45782816fffffffffffffffffffffffffffffffff168151811061117957611179611838565b60200260200101516020015184611190919061195f565b93508061119c816118b8565b91505061113b565b5073ffffffffffffffffffffffffffffffffffffffff8616600090815260068601602052604081206111d5916115f3565b60405173ffffffffffffffffffffffffffffffffffffffff8716906fffffffffffffffffffffffffffffffff8916907fe0e17aaf7e5e93700670c4ec514b818327ef1f29af2bb13d1dbf5062e2bcae3390600090a36040516fffffffffffffffffffffffffffffffff8416907f2271025ead37498adb64f5677e2ec0f1946f7634fb8935b65ba93ac894c3c1da90600090a250505050505050565b6033805473ffffffffffffffffffffffffffffffffffffffff8381167fffffffffffffffffffffffff0000000000000000000000000000000000000000831681179093556040519116919082907f8be0079c531659141344cd1fd0a4f28419497f9722a3daafe3b4186f6b6457e090600090a35050565b6000611349826040518060400160405280602081526020017f5361666545524332303a206c6f772d6c6576656c2063616c6c206661696c65648152508573ffffffffffffffffffffffffffffffffffffffff166113f39092919063ffffffff16565b805190915015610e9d57808060200190518101906113679190611993565b610e9d576040517f08c379a000000000000000000000000000000000000000000000000000000000815260206004820152602a60248201527f5361666545524332303a204552433230206f7065726174696f6e20646964206e60448201527f6f742073756363656564000000000000000000000000000000000000000000006064820152608401610650565b6060611402848460008561140a565b949350505050565b60608247101561149c576040517f08c379a000000000000000000000000000000000000000000000000000000000815260206004820152602660248201527f416464726573733a20696e73756666696369656e742062616c616e636520666f60448201527f722063616c6c00000000000000000000000000000000000000000000000000006064820152608401610650565b73ffffffffffffffffffffffffffffffffffffffff85163b61151a576040517f08c379a000000000000000000000000000000000000000000000000000000000815260206004820152601d60248201527f416464726573733a2063616c6c20746f206e6f6e2d636f6e74726163740000006044820152606401610650565b6000808673ffffffffffffffffffffffffffffffffffffffff16858760405161154391906119e5565b60006040518083038185875af1925050503d8060008114611580576040519150601f19603f3d011682016040523d82523d6000602084013e611585565b606091505b50915091506115958282866115a0565b979650505050505050565b606083156115af575081610e09565b8251156115bf5782518084602001fd5b816040517f08c379a00000000000000000000000000000000000000000000000000000000081526004016106509190611a01565b5080546000825590600052602060002090810190610d5191905b80821115611621576000815560010161160d565b5090565b803573ffffffffffffffffffffffffffffffffffffffff8116811461164957600080fd5b919050565b60006020828403121561166057600080fd5b610e0982611625565b80356fffffffffffffffffffffffffffffffff8116811461164957600080fd5b60006020828403121561169b57600080fd5b610e0982611669565b600080604083850312156116b757600080fd5b6116c083611625565b91506116ce60208401611669565b90509250929050565b600081518084526020808501945080840160005b838110156117195781516fffffffffffffffffffffffffffffffff16875295820195908201906001016116eb565b509495945050505050565b60006fffffffffffffffffffffffffffffffff8088168352808716602084015280861660408401525060a0606083015261176160a08301856116d7565b828103608084015261177381856116d7565b98975050505050505050565b6000806040838503121561179257600080fd5b61179b83611669565b91506116ce60208401611625565b7f4e487b7100000000000000000000000000000000000000000000000000000000600052601160045260246000fd5b60006fffffffffffffffffffffffffffffffff83811690831681811015611801576118016117a9565b039392505050565b7f4e487b7100000000000000000000000000000000000000000000000000000000600052604160045260246000fd5b7f4e487b7100000000000000000000000000000000000000000000000000000000600052603260045260246000fd5b60007fffffffffffffffffffffffffffffffffffffffffffffffffffffffffffffffff8203611898576118986117a9565b5060010190565b6000602082840312156118b157600080fd5b5051919050565b60006fffffffffffffffffffffffffffffffff8083168181036118dd576118dd6117a9565b6001019392505050565b6000817fffffffffffffffffffffffffffffffffffffffffffffffffffffffffffffffff048311821515161561191f5761191f6117a9565b500290565b60008261195a577f4e487b7100000000000000000000000000000000000000000000000000000000600052601260045260246000fd5b500490565b60006fffffffffffffffffffffffffffffffff80831681851680830382111561198a5761198a6117a9565b01949350505050565b6000602082840312156119a557600080fd5b81518015158114610e0957600080fd5b60005b838110156119d05781810151838201526020016119b8565b838111156119df576000848401525b50505050565b600082516119f78184602087016119b5565b9190910192915050565b6020815260008251806020840152611a208160408501602087016119b5565b601f017fffffffffffffffffffffffffffffffffffffffffffffffffffffffffffffffe016919091016040019291505056fea26469706673582212208d958c87fdd12c8d43a2926c44b6a1979ce000104876732ae74803a6c8d9223964736f6c634300080d0033",
  "linkReferences": {},
  "deployedLinkReferences": {}
}