{
  "_format": "hh-sol-artifact-1",
  "contractName": "OperationalStaking",
  "sourceName": "contracts/OperationalStaking.sol",
  "abi": [
    {
      "anonymous": false,
      "inputs": [
        {
          "indexed": false,
          "internalType": "uint128",
          "name": "amount",
          "type": "uint128"
        }
      ],
      "name": "AllocatedTokensTaken",
      "type": "event"
    },
    {
      "anonymous": false,
      "inputs": [
        {
          "indexed": true,
          "internalType": "uint128",
          "name": "validatorId",
          "type": "uint128"
        },
        {
          "indexed": true,
          "internalType": "address",
          "name": "beneficiary",
          "type": "address"
        },
        {
          "indexed": false,
          "internalType": "uint128",
          "name": "amount",
          "type": "uint128"
        }
      ],
      "name": "CommissionRewardRedeemed",
      "type": "event"
    },
    {
      "anonymous": false,
      "inputs": [
        {
          "indexed": false,
          "internalType": "address",
          "name": "cqt",
          "type": "address"
        },
        {
          "indexed": false,
          "internalType": "uint128",
          "name": "validatorCoolDown",
          "type": "uint128"
        },
        {
          "indexed": false,
          "internalType": "uint128",
          "name": "delegatorCoolDown",
          "type": "uint128"
        },
        {
          "indexed": false,
          "internalType": "uint128",
          "name": "maxCapMultiplier",
          "type": "uint128"
        },
        {
          "indexed": false,
          "internalType": "uint128",
          "name": "validatorMaxStake",
          "type": "uint128"
        }
      ],
      "name": "Initialized",
      "type": "event"
    },
    {
      "anonymous": false,
      "inputs": [
        {
          "indexed": false,
          "internalType": "uint8",
          "name": "version",
          "type": "uint8"
        }
      ],
      "name": "Initialized",
      "type": "event"
    },
    {
      "anonymous": false,
      "inputs": [
        {
          "indexed": false,
          "internalType": "uint128",
          "name": "newMaxCapMultiplier",
          "type": "uint128"
        }
      ],
      "name": "MaxCapMultiplierChanged",
      "type": "event"
    },
    {
      "anonymous": false,
      "inputs": [
        {
          "indexed": true,
          "internalType": "address",
          "name": "previousOwner",
          "type": "address"
        },
        {
          "indexed": true,
          "internalType": "address",
          "name": "newOwner",
          "type": "address"
        }
      ],
      "name": "OwnershipTransferred",
      "type": "event"
    },
    {
      "anonymous": false,
      "inputs": [
        {
          "indexed": true,
          "internalType": "uint128",
          "name": "validatorId",
          "type": "uint128"
        },
        {
          "indexed": true,
          "internalType": "address",
          "name": "delegator",
          "type": "address"
        },
        {
          "indexed": false,
          "internalType": "uint128",
          "name": "amount",
          "type": "uint128"
        },
        {
          "indexed": false,
          "internalType": "uint128",
          "name": "unstakingId",
          "type": "uint128"
        }
      ],
      "name": "RecoveredUnstake",
      "type": "event"
    },
    {
      "anonymous": false,
      "inputs": [
        {
          "indexed": true,
          "internalType": "uint128",
          "name": "oldValidatorId",
          "type": "uint128"
        },
        {
          "indexed": true,
          "internalType": "uint128",
          "name": "newValidatorId",
          "type": "uint128"
        },
        {
          "indexed": true,
          "internalType": "address",
          "name": "delegator",
          "type": "address"
        },
        {
          "indexed": false,
          "internalType": "uint128",
          "name": "amount",
          "type": "uint128"
        },
        {
          "indexed": false,
          "internalType": "uint128",
          "name": "unstakingId",
          "type": "uint128"
        }
      ],
      "name": "Redelegated",
      "type": "event"
    },
    {
      "anonymous": false,
      "inputs": [
        {
          "indexed": true,
          "internalType": "uint128",
          "name": "validatorId",
          "type": "uint128"
        },
        {
          "indexed": false,
          "internalType": "uint128",
          "name": "amount",
          "type": "uint128"
        }
      ],
      "name": "RewardFailedDueLowPool",
      "type": "event"
    },
    {
      "anonymous": false,
      "inputs": [
        {
          "indexed": true,
          "internalType": "uint128",
          "name": "validatorId",
          "type": "uint128"
        },
        {
          "indexed": false,
          "internalType": "uint128",
          "name": "amount",
          "type": "uint128"
        }
      ],
      "name": "RewardFailedDueZeroStake",
      "type": "event"
    },
    {
      "anonymous": false,
      "inputs": [
        {
          "indexed": true,
          "internalType": "uint128",
          "name": "validatorId",
          "type": "uint128"
        },
        {
          "indexed": true,
          "internalType": "address",
          "name": "beneficiary",
          "type": "address"
        },
        {
          "indexed": false,
          "internalType": "uint128",
          "name": "amount",
          "type": "uint128"
        }
      ],
      "name": "RewardRedeemed",
      "type": "event"
    },
    {
      "anonymous": false,
      "inputs": [
        {
          "indexed": false,
          "internalType": "uint128",
          "name": "amount",
          "type": "uint128"
        }
      ],
      "name": "RewardTokensDeposited",
      "type": "event"
    },
    {
      "anonymous": false,
      "inputs": [
        {
          "indexed": true,
          "internalType": "uint128",
          "name": "validatorId",
          "type": "uint128"
        },
        {
          "indexed": false,
          "internalType": "address",
          "name": "delegator",
          "type": "address"
        },
        {
          "indexed": false,
          "internalType": "uint128",
          "name": "amount",
          "type": "uint128"
        }
      ],
      "name": "Staked",
      "type": "event"
    },
    {
      "anonymous": false,
      "inputs": [
        {
          "indexed": true,
          "internalType": "address",
          "name": "operationalManager",
          "type": "address"
        }
      ],
      "name": "StakingManagerAddressChanged",
      "type": "event"
    },
    {
      "anonymous": false,
      "inputs": [
        {
          "indexed": true,
          "internalType": "uint128",
          "name": "validatorId",
          "type": "uint128"
        },
        {
          "indexed": true,
          "internalType": "address",
          "name": "delegator",
          "type": "address"
        },
        {
          "indexed": true,
          "internalType": "uint128",
          "name": "unstakeId",
          "type": "uint128"
        },
        {
          "indexed": false,
          "internalType": "uint128",
          "name": "amount",
          "type": "uint128"
        }
      ],
      "name": "UnstakeRedeemed",
      "type": "event"
    },
    {
      "anonymous": false,
      "inputs": [
        {
          "indexed": true,
          "internalType": "uint128",
          "name": "validatorId",
          "type": "uint128"
        },
        {
          "indexed": true,
          "internalType": "address",
          "name": "delegator",
          "type": "address"
        },
        {
          "indexed": false,
          "internalType": "uint128",
          "name": "amount",
          "type": "uint128"
        },
        {
          "indexed": false,
          "internalType": "uint128",
          "name": "unstakeId",
          "type": "uint128"
        }
      ],
      "name": "Unstaked",
      "type": "event"
    },
    {
      "anonymous": false,
      "inputs": [
        {
          "indexed": true,
          "internalType": "uint128",
          "name": "id",
          "type": "uint128"
        },
        {
          "indexed": false,
          "internalType": "uint128",
          "name": "commissionRate",
          "type": "uint128"
        },
        {
          "indexed": true,
          "internalType": "address",
          "name": "validator",
          "type": "address"
        }
      ],
      "name": "ValidatorAdded",
      "type": "event"
    },
    {
      "anonymous": false,
      "inputs": [
        {
          "indexed": true,
          "internalType": "uint128",
          "name": "validatorId",
          "type": "uint128"
        },
        {
          "indexed": true,
          "internalType": "address",
          "name": "newAddress",
          "type": "address"
        }
      ],
      "name": "ValidatorAddressChanged",
      "type": "event"
    },
    {
      "anonymous": false,
      "inputs": [
        {
          "indexed": true,
          "internalType": "uint128",
          "name": "validatorId",
          "type": "uint128"
        },
        {
          "indexed": false,
          "internalType": "uint128",
          "name": "amount",
          "type": "uint128"
        }
      ],
      "name": "ValidatorCommissionRateChanged",
      "type": "event"
    },
    {
      "anonymous": false,
      "inputs": [
        {
          "indexed": true,
          "internalType": "uint128",
          "name": "validatorId",
          "type": "uint128"
        },
        {
          "indexed": false,
          "internalType": "uint256",
          "name": "blockNumber",
          "type": "uint256"
        }
      ],
      "name": "ValidatorDisabled",
      "type": "event"
    },
    {
      "anonymous": false,
      "inputs": [
        {
          "indexed": true,
          "internalType": "uint128",
          "name": "validatorId",
          "type": "uint128"
        }
      ],
      "name": "ValidatorEnabled",
      "type": "event"
    },
    {
      "anonymous": false,
      "inputs": [
        {
          "indexed": false,
          "internalType": "uint128",
          "name": "amount",
          "type": "uint128"
        }
      ],
      "name": "ValidatorMaxCapChanged",
      "type": "event"
    },
    {
      "inputs": [],
      "name": "CQT",
      "outputs": [
        {
          "internalType": "contract IERC20Upgradeable",
          "name": "",
          "type": "address"
        }
      ],
      "stateMutability": "view",
      "type": "function"
    },
    {
      "inputs": [],
      "name": "DIVIDER",
      "outputs": [
        {
          "internalType": "uint256",
          "name": "",
          "type": "uint256"
        }
      ],
      "stateMutability": "view",
      "type": "function"
    },
    {
      "inputs": [],
      "name": "REWARD_REDEEM_THRESHOLD",
      "outputs": [
        {
          "internalType": "uint128",
          "name": "",
          "type": "uint128"
        }
      ],
      "stateMutability": "view",
      "type": "function"
    },
    {
      "inputs": [
        {
          "internalType": "address",
          "name": "validator",
          "type": "address"
        },
        {
          "internalType": "uint128",
          "name": "commissionRate",
          "type": "uint128"
        }
      ],
      "name": "addValidator",
      "outputs": [
        {
          "internalType": "uint256",
          "name": "id",
          "type": "uint256"
        }
      ],
      "stateMutability": "nonpayable",
      "type": "function"
    },
    {
      "inputs": [],
      "name": "delegatorCoolDown",
      "outputs": [
        {
          "internalType": "uint128",
          "name": "",
          "type": "uint128"
        }
      ],
      "stateMutability": "view",
      "type": "function"
    },
    {
      "inputs": [
        {
          "internalType": "uint128",
          "name": "amount",
          "type": "uint128"
        }
      ],
      "name": "depositRewardTokens",
      "outputs": [],
      "stateMutability": "nonpayable",
      "type": "function"
    },
    {
      "inputs": [
        {
          "internalType": "uint128",
          "name": "validatorId",
          "type": "uint128"
        },
        {
          "internalType": "uint256",
          "name": "blockNumber",
          "type": "uint256"
        }
      ],
      "name": "disableValidator",
      "outputs": [],
      "stateMutability": "nonpayable",
      "type": "function"
    },
    {
      "inputs": [
        {
          "internalType": "uint128",
          "name": "validatorId",
          "type": "uint128"
        }
      ],
      "name": "enableValidator",
      "outputs": [],
      "stateMutability": "nonpayable",
      "type": "function"
    },
    {
      "inputs": [],
      "name": "getAllValidatorsMetadata",
      "outputs": [
        {
          "internalType": "address[]",
          "name": "addresses",
          "type": "address[]"
        },
        {
          "internalType": "uint128[]",
          "name": "staked",
          "type": "uint128[]"
        },
        {
          "internalType": "uint128[]",
          "name": "delegated",
          "type": "uint128[]"
        },
        {
          "internalType": "uint128[]",
          "name": "commissionRates",
          "type": "uint128[]"
        },
        {
          "internalType": "uint256[]",
          "name": "disabledAtBlocks",
          "type": "uint256[]"
        }
      ],
      "stateMutability": "view",
      "type": "function"
    },
    {
      "inputs": [
        {
          "internalType": "address",
          "name": "delegator",
          "type": "address"
        },
        {
          "internalType": "uint128",
          "name": "validatorId",
          "type": "uint128"
        }
      ],
      "name": "getDelegatorMetadata",
      "outputs": [
        {
          "internalType": "uint128",
          "name": "staked",
          "type": "uint128"
        },
        {
          "internalType": "uint128",
          "name": "rewards",
          "type": "uint128"
        },
        {
          "internalType": "uint128",
          "name": "commissionEarned",
          "type": "uint128"
        },
        {
          "internalType": "uint128[]",
          "name": "unstakingAmounts",
          "type": "uint128[]"
        },
        {
          "internalType": "uint128[]",
          "name": "unstakingsEndEpochs",
          "type": "uint128[]"
        }
      ],
      "stateMutability": "view",
      "type": "function"
    },
    {
      "inputs": [],
      "name": "getMetadata",
      "outputs": [
        {
          "internalType": "address",
          "name": "CQTaddress",
          "type": "address"
        },
        {
          "internalType": "address",
          "name": "_stakingManager",
          "type": "address"
        },
        {
          "internalType": "uint128",
          "name": "_validatorsN",
          "type": "uint128"
        },
        {
          "internalType": "uint128",
          "name": "_rewardPool",
          "type": "uint128"
        },
        {
          "internalType": "uint128",
          "name": "_validatorCoolDown",
          "type": "uint128"
        },
        {
          "internalType": "uint128",
          "name": "_delegatorCoolDown",
          "type": "uint128"
        },
        {
          "internalType": "uint128",
          "name": "_maxCapMultiplier",
          "type": "uint128"
        },
        {
          "internalType": "uint128",
          "name": "_validatorMaxStake",
          "type": "uint128"
        }
      ],
      "stateMutability": "view",
      "type": "function"
    },
    {
      "inputs": [
        {
          "internalType": "uint128",
          "name": "validatorId",
          "type": "uint128"
        }
      ],
      "name": "getValidatorCompoundedStakingData",
      "outputs": [
        {
          "internalType": "uint128",
          "name": "staked",
          "type": "uint128"
        },
        {
          "internalType": "uint128",
          "name": "delegated",
          "type": "uint128"
        }
      ],
      "stateMutability": "view",
      "type": "function"
    },
    {
      "inputs": [
        {
          "internalType": "uint128",
          "name": "validatorId",
          "type": "uint128"
        }
      ],
      "name": "getValidatorMetadata",
      "outputs": [
        {
          "internalType": "address",
          "name": "_address",
          "type": "address"
        },
        {
          "internalType": "uint128",
          "name": "staked",
          "type": "uint128"
        },
        {
          "internalType": "uint128",
          "name": "delegated",
          "type": "uint128"
        },
        {
          "internalType": "uint128",
          "name": "commissionRate",
          "type": "uint128"
        },
        {
          "internalType": "uint256",
          "name": "disabledAtBlock",
          "type": "uint256"
        }
      ],
      "stateMutability": "view",
      "type": "function"
    },
    {
      "inputs": [
        {
          "internalType": "uint128",
          "name": "validatorId",
          "type": "uint128"
        }
      ],
      "name": "getValidatorStakingData",
      "outputs": [
        {
          "internalType": "uint128",
          "name": "staked",
          "type": "uint128"
        },
        {
          "internalType": "uint128",
          "name": "delegated",
          "type": "uint128"
        }
      ],
      "stateMutability": "view",
      "type": "function"
    },
    {
      "inputs": [
        {
          "internalType": "uint128",
          "name": "startId",
          "type": "uint128"
        },
        {
          "internalType": "uint128",
          "name": "endId",
          "type": "uint128"
        }
      ],
      "name": "getValidatorsMetadata",
      "outputs": [
        {
          "internalType": "address[]",
          "name": "addresses",
          "type": "address[]"
        },
        {
          "internalType": "uint128[]",
          "name": "staked",
          "type": "uint128[]"
        },
        {
          "internalType": "uint128[]",
          "name": "delegated",
          "type": "uint128[]"
        },
        {
          "internalType": "uint128[]",
          "name": "commissionRates",
          "type": "uint128[]"
        },
        {
          "internalType": "uint256[]",
          "name": "disabledAtBlocks",
          "type": "uint256[]"
        }
      ],
      "stateMutability": "view",
      "type": "function"
    },
    {
      "inputs": [
        {
          "internalType": "address",
          "name": "cqt",
          "type": "address"
        },
        {
          "internalType": "uint128",
          "name": "dCoolDown",
          "type": "uint128"
        },
        {
          "internalType": "uint128",
          "name": "vCoolDown",
          "type": "uint128"
        },
        {
          "internalType": "uint128",
          "name": "maxCapM",
          "type": "uint128"
        },
        {
          "internalType": "uint128",
          "name": "vMaxStake",
          "type": "uint128"
        }
      ],
      "name": "initialize",
      "outputs": [],
      "stateMutability": "nonpayable",
      "type": "function"
    },
    {
      "inputs": [],
      "name": "maxCapMultiplier",
      "outputs": [
        {
          "internalType": "uint128",
          "name": "",
          "type": "uint128"
        }
      ],
      "stateMutability": "view",
      "type": "function"
    },
    {
      "inputs": [],
      "name": "owner",
      "outputs": [
        {
          "internalType": "address",
          "name": "",
          "type": "address"
        }
      ],
      "stateMutability": "view",
      "type": "function"
    },
    {
      "inputs": [
        {
          "internalType": "uint128",
          "name": "amount",
          "type": "uint128"
        },
        {
          "internalType": "uint128",
          "name": "validatorId",
          "type": "uint128"
        },
        {
          "internalType": "uint128",
          "name": "unstakingId",
          "type": "uint128"
        }
      ],
      "name": "recoverUnstaking",
      "outputs": [],
      "stateMutability": "nonpayable",
      "type": "function"
    },
    {
      "inputs": [
        {
          "internalType": "uint128",
          "name": "validatorId",
          "type": "uint128"
        },
        {
          "internalType": "address",
          "name": "beneficiary",
          "type": "address"
        }
      ],
      "name": "redeemAllCommission",
      "outputs": [],
      "stateMutability": "nonpayable",
      "type": "function"
    },
    {
      "inputs": [
        {
          "internalType": "uint128",
          "name": "validatorId",
          "type": "uint128"
        },
        {
          "internalType": "address",
          "name": "beneficiary",
          "type": "address"
        }
      ],
      "name": "redeemAllRewards",
      "outputs": [],
      "stateMutability": "nonpayable",
      "type": "function"
    },
    {
      "inputs": [
        {
          "internalType": "uint128",
          "name": "validatorId",
          "type": "uint128"
        },
        {
          "internalType": "address",
          "name": "beneficiary",
          "type": "address"
        },
        {
          "internalType": "uint128",
          "name": "amount",
          "type": "uint128"
        }
      ],
      "name": "redeemCommission",
      "outputs": [],
      "stateMutability": "nonpayable",
      "type": "function"
    },
    {
      "inputs": [
        {
          "internalType": "uint128",
          "name": "validatorId",
          "type": "uint128"
        },
        {
          "internalType": "address",
          "name": "beneficiary",
          "type": "address"
        },
        {
          "internalType": "uint128",
          "name": "amount",
          "type": "uint128"
        }
      ],
      "name": "redeemRewards",
      "outputs": [],
      "stateMutability": "nonpayable",
      "type": "function"
    },
    {
      "inputs": [
        {
          "internalType": "uint128",
          "name": "amount",
          "type": "uint128"
        },
        {
          "internalType": "uint128",
          "name": "oldValidatorId",
          "type": "uint128"
        },
        {
          "internalType": "uint128",
          "name": "newValidatorId",
          "type": "uint128"
        },
        {
          "internalType": "uint128",
          "name": "unstakingId",
          "type": "uint128"
        }
      ],
      "name": "redelegateUnstaked",
      "outputs": [],
      "stateMutability": "nonpayable",
      "type": "function"
    },
    {
      "inputs": [],
      "name": "renounceOwnership",
      "outputs": [],
      "stateMutability": "nonpayable",
      "type": "function"
    },
    {
      "inputs": [],
      "name": "rewardPool",
      "outputs": [
        {
          "internalType": "uint128",
          "name": "",
          "type": "uint128"
        }
      ],
      "stateMutability": "view",
      "type": "function"
    },
    {
      "inputs": [
        {
          "internalType": "uint128[]",
          "name": "ids",
          "type": "uint128[]"
        },
        {
          "internalType": "uint128[]",
          "name": "amounts",
          "type": "uint128[]"
        }
      ],
      "name": "rewardValidators",
      "outputs": [],
      "stateMutability": "nonpayable",
      "type": "function"
    },
    {
      "inputs": [
        {
          "internalType": "uint128",
          "name": "newMaxCapMultiplier",
          "type": "uint128"
        }
      ],
      "name": "setMaxCapMultiplier",
      "outputs": [],
      "stateMutability": "nonpayable",
      "type": "function"
    },
    {
      "inputs": [
        {
          "internalType": "address",
          "name": "newAddress",
          "type": "address"
        }
      ],
      "name": "setStakingManagerAddress",
      "outputs": [],
      "stateMutability": "nonpayable",
      "type": "function"
    },
    {
      "inputs": [
        {
          "internalType": "uint128",
          "name": "validatorId",
          "type": "uint128"
        },
        {
          "internalType": "address",
          "name": "newAddress",
          "type": "address"
        }
      ],
      "name": "setValidatorAddress",
      "outputs": [],
      "stateMutability": "nonpayable",
      "type": "function"
    },
    {
      "inputs": [
        {
          "internalType": "uint128",
          "name": "validatorId",
          "type": "uint128"
        },
        {
          "internalType": "uint128",
          "name": "amount",
          "type": "uint128"
        }
      ],
      "name": "setValidatorCommissionRate",
      "outputs": [],
      "stateMutability": "nonpayable",
      "type": "function"
    },
    {
      "inputs": [
        {
          "internalType": "uint128",
          "name": "maxStake",
          "type": "uint128"
        }
      ],
      "name": "setValidatorMaxStake",
      "outputs": [],
      "stateMutability": "nonpayable",
      "type": "function"
    },
    {
      "inputs": [
        {
          "internalType": "uint128",
          "name": "validatorId",
          "type": "uint128"
        },
        {
          "internalType": "uint128",
          "name": "amount",
          "type": "uint128"
        }
      ],
      "name": "stake",
      "outputs": [],
      "stateMutability": "nonpayable",
      "type": "function"
    },
    {
      "inputs": [],
      "name": "stakingManager",
      "outputs": [
        {
          "internalType": "address",
          "name": "",
          "type": "address"
        }
      ],
      "stateMutability": "view",
      "type": "function"
    },
    {
      "inputs": [
        {
          "internalType": "uint128",
          "name": "amount",
          "type": "uint128"
        }
      ],
      "name": "takeOutRewardTokens",
      "outputs": [],
      "stateMutability": "nonpayable",
      "type": "function"
    },
    {
      "inputs": [
        {
          "internalType": "address",
          "name": "newOwner",
          "type": "address"
        }
      ],
      "name": "transferOwnership",
      "outputs": [],
      "stateMutability": "nonpayable",
      "type": "function"
    },
    {
      "inputs": [
        {
          "internalType": "uint128",
          "name": "amount",
          "type": "uint128"
        },
        {
          "internalType": "uint128",
          "name": "validatorId",
          "type": "uint128"
        },
        {
          "internalType": "uint128",
          "name": "unstakingId",
          "type": "uint128"
        }
      ],
      "name": "transferUnstakedOut",
      "outputs": [],
      "stateMutability": "nonpayable",
      "type": "function"
    },
    {
      "inputs": [
        {
          "internalType": "uint128",
          "name": "validatorId",
          "type": "uint128"
        },
        {
          "internalType": "uint128",
          "name": "amount",
          "type": "uint128"
        }
      ],
      "name": "unstake",
      "outputs": [],
      "stateMutability": "nonpayable",
      "type": "function"
    },
    {
      "inputs": [],
      "name": "validatorCoolDown",
      "outputs": [
        {
          "internalType": "uint128",
          "name": "",
          "type": "uint128"
        }
      ],
      "stateMutability": "view",
      "type": "function"
    },
    {
      "inputs": [],
      "name": "validatorMaxStake",
      "outputs": [
        {
          "internalType": "uint128",
          "name": "",
          "type": "uint128"
        }
      ],
      "stateMutability": "view",
      "type": "function"
    },
    {
      "inputs": [],
      "name": "validatorsN",
      "outputs": [
        {
          "internalType": "uint128",
          "name": "",
          "type": "uint128"
        }
      ],
      "stateMutability": "view",
      "type": "function"
    }
  ],
  "bytecode": "0x608060405234801561001057600080fd5b50615b6180620000216000396000f3fe608060405234801561001057600080fd5b50600436106102d35760003560e01c8063715018a6116101865780639ea05077116100e3578063ad9e91ee11610097578063edff4b6111610071578063edff4b611461078d578063f1aa0c65146107a0578063f2fde38b146107b357600080fd5b8063ad9e91ee1461074b578063dfc50f651461075e578063eabc89d71461077a57600080fd5b8063a2e7e441116100c8578063a2e7e44114610712578063a3e89bac14610725578063a50481f11461073857600080fd5b80639ea05077146106e35780639f10816f146106f657600080fd5b80638a8103241161013a5780638da5cb5b1161011f5780638da5cb5b1461069f57806391609449146106bd5780639860fa25146106d057600080fd5b80638a810324146106705780638b877db21461068c57600080fd5b80638459ec681161016b5780638459ec68146105e057806387326a0c146105f3578063884ef0aa1461065d57600080fd5b8063715018a6146105405780637a5b4f591461054857600080fd5b8063445c81d71161023457806362043bd8116101e8578063650de76b116101cd578063650de76b146104e157806366666aa9146105115780636cb4ded31461052d57600080fd5b806362043bd8146104b15780636459db95146104ce57600080fd5b806353b749221161021957806353b749221461044a5780635b2167231461047a578063605a50171461049e57600080fd5b8063445c81d7146103fb5780634c4a17091461040e57600080fd5b806322828cc21161028b57806337e15bce1161027057806337e15bce146103c25780633a64440b146103d557806340e7e9f0146103e857600080fd5b806322828cc21461038f5780632a019e6f146103af57600080fd5b80630b56a2bc116102bc5780630b56a2bc1461031e5780630f04adfe1461033757806317c2b0a91461037c57600080fd5b806307fd8763146102d857806309991223146102ed575b600080fd5b6102eb6102e6366004615412565b6107c6565b005b6102f86305f5e10081565b6040516fffffffffffffffffffffffffffffffff90911681526020015b60405180910390f35b6103266107d6565b6040516103159594939291906154c2565b6065546103579073ffffffffffffffffffffffffffffffffffffffff1681565b60405173ffffffffffffffffffffffffffffffffffffffff9091168152602001610315565b6102eb61038a366004615412565b610818565b6069546103579073ffffffffffffffffffffffffffffffffffffffff1681565b6102eb6103bd366004615592565b6109b5565b6102eb6103d03660046155d5565b610a41565b6102eb6103e33660046155f0565b610b35565b6102eb6103f636600461561c565b610e87565b6102eb610409366004615670565b611256565b61042161041c36600461569a565b61177c565b604080516fffffffffffffffffffffffffffffffff938416815292909116602083015201610315565b6066546102f89070010000000000000000000000000000000090046fffffffffffffffffffffffffffffffff1681565b61048d6104883660046156b5565b611846565b6040516103159594939291906156d1565b6102eb6104ac36600461576c565b611c12565b6104c0670de0b6b3a764000081565b604051908152602001610315565b6102eb6104dc366004615670565b61205e565b6067546102f89070010000000000000000000000000000000090046fffffffffffffffffffffffffffffffff1681565b6066546102f8906fffffffffffffffffffffffffffffffff1681565b6102eb61053b36600461569a565b61208f565b6102eb61217e565b606554606954606a546066546067546068546040805173ffffffffffffffffffffffffffffffffffffffff97881681529690951660208701526fffffffffffffffffffffffffffffffff938416948601949094528282166060860152700100000000000000000000000000000000918290048316608086015282811660a086015204811660c08401521660e082015261010001610315565b6102eb6105ee366004615670565b612188565b61060661060136600461569a565b612194565b6040805173ffffffffffffffffffffffffffffffffffffffff90961686526fffffffffffffffffffffffffffffffff948516602087015292841692850192909252919091166060830152608082015260a001610315565b6102eb61066b3660046155f0565b6122a7565b606a546102f8906fffffffffffffffffffffffffffffffff1681565b6102eb61069a36600461569a565b612578565b60335473ffffffffffffffffffffffffffffffffffffffff16610357565b6102eb6106cb366004615412565b612704565b6104216106de36600461569a565b612c8f565b6102eb6106f136600461569a565b612d87565b6068546102f8906fffffffffffffffffffffffffffffffff1681565b6104c06107203660046156b5565b612e7a565b610326610733366004615412565b61316c565b6102eb6107463660046157d8565b6135e8565b6102eb61075936600461583d565b613881565b6067546102f8906fffffffffffffffffffffffffffffffff1681565b6102eb610788366004615592565b613a46565b6102eb61079b36600461569a565b613e5e565b6102eb6107ae36600461569a565b613fb0565b6102eb6107c13660046155d5565b6140c2565b6107d282826001614176565b5050565b60608060608060606108076000606a60009054906101000a90046fffffffffffffffffffffffffffffffff1661316c565b945094509450945094509091929394565b610820614758565b606a546fffffffffffffffffffffffffffffffff908116908316106108a6576040517f08c379a000000000000000000000000000000000000000000000000000000000815260206004820152601160248201527f496e76616c69642076616c696461746f7200000000000000000000000000000060448201526064015b60405180910390fd5b670de0b6b3a7640000816fffffffffffffffffffffffffffffffff1610610929576040517f08c379a000000000000000000000000000000000000000000000000000000000815260206004820152601b60248201527f52617465206d757374206265206c657373207468616e20313030250000000000604482015260640161089d565b6fffffffffffffffffffffffffffffffff8281166000818152606b602090815260409182902060030180547fffffffffffffffffffffffffffffffff00000000000000000000000000000000169486169485179055905192835290917f0f8cc456c84d934a2b1eb24d7b56c2304c9e61aed06c7e67aa5167ff06c0bc6591015b60405180910390a25050565b6000816fffffffffffffffffffffffffffffffff1611610a31576040517f08c379a000000000000000000000000000000000000000000000000000000000815260206004820152600b60248201527f416d6f756e742069732030000000000000000000000000000000000000000000604482015260640161089d565b610a3c8383836147d9565b505050565b610a49614758565b73ffffffffffffffffffffffffffffffffffffffff8116610ac6576040517f08c379a000000000000000000000000000000000000000000000000000000000815260206004820152600f60248201527f496e76616c696420616464726573730000000000000000000000000000000000604482015260640161089d565b606980547fffffffffffffffffffffffff00000000000000000000000000000000000000001673ffffffffffffffffffffffffffffffffffffffff83169081179091556040517f806e006f6f107ac370f162bdeec43a7db0f2d47ca85ba3da932d442771912a3590600090a250565b606a546fffffffffffffffffffffffffffffffff90811690831610610bb6576040517f08c379a000000000000000000000000000000000000000000000000000000000815260206004820152601160248201527f496e76616c69642076616c696461746f72000000000000000000000000000000604482015260640161089d565b6fffffffffffffffffffffffffffffffff8281166000908152606b6020908152604080832033845260060190915290205490821610610c51576040517f08c379a000000000000000000000000000000000000000000000000000000000815260206004820152601860248201527f556e7374616b696e6720646f6573206e6f742065786973740000000000000000604482015260640161089d565b6fffffffffffffffffffffffffffffffff8083166000908152606b602090815260408083203384526006019091528120805491929091908416908110610c9957610c99615867565b600091825260209091200180549091506fffffffffffffffffffffffffffffffff9081164390911611610d28576040517f08c379a000000000000000000000000000000000000000000000000000000000815260206004820152601d60248201527f436f6f6c646f776e20706572696f6420686173206e6f7420656e646564000000604482015260640161089d565b80546fffffffffffffffffffffffffffffffff808616700100000000000000000000000000000000909204161015610dbc576040517f08c379a000000000000000000000000000000000000000000000000000000000815260206004820152601260248201527f416d6f756e7420697320746f6f20686967680000000000000000000000000000604482015260640161089d565b80546fffffffffffffffffffffffffffffffff80821670010000000000000000000000000000000092839004821687900382168302178084559190910416600003610e285780547fffffffffffffffffffffffffffffffff000000000000000000000000000000001681555b6040516fffffffffffffffffffffffffffffffff85811682528084169133918616907fa907b4e09e37315c70c013b1855950857585ae1efd206f344d5507f3b7a440d79060200160405180910390a4610e813385614ce4565b50505050565b606a546fffffffffffffffffffffffffffffffff90811690841610610f08576040517f08c379a000000000000000000000000000000000000000000000000000000000815260206004820152601160248201527f496e76616c69642076616c696461746f72000000000000000000000000000000604482015260640161089d565b6fffffffffffffffffffffffffffffffff83166000908152606b602052604081206004810154909103610f97576040517f08c379a000000000000000000000000000000000000000000000000000000000815260206004820152601960248201527f56616c696461746f72206973206e6f742064697361626c656400000000000000604482015260640161089d565b60018101543373ffffffffffffffffffffffffffffffffffffffff9091160361101c576040517f08c379a000000000000000000000000000000000000000000000000000000000815260206004820152601b60248201527f56616c696461746f722063616e6e6f7420726564656c65676174650000000000604482015260640161089d565b3360009081526006820160205260409020546fffffffffffffffffffffffffffffffff8316106110a8576040517f08c379a000000000000000000000000000000000000000000000000000000000815260206004820152601860248201527f556e7374616b696e6720646f6573206e6f742065786973740000000000000000604482015260640161089d565b336000908152600682016020526040812080546fffffffffffffffffffffffffffffffff85169081106110dd576110dd615867565b600091825260209091200180549091506fffffffffffffffffffffffffffffffff80881670010000000000000000000000000000000090920416101561117f576040517f08c379a000000000000000000000000000000000000000000000000000000000815260206004820152601960248201527f556e7374616b696e6720686173206c65737320746f6b656e7300000000000000604482015260640161089d565b80546fffffffffffffffffffffffffffffffff808216700100000000000000000000000000000000928390048216899003821683021780845591909104166000036111eb5780547fffffffffffffffffffffffffffffffff000000000000000000000000000000001681555b604080516fffffffffffffffffffffffffffffffff88811682528581166020830152339281881692918916917fad667f96915cdefb4384b6fc59780e6f35a72cffecee152d5b83c2ec4bd16e3a910160405180910390a461124e84876000614176565b505050505050565b6fffffffffffffffffffffffffffffffff82166000908152606b60205260409020600181015473ffffffffffffffffffffffffffffffffffffffff1633146112fa576040517f08c379a000000000000000000000000000000000000000000000000000000000815260206004820152601b60248201527f53656e646572206973206e6f74207468652076616c696461746f720000000000604482015260640161089d565b600181015473ffffffffffffffffffffffffffffffffffffffff8084169116036113a857604080517f08c379a00000000000000000000000000000000000000000000000000000000081526020600482015260248101919091527f546865206e657720616464726573732063616e6e6f7420626520657175616c2060448201527f746f207468652063757272656e742076616c696461746f722061646472657373606482015260840161089d565b73ffffffffffffffffffffffffffffffffffffffff8216611425576040517f08c379a000000000000000000000000000000000000000000000000000000000815260206004820152601960248201527f496e76616c69642076616c696461746f72206164647265737300000000000000604482015260640161089d565b3360009081526005820160205260408082205473ffffffffffffffffffffffffffffffffffffffff8516835290822080546fffffffffffffffffffffffffffffffff928316939192611479918591166158c5565b82546101009290920a6fffffffffffffffffffffffffffffffff8181021990931691831602179091553360009081526005840160205260408082205473ffffffffffffffffffffffffffffffffffffffff871683529120805470010000000000000000000000000000000092839004841694509092601092611500928692919004166158c5565b82546fffffffffffffffffffffffffffffffff9182166101009390930a9283029190920219909116179055503360009081526005820160209081526040808320839055600684019091529020805461012c8111156115e0576040517f08c379a000000000000000000000000000000000000000000000000000000000815260206004820152602860248201527f43616e6e6f74207472616e73666572206d6f7265207468616e2033303020756e60448201527f7374616b696e6773000000000000000000000000000000000000000000000000606482015260840161089d565b73ffffffffffffffffffffffffffffffffffffffff841660009081526006840160205260408120905b82816fffffffffffffffffffffffffffffffff1610156116d7578184826fffffffffffffffffffffffffffffffff168154811061164857611648615867565b6000918252602080832084546001810186559484529220910180549190920180547fffffffffffffffffffffffffffffffff00000000000000000000000000000000166fffffffffffffffffffffffffffffffff928316908117825592547001000000000000000000000000000000009081900490921690910290911790556116d0816158f9565b9050611609565b5033600090815260068501602052604081206116f2916153bb565b6001840180547fffffffffffffffffffffffff00000000000000000000000000000000000000001673ffffffffffffffffffffffffffffffffffffffff87169081179091556040516fffffffffffffffffffffffffffffffff8816907f440fb92be8d36802cfffb11ceda74bc13f38abab2e6f8675b9b1725787a6e52990600090a3505050505050565b6fffffffffffffffffffffffffffffffff8082166000908152606b60209081526040808320600181015473ffffffffffffffffffffffffffffffffffffffff168452600581019092528220548154929384936117f09282169170010000000000000000000000000000000090910416614d1a565b600282015482549194508491611834916fffffffffffffffffffffffffffffffff700100000000000000000000000000000000918290048116929190910416614d1a565b61183e9190615928565b915050915091565b606a546000908190819060609081906fffffffffffffffffffffffffffffffff908116908716106118d3576040517f08c379a000000000000000000000000000000000000000000000000000000000815260206004820152601160248201527f496e76616c69642076616c696461746f72000000000000000000000000000000604482015260640161089d565b6fffffffffffffffffffffffffffffffff8087166000908152606b6020908152604080832073ffffffffffffffffffffffffffffffffffffffff8c1684526005810190925282208054825470010000000000000000000000000000000080830487169b50939592949361194c9392831692910416614d1a565b82549091506fffffffffffffffffffffffffffffffff70010000000000000000000000000000000090910481169082161161198a57600096506119bf565b81546119bc9070010000000000000000000000000000000090046fffffffffffffffffffffffffffffffff1682615928565b96505b600183015473ffffffffffffffffffffffffffffffffffffffff808c169116036119fa5782546fffffffffffffffffffffffffffffffff1695505b73ffffffffffffffffffffffffffffffffffffffff8a166000908152600684016020908152604080832080548251818502810185019093528083529192909190849084015b82821015611a9e57600084815260209081902060408051808201909152908401546fffffffffffffffffffffffffffffffff80821683527001000000000000000000000000000000009091041681830152825260019092019101611a3f565b505082519293508291505067ffffffffffffffff811115611ac157611ac1615959565b604051908082528060200260200182016040528015611aea578160200160208202803683370190505b5096508067ffffffffffffffff811115611b0657611b06615959565b604051908082528060200260200182016040528015611b2f578160200160208202803683370190505b50955060005b81811015611c0257828181518110611b4f57611b4f615867565b602002602001015160200151888281518110611b6d57611b6d615867565b60200260200101906fffffffffffffffffffffffffffffffff1690816fffffffffffffffffffffffffffffffff1681525050828181518110611bb157611bb1615867565b602002602001015160000151878281518110611bcf57611bcf615867565b6fffffffffffffffffffffffffffffffff9092166020928302919091019091015280611bfa81615988565b915050611b35565b5050505050509295509295909350565b60695473ffffffffffffffffffffffffffffffffffffffff163314611c93576040517f08c379a000000000000000000000000000000000000000000000000000000000815260206004820152601c60248201527f43616c6c6572206973206e6f74207374616b696e674d616e6167657200000000604482015260640161089d565b828114611d22576040517f08c379a000000000000000000000000000000000000000000000000000000000815260206004820152603760248201527f476976656e2069647320616e6420616d6f756e747320617272617973206d757360448201527f74206265206f66207468652073616d65206c656e677468000000000000000000606482015260840161089d565b6066546fffffffffffffffffffffffffffffffff1660008080805b8781101561201257868682818110611d5757611d57615867565b9050602002016020810190611d6c919061569a565b9350888882818110611d8057611d80615867565b9050602002016020810190611d95919061569a565b9250836fffffffffffffffffffffffffffffffff16856fffffffffffffffffffffffffffffffff161015611e11576040516fffffffffffffffffffffffffffffffff85811682528416907f0fe05e323c51ec64db29d65e4471f535fbed63586f534f452455b30e985424839060200160405180910390a2612000565b6fffffffffffffffffffffffffffffffff8084166000908152606b60205260408120600281015490927001000000000000000000000000000000009091041690819003611ea6576040516fffffffffffffffffffffffffffffffff87811682528616907f7110409a3c69501d520618529eec9541a3d35ae7b4c5df2a4e5271438105cee39060200160405180910390a2611ffd565b6003820154670de0b6b3a764000090611ed5906fffffffffffffffffffffffffffffffff9081169089166159c0565b611edf91906159fd565b935080670de0b6b3a7640000611ef58689615928565b6fffffffffffffffffffffffffffffffff16611f1191906159c0565b611f1b91906159fd565b82548390601090611f5390849070010000000000000000000000000000000090046fffffffffffffffffffffffffffffffff166158c5565b92506101000a8154816fffffffffffffffffffffffffffffffff02191690836fffffffffffffffffffffffffffffffff160217905550838260000160008282829054906101000a90046fffffffffffffffffffffffffffffffff16611fb891906158c5565b92506101000a8154816fffffffffffffffffffffffffffffffff02191690836fffffffffffffffffffffffffffffffff1602179055508587611ffa9190615928565b96505b50505b8061200a81615988565b915050611d3d565b5050606680547fffffffffffffffffffffffffffffffff00000000000000000000000000000000166fffffffffffffffffffffffffffffffff9490941693909317909255505050505050565b6fffffffffffffffffffffffffffffffff8083166000908152606b60205260409020546107d2918491849116613a46565b612097614758565b6000816fffffffffffffffffffffffffffffffff1611612113576040517f08c379a000000000000000000000000000000000000000000000000000000000815260206004820152601660248201527f4d7573742062652067726561746572207468616e203000000000000000000000604482015260640161089d565b606780546fffffffffffffffffffffffffffffffff908116700100000000000000000000000000000000918416918202179091556040519081527fbe85ebc47051eb40cf466cba324b4ceee119941ef0101ec0123999a5b6794099906020015b60405180910390a150565b612186614758565b565b6107d2828260006147d9565b606a5460009081908190819081906fffffffffffffffffffffffffffffffff90811690871610612220576040517f08c379a000000000000000000000000000000000000000000000000000000000815260206004820152601160248201527f496e76616c69642076616c696461746f72000000000000000000000000000000604482015260640161089d565b505050506fffffffffffffffffffffffffffffffff9182166000908152606b60209081526040808320600181015473ffffffffffffffffffffffffffffffffffffffff168085526005820190935292205460028301546003840154600490940154929670010000000000000000000000000000000090920486169590811694509290921691565b606a546fffffffffffffffffffffffffffffffff90811690831610612328576040517f08c379a000000000000000000000000000000000000000000000000000000000815260206004820152601160248201527f496e76616c69642076616c696461746f72000000000000000000000000000000604482015260640161089d565b6fffffffffffffffffffffffffffffffff8281166000908152606b60209081526040808320338452600601909152902054908216106123c3576040517f08c379a000000000000000000000000000000000000000000000000000000000815260206004820152601860248201527f556e7374616b696e6720646f6573206e6f742065786973740000000000000000604482015260640161089d565b6fffffffffffffffffffffffffffffffff8083166000908152606b60209081526040808320338452600601909152812080549192909190841690811061240b5761240b615867565b600091825260209091200180549091506fffffffffffffffffffffffffffffffff8086167001000000000000000000000000000000009092041610156124ad576040517f08c379a000000000000000000000000000000000000000000000000000000000815260206004820152601960248201527f556e7374616b696e6720686173206c65737320746f6b656e7300000000000000604482015260640161089d565b80546fffffffffffffffffffffffffffffffff808216700100000000000000000000000000000000928390048216879003821683021780845591909104166000036125195780547fffffffffffffffffffffffffffffffff000000000000000000000000000000001681555b604080516fffffffffffffffffffffffffffffffff868116825284811660208301523392908616917ff9087cb83487275bb1784df2905fb9038a38f2423637cba5910e5e638147b546910160405180910390a3610e8183856000614176565b612580614758565b6000816fffffffffffffffffffffffffffffffff16116125fc576040517f08c379a000000000000000000000000000000000000000000000000000000000815260206004820152600b60248201527f416d6f756e742069732030000000000000000000000000000000000000000000604482015260640161089d565b6066546fffffffffffffffffffffffffffffffff908116908216111561267e576040517f08c379a000000000000000000000000000000000000000000000000000000000815260206004820152601860248201527f52657761726420706f6f6c20697320746f6f20736d616c6c0000000000000000604482015260640161089d565b606680547fffffffffffffffffffffffffffffffff0000000000000000000000000000000081166fffffffffffffffffffffffffffffffff91821684900382161790915560405190821681527fb377d2221ae3ae0038f8a2593ce854d79cc6d598036b3acb67a2bed08557ee2e9060200160405180910390a16127013382614ce4565b50565b606a546fffffffffffffffffffffffffffffffff90811690831610612785576040517f08c379a000000000000000000000000000000000000000000000000000000000815260206004820152601160248201527f496e76616c69642076616c696461746f72000000000000000000000000000000604482015260640161089d565b6305f5e1006fffffffffffffffffffffffffffffffff82161015612805576040517f08c379a000000000000000000000000000000000000000000000000000000000815260206004820152601b60248201527f556e7374616b6520616d6f756e7420697320746f6f20736d616c6c0000000000604482015260640161089d565b6fffffffffffffffffffffffffffffffff8083166000908152606b602090815260408083203384526005810190925290912080549192909184821670010000000000000000000000000000000090910490911610156128c0576040517f08c379a000000000000000000000000000000000000000000000000000000000815260206004820152601860248201527f5374616b6564203c20616d6f756e742070726f76696465640000000000000000604482015260640161089d565b600182015473ffffffffffffffffffffffffffffffffffffffff1633148080156128ec57506004830154155b156129c35760675482546000916fffffffffffffffffffffffffffffffff70010000000000000000000000000000000091829004811692612931928992910416615928565b61293b9190615a38565b60028501549091506fffffffffffffffffffffffffffffffff808316911611156129c1576040517f08c379a000000000000000000000000000000000000000000000000000000000815260206004820152601d60248201527f43616e6e6f7420756e7374616b65206265796f6e64206d617820636170000000604482015260640161089d565b505b80612a28576002830180548591906000906129f19084906fffffffffffffffffffffffffffffffff16615928565b92506101000a8154816fffffffffffffffffffffffffffffffff02191690836fffffffffffffffffffffffffffffffff1602179055505b8254600090612a5e90869070010000000000000000000000000000000090046fffffffffffffffffffffffffffffffff16614d55565b83549091506fffffffffffffffffffffffffffffffff9081169082161115612a96575081546fffffffffffffffffffffffffffffffff165b82547fffffffffffffffffffffffffffffffff0000000000000000000000000000000081166fffffffffffffffffffffffffffffffff91821683900382161784556002850180548392601091612b02918591700100000000000000000000000000000000900416615928565b82546fffffffffffffffffffffffffffffffff9182166101009390930a9283029282021916919091179091558454700100000000000000000000000000000000808204831689900383160291161784555060048401546000908103612b675743612b6d565b84600401545b905082612b8e576067546fffffffffffffffffffffffffffffffff16612bb8565b60665470010000000000000000000000000000000090046fffffffffffffffffffffffffffffffff165b33600081815260068801602090815260408083208054825180840184526fffffffffffffffffffffffffffffffff9790980187811689528d881689860190815260018301845592865293909420965190518616700100000000000000000000000000000000029086161795830195909555935190928a16907ffd593fe24ae9d02e348b533a8253aaf9904b266a7b65556ae6181dd5cc58703b90612c7d908b9086906fffffffffffffffffffffffffffffffff92831681529116602082015260400190565b60405180910390a35050505050505050565b606a5460009081906fffffffffffffffffffffffffffffffff90811690841610612d15576040517f08c379a000000000000000000000000000000000000000000000000000000000815260206004820152601160248201527f496e76616c69642076616c696461746f72000000000000000000000000000000604482015260640161089d565b50506fffffffffffffffffffffffffffffffff9081166000908152606b60209081526040808320600181015473ffffffffffffffffffffffffffffffffffffffff1684526005810190925290912054600290910154700100000000000000000000000000000000909104821692911690565b612d8f614758565b6000816fffffffffffffffffffffffffffffffff1611612e0b576040517f08c379a000000000000000000000000000000000000000000000000000000000815260206004820152601760248201527f50726f7669646564206d6178207374616b652069732030000000000000000000604482015260640161089d565b606880547fffffffffffffffffffffffffffffffff00000000000000000000000000000000166fffffffffffffffffffffffffffffffff83169081179091556040519081527fc85c2d6ddb875b53634093f65fbea4ed8eba0b4efca26b87bc17ffedb668916490602001612173565b60695460009073ffffffffffffffffffffffffffffffffffffffff163314612efe576040517f08c379a000000000000000000000000000000000000000000000000000000000815260206004820152601c60248201527f43616c6c6572206973206e6f74207374616b696e674d616e6167657200000000604482015260640161089d565b670de0b6b3a7640000826fffffffffffffffffffffffffffffffff1610612f81576040517f08c379a000000000000000000000000000000000000000000000000000000000815260206004820152601b60248201527f52617465206d757374206265206c657373207468616e20313030250000000000604482015260640161089d565b73ffffffffffffffffffffffffffffffffffffffff8316612ffe576040517f08c379a000000000000000000000000000000000000000000000000000000000815260206004820152601660248201527f56616c696461746f722061646472657373206973203000000000000000000000604482015260640161089d565b606a80546fffffffffffffffffffffffffffffffff9081166000908152606b6020908152604091829020600180820180547fffffffffffffffffffffffff00000000000000000000000000000000000000001673ffffffffffffffffffffffffffffffffffffffff8b1690811790915582548616770de0b6b3a7640000000000000000000000000000000000001783556003830180547fffffffffffffffffffffffffffffffff00000000000000000000000000000000168a881690811790915560048401929092559554935190815290949392909216917f5a7dc0f8a1745e71f29bb12198638d3c7284ae1227928e679ab6bf3dc1f28617910160405180910390a3606a80547fffffffffffffffffffffffffffffffff00000000000000000000000000000000811660016fffffffffffffffffffffffffffffffff928316810190921690811790925561315291615928565b6fffffffffffffffffffffffffffffffff16949350505050565b606a5460609081908190819081906fffffffffffffffffffffffffffffffff90811690871611156131f9576040517f08c379a000000000000000000000000000000000000000000000000000000000815260206004820152600e60248201527f496e76616c696420656e64206964000000000000000000000000000000000000604482015260640161089d565b856fffffffffffffffffffffffffffffffff16876fffffffffffffffffffffffffffffffff16106132ac576040517f08c379a000000000000000000000000000000000000000000000000000000000815260206004820152602160248201527f5374617274206964206d757374206265206c657373207468616e20656e64206960448201527f6400000000000000000000000000000000000000000000000000000000000000606482015260840161089d565b60006132b88888615928565b9050806fffffffffffffffffffffffffffffffff1667ffffffffffffffff8111156132e5576132e5615959565b60405190808252806020026020018201604052801561330e578160200160208202803683370190505b509550806fffffffffffffffffffffffffffffffff1667ffffffffffffffff81111561333c5761333c615959565b604051908082528060200260200182016040528015613365578160200160208202803683370190505b509450806fffffffffffffffffffffffffffffffff1667ffffffffffffffff81111561339357613393615959565b6040519080825280602002602001820160405280156133bc578160200160208202803683370190505b509350806fffffffffffffffffffffffffffffffff1667ffffffffffffffff8111156133ea576133ea615959565b604051908082528060200260200182016040528015613413578160200160208202803683370190505b509250806fffffffffffffffffffffffffffffffff1667ffffffffffffffff81111561344157613441615959565b60405190808252806020026020018201604052801561346a578160200160208202803683370190505b5091506000885b886fffffffffffffffffffffffffffffffff16816fffffffffffffffffffffffffffffffff1610156135db576134a78a82615928565b91506134b281612194565b8c876fffffffffffffffffffffffffffffffff16815181106134d6576134d6615867565b602002602001018c886fffffffffffffffffffffffffffffffff168151811061350157613501615867565b602002602001018c896fffffffffffffffffffffffffffffffff168151811061352c5761352c615867565b602002602001018c8a6fffffffffffffffffffffffffffffffff168151811061355757613557615867565b602002602001018c8b6fffffffffffffffffffffffffffffffff168151811061358257613582615867565b60209081029190910101949094526fffffffffffffffffffffffffffffffff9485169093529383169091529216905273ffffffffffffffffffffffffffffffffffffffff90911690526135d4816158f9565b9050613471565b5050509295509295909350565b600054610100900460ff16158080156136085750600054600160ff909116105b806136225750303b158015613622575060005460ff166001145b6136ae576040517f08c379a000000000000000000000000000000000000000000000000000000000815260206004820152602e60248201527f496e697469616c697a61626c653a20636f6e747261637420697320616c72656160448201527f647920696e697469616c697a6564000000000000000000000000000000000000606482015260840161089d565b600080547fffffffffffffffffffffffffffffffffffffffffffffffffffffffffffffff00166001179055801561370c57600080547fffffffffffffffffffffffffffffffffffffffffffffffffffffffffffff00ff166101001790555b613714614d90565b606680546fffffffffffffffffffffffffffffffff908116700100000000000000000000000000000000878316818102929092179093558782168683169384028117606755606880547fffffffffffffffffffffffffffffffff00000000000000000000000000000000169387169384179055606580547fffffffffffffffffffffffff00000000000000000000000000000000000000001673ffffffffffffffffffffffffffffffffffffffff8c1690811790915560408051918252602082019390935291820152606081019290925260808201527f0d020790a4661b48ba70c972576a0ef9415e63f7d4f70620772b456804be11859060a00160405180910390a1801561124e57600080547fffffffffffffffffffffffffffffffffffffffffffffffffffffffffffff00ff169055604051600181527f7f26b83ff96e1f2b6a682f133852f6798a09c465da95921460cefb38474024989060200160405180910390a1505050505050565b60695473ffffffffffffffffffffffffffffffffffffffff163314613902576040517f08c379a000000000000000000000000000000000000000000000000000000000815260206004820152601c60248201527f43616c6c6572206973206e6f74207374616b696e674d616e6167657200000000604482015260640161089d565b606a546fffffffffffffffffffffffffffffffff90811690831610613983576040517f08c379a000000000000000000000000000000000000000000000000000000000815260206004820152601160248201527f496e76616c69642076616c696461746f72000000000000000000000000000000604482015260640161089d565b600081116139ed576040517f08c379a000000000000000000000000000000000000000000000000000000000815260206004820152601960248201527f44697361626c6520626c6f636b2063616e6e6f74206265203000000000000000604482015260640161089d565b6fffffffffffffffffffffffffffffffff82166000818152606b602052604090819020600401839055517f890228cff135716fe461694a594a1308c48a00abf62b3fcff51a2fbabf234712906109a99084815260200190565b606a546fffffffffffffffffffffffffffffffff90811690841610613ac7576040517f08c379a000000000000000000000000000000000000000000000000000000000815260206004820152601160248201527f496e76616c69642076616c696461746f72000000000000000000000000000000604482015260640161089d565b73ffffffffffffffffffffffffffffffffffffffff8216613b44576040517f08c379a000000000000000000000000000000000000000000000000000000000815260206004820152601360248201527f496e76616c69642062656e656669636961727900000000000000000000000000604482015260640161089d565b6fffffffffffffffffffffffffffffffff83166000908152606b60205260409020600181015473ffffffffffffffffffffffffffffffffffffffff163314613be8576040517f08c379a000000000000000000000000000000000000000000000000000000000815260206004820152601f60248201527f5468652073656e646572206973206e6f74207468652076616c696461746f7200604482015260640161089d565b80546fffffffffffffffffffffffffffffffff16613c88576040517f08c379a000000000000000000000000000000000000000000000000000000000815260206004820152602160248201527f4e6f20636f6d6d697373696f6e20617661696c61626c6520746f20726564656560448201527f6d00000000000000000000000000000000000000000000000000000000000000606482015260840161089d565b6000826fffffffffffffffffffffffffffffffff1611613d04576040517f08c379a000000000000000000000000000000000000000000000000000000000815260206004820152601960248201527f5468652072657175657374656420616d6f756e74206973203000000000000000604482015260640161089d565b80546fffffffffffffffffffffffffffffffff9081169083161115613dab576040517f08c379a000000000000000000000000000000000000000000000000000000000815260206004820152603e60248201527f52657175657374656420616d6f756e7420697320686967686572207468616e2060448201527f636f6d6d697373696f6e20617661696c61626c6520746f2072656465656d0000606482015260840161089d565b80546fffffffffffffffffffffffffffffffff808216849003167fffffffffffffffffffffffffffffffff00000000000000000000000000000000909116178155613df68383614ce4565b6040516fffffffffffffffffffffffffffffffff838116825273ffffffffffffffffffffffffffffffffffffffff851691908616907fca484c45ad2d2422ff409731d1783446054a9a6549f63f4e668f85d03513624c9060200160405180910390a350505050565b60695473ffffffffffffffffffffffffffffffffffffffff163314613edf576040517f08c379a000000000000000000000000000000000000000000000000000000000815260206004820152601c60248201527f43616c6c6572206973206e6f74207374616b696e674d616e6167657200000000604482015260640161089d565b606a546fffffffffffffffffffffffffffffffff90811690821610613f60576040517f08c379a000000000000000000000000000000000000000000000000000000000815260206004820152601160248201527f496e76616c69642076616c696461746f72000000000000000000000000000000604482015260640161089d565b6fffffffffffffffffffffffffffffffff81166000818152606b6020526040808220600401829055517f553b029ba5c74688a5da732136d246f722502db24ed6b4aaf1cdc9f2f9ef23ef9190a250565b613fb8614758565b6000816fffffffffffffffffffffffffffffffff1611614034576040517f08c379a000000000000000000000000000000000000000000000000000000000815260206004820152600b60248201527f416d6f756e742069732030000000000000000000000000000000000000000000604482015260640161089d565b606680546fffffffffffffffffffffffffffffffff8082168401167fffffffffffffffffffffffffffffffff000000000000000000000000000000009091161790556140803382614e2f565b6040516fffffffffffffffffffffffffffffffff821681527f2db5044922a44e715fdfd31c569712694c5956bbd41e06011f1c8ed339f5ff8f90602001612173565b6140ca614758565b73ffffffffffffffffffffffffffffffffffffffff811661416d576040517f08c379a000000000000000000000000000000000000000000000000000000000815260206004820152602660248201527f4f776e61626c653a206e6577206f776e657220697320746865207a65726f206160448201527f6464726573730000000000000000000000000000000000000000000000000000606482015260840161089d565b61270181614e66565b606a546fffffffffffffffffffffffffffffffff908116908416106141f7576040517f08c379a000000000000000000000000000000000000000000000000000000000815260206004820152601160248201527f496e76616c69642076616c696461746f72000000000000000000000000000000604482015260640161089d565b6305f5e1006fffffffffffffffffffffffffffffffff83161015614277576040517f08c379a000000000000000000000000000000000000000000000000000000000815260206004820152601960248201527f5374616b6520616d6f756e7420697320746f6f20736d616c6c00000000000000604482015260640161089d565b6fffffffffffffffffffffffffffffffff83166000908152606b60205260409020600181015473ffffffffffffffffffffffffffffffffffffffff1633148061432657600482015415614326576040517f08c379a000000000000000000000000000000000000000000000000000000000815260206004820152601560248201527f56616c696461746f722069732064697361626c65640000000000000000000000604482015260640161089d565b815460009061435c90869070010000000000000000000000000000000090046fffffffffffffffffffffffffffffffff16614d55565b336000908152600585016020526040902090915082156144375780546000906143ac90889070010000000000000000000000000000000090046fffffffffffffffffffffffffffffffff166158c5565b6068549091506fffffffffffffffffffffffffffffffff9081169082161115614431576040517f08c379a000000000000000000000000000000000000000000000000000000000815260206004820152601c60248201527f56616c696461746f72206d6178207374616b6520657863656564656400000000604482015260640161089d565b506145c2565b606754600185015473ffffffffffffffffffffffffffffffffffffffff166000908152600586016020526040812054909161449f916fffffffffffffffffffffffffffffffff7001000000000000000000000000000000009283900481169290910416615a38565b60028601549091506000906144c79089906fffffffffffffffffffffffffffffffff166158c5565b9050816fffffffffffffffffffffffffffffffff16816fffffffffffffffffffffffffffffffff16111561457d576040517f08c379a000000000000000000000000000000000000000000000000000000000815260206004820152602160248201527f56616c696461746f72206d61782064656c65676174696f6e206578636565646560448201527f6400000000000000000000000000000000000000000000000000000000000000606482015260840161089d565b6002860180547fffffffffffffffffffffffffffffffff00000000000000000000000000000000166fffffffffffffffffffffffffffffffff92909216919091179055505b818460020160108282829054906101000a90046fffffffffffffffffffffffffffffffff166145f191906158c5565b92506101000a8154816fffffffffffffffffffffffffffffffff02191690836fffffffffffffffffffffffffffffffff160217905550818160000160008282829054906101000a90046fffffffffffffffffffffffffffffffff1661465691906158c5565b92506101000a8154816fffffffffffffffffffffffffffffffff02191690836fffffffffffffffffffffffffffffffff160217905550858160000160108282829054906101000a90046fffffffffffffffffffffffffffffffff166146bb91906158c5565b92506101000a8154816fffffffffffffffffffffffffffffffff02191690836fffffffffffffffffffffffffffffffff1602179055508415614701576147013387614e2f565b604080513381526fffffffffffffffffffffffffffffffff88811660208301528916917fc833924412a8727ace4d92945c637ad2d4b389e582bfd4a95cdee608eee9720a910160405180910390a250505050505050565b60335473ffffffffffffffffffffffffffffffffffffffff163314612186576040517f08c379a000000000000000000000000000000000000000000000000000000000815260206004820181905260248201527f4f776e61626c653a2063616c6c6572206973206e6f7420746865206f776e6572604482015260640161089d565b606a546fffffffffffffffffffffffffffffffff9081169084161061485a576040517f08c379a000000000000000000000000000000000000000000000000000000000815260206004820152601160248201527f496e76616c69642076616c696461746f72000000000000000000000000000000604482015260640161089d565b73ffffffffffffffffffffffffffffffffffffffff82166148d7576040517f08c379a000000000000000000000000000000000000000000000000000000000815260206004820152601360248201527f496e76616c69642062656e656669636961727900000000000000000000000000604482015260640161089d565b6fffffffffffffffffffffffffffffffff8084166000908152606b60209081526040808320338452600581019092528220805482549294919392614934929182169170010000000000000000000000000000000090910416614d1a565b90506fffffffffffffffffffffffffffffffff8416158015614a075782546305f5e100906149889070010000000000000000000000000000000090046fffffffffffffffffffffffffffffffff1684615928565b6fffffffffffffffffffffffffffffffff161015614a02576040517f08c379a000000000000000000000000000000000000000000000000000000000815260206004820152601160248201527f4e6f7468696e6720746f2072656465656d000000000000000000000000000000604482015260640161089d565b614b5e565b82546fffffffffffffffffffffffffffffffff80871691614a3e917001000000000000000000000000000000009091041684615928565b6fffffffffffffffffffffffffffffffff161015614ab8576040517f08c379a000000000000000000000000000000000000000000000000000000000815260206004820152601c60248201527f52657175657374656420616d6f756e7420697320746f6f206869676800000000604482015260640161089d565b6305f5e1006fffffffffffffffffffffffffffffffff86161015614b5e576040517f08c379a000000000000000000000000000000000000000000000000000000000815260206004820152603560248201527f52657175657374656420616d6f756e74206d757374206265206869676865722060448201527f7468616e2072656465656d207468726573686f6c640000000000000000000000606482015260840161089d565b600081614b6b5785614b9d565b8354614b9d9070010000000000000000000000000000000090046fffffffffffffffffffffffffffffffff1684615928565b8554909150600090614bd690839070010000000000000000000000000000000090046fffffffffffffffffffffffffffffffff16614d55565b85549091506fffffffffffffffffffffffffffffffff9081169082161115614c0e575083546fffffffffffffffffffffffffffffffff165b6002860180546fffffffffffffffffffffffffffffffff80821670010000000000000000000000000000000092839004821685900382169092029190911790915585547fffffffffffffffffffffffffffffffff0000000000000000000000000000000081169082168390038216178655604051838216815273ffffffffffffffffffffffffffffffffffffffff8a16918b16907fbf3f2aa111a63b63567f864e18723c486b9276b75fdadebb83f62cd228263e0c9060200160405180910390a3614cd98883614ce4565b505050505050505050565b6065546107d29073ffffffffffffffffffffffffffffffffffffffff16836fffffffffffffffffffffffffffffffff8416614edd565b6000670de0b6b3a7640000614d446fffffffffffffffffffffffffffffffff8085169086166159c0565b614d4e91906159fd565b9392505050565b6000816fffffffffffffffffffffffffffffffff16670de0b6b3a7640000846fffffffffffffffffffffffffffffffff16614d4491906159c0565b600054610100900460ff16614e27576040517f08c379a000000000000000000000000000000000000000000000000000000000815260206004820152602b60248201527f496e697469616c697a61626c653a20636f6e7472616374206973206e6f74206960448201527f6e697469616c697a696e67000000000000000000000000000000000000000000606482015260840161089d565b612186614fb1565b6065546107d29073ffffffffffffffffffffffffffffffffffffffff1683306fffffffffffffffffffffffffffffffff8516615051565b6033805473ffffffffffffffffffffffffffffffffffffffff8381167fffffffffffffffffffffffff0000000000000000000000000000000000000000831681179093556040519116919082907f8be0079c531659141344cd1fd0a4f28419497f9722a3daafe3b4186f6b6457e090600090a35050565b60405173ffffffffffffffffffffffffffffffffffffffff8316602482015260448101829052610a3c9084907fa9059cbb00000000000000000000000000000000000000000000000000000000906064015b604080517fffffffffffffffffffffffffffffffffffffffffffffffffffffffffffffffe08184030181529190526020810180517bffffffffffffffffffffffffffffffffffffffffffffffffffffffff167fffffffff00000000000000000000000000000000000000000000000000000000909316929092179091526150af565b600054610100900460ff16615048576040517f08c379a000000000000000000000000000000000000000000000000000000000815260206004820152602b60248201527f496e697469616c697a61626c653a20636f6e7472616374206973206e6f74206960448201527f6e697469616c697a696e67000000000000000000000000000000000000000000606482015260840161089d565b61218633614e66565b60405173ffffffffffffffffffffffffffffffffffffffff80851660248301528316604482015260648101829052610e819085907f23b872dd0000000000000000000000000000000000000000000000000000000090608401614f2f565b6000615111826040518060400160405280602081526020017f5361666545524332303a206c6f772d6c6576656c2063616c6c206661696c65648152508573ffffffffffffffffffffffffffffffffffffffff166151bb9092919063ffffffff16565b805190915015610a3c578080602001905181019061512f9190615a70565b610a3c576040517f08c379a000000000000000000000000000000000000000000000000000000000815260206004820152602a60248201527f5361666545524332303a204552433230206f7065726174696f6e20646964206e60448201527f6f74207375636365656400000000000000000000000000000000000000000000606482015260840161089d565b60606151ca84846000856151d2565b949350505050565b606082471015615264576040517f08c379a000000000000000000000000000000000000000000000000000000000815260206004820152602660248201527f416464726573733a20696e73756666696369656e742062616c616e636520666f60448201527f722063616c6c0000000000000000000000000000000000000000000000000000606482015260840161089d565b73ffffffffffffffffffffffffffffffffffffffff85163b6152e2576040517f08c379a000000000000000000000000000000000000000000000000000000000815260206004820152601d60248201527f416464726573733a2063616c6c20746f206e6f6e2d636f6e7472616374000000604482015260640161089d565b6000808673ffffffffffffffffffffffffffffffffffffffff16858760405161530b9190615abe565b60006040518083038185875af1925050503d8060008114615348576040519150601f19603f3d011682016040523d82523d6000602084013e61534d565b606091505b509150915061535d828286615368565b979650505050505050565b60608315615377575081614d4e565b8251156153875782518084602001fd5b816040517f08c379a000000000000000000000000000000000000000000000000000000000815260040161089d9190615ada565b508054600082559060005260206000209081019061270191905b808211156153e957600081556001016153d5565b5090565b80356fffffffffffffffffffffffffffffffff8116811461540d57600080fd5b919050565b6000806040838503121561542557600080fd5b61542e836153ed565b915061543c602084016153ed565b90509250929050565b600081518084526020808501945080840160005b838110156154875781516fffffffffffffffffffffffffffffffff1687529582019590820190600101615459565b509495945050505050565b600081518084526020808501945080840160005b83811015615487578151875295820195908201906001016154a6565b60a0808252865190820181905260009060209060c0840190828a01845b8281101561551157815173ffffffffffffffffffffffffffffffffffffffff16845292840192908401906001016154df565b505050838103828501526155258189615445565b915050828103604084015261553a8187615445565b9050828103606084015261554e8186615445565b905082810360808401526155628185615492565b98975050505050505050565b803573ffffffffffffffffffffffffffffffffffffffff8116811461540d57600080fd5b6000806000606084860312156155a757600080fd5b6155b0846153ed565b92506155be6020850161556e565b91506155cc604085016153ed565b90509250925092565b6000602082840312156155e757600080fd5b614d4e8261556e565b60008060006060848603121561560557600080fd5b61560e846153ed565b92506155be602085016153ed565b6000806000806080858703121561563257600080fd5b61563b856153ed565b9350615649602086016153ed565b9250615657604086016153ed565b9150615665606086016153ed565b905092959194509250565b6000806040838503121561568357600080fd5b61568c836153ed565b915061543c6020840161556e565b6000602082840312156156ac57600080fd5b614d4e826153ed565b600080604083850312156156c857600080fd5b61542e8361556e565b60006fffffffffffffffffffffffffffffffff8088168352808716602084015280861660408401525060a0606083015261570e60a0830185615445565b82810360808401526155628185615445565b60008083601f84011261573257600080fd5b50813567ffffffffffffffff81111561574a57600080fd5b6020830191508360208260051b850101111561576557600080fd5b9250929050565b6000806000806040858703121561578257600080fd5b843567ffffffffffffffff8082111561579a57600080fd5b6157a688838901615720565b909650945060208701359150808211156157bf57600080fd5b506157cc87828801615720565b95989497509550505050565b600080600080600060a086880312156157f057600080fd5b6157f98661556e565b9450615807602087016153ed565b9350615815604087016153ed565b9250615823606087016153ed565b9150615831608087016153ed565b90509295509295909350565b6000806040838503121561585057600080fd5b615859836153ed565b946020939093013593505050565b7f4e487b7100000000000000000000000000000000000000000000000000000000600052603260045260246000fd5b7f4e487b7100000000000000000000000000000000000000000000000000000000600052601160045260246000fd5b60006fffffffffffffffffffffffffffffffff8083168185168083038211156158f0576158f0615896565b01949350505050565b60006fffffffffffffffffffffffffffffffff80831681810361591e5761591e615896565b6001019392505050565b60006fffffffffffffffffffffffffffffffff8381169083168181101561595157615951615896565b039392505050565b7f4e487b7100000000000000000000000000000000000000000000000000000000600052604160045260246000fd5b60007fffffffffffffffffffffffffffffffffffffffffffffffffffffffffffffffff82036159b9576159b9615896565b5060010190565b6000817fffffffffffffffffffffffffffffffffffffffffffffffffffffffffffffffff04831182151516156159f8576159f8615896565b500290565b600082615a33577f4e487b7100000000000000000000000000000000000000000000000000000000600052601260045260246000fd5b500490565b60006fffffffffffffffffffffffffffffffff80831681851681830481118215151615615a6757615a67615896565b02949350505050565b600060208284031215615a8257600080fd5b81518015158114614d4e57600080fd5b60005b83811015615aad578181015183820152602001615a95565b83811115610e815750506000910152565b60008251615ad0818460208701615a92565b9190910192915050565b6020815260008251806020840152615af9816040850160208701615a92565b601f017fffffffffffffffffffffffffffffffffffffffffffffffffffffffffffffffe016919091016040019291505056fea26469706673582212205fe5351ed9558e30721866e05ff37854e674e3ae5a481cc3924cd6195a80eac764736f6c634300080d0033",
  "linkReferences": {},
  "deployedLinkReferences": {}
}