{
  "_format": "hh-sol-artifact-1",
  "contractName": "ProofChain",
  "sourceName": "contracts/ProofChain.sol",
  "abi": [
    {
      "anonymous": false,
      "inputs": [
        {
          "indexed": true,
          "internalType": "uint64",
          "name": "chainId",
          "type": "uint64"
        },
        {
          "indexed": false,
          "internalType": "uint64",
          "name": "blockHeight",
          "type": "uint64"
        }
      ],
      "name": "BRPQuorumNotReached",
      "type": "event"
    },
    {
      "anonymous": false,
      "inputs": [
        {
          "indexed": true,
          "internalType": "uint64",
          "name": "chainId",
          "type": "uint64"
        },
        {
          "indexed": true,
          "internalType": "uint64",
          "name": "blockHeight",
          "type": "uint64"
        },
        {
          "indexed": false,
          "internalType": "uint64",
          "name": "deadline",
          "type": "uint64"
        }
      ],
      "name": "BRPSessionStarted",
      "type": "event"
    },
    {
      "anonymous": false,
      "inputs": [
        {
          "indexed": true,
          "internalType": "uint64",
          "name": "chainId",
          "type": "uint64"
        },
        {
          "indexed": false,
          "internalType": "uint64",
          "name": "blockHeight",
          "type": "uint64"
        }
      ],
      "name": "BSPQuorumNotReached",
      "type": "event"
    },
    {
      "anonymous": false,
      "inputs": [
        {
          "indexed": true,
          "internalType": "uint64",
          "name": "chainId",
          "type": "uint64"
        },
        {
          "indexed": true,
          "internalType": "uint64",
          "name": "blockHeight",
          "type": "uint64"
        },
        {
          "indexed": false,
          "internalType": "uint64",
          "name": "deadline",
          "type": "uint64"
        }
      ],
      "name": "BSPSessionStarted",
      "type": "event"
    },
    {
      "anonymous": false,
      "inputs": [
        {
          "indexed": true,
          "internalType": "uint64",
          "name": "chainId",
          "type": "uint64"
        },
        {
          "indexed": false,
          "internalType": "uint64",
          "name": "threshold",
          "type": "uint64"
        }
      ],
      "name": "BlockHeightSubmissionThresholdChanged",
      "type": "event"
    },
    {
      "anonymous": false,
      "inputs": [
        {
          "indexed": false,
          "internalType": "uint64",
          "name": "chainId",
          "type": "uint64"
        },
        {
          "indexed": false,
          "internalType": "uint64",
          "name": "blockHeight",
          "type": "uint64"
        },
        {
          "indexed": false,
          "internalType": "bytes32",
          "name": "specimenHash",
          "type": "bytes32"
        },
        {
          "indexed": false,
          "internalType": "bytes32",
          "name": "resultHash",
          "type": "bytes32"
        },
        {
          "indexed": false,
          "internalType": "string",
          "name": "storageURL",
          "type": "string"
        },
        {
          "indexed": false,
          "internalType": "uint128",
          "name": "submittedStake",
          "type": "uint128"
        }
      ],
      "name": "BlockResultProductionProofSubmitted",
      "type": "event"
    },
    {
      "anonymous": false,
      "inputs": [
        {
          "indexed": true,
          "internalType": "uint64",
          "name": "chainId",
          "type": "uint64"
        },
        {
          "indexed": true,
          "internalType": "uint64",
          "name": "blockHeight",
          "type": "uint64"
        },
        {
          "indexed": true,
          "internalType": "bytes32",
          "name": "specimenHash",
          "type": "bytes32"
        },
        {
          "indexed": false,
          "internalType": "bytes32",
          "name": "blockResultHash",
          "type": "bytes32"
        }
      ],
      "name": "BlockResultRewardAwarded",
      "type": "event"
    },
    {
      "anonymous": false,
      "inputs": [
        {
          "indexed": false,
          "internalType": "uint128",
          "name": "newBlockSpecimenRewardAllocation",
          "type": "uint128"
        }
      ],
      "name": "BlockResultRewardChanged",
      "type": "event"
    },
    {
      "anonymous": false,
      "inputs": [
        {
          "indexed": false,
          "internalType": "uint256",
          "name": "newQuorumThreshold",
          "type": "uint256"
        }
      ],
      "name": "BlockResultSessionQuorumChanged",
      "type": "event"
    },
    {
      "anonymous": false,
      "inputs": [
        {
          "indexed": false,
          "internalType": "uint64",
          "name": "chainId",
          "type": "uint64"
        },
        {
          "indexed": false,
          "internalType": "uint64",
          "name": "blockHeight",
          "type": "uint64"
        },
        {
          "indexed": false,
          "internalType": "bytes32",
          "name": "blockHash",
          "type": "bytes32"
        },
        {
          "indexed": false,
          "internalType": "bytes32",
          "name": "specimenHash",
          "type": "bytes32"
        },
        {
          "indexed": false,
          "internalType": "string",
          "name": "storageURL",
          "type": "string"
        },
        {
          "indexed": false,
          "internalType": "uint128",
          "name": "submittedStake",
          "type": "uint128"
        }
      ],
      "name": "BlockSpecimenProductionProofSubmitted",
      "type": "event"
    },
    {
      "anonymous": false,
      "inputs": [
        {
          "indexed": false,
          "internalType": "uint128",
          "name": "newBlockResultRewardAllocation",
          "type": "uint128"
        }
      ],
      "name": "BlockSpecimenResultChanged",
      "type": "event"
    },
    {
      "anonymous": false,
      "inputs": [
        {
          "indexed": true,
          "internalType": "uint64",
          "name": "chainId",
          "type": "uint64"
        },
        {
          "indexed": true,
          "internalType": "uint64",
          "name": "blockHeight",
          "type": "uint64"
        },
        {
          "indexed": true,
          "internalType": "bytes32",
          "name": "blockhash",
          "type": "bytes32"
        },
        {
          "indexed": false,
          "internalType": "bytes32",
          "name": "specimenhash",
          "type": "bytes32"
        }
      ],
      "name": "BlockSpecimenRewardAwarded",
      "type": "event"
    },
    {
      "anonymous": false,
      "inputs": [
        {
          "indexed": false,
          "internalType": "uint128",
          "name": "newBlockSpecimenRewardAllocation",
          "type": "uint128"
        }
      ],
      "name": "BlockSpecimenRewardChanged",
      "type": "event"
    },
    {
      "anonymous": false,
      "inputs": [
        {
          "indexed": true,
          "internalType": "uint64",
          "name": "chainId",
          "type": "uint64"
        },
        {
          "indexed": false,
          "internalType": "uint256",
          "name": "blockOnTargetChain",
          "type": "uint256"
        },
        {
          "indexed": false,
          "internalType": "uint256",
          "name": "blockOnCurrentChain",
          "type": "uint256"
        },
        {
          "indexed": false,
          "internalType": "uint256",
          "name": "secondsPerBlock",
          "type": "uint256"
        }
      ],
      "name": "ChainSyncDataChanged",
      "type": "event"
    },
    {
      "anonymous": false,
      "inputs": [
        {
          "indexed": false,
          "internalType": "uint8",
          "name": "version",
          "type": "uint8"
        }
      ],
      "name": "Initialized",
      "type": "event"
    },
    {
      "anonymous": false,
      "inputs": [
        {
          "indexed": false,
          "internalType": "uint256",
          "name": "maxSubmissions",
          "type": "uint256"
        }
      ],
      "name": "MaxSubmissionsPerBlockHeightChanged",
      "type": "event"
    },
    {
      "anonymous": false,
      "inputs": [
        {
          "indexed": false,
          "internalType": "uint128",
          "name": "newStakeRequirement",
          "type": "uint128"
        }
      ],
      "name": "MinimumRequiredBlockResultStakeChanged",
      "type": "event"
    },
    {
      "anonymous": false,
      "inputs": [
        {
          "indexed": false,
          "internalType": "uint128",
          "name": "newStakeRequirement",
          "type": "uint128"
        }
      ],
      "name": "MinimumRequiredStakeChanged",
      "type": "event"
    },
    {
      "anonymous": false,
      "inputs": [
        {
          "indexed": true,
          "internalType": "uint64",
          "name": "chainId",
          "type": "uint64"
        },
        {
          "indexed": true,
          "internalType": "uint64",
          "name": "nthBlock",
          "type": "uint64"
        }
      ],
      "name": "NthBlockChanged",
      "type": "event"
    },
    {
      "anonymous": false,
      "inputs": [
        {
          "indexed": false,
          "internalType": "address",
          "name": "operator",
          "type": "address"
        },
        {
          "indexed": false,
          "internalType": "uint128",
          "name": "validatorId",
          "type": "uint128"
        },
        {
          "indexed": false,
          "internalType": "bytes32",
          "name": "role",
          "type": "bytes32"
        }
      ],
      "name": "OperatorAdded",
      "type": "event"
    },
    {
      "anonymous": false,
      "inputs": [
        {
          "indexed": false,
          "internalType": "address",
          "name": "operator",
          "type": "address"
        }
      ],
      "name": "OperatorDisabled",
      "type": "event"
    },
    {
      "anonymous": false,
      "inputs": [
        {
          "indexed": false,
          "internalType": "address",
          "name": "operator",
          "type": "address"
        }
      ],
      "name": "OperatorEnabled",
      "type": "event"
    },
    {
      "anonymous": false,
      "inputs": [
        {
          "indexed": false,
          "internalType": "address",
          "name": "operator",
          "type": "address"
        }
      ],
      "name": "OperatorRemoved",
      "type": "event"
    },
    {
      "anonymous": false,
      "inputs": [
        {
          "indexed": true,
          "internalType": "address",
          "name": "previousOwner",
          "type": "address"
        },
        {
          "indexed": true,
          "internalType": "address",
          "name": "newOwner",
          "type": "address"
        }
      ],
      "name": "OwnershipTransferred",
      "type": "event"
    },
    {
      "anonymous": false,
      "inputs": [
        {
          "indexed": true,
          "internalType": "uint64",
          "name": "secondsPerBlock",
          "type": "uint64"
        }
      ],
      "name": "SecondsPerBlockChanged",
      "type": "event"
    },
    {
      "anonymous": false,
      "inputs": [
        {
          "indexed": false,
          "internalType": "uint64",
          "name": "newSessionDuration",
          "type": "uint64"
        }
      ],
      "name": "SpecimenSessionDurationChanged",
      "type": "event"
    },
    {
      "anonymous": false,
      "inputs": [
        {
          "indexed": false,
          "internalType": "uint64",
          "name": "minSubmissions",
          "type": "uint64"
        }
      ],
      "name": "SpecimenSessionMinSubmissionChanged",
      "type": "event"
    },
    {
      "anonymous": false,
      "inputs": [
        {
          "indexed": false,
          "internalType": "uint256",
          "name": "newQuorumThreshold",
          "type": "uint256"
        }
      ],
      "name": "SpecimenSessionQuorumChanged",
      "type": "event"
    },
    {
      "anonymous": false,
      "inputs": [
        {
          "indexed": false,
          "internalType": "address",
          "name": "newInterfaceAddress",
          "type": "address"
        }
      ],
      "name": "StakingInterfaceChanged",
      "type": "event"
    },
    {
      "inputs": [],
      "name": "AUDITOR_ROLE",
      "outputs": [
        {
          "internalType": "bytes32",
          "name": "",
          "type": "bytes32"
        }
      ],
      "stateMutability": "view",
      "type": "function"
    },
    {
      "inputs": [],
      "name": "BLOCK_RESULT_PRODUCER_ROLE",
      "outputs": [
        {
          "internalType": "bytes32",
          "name": "",
          "type": "bytes32"
        }
      ],
      "stateMutability": "view",
      "type": "function"
    },
    {
      "inputs": [],
      "name": "BLOCK_SPECIMEN_PRODUCER_ROLE",
      "outputs": [
        {
          "internalType": "bytes32",
          "name": "",
          "type": "bytes32"
        }
      ],
      "stateMutability": "view",
      "type": "function"
    },
    {
      "inputs": [],
      "name": "GOVERNANCE_ROLE",
      "outputs": [
        {
          "internalType": "bytes32",
          "name": "",
          "type": "bytes32"
        }
      ],
      "stateMutability": "view",
      "type": "function"
    },
    {
      "inputs": [
        {
          "internalType": "address",
          "name": "auditor",
          "type": "address"
        }
      ],
      "name": "addAuditor",
      "outputs": [],
      "stateMutability": "nonpayable",
      "type": "function"
    },
    {
      "inputs": [
        {
          "internalType": "address",
          "name": "operator",
          "type": "address"
        },
        {
          "internalType": "uint128",
          "name": "validatorId",
          "type": "uint128"
        }
      ],
      "name": "addBRPOperator",
      "outputs": [],
      "stateMutability": "nonpayable",
      "type": "function"
    },
    {
      "inputs": [
        {
          "internalType": "address",
          "name": "operator",
          "type": "address"
        },
        {
          "internalType": "uint128",
          "name": "validatorId",
          "type": "uint128"
        }
      ],
      "name": "addBSPOperator",
      "outputs": [],
      "stateMutability": "nonpayable",
      "type": "function"
    },
    {
      "inputs": [
        {
          "internalType": "address",
          "name": "governor",
          "type": "address"
        }
      ],
      "name": "addGovernor",
      "outputs": [],
      "stateMutability": "nonpayable",
      "type": "function"
    },
    {
      "inputs": [
        {
          "internalType": "address",
          "name": "validator",
          "type": "address"
        },
        {
          "internalType": "uint128",
          "name": "commissionRate",
          "type": "uint128"
        }
      ],
      "name": "addValidator",
      "outputs": [],
      "stateMutability": "nonpayable",
      "type": "function"
    },
    {
      "inputs": [
        {
          "internalType": "uint64",
          "name": "chainId",
          "type": "uint64"
        },
        {
          "internalType": "uint64",
          "name": "blockHeight",
          "type": "uint64"
        },
        {
          "internalType": "bytes32",
          "name": "blockHash",
          "type": "bytes32"
        },
        {
          "internalType": "bytes32",
          "name": "definitiveSpecimenHash",
          "type": "bytes32"
        }
      ],
      "name": "arbitrateBlockResultSession",
      "outputs": [],
      "stateMutability": "nonpayable",
      "type": "function"
    },
    {
      "inputs": [
        {
          "internalType": "uint64",
          "name": "chainId",
          "type": "uint64"
        },
        {
          "internalType": "uint64",
          "name": "blockHeight",
          "type": "uint64"
        },
        {
          "internalType": "bytes32",
          "name": "blockHash",
          "type": "bytes32"
        },
        {
          "internalType": "bytes32",
          "name": "definitiveSpecimenHash",
          "type": "bytes32"
        }
      ],
      "name": "arbitrateBlockSpecimenSession",
      "outputs": [],
      "stateMutability": "nonpayable",
      "type": "function"
    },
    {
      "inputs": [
        {
          "internalType": "address",
          "name": "operator",
          "type": "address"
        }
      ],
      "name": "disableBRPOperator",
      "outputs": [],
      "stateMutability": "nonpayable",
      "type": "function"
    },
    {
      "inputs": [
        {
          "internalType": "address",
          "name": "operator",
          "type": "address"
        }
      ],
      "name": "disableBSPOperator",
      "outputs": [],
      "stateMutability": "nonpayable",
      "type": "function"
    },
    {
      "inputs": [
        {
          "internalType": "uint128",
          "name": "validatorId",
          "type": "uint128"
        },
        {
          "internalType": "uint256",
          "name": "blockNumber",
          "type": "uint256"
        }
      ],
      "name": "disableValidator",
      "outputs": [],
      "stateMutability": "nonpayable",
      "type": "function"
    },
    {
      "inputs": [
        {
          "internalType": "address",
          "name": "operator",
          "type": "address"
        }
      ],
      "name": "enableBRPOperator",
      "outputs": [],
      "stateMutability": "nonpayable",
      "type": "function"
    },
    {
      "inputs": [
        {
          "internalType": "address",
          "name": "operator",
          "type": "address"
        }
      ],
      "name": "enableBSPOperator",
      "outputs": [],
      "stateMutability": "nonpayable",
      "type": "function"
    },
    {
      "inputs": [
        {
          "internalType": "uint64",
          "name": "chainId",
          "type": "uint64"
        },
        {
          "internalType": "uint64",
          "name": "blockHeight",
          "type": "uint64"
        }
      ],
      "name": "finalizeAndRewardBlockResultSession",
      "outputs": [],
      "stateMutability": "nonpayable",
      "type": "function"
    },
    {
      "inputs": [
        {
          "internalType": "uint64",
          "name": "chainId",
          "type": "uint64"
        },
        {
          "internalType": "uint64",
          "name": "blockHeight",
          "type": "uint64"
        }
      ],
      "name": "finalizeAndRewardSpecimenSession",
      "outputs": [],
      "stateMutability": "nonpayable",
      "type": "function"
    },
    {
      "inputs": [],
      "name": "getAllOperators",
      "outputs": [
        {
          "internalType": "address[]",
          "name": "_bsps",
          "type": "address[]"
        },
        {
          "internalType": "address[]",
          "name": "__governors",
          "type": "address[]"
        },
        {
          "internalType": "address[]",
          "name": "__auditors",
          "type": "address[]"
        },
        {
          "internalType": "address[]",
          "name": "_brps",
          "type": "address[]"
        }
      ],
      "stateMutability": "view",
      "type": "function"
    },
    {
      "inputs": [],
      "name": "getBRPRoleData",
      "outputs": [
        {
          "internalType": "uint128",
          "name": "requiredStake",
          "type": "uint128"
        },
        {
          "internalType": "address[]",
          "name": "activeMembers",
          "type": "address[]"
        }
      ],
      "stateMutability": "view",
      "type": "function"
    },
    {
      "inputs": [],
      "name": "getBSPRoleData",
      "outputs": [
        {
          "internalType": "uint128",
          "name": "requiredStake",
          "type": "uint128"
        },
        {
          "internalType": "address[]",
          "name": "activeMembers",
          "type": "address[]"
        }
      ],
      "stateMutability": "view",
      "type": "function"
    },
    {
      "inputs": [
        {
          "internalType": "uint64",
          "name": "chainId",
          "type": "uint64"
        }
      ],
      "name": "getChainData",
      "outputs": [
        {
          "internalType": "uint256",
          "name": "blockOnTargetChain",
          "type": "uint256"
        },
        {
          "internalType": "uint256",
          "name": "blockOnCurrentChain",
          "type": "uint256"
        },
        {
          "internalType": "uint256",
          "name": "secondsPerBlock",
          "type": "uint256"
        },
        {
          "internalType": "uint128",
          "name": "allowedThreshold",
          "type": "uint128"
        },
        {
          "internalType": "uint128",
          "name": "maxSubmissionsPerBlockHeight",
          "type": "uint128"
        },
        {
          "internalType": "uint64",
          "name": "nthBlock",
          "type": "uint64"
        }
      ],
      "stateMutability": "view",
      "type": "function"
    },
    {
      "inputs": [],
      "name": "getMetadata",
      "outputs": [
        {
          "internalType": "address",
          "name": "stakingInterface",
          "type": "address"
        },
        {
          "internalType": "uint128",
          "name": "blockSpecimenRewardAllocation",
          "type": "uint128"
        },
        {
          "internalType": "uint128",
          "name": "blockResultRewardAllocation",
          "type": "uint128"
        },
        {
          "internalType": "uint64",
          "name": "blockSpecimenSessionDuration",
          "type": "uint64"
        },
        {
          "internalType": "uint64",
          "name": "minSubmissionsRequired",
          "type": "uint64"
        },
        {
          "internalType": "uint256",
          "name": "blockSpecimenQuorum",
          "type": "uint256"
        },
        {
          "internalType": "uint256",
          "name": "secondsPerBlock",
          "type": "uint256"
        }
      ],
      "stateMutability": "view",
      "type": "function"
    },
    {
      "inputs": [
        {
          "internalType": "uint128",
          "name": "validatorId",
          "type": "uint128"
        }
      ],
      "name": "getOperators",
      "outputs": [
        {
          "internalType": "address[]",
          "name": "",
          "type": "address[]"
        }
      ],
      "stateMutability": "view",
      "type": "function"
    },
    {
      "inputs": [
        {
          "internalType": "bytes32",
          "name": "specimenhash",
          "type": "bytes32"
        }
      ],
      "name": "getURLS",
      "outputs": [
        {
          "internalType": "string[]",
          "name": "",
          "type": "string[]"
        }
      ],
      "stateMutability": "view",
      "type": "function"
    },
    {
      "inputs": [
        {
          "internalType": "address",
          "name": "initialOwner",
          "type": "address"
        },
        {
          "internalType": "address",
          "name": "stakingContract",
          "type": "address"
        }
      ],
      "name": "initialize",
      "outputs": [],
      "stateMutability": "nonpayable",
      "type": "function"
    },
    {
      "inputs": [
        {
          "internalType": "address",
          "name": "operator",
          "type": "address"
        }
      ],
      "name": "isEnabled",
      "outputs": [
        {
          "internalType": "bool",
          "name": "",
          "type": "bool"
        }
      ],
      "stateMutability": "view",
      "type": "function"
    },
    {
      "inputs": [
        {
          "internalType": "uint64",
          "name": "chainId",
          "type": "uint64"
        },
        {
          "internalType": "uint64",
          "name": "blockHeight",
          "type": "uint64"
        },
        {
          "internalType": "bool",
          "name": "bspSession",
          "type": "bool"
        },
        {
          "internalType": "address",
          "name": "operator",
          "type": "address"
        }
      ],
      "name": "isSessionOpen",
      "outputs": [
        {
          "internalType": "bool",
          "name": "",
          "type": "bool"
        }
      ],
      "stateMutability": "view",
      "type": "function"
    },
    {
      "inputs": [
        {
          "internalType": "address",
          "name": "",
          "type": "address"
        }
      ],
      "name": "operatorRoles",
      "outputs": [
        {
          "internalType": "bytes32",
          "name": "",
          "type": "bytes32"
        }
      ],
      "stateMutability": "view",
      "type": "function"
    },
    {
      "inputs": [],
      "name": "owner",
      "outputs": [
        {
          "internalType": "address",
          "name": "",
          "type": "address"
        }
      ],
      "stateMutability": "view",
      "type": "function"
    },
    {
      "inputs": [
        {
          "internalType": "address",
          "name": "auditor",
          "type": "address"
        }
      ],
      "name": "removeAuditor",
      "outputs": [],
      "stateMutability": "nonpayable",
      "type": "function"
    },
    {
      "inputs": [
        {
          "internalType": "address",
          "name": "operator",
          "type": "address"
        }
      ],
      "name": "removeBRPOperator",
      "outputs": [],
      "stateMutability": "nonpayable",
      "type": "function"
    },
    {
      "inputs": [
        {
          "internalType": "address",
          "name": "operator",
          "type": "address"
        }
      ],
      "name": "removeBSPOperator",
      "outputs": [],
      "stateMutability": "nonpayable",
      "type": "function"
    },
    {
      "inputs": [
        {
          "internalType": "address",
          "name": "governor",
          "type": "address"
        }
      ],
      "name": "removeGovernor",
      "outputs": [],
      "stateMutability": "nonpayable",
      "type": "function"
    },
    {
      "inputs": [],
      "name": "renounceOwnership",
      "outputs": [],
      "stateMutability": "nonpayable",
      "type": "function"
    },
    {
      "inputs": [
        {
          "internalType": "uint128",
          "name": "newStakeAmount",
          "type": "uint128"
        }
      ],
      "name": "setBRPRequiredStake",
      "outputs": [],
      "stateMutability": "nonpayable",
      "type": "function"
    },
    {
      "inputs": [
        {
          "internalType": "uint128",
          "name": "newStakeAmount",
          "type": "uint128"
        }
      ],
      "name": "setBSPRequiredStake",
      "outputs": [],
      "stateMutability": "nonpayable",
      "type": "function"
    },
    {
      "inputs": [
        {
          "internalType": "uint64",
          "name": "chainId",
          "type": "uint64"
        },
        {
          "internalType": "uint64",
          "name": "threshold",
          "type": "uint64"
        }
      ],
      "name": "setBlockHeightSubmissionsThreshold",
      "outputs": [],
      "stateMutability": "nonpayable",
      "type": "function"
    },
    {
      "inputs": [
        {
          "internalType": "uint128",
          "name": "newBlockResultReward",
          "type": "uint128"
        }
      ],
      "name": "setBlockResultReward",
      "outputs": [],
      "stateMutability": "nonpayable",
      "type": "function"
    },
    {
      "inputs": [
        {
          "internalType": "uint128",
          "name": "newBlockSpecimenReward",
          "type": "uint128"
        }
      ],
      "name": "setBlockSpecimenReward",
      "outputs": [],
      "stateMutability": "nonpayable",
      "type": "function"
    },
    {
      "inputs": [
        {
          "internalType": "uint64",
          "name": "chainId",
          "type": "uint64"
        },
        {
          "internalType": "uint256",
          "name": "blockOnTargetChain",
          "type": "uint256"
        },
        {
          "internalType": "uint256",
          "name": "blockOnCurrentChain",
          "type": "uint256"
        },
        {
          "internalType": "uint256",
          "name": "secondsPerBlock",
          "type": "uint256"
        }
      ],
      "name": "setChainSyncData",
      "outputs": [],
      "stateMutability": "nonpayable",
      "type": "function"
    },
    {
      "inputs": [
        {
          "internalType": "uint64",
          "name": "chainId",
          "type": "uint64"
        },
        {
          "internalType": "uint64",
          "name": "maxSubmissions",
          "type": "uint64"
        }
      ],
      "name": "setMaxSubmissionsPerBlockHeight",
      "outputs": [],
      "stateMutability": "nonpayable",
      "type": "function"
    },
    {
      "inputs": [
        {
          "internalType": "uint64",
          "name": "minSubmissions",
          "type": "uint64"
        }
      ],
      "name": "setMinSubmissionsRequired",
      "outputs": [],
      "stateMutability": "nonpayable",
      "type": "function"
    },
    {
      "inputs": [
        {
          "internalType": "uint64",
          "name": "chainId",
          "type": "uint64"
        },
        {
          "internalType": "uint64",
          "name": "n",
          "type": "uint64"
        }
      ],
      "name": "setNthBlock",
      "outputs": [],
      "stateMutability": "nonpayable",
      "type": "function"
    },
    {
      "inputs": [
        {
          "internalType": "uint256",
          "name": "quorum",
          "type": "uint256"
        }
      ],
      "name": "setQuorumThreshold",
      "outputs": [],
      "stateMutability": "nonpayable",
      "type": "function"
    },
    {
      "inputs": [
        {
          "internalType": "uint64",
          "name": "secondsPerBlock",
          "type": "uint64"
        }
      ],
      "name": "setSecondsPerBlock",
      "outputs": [],
      "stateMutability": "nonpayable",
      "type": "function"
    },
    {
      "inputs": [
        {
          "internalType": "uint64",
          "name": "newSessionDuration",
          "type": "uint64"
        }
      ],
      "name": "setSessionDuration",
      "outputs": [],
      "stateMutability": "nonpayable",
      "type": "function"
    },
    {
      "inputs": [
        {
          "internalType": "address",
          "name": "stakingContractAddress",
          "type": "address"
        }
      ],
      "name": "setStakingInterface",
      "outputs": [],
      "stateMutability": "nonpayable",
      "type": "function"
    },
    {
      "inputs": [
        {
          "internalType": "uint64",
          "name": "chainId",
          "type": "uint64"
        },
        {
          "internalType": "uint64",
          "name": "blockHeight",
          "type": "uint64"
        },
        {
          "internalType": "bytes32",
          "name": "blockHash",
          "type": "bytes32"
        },
        {
          "internalType": "bytes32",
          "name": "specimenHash",
          "type": "bytes32"
        },
        {
          "internalType": "string",
          "name": "storageURL",
          "type": "string"
        }
      ],
      "name": "submitBlockResultProof",
      "outputs": [],
      "stateMutability": "nonpayable",
      "type": "function"
    },
    {
      "inputs": [
        {
          "internalType": "uint64",
          "name": "chainId",
          "type": "uint64"
        },
        {
          "internalType": "uint64",
          "name": "blockHeight",
          "type": "uint64"
        },
        {
          "internalType": "bytes32",
          "name": "blockHash",
          "type": "bytes32"
        },
        {
          "internalType": "bytes32",
          "name": "specimenHash",
          "type": "bytes32"
        },
        {
          "internalType": "string",
          "name": "storageURL",
          "type": "string"
        }
      ],
      "name": "submitBlockSpecimenProof",
      "outputs": [],
      "stateMutability": "nonpayable",
      "type": "function"
    },
    {
      "inputs": [
        {
          "internalType": "address",
          "name": "newOwner",
          "type": "address"
        }
      ],
      "name": "transferOwnership",
      "outputs": [],
      "stateMutability": "nonpayable",
      "type": "function"
    },
    {
      "inputs": [
        {
          "internalType": "address",
          "name": "",
          "type": "address"
        }
      ],
      "name": "validatorIDs",
      "outputs": [
        {
          "internalType": "uint128",
          "name": "",
          "type": "uint128"
        }
      ],
      "stateMutability": "view",
      "type": "function"
    }
  ],
  "bytecode": "0x608060405234801561001057600080fd5b50615ca880620000216000396000f3fe608060405234801561001057600080fd5b506004361061034c5760003560e01c806389587f05116101bd578063cc96e413116100f9578063df4112c2116100a2578063e6116cfd1161007c578063e6116cfd14610917578063eecdac881461092a578063f2fde38b1461093d578063f36c8f5c1461095057600080fd5b8063df4112c2146108de578063e3201409146108f1578063e429cef11461090457600080fd5b8063d5839da9116100d3578063d5839da914610893578063d911c632146108b3578063dd36a8d5146108cb57600080fd5b8063cc96e4131461084d578063cf64a01d14610860578063d3a8b2a81461087357600080fd5b80639914628411610166578063ad9e91ee11610140578063ad9e91ee14610801578063c0e745d214610814578063c384678914610827578063c4499cb91461083a57600080fd5b806399146284146107b45780639c49d8ee146107c7578063a2e7e441146107ee57600080fd5b80639015d371116101975780639015d37114610776578063920036b71461079957806393742b56146107a157600080fd5b806389587f05146107285780638da5cb5b1461073b5780638ecd30bc1461076357600080fd5b8063485cc9551161028c57806367585e44116102355780636e1d616e1161020f5780636e1d616e14610648578063715018a61461066f57806372ab8568146106775780637a5b4f591461068a57600080fd5b806367585e44146106025780636ab9d8e8146106155780636b7511cb1461063557600080fd5b80635a5e84f2116102665780635a5e84f2146105c95780635ebdedfa146105dc5780636543413a146105ef57600080fd5b8063485cc955146104b45780635137b8b9146104c757806354cfa69f146104da57600080fd5b80632f01798e116102f957806341c1278d116102d357806341c1278d1461044657806341ca4a551461047b5780634414beeb1461048e5780634524c7e1146104a157600080fd5b80632f01798e1461040d5780633646aded146104205780633c4a25d01461043357600080fd5b80631fd55ae91161032a5780631fd55ae9146103d1578063222388c2146103e75780632c58ed42146103fa57600080fd5b80630d92f4ed1461035157806313e3f452146103a9578063151fd8f3146103be575b600080fd5b61038361035f366004615356565b6072602052600090815260409020546fffffffffffffffffffffffffffffffff1681565b6040516fffffffffffffffffffffffffffffffff90911681526020015b60405180910390f35b6103bc6103b7366004615356565b610977565b005b6103bc6103cc366004615390565b610aed565b6103d9610b05565b6040516103a0929190615487565b6103bc6103f53660046154d8565b610b46565b6103bc610408366004615511565b610beb565b6103bc61041b366004615544565b610ce4565b6103bc61042e366004615356565b610dc8565b6103bc610441366004615356565b610eb1565b61046d7f77ae3b5d012484be69eeed881350adb3189b651fac6e88b31ddff30c833a8b7f81565b6040519081526020016103a0565b6103bc610489366004615356565b611010565b6103bc61049c36600461555f565b61117c565b6103bc6104af3660046155a1565b611190565b6103bc6104c23660046155ba565b61123a565b6103bc6104d53660046155e8565b611575565b61057d6104e8366004615544565b67ffffffffffffffff908116600090815260776020908152604091829020825160c08101845281548082526001830154938201849052600283015494820185905260038301546fffffffffffffffffffffffffffffffff80821660608501819052700100000000000000000000000000000000909204166080840181905260049094015490961660a090920182905295929492565b604080519687526020870195909552938501929092526fffffffffffffffffffffffffffffffff908116606085015216608083015267ffffffffffffffff1660a082015260c0016103a0565b6103bc6105d73660046155e8565b61164f565b6103bc6105ea366004615511565b611729565b6103bc6105fd366004615390565b611735565b6103bc610610366004615511565b611745565b61046d610623366004615356565b60746020526000908152604090205481565b6103bc610643366004615356565b611841565b61046d7f59a1c48e5837ad7a7f3dcedcbe129bf3249ec4fbf651fd4f5e2600ead39fe2f581565b6103bc6118e6565b6103bc610685366004615356565b6118fa565b606554606854607b546069546066546067546040805173ffffffffffffffffffffffffffffffffffffffff90971687526fffffffffffffffffffffffffffffffff95861660208801527001000000000000000000000000000000009094049094169285019290925267ffffffffffffffff80821660608601526801000000000000000090910416608084015260a083015260c082015260e0016103a0565b6103bc6107363660046155e8565b611a66565b60335460405173ffffffffffffffffffffffffffffffffffffffff90911681526020016103a0565b6103bc610771366004615511565b611b4b565b610789610784366004615356565b611b57565b60405190151581526020016103a0565b6103d9611bb4565b6103bc6107af366004615544565b611bd9565b6103bc6107c2366004615605565b611cc4565b61046d7f98d0bb2de1c65f6d2cbc3401e3d5d5086bfe815cb57e521dafd0ebdbef6ee85c81565b6103bc6107fc3660046154d8565b611e1f565b6103bc61080f36600461563e565b611f43565b6103bc6108223660046155e8565b612051565b6103bc61083536600461555f565b612136565b61078961084836600461566a565b612144565b6103bc61085b3660046154d8565b6122b6565b6103bc61086e366004615356565b612357565b6108866108813660046155e8565b6123f9565b6040516103a091906156c7565b6108a66108a13660046155a1565b612426565b6040516103a091906156da565b6108bb612512565b6040516103a094939291906157b1565b6103bc6108d9366004615544565b61254e565b6103bc6108ec366004615356565b612600565b6103bc6108ff366004615511565b61276c565b6103bc610912366004615356565b612855565b6103bc610925366004615356565b612a22565b6103bc610938366004615356565b612bbe565b6103bc61094b366004615356565b612ca5565b61046d7f71840dc4906352362b0cdaf79870196c8e42acafade72d5d5a6d59291253ceb181565b60655473ffffffffffffffffffffffffffffffffffffffff8281166000908152607260205260408082205490517f87326a0c0000000000000000000000000000000000000000000000000000000081526fffffffffffffffffffffffffffffffff909116600482015284939192909116906387326a0c90602401608060405180830381865afa158015610a0e573d6000803e3d6000fd5b505050506040513d601f19601f82011682018060405250810190610a329190615809565b50919250505073ffffffffffffffffffffffffffffffffffffffff81163314610abc576040517f08c379a000000000000000000000000000000000000000000000000000000000815260206004820152601e60248201527f53656e646572206973206e6f74206f70657261746f72206d616e61676572000060448201526064015b60405180910390fd5b610ae8837f98d0bb2de1c65f6d2cbc3401e3d5d5086bfe815cb57e521dafd0ebdbef6ee85c606c612d59565b505050565b610afd8686868686866001612eeb565b505050505050565b60685460009060609070010000000000000000000000000000000090046fffffffffffffffffffffffffffffffff16610b3e606c61384c565b915091509091565b336000908152606f6020526040902054610bbc576040517f08c379a000000000000000000000000000000000000000000000000000000000815260206004820152601d60248201527f53656e646572206973206e6f7420474f5645524e414e43455f524f4c450000006044820152606401610ab3565b610be782827f77ae3b5d012484be69eeed881350adb3189b651fac6e88b31ddff30c833a8b7f613860565b5050565b336000908152606f6020526040902054610c61576040517f08c379a000000000000000000000000000000000000000000000000000000000815260206004820152601d60248201527f53656e646572206973206e6f7420474f5645524e414e43455f524f4c450000006044820152606401610ab3565b67ffffffffffffffff82811660008181526077602090815260409182902060030180547fffffffffffffffffffffffffffffffff00000000000000000000000000000000169486169485179055905192835290917f4e4c0afc3a2b327c2f061f8ff5190a491f1042ba8f292a887bab97840947b7a9910160405180910390a25050565b336000908152606f6020526040902054610d5a576040517f08c379a000000000000000000000000000000000000000000000000000000000815260206004820152601d60248201527f53656e646572206973206e6f7420474f5645524e414e43455f524f4c450000006044820152606401610ab3565b606980547fffffffffffffffffffffffffffffffffffffffffffffffff00000000000000001667ffffffffffffffff83169081179091556040519081527f94bc488f4d9a985dd5f9d11e8f0a614a62828888eb65b704a90fa852be937549906020015b60405180910390a150565b336000908152606f6020526040902054610e3e576040517f08c379a000000000000000000000000000000000000000000000000000000000815260206004820152601d60248201527f53656e646572206973206e6f7420474f5645524e414e43455f524f4c450000006044820152606401610ab3565b606580547fffffffffffffffffffffffff00000000000000000000000000000000000000001673ffffffffffffffffffffffffffffffffffffffff83169081179091556040519081527f70016f37fc9a299f674d1e3083a27743406649810887ed947a79884b064d2de990602001610dbd565b610eb96139d5565b73ffffffffffffffffffffffffffffffffffffffff811660009081526074602052604090205415610f46576040517f08c379a000000000000000000000000000000000000000000000000000000000815260206004820152601760248201527f4f70657261746f7220616c7265616479206578697374730000000000000000006044820152606401610ab3565b73ffffffffffffffffffffffffffffffffffffffff811660009081526074602052604090207f71840dc4906352362b0cdaf79870196c8e42acafade72d5d5a6d59291253ceb19055610f99606e82613a56565b506040805173ffffffffffffffffffffffffffffffffffffffff83168152600060208201527f71840dc4906352362b0cdaf79870196c8e42acafade72d5d5a6d59291253ceb1918101919091527f797ca55fc7be0f65c71f10996f7a16f801094f8ae3811874afc5a39730772a4290606001610dbd565b60655473ffffffffffffffffffffffffffffffffffffffff8281166000908152607260205260408082205490517f87326a0c0000000000000000000000000000000000000000000000000000000081526fffffffffffffffffffffffffffffffff909116600482015284939192909116906387326a0c90602401608060405180830381865afa1580156110a7573d6000803e3d6000fd5b505050506040513d601f19601f820116820180604052508101906110cb9190615809565b50919250505073ffffffffffffffffffffffffffffffffffffffff81163314611150576040517f08c379a000000000000000000000000000000000000000000000000000000000815260206004820152601e60248201527f53656e646572206973206e6f74206f70657261746f72206d616e6167657200006044820152606401610ab3565b610ae8837f77ae3b5d012484be69eeed881350adb3189b651fac6e88b31ddff30c833a8b7f6078613a78565b61118a848484846001613d5a565b50505050565b336000908152606f6020526040902054611206576040517f08c379a000000000000000000000000000000000000000000000000000000000815260206004820152601d60248201527f53656e646572206973206e6f7420474f5645524e414e43455f524f4c450000006044820152606401610ab3565b60668190556040518181527eec8eefea39d742ff523b872c1931ff4d509ab873041c5d6e237d5f0fc053f890602001610dbd565b600054610100900460ff161580801561125a5750600054600160ff909116105b806112745750303b158015611274575060005460ff166001145b611300576040517f08c379a000000000000000000000000000000000000000000000000000000000815260206004820152602e60248201527f496e697469616c697a61626c653a20636f6e747261637420697320616c72656160448201527f647920696e697469616c697a65640000000000000000000000000000000000006064820152608401610ab3565b600080547fffffffffffffffffffffffffffffffffffffffffffffffffffffffffffffff00166001179055801561135e57600080547fffffffffffffffffffffffffffffffffffffffffffffffffffffffffffff00ff166101001790555b611366613eda565b611371606e33613a56565b5061139d606a7f71840dc4906352362b0cdaf79870196c8e42acafade72d5d5a6d59291253ceb1613f79565b506113c9606a7f98d0bb2de1c65f6d2cbc3401e3d5d5086bfe815cb57e521dafd0ebdbef6ee85c613f79565b506113f5606a7f59a1c48e5837ad7a7f3dcedcbe129bf3249ec4fbf651fd4f5e2600ead39fe2f5613f79565b5061140c6104af6002670de0b6b3a76400006158bb565b61141b655af3107a4000611a66565b61142560f0610ce4565b61142f6002611bd9565b61143882610dc8565b611443606e33613f85565b5073ffffffffffffffffffffffffffffffffffffffff831660009081526074602052604090207f71840dc4906352362b0cdaf79870196c8e42acafade72d5d5a6d59291253ceb19055611497606e84613a56565b506040805173ffffffffffffffffffffffffffffffffffffffff85168152600060208201527f71840dc4906352362b0cdaf79870196c8e42acafade72d5d5a6d59291253ceb18183015290517f797ca55fc7be0f65c71f10996f7a16f801094f8ae3811874afc5a39730772a429181900360600190a18015610ae857600080547fffffffffffffffffffffffffffffffffffffffffffffffffffffffffffff00ff169055604051600181527f7f26b83ff96e1f2b6a682f133852f6798a09c465da95921460cefb3847402498906020015b60405180910390a1505050565b336000908152606f60205260409020546115eb576040517f08c379a000000000000000000000000000000000000000000000000000000000815260206004820152601d60248201527f53656e646572206973206e6f7420474f5645524e414e43455f524f4c450000006044820152606401610ab3565b606880546fffffffffffffffffffffffffffffffff908116700100000000000000000000000000000000918416918202179091556040519081527fb6c040bb0324b47cbf9a620cce03b311e24597626a57322173d5d5465f739d2790602001610dbd565b336000908152606f60205260409020546116c5576040517f08c379a000000000000000000000000000000000000000000000000000000000815260206004820152601d60248201527f53656e646572206973206e6f7420474f5645524e414e43455f524f4c450000006044820152606401610ab3565b607b80546fffffffffffffffffffffffffffffffff908116700100000000000000000000000000000000918416918202179091556040519081527fa425d7d9b858a4250625446e4504257053202ae93ba0d1dea68dce7ec87a05c590602001610dbd565b610be782826000613fa7565b610afd8686868686866000612eeb565b336000908152606f60205260409020546117bb576040517f08c379a000000000000000000000000000000000000000000000000000000000815260206004820152601d60248201527f53656e646572206973206e6f7420474f5645524e414e43455f524f4c450000006044820152606401610ab3565b67ffffffffffffffff82811660009081526077602090815260409182902060030180546fffffffffffffffffffffffffffffffff16938516700100000000000000000000000000000000810294909417905590519182527f1bca1fb481202bb14258ce1030d54e9e7bafc8b696d96b9eb733826e58a3a030910160405180910390a15050565b336000908152606f60205260409020546118b7576040517f08c379a000000000000000000000000000000000000000000000000000000000815260206004820152601d60248201527f53656e646572206973206e6f7420474f5645524e414e43455f524f4c450000006044820152606401610ab3565b6118e3817f77ae3b5d012484be69eeed881350adb3189b651fac6e88b31ddff30c833a8b7f6078614364565b50565b6118ee6139d5565b6118f86000614524565b565b60655473ffffffffffffffffffffffffffffffffffffffff8281166000908152607260205260408082205490517f87326a0c0000000000000000000000000000000000000000000000000000000081526fffffffffffffffffffffffffffffffff909116600482015284939192909116906387326a0c90602401608060405180830381865afa158015611991573d6000803e3d6000fd5b505050506040513d601f19601f820116820180604052508101906119b59190615809565b50919250505073ffffffffffffffffffffffffffffffffffffffff81163314611a3a576040517f08c379a000000000000000000000000000000000000000000000000000000000815260206004820152601e60248201527f53656e646572206973206e6f74206f70657261746f72206d616e6167657200006044820152606401610ab3565b610ae8837f77ae3b5d012484be69eeed881350adb3189b651fac6e88b31ddff30c833a8b7f6078612d59565b336000908152606f6020526040902054611adc576040517f08c379a000000000000000000000000000000000000000000000000000000000815260206004820152601d60248201527f53656e646572206973206e6f7420474f5645524e414e43455f524f4c450000006044820152606401610ab3565b606880547fffffffffffffffffffffffffffffffff00000000000000000000000000000000166fffffffffffffffffffffffffffffffff83169081179091556040519081527f01eb821dd596243f2f8c5f6c7478e281b855ac12a9f4be2c486cb2778a0bb81e90602001610dbd565b610be782826001613fa7565b73ffffffffffffffffffffffffffffffffffffffff81166000908152606d6020526040812054151580611bae575073ffffffffffffffffffffffffffffffffffffffff821660009081526079602052604090205415155b92915050565b607b546000906060906fffffffffffffffffffffffffffffffff16610b3e607861384c565b336000908152606f6020526040902054611c4f576040517f08c379a000000000000000000000000000000000000000000000000000000000815260206004820152601d60248201527f53656e646572206973206e6f7420474f5645524e414e43455f524f4c450000006044820152606401610ab3565b606980547fffffffffffffffffffffffffffffffff0000000000000000ffffffffffffffff166801000000000000000067ffffffffffffffff8416908102919091179091556040519081527f28312bbddd51eea4439db773218c441a4057f6ed285c642a569f1dcdba1cc04790602001610dbd565b336000908152606f6020526040902054611d3a576040517f08c379a000000000000000000000000000000000000000000000000000000000815260206004820152601d60248201527f53656e646572206973206e6f7420474f5645524e414e43455f524f4c450000006044820152606401610ab3565b67ffffffffffffffff8416600090815260776020526040902081611dba576040517f08c379a000000000000000000000000000000000000000000000000000000000815260206004820152601d60248201527f5365636f6e64732070657220626c6f636b2063616e6e6f7420626520300000006044820152606401610ab3565b8381556001810183905560028101829055604080518581526020810185905290810183905267ffffffffffffffff8616907ffd97af399d19e6be9256c99c8e52b1809cdbc4dc96816739612b6fd4e6d940b09060600160405180910390a25050505050565b336000908152606f6020526040902054611e95576040517f08c379a000000000000000000000000000000000000000000000000000000000815260206004820152601d60248201527f53656e646572206973206e6f7420474f5645524e414e43455f524f4c450000006044820152606401610ab3565b6065546040517fa2e7e44100000000000000000000000000000000000000000000000000000000815273ffffffffffffffffffffffffffffffffffffffff84811660048301526fffffffffffffffffffffffffffffffff841660248301529091169063a2e7e441906044016020604051808303816000875af1158015611f1f573d6000803e3d6000fd5b505050506040513d601f19601f82011682018060405250810190610ae891906158cf565b336000908152606f6020526040902054611fb9576040517f08c379a000000000000000000000000000000000000000000000000000000000815260206004820152601d60248201527f53656e646572206973206e6f7420474f5645524e414e43455f524f4c450000006044820152606401610ab3565b6065546040517fad9e91ee0000000000000000000000000000000000000000000000000000000081526fffffffffffffffffffffffffffffffff841660048201526024810183905273ffffffffffffffffffffffffffffffffffffffff9091169063ad9e91ee90604401600060405180830381600087803b15801561203d57600080fd5b505af1158015610afd573d6000803e3d6000fd5b336000908152606f60205260409020546120c7576040517f08c379a000000000000000000000000000000000000000000000000000000000815260206004820152601d60248201527f53656e646572206973206e6f7420474f5645524e414e43455f524f4c450000006044820152606401610ab3565b607b80547fffffffffffffffffffffffffffffffff00000000000000000000000000000000166fffffffffffffffffffffffffffffffff83169081179091556040519081527f3c123a1bb22d50819d69fdf807dc3a338b33bb1089acd51636778324836af17d90602001610dbd565b61118a848484846000613d5a565b600080836121775767ffffffffffffffff8087166000908152607a6020908152604080832093891683529290522061219e565b67ffffffffffffffff80871660009081526076602090815260408083209389168352929052205b600381015473ffffffffffffffffffffffffffffffffffffffff85166000908152600283016020526040812092935067ffffffffffffffff90911691908661221057815470010000000000000000000000000000000090046fffffffffffffffffffffffffffffffff16600114612260565b67ffffffffffffffff89166000908152607760205260409020600301548254700100000000000000000000000000000000918290046fffffffffffffffffffffffffffffffff9081169290910416145b90508015801561227a57508267ffffffffffffffff164311155b806122a9575067ffffffffffffffff83161580156122a95750600384015468010000000000000000900460ff16155b9998505050505050505050565b336000908152606f602052604090205461232c576040517f08c379a000000000000000000000000000000000000000000000000000000000815260206004820152601d60248201527f53656e646572206973206e6f7420474f5645524e414e43455f524f4c450000006044820152606401610ab3565b610be782827f98d0bb2de1c65f6d2cbc3401e3d5d5086bfe815cb57e521dafd0ebdbef6ee85c613860565b336000908152606f60205260409020546123cd576040517f08c379a000000000000000000000000000000000000000000000000000000000815260206004820152601d60248201527f53656e646572206973206e6f7420474f5645524e414e43455f524f4c450000006044820152606401610ab3565b6118e3817f98d0bb2de1c65f6d2cbc3401e3d5d5086bfe815cb57e521dafd0ebdbef6ee85c606c614364565b6fffffffffffffffffffffffffffffffff81166000908152607360205260409020606090611bae9061384c565b6060607c6000838152602001908152602001600020805480602002602001604051908101604052809291908181526020016000905b8282101561250757838290600052602060002001805461247a906158e8565b80601f01602080910402602001604051908101604052809291908181526020018280546124a6906158e8565b80156124f35780601f106124c8576101008083540402835291602001916124f3565b820191906000526020600020905b8154815290600101906020018083116124d657829003601f168201915b50505050508152602001906001019061245b565b505050509050919050565b606080606080612522606c61384c565b61252c606e61384c565b612536607061384c565b612540607861384c565b935093509350935090919293565b336000908152606f60205260409020546125c4576040517f08c379a000000000000000000000000000000000000000000000000000000000815260206004820152601d60248201527f53656e646572206973206e6f7420474f5645524e414e43455f524f4c450000006044820152606401610ab3565b67ffffffffffffffff811660678190556040517fcaf46ba335d93b98398af7142ea3e362a6b8e91c57da6bf1e8a704f86374dde090600090a250565b60655473ffffffffffffffffffffffffffffffffffffffff8281166000908152607260205260408082205490517f87326a0c0000000000000000000000000000000000000000000000000000000081526fffffffffffffffffffffffffffffffff909116600482015284939192909116906387326a0c90602401608060405180830381865afa158015612697573d6000803e3d6000fd5b505050506040513d601f19601f820116820180604052508101906126bb9190615809565b50919250505073ffffffffffffffffffffffffffffffffffffffff81163314612740576040517f08c379a000000000000000000000000000000000000000000000000000000000815260206004820152601e60248201527f53656e646572206973206e6f74206f70657261746f72206d616e6167657200006044820152606401610ab3565b610ae8837f98d0bb2de1c65f6d2cbc3401e3d5d5086bfe815cb57e521dafd0ebdbef6ee85c606c613a78565b336000908152606f60205260409020546127e2576040517f08c379a000000000000000000000000000000000000000000000000000000000815260206004820152601d60248201527f53656e646572206973206e6f7420474f5645524e414e43455f524f4c450000006044820152606401610ab3565b67ffffffffffffffff82811660008181526077602052604080822060040180547fffffffffffffffffffffffffffffffffffffffffffffffff0000000000000000169486169485179055517fbbfa9310306e8a8485d109f8be6b0a808473ce55d2e94b8ca3447c9ddb2854b49190a35050565b336000908152606f60205260409020546128cb576040517f08c379a000000000000000000000000000000000000000000000000000000000815260206004820152601d60248201527f53656e646572206973206e6f7420474f5645524e414e43455f524f4c450000006044820152606401610ab3565b73ffffffffffffffffffffffffffffffffffffffff811660009081526074602052604090205415612958576040517f08c379a000000000000000000000000000000000000000000000000000000000815260206004820152601760248201527f4f70657261746f7220616c7265616479206578697374730000000000000000006044820152606401610ab3565b73ffffffffffffffffffffffffffffffffffffffff811660009081526074602052604090207f59a1c48e5837ad7a7f3dcedcbe129bf3249ec4fbf651fd4f5e2600ead39fe2f590556129ab607082613a56565b506040805173ffffffffffffffffffffffffffffffffffffffff83168152600060208201527f59a1c48e5837ad7a7f3dcedcbe129bf3249ec4fbf651fd4f5e2600ead39fe2f5918101919091527f797ca55fc7be0f65c71f10996f7a16f801094f8ae3811874afc5a39730772a4290606001610dbd565b336000908152606f6020526040902054612a98576040517f08c379a000000000000000000000000000000000000000000000000000000000815260206004820152601d60248201527f53656e646572206973206e6f7420474f5645524e414e43455f524f4c450000006044820152606401610ab3565b73ffffffffffffffffffffffffffffffffffffffff81166000908152607460205260409020547f59a1c48e5837ad7a7f3dcedcbe129bf3249ec4fbf651fd4f5e2600ead39fe2f514612b46576040517f08c379a000000000000000000000000000000000000000000000000000000000815260206004820152601760248201527f4f70657261746f72206973206e6f742061756469746f720000000000000000006044820152606401610ab3565b73ffffffffffffffffffffffffffffffffffffffff8116600090815260746020526040812055612b77607082613f85565b5060405173ffffffffffffffffffffffffffffffffffffffff821681527f80c0b871b97b595b16a7741c1b06fed0c6f6f558639f18ccbce50724325dc40d90602001610dbd565b612bc66139d5565b73ffffffffffffffffffffffffffffffffffffffff81166000908152607460205260409020547f71840dc4906352362b0cdaf79870196c8e42acafade72d5d5a6d59291253ceb114612c74576040517f08c379a000000000000000000000000000000000000000000000000000000000815260206004820152601860248201527f4f70657261746f72206973206e6f7420676f7665726e6f7200000000000000006044820152606401610ab3565b73ffffffffffffffffffffffffffffffffffffffff8116600090815260746020526040812055612b77606e82613f85565b612cad6139d5565b73ffffffffffffffffffffffffffffffffffffffff8116612d50576040517f08c379a000000000000000000000000000000000000000000000000000000000815260206004820152602660248201527f4f776e61626c653a206e6577206f776e657220697320746865207a65726f206160448201527f64647265737300000000000000000000000000000000000000000000000000006064820152608401610ab3565b6118e381614524565b73ffffffffffffffffffffffffffffffffffffffff83166000908152607460205260409020548214612e0d576040517f08c379a000000000000000000000000000000000000000000000000000000000815260206004820152602c60248201527f4f70657261746f7220646f6573206e6f7420706572666f726d2074686520726560448201527f7175657374656420726f6c6500000000000000000000000000000000000000006064820152608401610ab3565b73ffffffffffffffffffffffffffffffffffffffff83166000908152600182016020526040902054612e9b576040517f08c379a000000000000000000000000000000000000000000000000000000000815260206004820152601c60248201527f4f70657261746f7220697320616c72656164792064697361626c6564000000006044820152606401610ab3565b612ea5838261459b565b60405173ffffffffffffffffffffffffffffffffffffffff841681527f23cd406c7cafe6d88c3f1c1cc16e438745a4236aec25906be2046ca16c36bd1e90602001611568565b8015612f9257336000908152606d6020526040902054612f8d576040517f08c379a000000000000000000000000000000000000000000000000000000000815260206004820152602a60248201527f53656e646572206973206e6f7420424c4f434b5f53504543494d454e5f50524f60448201527f44554345525f524f4c45000000000000000000000000000000000000000000006064820152608401610ab3565b61302e565b3360009081526079602052604090205461302e576040517f08c379a000000000000000000000000000000000000000000000000000000000815260206004820152602860248201527f53656e646572206973206e6f7420424c4f434b5f524553554c545f50524f445560448201527f4345525f524f4c450000000000000000000000000000000000000000000000006064820152608401610ab3565b67ffffffffffffffff8088166000908152607760205260408120600481015490921690036130b8576040517f08c379a000000000000000000000000000000000000000000000000000000000815260206004820152601060248201527f496e76616c696420636861696e204944000000000000000000000000000000006044820152606401610ab3565b60048101546130d19067ffffffffffffffff168861593b565b67ffffffffffffffff1615613142576040517f08c379a000000000000000000000000000000000000000000000000000000000815260206004820152601460248201527f496e76616c696420626c6f636b206865696768740000000000000000000000006044820152606401610ab3565b6000826131745767ffffffffffffffff808a166000908152607a60209081526040808320938c1683529290522061319b565b67ffffffffffffffff808a166000908152607660209081526040808320938c168352929052205b6003810154336000908152600283016020526040812092935067ffffffffffffffff90911691908290036131de576131d98b8b8b8b88888b886146e6565b613757565b8167ffffffffffffffff16431115613252576040517f08c379a000000000000000000000000000000000000000000000000000000000815260206004820152601f60248201527f53657373696f6e207375626d697373696f6e73206861766520636c6f736564006044820152606401610ab3565b600384015481546fffffffffffffffffffffffffffffffff7001000000000000000000000000000000009283900481169290910416106132ee576040517f08c379a000000000000000000000000000000000000000000000000000000000815260206004820152601e60248201527f4d6178207375626d697373696f6e73206c696d697420657863656564656400006044820152606401610ab3565b6000898152602084905260409020815460018201906fffffffffffffffffffffffffffffffff161561346c5760005b815481101561346657600083600001600084848154811061334057613340615962565b90600052602060002001548152602001908152602001600020905060005b8154811015613451573373ffffffffffffffffffffffffffffffffffffffff1682828154811061339057613390615962565b60009182526020909120015473ffffffffffffffffffffffffffffffffffffffff160361343f576040517f08c379a000000000000000000000000000000000000000000000000000000000815260206004820152603660248201527f4f70657261746f7220616c7265616479207375626d697474656420666f72207460448201527f68652070726f766964656420626c6f636b2068617368000000000000000000006064820152608401610ab3565b8061344981615991565b91505061335e565b5050808061345e90615991565b91505061331d565b50613647565b606554336000908152607260205260408082205490517f4c4a17090000000000000000000000000000000000000000000000000000000081526fffffffffffffffffffffffffffffffff90911660048201529091829173ffffffffffffffffffffffffffffffffffffffff90911690634c4a1709906024016040805180830381865afa158015613500573d6000803e3d6000fd5b505050506040513d601f19601f8201168201806040525081019061352491906159c9565b915091508861354757607b546fffffffffffffffffffffffffffffffff16613571565b60685470010000000000000000000000000000000090046fffffffffffffffffffffffffffffffff165b6fffffffffffffffffffffffffffffffff16826fffffffffffffffffffffffffffffffff1610156135fe576040517f08c379a000000000000000000000000000000000000000000000000000000000815260206004820152601f60248201527f496e73756666696369656e746c79207374616b656420746f207375626d6974006044820152606401610ab3565b61360881836159f8565b85547fffffffffffffffffffffffffffffffff00000000000000000000000000000000166fffffffffffffffffffffffffffffffff9190911617855550505b60008a815260208390526040902081541561368057805460000361367b578154600181018355600083815260209020018b90555b6136ad565b600180870180548083018255600091825260208083209091018f9055845492830185558482529020018b90555b80546001810182556000828152602090200180547fffffffffffffffffffffffff0000000000000000000000000000000000000000163317905583546fffffffffffffffffffffffffffffffff7001000000000000000000000000000000009091041684601061371c83615a2c565b91906101000a8154816fffffffffffffffffffffffffffffffff02191690836fffffffffffffffffffffffffffffffff160217905550505050505b6000888152607c6020908152604082208054600181018255908352912061378091018888615263565b5084156137e55780546040517f57b0cb34d2ff9ed661f8b3c684aaee6cbf0bda5da02f4044205556817fa8e76c916137d8918e918e918e918e918e918e916fffffffffffffffffffffffffffffffff90911690615a5b565b60405180910390a161383f565b80546040517f8741f5bf89731b15f24deb1e84e2bbd381947f009ee378a2daa15ed8abfb948591613836918e918e918e918e918e918e916fffffffffffffffffffffffffffffffff90911690615a5b565b60405180910390a15b5050505050505050505050565b6060600061385983614c6a565b9392505050565b73ffffffffffffffffffffffffffffffffffffffff8316600090815260746020526040902054156138ed576040517f08c379a000000000000000000000000000000000000000000000000000000000815260206004820152601760248201527f4f70657261746f7220616c7265616479206578697374730000000000000000006044820152606401610ab3565b73ffffffffffffffffffffffffffffffffffffffff831660009081526074602090815260408083208490556072825280832080547fffffffffffffffffffffffffffffffff00000000000000000000000000000000166fffffffffffffffffffffffffffffffff871690811790915583526073909152902061396f9084613a56565b506040805173ffffffffffffffffffffffffffffffffffffffff851681526fffffffffffffffffffffffffffffffff841660208201529081018290527f797ca55fc7be0f65c71f10996f7a16f801094f8ae3811874afc5a39730772a4290606001611568565b60335473ffffffffffffffffffffffffffffffffffffffff1633146118f8576040517f08c379a000000000000000000000000000000000000000000000000000000000815260206004820181905260248201527f4f776e61626c653a2063616c6c6572206973206e6f7420746865206f776e65726044820152606401610ab3565b60006138598373ffffffffffffffffffffffffffffffffffffffff8416614cc6565b73ffffffffffffffffffffffffffffffffffffffff83166000908152607460205260409020548214613b2c576040517f08c379a000000000000000000000000000000000000000000000000000000000815260206004820152602c60248201527f4f70657261746f7220646f6573206e6f7420706572666f726d2074686520726560448201527f7175657374656420726f6c6500000000000000000000000000000000000000006064820152608401610ab3565b73ffffffffffffffffffffffffffffffffffffffff8316600090815260018201602052604090205415613bbb576040517f08c379a000000000000000000000000000000000000000000000000000000000815260206004820152601b60248201527f4f70657261746f7220697320616c726561647920656e61626c656400000000006044820152606401610ab3565b73ffffffffffffffffffffffffffffffffffffffff83166000908152607260205260409020546fffffffffffffffffffffffffffffffff16613bfd8285613a56565b506fffffffffffffffffffffffffffffffff808216600090815260756020526040812080549092169190613c3083615a2c565b82546101009290920a6fffffffffffffffffffffffffffffffff818102199093169183160217909155828116600090815260756020526040902054166001039050613d0b576065546040517fedff4b610000000000000000000000000000000000000000000000000000000081526fffffffffffffffffffffffffffffffff8316600482015273ffffffffffffffffffffffffffffffffffffffff9091169063edff4b6190602401600060405180830381600087803b158015613cf257600080fd5b505af1158015613d06573d6000803e3d6000fd5b505050505b60405173ffffffffffffffffffffffffffffffffffffffff851681527f9e532d260bd7dde07708a6b1f7c64042546243d79bac23514cd74fcfc1a01fe49060200160405180910390a150505050565b33600090815260716020526040902054613dd0576040517f08c379a000000000000000000000000000000000000000000000000000000000815260206004820152601a60248201527f53656e646572206973206e6f742041554449544f525f524f4c450000000000006044820152606401610ab3565b600081613e025767ffffffffffffffff8087166000908152607a60209081526040808320938916835292905220613e29565b67ffffffffffffffff80871660009081526076602090815260408083209389168352929052205b600381015490915068010000000000000000900460ff16613ecc576040517f08c379a000000000000000000000000000000000000000000000000000000000815260206004820152602660248201527f53657373696f6e206d7573742062652066696e616c697a6564206265666f726560448201527f20617564697400000000000000000000000000000000000000000000000000006064820152608401610ab3565b610afd818787878787614d15565b600054610100900460ff16613f71576040517f08c379a000000000000000000000000000000000000000000000000000000000815260206004820152602b60248201527f496e697469616c697a61626c653a20636f6e7472616374206973206e6f74206960448201527f6e697469616c697a696e670000000000000000000000000000000000000000006064820152608401610ab3565b6118f86150d0565b60006138598383614cc6565b60006138598373ffffffffffffffffffffffffffffffffffffffff8416615170565b600081613fd95767ffffffffffffffff8085166000908152607a60209081526040808320938716835292905220614000565b67ffffffffffffffff80851660009081526076602090815260408083209387168352929052205b600381015490915067ffffffffffffffff1643811061407b576040517f08c379a000000000000000000000000000000000000000000000000000000000815260206004820152601960248201527f53657373696f6e206e6f74207061737420646561646c696e65000000000000006044820152606401610ab3565b600382015468010000000000000000900460ff16156140f6576040517f08c379a000000000000000000000000000000000000000000000000000000000815260206004820152601b60248201527f53657373696f6e2063616e6e6f742062652066696e616c697a656400000000006044820152606401610ab3565b8067ffffffffffffffff1660000361416a576040517f08c379a000000000000000000000000000000000000000000000000000000000815260206004820152601360248201527f53657373696f6e206e6f742073746172746564000000000000000000000000006044820152606401610ab3565b6000808080806001870181805b82548110156142355782818154811061419257614192615962565b6000918252602080832090910154808352908c905260408220909350905b6001820154811015614220578160010181815481106141d1576141d1615962565b6000918252602080832090910154808352908490526040909120549099506141f9818c615aee565b9a508881111561420d578098508497508996505b508061421881615991565b9150506141b0565b5050808061422d90615991565b915050614177565b5060695468010000000000000000900467ffffffffffffffff16851080159061427b57506066548761426f670de0b6b3a764000088615b06565b61427991906158bb565b115b156142935761428e898d8d87878f614d15565b614321565b89156142df5760405167ffffffffffffffff8c811682528d16907f8340aa7a5b37153230f8b64fa66f25c843e5002c60e63a25db6a9195005ccabd9060200160405180910390a2614321565b60405167ffffffffffffffff8c811682528d16907f31d16d882c6405d327fa305ecf0d52b45154868e0828822533fd2547f4b21a759060200160405180910390a25b505050600390950180547fffffffffffffffffffffffffffffffffffffffffffffff00000000000000000016680100000000000000001790555050505050505050565b73ffffffffffffffffffffffffffffffffffffffff83166000908152607460205260409020548214614418576040517f08c379a000000000000000000000000000000000000000000000000000000000815260206004820152602c60248201527f4f70657261746f7220646f6573206e6f7420706572666f726d2074686520726560448201527f7175657374656420726f6c6500000000000000000000000000000000000000006064820152608401610ab3565b73ffffffffffffffffffffffffffffffffffffffff831660009081526001820160205260409020541561444f5761444f838261459b565b73ffffffffffffffffffffffffffffffffffffffff83166000908152607260209081526040808320546fffffffffffffffffffffffffffffffff1683526073909152902061449d9084613f85565b5073ffffffffffffffffffffffffffffffffffffffff8316600081815260726020908152604080832080547fffffffffffffffffffffffffffffffff00000000000000000000000000000000169055607482528083209290925590519182527f80c0b871b97b595b16a7741c1b06fed0c6f6f558639f18ccbce50724325dc40d9101611568565b6033805473ffffffffffffffffffffffffffffffffffffffff8381167fffffffffffffffffffffffff0000000000000000000000000000000000000000831681179093556040519116919082907f8be0079c531659141344cd1fd0a4f28419497f9722a3daafe3b4186f6b6457e090600090a35050565b6145a58183613f85565b5073ffffffffffffffffffffffffffffffffffffffff82166000908152607260209081526040808320546fffffffffffffffffffffffffffffffff908116808552607590935290832080549293929091169161460083615b43565b82546101009290920a6fffffffffffffffffffffffffffffffff81810219909316918316021790915582811660009081526075602052604081205490911690039050610ae8576065546040517fad9e91ee0000000000000000000000000000000000000000000000000000000081526fffffffffffffffffffffffffffffffff8316600482015243602482015273ffffffffffffffffffffffffffffffffffffffff9091169063ad9e91ee90604401600060405180830381600087803b1580156146c957600080fd5b505af11580156146dd573d6000803e3d6000fd5b50505050505050565b600383015468010000000000000000900460ff1615614761576040517f08c379a000000000000000000000000000000000000000000000000000000000815260206004820152601f60248201527f53657373696f6e207375626d697373696f6e73206861766520636c6f736564006044820152606401610ab3565b6000846002015460675486600101544361477b9190615b8d565b6147859190615b06565b61478f91906158bb565b855461479b9190615aee565b60038601549091506000906fffffffffffffffffffffffffffffffff168210156147c65760006147e7565b60038601546147e7906fffffffffffffffffffffffffffffffff1683615b8d565b90508867ffffffffffffffff16811115801561482d5750600386015461481f906fffffffffffffffffffffffffffffffff1683615aee565b8967ffffffffffffffff1611155b6148b9576040517f08c379a000000000000000000000000000000000000000000000000000000000815260206004820152602b60248201527f426c6f636b20686569676874206973206f7574206f6620626f756e647320666f60448201527f72206c6976652073796e630000000000000000000000000000000000000000006064820152608401610ab3565b6069546148d09067ffffffffffffffff1643615aee565b6003860180547fffffffffffffffffffffffffffffffffffffffffffffffff00000000000000001667ffffffffffffffff92909216919091179055606554336000908152607260205260408082205490517f4c4a17090000000000000000000000000000000000000000000000000000000081526fffffffffffffffffffffffffffffffff90911660048201529091829173ffffffffffffffffffffffffffffffffffffffff90911690634c4a1709906024016040805180830381865afa15801561499f573d6000803e3d6000fd5b505050506040513d601f19601f820116820180604052508101906149c391906159c9565b91509150856149e657607b546fffffffffffffffffffffffffffffffff16614a10565b60685470010000000000000000000000000000000090046fffffffffffffffffffffffffffffffff165b6fffffffffffffffffffffffffffffffff16826fffffffffffffffffffffffffffffffff161015614a9d576040517f08c379a000000000000000000000000000000000000000000000000000000000815260206004820152601f60248201527f496e73756666696369656e746c79207374616b656420746f207375626d6974006044820152606401610ab3565b614aa781836159f8565b85546fffffffffffffffffffffffffffffffff9182167fffffffffffffffffffffffffffffffff00000000000000000000000000000000909116178655600188810180548083018255600091825260208083209091018e90558d82528a8152604080832080850180548087018255908552838520018f90558e8452808352908320805494850181558352912090910180547fffffffffffffffffffffffff000000000000000000000000000000000000000016331790558654909170010000000000000000000000000000000090910416866010614b8483615a2c565b91906101000a8154816fffffffffffffffffffffffffffffffff02191690836fffffffffffffffffffffffffffffffff160217905550508615614c1057600388015460405167ffffffffffffffff9182168152818e16918f16907f49caa59dfff8e73f72d249149e72487a67c49cf76549aed997c63963b436c3c29060200160405180910390a3614c5b565b600388015460405167ffffffffffffffff9182168152818e16918f16907f06a773d98907981dde2b75694bea53d9542cb1434717f5c66e699dee821a73249060200160405180910390a35b50505050505050505050505050565b606081600001805480602002602001604051908101604052809291908181526020018280548015614cba57602002820191906000526020600020905b815481526020019060010190808311614ca6575b50505050509050919050565b6000818152600183016020526040812054614d0d57508154600181810184556000848152602080822090930184905584548482528286019093526040902091909155611bae565b506000611bae565b60008381526020878152604080832085845290915281208054828167ffffffffffffffff811115614d4857614d48615ba4565b604051908082528060200260200182016040528015614d71578160200160208202803683370190505b50905060008267ffffffffffffffff811115614d8f57614d8f615ba4565b604051908082528060200260200182016040528015614db8578160200160208202803683370190505b509050600060028c01815b85811015614e4257816000888381548110614de057614de0615962565b600091825260208083209091015473ffffffffffffffffffffffffffffffffffffffff168352820192909252604001902054614e2e906fffffffffffffffffffffffffffffffff16846159f8565b925080614e3a81615991565b915050614dc3565b5060005b85811015614f6c57868181548110614e6057614e60615962565b600091825260208083209091015473ffffffffffffffffffffffffffffffffffffffff1680835284825260408084206072909352909220548751929a5090916fffffffffffffffffffffffffffffffff90911690879084908110614ec657614ec6615962565b6fffffffffffffffffffffffffffffffff9283166020918202929092010152606854825486831692614efb9281169116615b06565b614f0591906158bb565b858381518110614f1757614f17615962565b6fffffffffffffffffffffffffffffffff92831660209182029290920101528154700100000000000000000000000000000000900416600103614f5957600081555b5080614f6481615991565b915050614e46565b506065546040517f605a501700000000000000000000000000000000000000000000000000000000815273ffffffffffffffffffffffffffffffffffffffff9091169063605a501790614fc59087908790600401615c15565b600060405180830381600087803b158015614fdf57600080fd5b505af1158015614ff3573d6000803e3d6000fd5b50505050871561505257898b67ffffffffffffffff168d67ffffffffffffffff167ff05ac779af1ec75a7b2fbe9415b33a67c00294a121786f7ce2eb3f92e4a6424a8c60405161504591815260200190565b60405180910390a46150a3565b898b67ffffffffffffffff168d67ffffffffffffffff167f93dcf9329a330cb95723152c05719560f2fbd50e215c542854b27acc80c9108d8c60405161509a91815260200190565b60405180910390a45b60008a815260208e905260408120906150bf6001830182615305565b505050505050505050505050505050565b600054610100900460ff16615167576040517f08c379a000000000000000000000000000000000000000000000000000000000815260206004820152602b60248201527f496e697469616c697a61626c653a20636f6e7472616374206973206e6f74206960448201527f6e697469616c697a696e670000000000000000000000000000000000000000006064820152608401610ab3565b6118f833614524565b60008181526001830160205260408120548015615259576000615194600183615b8d565b85549091506000906151a890600190615b8d565b905081811461520d5760008660000182815481106151c8576151c8615962565b90600052602060002001549050808760000184815481106151eb576151eb615962565b6000918252602080832090910192909255918252600188019052604090208390555b855486908061521e5761521e615c43565b600190038181906000526020600020016000905590558560010160008681526020019081526020016000206000905560019350505050611bae565b6000915050611bae565b82805461526f906158e8565b90600052602060002090601f01602090048101928261529157600085556152f5565b82601f106152c8578280017fffffffffffffffffffffffffffffffffffffffffffffffffffffffffffffff008235161785556152f5565b828001600101855582156152f5579182015b828111156152f55782358255916020019190600101906152da565b5061530192915061531f565b5090565b50805460008255906000526020600020908101906118e391905b5b808211156153015760008155600101615320565b73ffffffffffffffffffffffffffffffffffffffff811681146118e357600080fd5b60006020828403121561536857600080fd5b813561385981615334565b803567ffffffffffffffff8116811461538b57600080fd5b919050565b60008060008060008060a087890312156153a957600080fd5b6153b287615373565b95506153c060208801615373565b94506040870135935060608701359250608087013567ffffffffffffffff808211156153eb57600080fd5b818901915089601f8301126153ff57600080fd5b81358181111561540e57600080fd5b8a602082850101111561542057600080fd5b6020830194508093505050509295509295509295565b600081518084526020808501945080840160005b8381101561547c57815173ffffffffffffffffffffffffffffffffffffffff168752958201959082019060010161544a565b509495945050505050565b6fffffffffffffffffffffffffffffffff831681526040602082015260006154b26040830184615436565b949350505050565b6fffffffffffffffffffffffffffffffff811681146118e357600080fd5b600080604083850312156154eb57600080fd5b82356154f681615334565b91506020830135615506816154ba565b809150509250929050565b6000806040838503121561552457600080fd5b61552d83615373565b915061553b60208401615373565b90509250929050565b60006020828403121561555657600080fd5b61385982615373565b6000806000806080858703121561557557600080fd5b61557e85615373565b935061558c60208601615373565b93969395505050506040820135916060013590565b6000602082840312156155b357600080fd5b5035919050565b600080604083850312156155cd57600080fd5b82356155d881615334565b9150602083013561550681615334565b6000602082840312156155fa57600080fd5b8135613859816154ba565b6000806000806080858703121561561b57600080fd5b61562485615373565b966020860135965060408601359560600135945092505050565b6000806040838503121561565157600080fd5b823561565c816154ba565b946020939093013593505050565b6000806000806080858703121561568057600080fd5b61568985615373565b935061569760208601615373565b9250604085013580151581146156ac57600080fd5b915060608501356156bc81615334565b939692955090935050565b6020815260006138596020830184615436565b6000602080830181845280855180835260408601915060408160051b87010192508387016000805b838110156157a3577fffffffffffffffffffffffffffffffffffffffffffffffffffffffffffffffc089870301855282518051808852835b81811015615755578281018a01518982018b0152890161573a565b8181111561576557848a838b0101525b50601f017fffffffffffffffffffffffffffffffffffffffffffffffffffffffffffffffe01696909601870195509386019391860191600101615702565b509398975050505050505050565b6080815260006157c46080830187615436565b82810360208401526157d68187615436565b905082810360408401526157ea8186615436565b905082810360608401526157fe8185615436565b979650505050505050565b6000806000806080858703121561581f57600080fd5b845161582a81615334565b602086015190945061583b816154ba565b604086015190935061584c816154ba565b60608601519092506156bc816154ba565b7f4e487b7100000000000000000000000000000000000000000000000000000000600052601260045260246000fd5b7f4e487b7100000000000000000000000000000000000000000000000000000000600052601160045260246000fd5b6000826158ca576158ca61585d565b500490565b6000602082840312156158e157600080fd5b5051919050565b600181811c908216806158fc57607f821691505b602082108103615935577f4e487b7100000000000000000000000000000000000000000000000000000000600052602260045260246000fd5b50919050565b600067ffffffffffffffff808416806159565761595661585d565b92169190910692915050565b7f4e487b7100000000000000000000000000000000000000000000000000000000600052603260045260246000fd5b60007fffffffffffffffffffffffffffffffffffffffffffffffffffffffffffffffff82036159c2576159c261588c565b5060010190565b600080604083850312156159dc57600080fd5b82516159e7816154ba565b6020840151909250615506816154ba565b60006fffffffffffffffffffffffffffffffff808316818516808303821115615a2357615a2361588c565b01949350505050565b60006fffffffffffffffffffffffffffffffff808316818103615a5157615a5161588c565b6001019392505050565b600067ffffffffffffffff808a16835280891660208401525086604083015285606083015260c060808301528360c0830152838560e0840137600060e0858401015260e07fffffffffffffffffffffffffffffffffffffffffffffffffffffffffffffffe0601f86011683010190506fffffffffffffffffffffffffffffffff831660a083015298975050505050505050565b60008219821115615b0157615b0161588c565b500190565b6000817fffffffffffffffffffffffffffffffffffffffffffffffffffffffffffffffff0483118215151615615b3e57615b3e61588c565b500290565b60006fffffffffffffffffffffffffffffffff821680615b6557615b6561588c565b7fffffffffffffffffffffffffffffffffffffffffffffffffffffffffffffffff0192915050565b600082821015615b9f57615b9f61588c565b500390565b7f4e487b7100000000000000000000000000000000000000000000000000000000600052604160045260246000fd5b600081518084526020808501945080840160005b8381101561547c5781516fffffffffffffffffffffffffffffffff1687529582019590820190600101615be7565b604081526000615c286040830185615bd3565b8281036020840152615c3a8185615bd3565b95945050505050565b7f4e487b7100000000000000000000000000000000000000000000000000000000600052603160045260246000fdfea264697066735822122046e0a8f3fd2d2197b633d9c2b5872f97478a01643657c19d9bfe2b2600804a8964736f6c634300080d0033",
  "linkReferences": {},
  "deployedLinkReferences": {}
}