{
  "_format": "hh-sol-artifact-1",
  "contractName": "BlockResultProofChain",
  "sourceName": "contracts/BlockSpecimenProofChain.sol",
  "abi": [
    {
      "anonymous": false,
      "inputs": [
        {
          "indexed": true,
          "internalType": "uint64",
          "name": "chainId",
          "type": "uint64"
        },
        {
          "indexed": false,
          "internalType": "uint64",
          "name": "threshold",
          "type": "uint64"
        }
      ],
      "name": "BlockHeightSubmissionThresholdChanged",
      "type": "event"
    },
    {
      "anonymous": false,
      "inputs": [
        {
          "indexed": false,
          "internalType": "uint64",
          "name": "chainId",
          "type": "uint64"
        },
        {
          "indexed": false,
          "internalType": "uint64",
          "name": "blockHeight",
          "type": "uint64"
        },
        {
          "indexed": false,
          "internalType": "bytes32",
          "name": "blockSpecimenHash",
          "type": "bytes32"
        },
        {
          "indexed": false,
          "internalType": "bytes32",
          "name": "resultHash",
          "type": "bytes32"
        },
        {
          "indexed": false,
          "internalType": "string",
          "name": "storageURL",
          "type": "string"
        },
        {
          "indexed": false,
          "internalType": "uint128",
          "name": "submittedStake",
          "type": "uint128"
        }
      ],
      "name": "BlockResultProductionProofSubmitted",
      "type": "event"
    },
    {
      "anonymous": false,
      "inputs": [
        {
          "indexed": true,
          "internalType": "uint64",
          "name": "chainId",
          "type": "uint64"
        },
        {
          "indexed": true,
          "internalType": "uint64",
          "name": "blockHeight",
          "type": "uint64"
        },
        {
          "indexed": true,
          "internalType": "bytes32",
          "name": "blockSpecimenHash",
          "type": "bytes32"
        },
        {
          "indexed": false,
          "internalType": "bytes32",
          "name": "resulthash",
          "type": "bytes32"
        }
      ],
      "name": "BlockResultRewardAwarded",
      "type": "event"
    },
    {
      "anonymous": false,
      "inputs": [
        {
          "indexed": false,
          "internalType": "uint128",
          "name": "newBlockResultRewardAllocation",
          "type": "uint128"
        }
      ],
      "name": "BlockResultRewardChanged",
      "type": "event"
    },
    {
      "anonymous": false,
      "inputs": [
        {
          "indexed": true,
          "internalType": "uint64",
          "name": "chainId",
          "type": "uint64"
        },
        {
          "indexed": false,
          "internalType": "uint256",
          "name": "blockOnTargetChain",
          "type": "uint256"
        },
        {
          "indexed": false,
          "internalType": "uint256",
          "name": "blockOnCurrentChain",
          "type": "uint256"
        },
        {
          "indexed": false,
          "internalType": "uint256",
          "name": "secondsPerBlock",
          "type": "uint256"
        }
      ],
      "name": "ChainSyncDataChanged",
      "type": "event"
    },
    {
      "anonymous": false,
      "inputs": [
        {
          "indexed": false,
          "internalType": "uint8",
          "name": "version",
          "type": "uint8"
        }
      ],
      "name": "Initialized",
      "type": "event"
    },
    {
      "anonymous": false,
      "inputs": [
        {
          "indexed": false,
          "internalType": "uint256",
          "name": "maxSubmissions",
          "type": "uint256"
        }
      ],
      "name": "MaxSubmissionsPerBlockHeightChanged",
      "type": "event"
    },
    {
      "anonymous": false,
      "inputs": [
        {
          "indexed": false,
          "internalType": "uint128",
          "name": "newStakeRequirement",
          "type": "uint128"
        }
      ],
      "name": "MinimumRequiredStakeChanged",
      "type": "event"
    },
    {
      "anonymous": false,
      "inputs": [
        {
          "indexed": true,
          "internalType": "uint64",
          "name": "chainId",
          "type": "uint64"
        },
        {
          "indexed": true,
          "internalType": "uint64",
          "name": "nthBlock",
          "type": "uint64"
        }
      ],
      "name": "NthBlockChanged",
      "type": "event"
    },
    {
      "anonymous": false,
      "inputs": [
        {
          "indexed": false,
          "internalType": "address",
          "name": "operator",
          "type": "address"
        },
        {
          "indexed": false,
          "internalType": "uint128",
          "name": "validatorId",
          "type": "uint128"
        },
        {
          "indexed": false,
          "internalType": "bytes32",
          "name": "role",
          "type": "bytes32"
        }
      ],
      "name": "OperatorAdded",
      "type": "event"
    },
    {
      "anonymous": false,
      "inputs": [
        {
          "indexed": false,
          "internalType": "address",
          "name": "operator",
          "type": "address"
        }
      ],
      "name": "OperatorDisabled",
      "type": "event"
    },
    {
      "anonymous": false,
      "inputs": [
        {
          "indexed": false,
          "internalType": "address",
          "name": "operator",
          "type": "address"
        }
      ],
      "name": "OperatorEnabled",
      "type": "event"
    },
    {
      "anonymous": false,
      "inputs": [
        {
          "indexed": false,
          "internalType": "address",
          "name": "operator",
          "type": "address"
        }
      ],
      "name": "OperatorRemoved",
      "type": "event"
    },
    {
      "anonymous": false,
      "inputs": [
        {
          "indexed": true,
          "internalType": "address",
          "name": "previousOwner",
          "type": "address"
        },
        {
          "indexed": true,
          "internalType": "address",
          "name": "newOwner",
          "type": "address"
        }
      ],
      "name": "OwnershipTransferred",
      "type": "event"
    },
    {
      "anonymous": false,
      "inputs": [
        {
          "indexed": true,
          "internalType": "uint64",
          "name": "chainId",
          "type": "uint64"
        },
        {
          "indexed": false,
          "internalType": "uint64",
          "name": "blockHeight",
          "type": "uint64"
        }
      ],
      "name": "QuorumNotReached",
      "type": "event"
    },
    {
      "anonymous": false,
      "inputs": [
        {
          "indexed": false,
          "internalType": "uint64",
          "name": "newSessionDuration",
          "type": "uint64"
        }
      ],
      "name": "ResultSessionDurationChanged",
      "type": "event"
    },
    {
      "anonymous": false,
      "inputs": [
        {
          "indexed": false,
          "internalType": "uint64",
          "name": "minSubmissions",
          "type": "uint64"
        }
      ],
      "name": "ResultSessionMinSubmissionChanged",
      "type": "event"
    },
    {
      "anonymous": false,
      "inputs": [
        {
          "indexed": false,
          "internalType": "uint256",
          "name": "newQuorumThreshold",
          "type": "uint256"
        }
      ],
      "name": "ResultSessionQuorumChanged",
      "type": "event"
    },
    {
      "anonymous": false,
      "inputs": [
        {
          "indexed": true,
          "internalType": "uint64",
          "name": "secondsPerBlock",
          "type": "uint64"
        }
      ],
      "name": "SecondsPerBlockChanged",
      "type": "event"
    },
    {
      "anonymous": false,
      "inputs": [
        {
          "indexed": true,
          "internalType": "uint64",
          "name": "chainId",
          "type": "uint64"
        },
        {
          "indexed": true,
          "internalType": "uint64",
          "name": "blockHeight",
          "type": "uint64"
        },
        {
          "indexed": false,
          "internalType": "uint64",
          "name": "deadline",
          "type": "uint64"
        }
      ],
      "name": "SessionStarted",
      "type": "event"
    },
    {
      "anonymous": false,
      "inputs": [
        {
          "indexed": false,
          "internalType": "address",
          "name": "newInterfaceAddress",
          "type": "address"
        }
      ],
      "name": "StakingInterfaceChanged",
      "type": "event"
    },
    {
      "inputs": [],
      "name": "AUDITOR_ROLE",
      "outputs": [
        {
          "internalType": "bytes32",
          "name": "",
          "type": "bytes32"
        }
      ],
      "stateMutability": "view",
      "type": "function"
    },
    {
      "inputs": [],
      "name": "BLOCK_RESULT_PRODUCER_ROLE",
      "outputs": [
        {
          "internalType": "bytes32",
          "name": "",
          "type": "bytes32"
        }
      ],
      "stateMutability": "view",
      "type": "function"
    },
    {
      "inputs": [],
      "name": "GOVERNANCE_ROLE",
      "outputs": [
        {
          "internalType": "bytes32",
          "name": "",
          "type": "bytes32"
        }
      ],
      "stateMutability": "view",
      "type": "function"
    },
    {
      "inputs": [
        {
          "internalType": "address",
          "name": "auditor",
          "type": "address"
        }
      ],
      "name": "addAuditor",
      "outputs": [],
      "stateMutability": "nonpayable",
      "type": "function"
    },
    {
      "inputs": [
        {
          "internalType": "address",
          "name": "operator",
          "type": "address"
        },
        {
          "internalType": "uint128",
          "name": "validatorId",
          "type": "uint128"
        }
      ],
      "name": "addBRPOperator",
      "outputs": [],
      "stateMutability": "nonpayable",
      "type": "function"
    },
    {
      "inputs": [
        {
          "internalType": "address",
          "name": "governor",
          "type": "address"
        }
      ],
      "name": "addGovernor",
      "outputs": [],
      "stateMutability": "nonpayable",
      "type": "function"
    },
    {
      "inputs": [
        {
          "internalType": "address",
          "name": "validator",
          "type": "address"
        },
        {
          "internalType": "uint128",
          "name": "commissionRate",
          "type": "uint128"
        }
      ],
      "name": "addValidator",
      "outputs": [],
      "stateMutability": "nonpayable",
      "type": "function"
    },
    {
      "inputs": [
        {
          "internalType": "uint64",
          "name": "chainId",
          "type": "uint64"
        },
        {
          "internalType": "uint64",
          "name": "blockHeight",
          "type": "uint64"
        },
        {
          "internalType": "bytes32",
          "name": "blockSpecimenHash",
          "type": "bytes32"
        },
        {
          "internalType": "bytes32",
          "name": "definitiveResultHash",
          "type": "bytes32"
        }
      ],
      "name": "arbitrateBlockResultSession",
      "outputs": [],
      "stateMutability": "nonpayable",
      "type": "function"
    },
    {
      "inputs": [
        {
          "internalType": "address",
          "name": "operator",
          "type": "address"
        }
      ],
      "name": "disableBRPOperator",
      "outputs": [],
      "stateMutability": "nonpayable",
      "type": "function"
    },
    {
      "inputs": [
        {
          "internalType": "uint128",
          "name": "validatorId",
          "type": "uint128"
        },
        {
          "internalType": "uint256",
          "name": "blockNumber",
          "type": "uint256"
        }
      ],
      "name": "disableValidator",
      "outputs": [],
      "stateMutability": "nonpayable",
      "type": "function"
    },
    {
      "inputs": [
        {
          "internalType": "address",
          "name": "operator",
          "type": "address"
        }
      ],
      "name": "enableBRPOperator",
      "outputs": [],
      "stateMutability": "nonpayable",
      "type": "function"
    },
    {
      "inputs": [
        {
          "internalType": "uint64",
          "name": "chainId",
          "type": "uint64"
        },
        {
          "internalType": "uint64",
          "name": "blockHeight",
          "type": "uint64"
        }
      ],
      "name": "finalizeAndRewardResultSession",
      "outputs": [],
      "stateMutability": "nonpayable",
      "type": "function"
    },
    {
      "inputs": [],
      "name": "getAllOperators",
      "outputs": [
        {
          "internalType": "address[]",
          "name": "_brps",
          "type": "address[]"
        },
        {
          "internalType": "address[]",
          "name": "__governors",
          "type": "address[]"
        },
        {
          "internalType": "address[]",
          "name": "__auditors",
          "type": "address[]"
        }
      ],
      "stateMutability": "view",
      "type": "function"
    },
    {
      "inputs": [],
      "name": "getBRPRoleData",
      "outputs": [
        {
          "internalType": "uint128",
          "name": "requiredStake",
          "type": "uint128"
        },
        {
          "internalType": "address[]",
          "name": "activeMembers",
          "type": "address[]"
        }
      ],
      "stateMutability": "view",
      "type": "function"
    },
    {
      "inputs": [
        {
          "internalType": "uint64",
          "name": "chainId",
          "type": "uint64"
        }
      ],
      "name": "getChainData",
      "outputs": [
        {
          "internalType": "uint256",
          "name": "blockOnTargetChain",
          "type": "uint256"
        },
        {
          "internalType": "uint256",
          "name": "blockOnCurrentChain",
          "type": "uint256"
        },
        {
          "internalType": "uint256",
          "name": "secondsPerBlock",
          "type": "uint256"
        },
        {
          "internalType": "uint128",
          "name": "allowedThreshold",
          "type": "uint128"
        },
        {
          "internalType": "uint128",
          "name": "maxSubmissionsPerBlockHeight",
          "type": "uint128"
        },
        {
          "internalType": "uint64",
          "name": "nthBlock",
          "type": "uint64"
        }
      ],
      "stateMutability": "view",
      "type": "function"
    },
    {
      "inputs": [],
      "name": "getMetadata",
      "outputs": [
        {
          "internalType": "address",
          "name": "stakingInterface",
          "type": "address"
        },
        {
          "internalType": "uint128",
          "name": "blockResultRewardAllocation",
          "type": "uint128"
        },
        {
          "internalType": "uint64",
          "name": "blockResultSessionDuration",
          "type": "uint64"
        },
        {
          "internalType": "uint64",
          "name": "minSubmissionsRequired",
          "type": "uint64"
        },
        {
          "internalType": "uint256",
          "name": "blockResultQuorum",
          "type": "uint256"
        },
        {
          "internalType": "uint256",
          "name": "secondsPerBlock",
          "type": "uint256"
        }
      ],
      "stateMutability": "view",
      "type": "function"
    },
    {
      "inputs": [
        {
          "internalType": "uint128",
          "name": "validatorId",
          "type": "uint128"
        }
      ],
      "name": "getOperators",
      "outputs": [
        {
          "internalType": "address[]",
          "name": "",
          "type": "address[]"
        }
      ],
      "stateMutability": "view",
      "type": "function"
    },
    {
      "inputs": [
        {
          "internalType": "bytes32",
          "name": "resulthash",
          "type": "bytes32"
        }
      ],
      "name": "getURLS",
      "outputs": [
        {
          "internalType": "string[]",
          "name": "",
          "type": "string[]"
        }
      ],
      "stateMutability": "view",
      "type": "function"
    },
    {
      "inputs": [
        {
          "internalType": "address",
          "name": "initialOwner",
          "type": "address"
        },
        {
          "internalType": "address",
          "name": "stakingContract",
          "type": "address"
        }
      ],
      "name": "initialize",
      "outputs": [],
      "stateMutability": "nonpayable",
      "type": "function"
    },
    {
      "inputs": [
        {
          "internalType": "address",
          "name": "operator",
          "type": "address"
        }
      ],
      "name": "isEnabled",
      "outputs": [
        {
          "internalType": "bool",
          "name": "",
          "type": "bool"
        }
      ],
      "stateMutability": "view",
      "type": "function"
    },
    {
      "inputs": [
        {
          "internalType": "uint64",
          "name": "chainId",
          "type": "uint64"
        },
        {
          "internalType": "uint64",
          "name": "blockHeight",
          "type": "uint64"
        },
        {
          "internalType": "address",
          "name": "operator",
          "type": "address"
        }
      ],
      "name": "isSessionOpen",
      "outputs": [
        {
          "internalType": "bool",
          "name": "",
          "type": "bool"
        }
      ],
      "stateMutability": "view",
      "type": "function"
    },
    {
      "inputs": [
        {
          "internalType": "address",
          "name": "",
          "type": "address"
        }
      ],
      "name": "operatorRoles",
      "outputs": [
        {
          "internalType": "bytes32",
          "name": "",
          "type": "bytes32"
        }
      ],
      "stateMutability": "view",
      "type": "function"
    },
    {
      "inputs": [],
      "name": "owner",
      "outputs": [
        {
          "internalType": "address",
          "name": "",
          "type": "address"
        }
      ],
      "stateMutability": "view",
      "type": "function"
    },
    {
      "inputs": [
        {
          "internalType": "address",
          "name": "auditor",
          "type": "address"
        }
      ],
      "name": "removeAuditor",
      "outputs": [],
      "stateMutability": "nonpayable",
      "type": "function"
    },
    {
      "inputs": [
        {
          "internalType": "address",
          "name": "operator",
          "type": "address"
        }
      ],
      "name": "removeBRPOperator",
      "outputs": [],
      "stateMutability": "nonpayable",
      "type": "function"
    },
    {
      "inputs": [
        {
          "internalType": "address",
          "name": "governor",
          "type": "address"
        }
      ],
      "name": "removeGovernor",
      "outputs": [],
      "stateMutability": "nonpayable",
      "type": "function"
    },
    {
      "inputs": [],
      "name": "renounceOwnership",
      "outputs": [],
      "stateMutability": "nonpayable",
      "type": "function"
    },
    {
      "inputs": [
        {
          "internalType": "uint128",
          "name": "newStakeAmount",
          "type": "uint128"
        }
      ],
      "name": "setBRPRequiredStake",
      "outputs": [],
      "stateMutability": "nonpayable",
      "type": "function"
    },
    {
      "inputs": [
        {
          "internalType": "uint64",
          "name": "chainId",
          "type": "uint64"
        },
        {
          "internalType": "uint64",
          "name": "threshold",
          "type": "uint64"
        }
      ],
      "name": "setBlockHeightSubmissionsThreshold",
      "outputs": [],
      "stateMutability": "nonpayable",
      "type": "function"
    },
    {
      "inputs": [
        {
          "internalType": "uint128",
          "name": "newBlockResultReward",
          "type": "uint128"
        }
      ],
      "name": "setBlockResultReward",
      "outputs": [],
      "stateMutability": "nonpayable",
      "type": "function"
    },
    {
      "inputs": [
        {
          "internalType": "uint64",
          "name": "newSessionDuration",
          "type": "uint64"
        }
      ],
      "name": "setBlockResultSessionDuration",
      "outputs": [],
      "stateMutability": "nonpayable",
      "type": "function"
    },
    {
      "inputs": [
        {
          "internalType": "uint64",
          "name": "chainId",
          "type": "uint64"
        },
        {
          "internalType": "uint256",
          "name": "blockOnTargetChain",
          "type": "uint256"
        },
        {
          "internalType": "uint256",
          "name": "blockOnCurrentChain",
          "type": "uint256"
        },
        {
          "internalType": "uint256",
          "name": "secondsPerBlock",
          "type": "uint256"
        }
      ],
      "name": "setChainSyncData",
      "outputs": [],
      "stateMutability": "nonpayable",
      "type": "function"
    },
    {
      "inputs": [
        {
          "internalType": "uint64",
          "name": "chainId",
          "type": "uint64"
        },
        {
          "internalType": "uint64",
          "name": "maxSubmissions",
          "type": "uint64"
        }
      ],
      "name": "setMaxSubmissionsPerBlockHeight",
      "outputs": [],
      "stateMutability": "nonpayable",
      "type": "function"
    },
    {
      "inputs": [
        {
          "internalType": "uint64",
          "name": "minSubmissions",
          "type": "uint64"
        }
      ],
      "name": "setMinSubmissionsRequired",
      "outputs": [],
      "stateMutability": "nonpayable",
      "type": "function"
    },
    {
      "inputs": [
        {
          "internalType": "uint64",
          "name": "chainId",
          "type": "uint64"
        },
        {
          "internalType": "uint64",
          "name": "n",
          "type": "uint64"
        }
      ],
      "name": "setNthBlock",
      "outputs": [],
      "stateMutability": "nonpayable",
      "type": "function"
    },
    {
      "inputs": [
        {
          "internalType": "uint256",
          "name": "quorum",
          "type": "uint256"
        }
      ],
      "name": "setQuorumThreshold",
      "outputs": [],
      "stateMutability": "nonpayable",
      "type": "function"
    },
    {
      "inputs": [
        {
          "internalType": "uint64",
          "name": "secondsPerBlock",
          "type": "uint64"
        }
      ],
      "name": "setSecondsPerBlock",
      "outputs": [],
      "stateMutability": "nonpayable",
      "type": "function"
    },
    {
      "inputs": [
        {
          "internalType": "address",
          "name": "stakingContractAddress",
          "type": "address"
        }
      ],
      "name": "setStakingInterface",
      "outputs": [],
      "stateMutability": "nonpayable",
      "type": "function"
    },
    {
      "inputs": [
        {
          "internalType": "uint64",
          "name": "chainId",
          "type": "uint64"
        },
        {
          "internalType": "uint64",
          "name": "blockHeight",
          "type": "uint64"
        },
        {
          "internalType": "bytes32",
          "name": "blockSpecimenHash",
          "type": "bytes32"
        },
        {
          "internalType": "bytes32",
          "name": "resultHash",
          "type": "bytes32"
        },
        {
          "internalType": "string",
          "name": "storageURL",
          "type": "string"
        }
      ],
      "name": "submitBlockResultProof",
      "outputs": [],
      "stateMutability": "nonpayable",
      "type": "function"
    },
    {
      "inputs": [
        {
          "internalType": "address",
          "name": "newOwner",
          "type": "address"
        }
      ],
      "name": "transferOwnership",
      "outputs": [],
      "stateMutability": "nonpayable",
      "type": "function"
    },
    {
      "inputs": [
        {
          "internalType": "address",
          "name": "",
          "type": "address"
        }
      ],
      "name": "validatorIDs",
      "outputs": [
        {
          "internalType": "uint128",
          "name": "",
          "type": "uint128"
        }
      ],
      "stateMutability": "view",
      "type": "function"
    }
  ],
  "bytecode": "0x608060405234801561001057600080fd5b5061502d806100206000396000f3fe608060405234801561001057600080fd5b50600436106102d35760003560e01c80638cb0356e11610186578063c3846789116100e3578063e320140911610097578063eecdac8811610071578063eecdac88146107f9578063f2fde38b1461080c578063f36c8f5c1461081f57600080fd5b8063e3201409146107c0578063e429cef1146107d3578063e6116cfd146107e657600080fd5b8063d5839da9116100c8578063d5839da914610776578063d911c63214610796578063dd36a8d5146107ad57600080fd5b8063c384678914610743578063d3a8b2a81461075657600080fd5b8063991462841161013a578063ad9e91ee1161011f578063ad9e91ee1461070a578063ba75fd2f1461071d578063c0e745d21461073057600080fd5b806399146284146106e4578063a2e7e441146106f757600080fd5b80639015d3711161016b5780639015d37114610698578063920036b7146106bb57806393742b56146106d157600080fd5b80638cb0356e1461065d5780638da5cb5b1461067057600080fd5b806355791fea116102345780636b7511cb116101e8578063715018a6116101cd578063715018a61461058157806372ab8568146105895780637a5b4f591461059c57600080fd5b80636b7511cb146105475780636e1d616e1461055a57600080fd5b80636543413a116102195780636543413a1461050157806367585e44146105145780636ab9d8e81461052757600080fd5b806355791fea146104db5780635a5e84f2146104ee57600080fd5b806341c1278d1161028b5780634524c7e1116102705780634524c7e1146103c6578063485cc955146103d957806354cfa69f146103ec57600080fd5b806341c1278d1461037e57806341ca4a55146103b357600080fd5b80632c58ed42116102bc5780632c58ed42146103455780633646aded146103585780633c4a25d01461036b57600080fd5b80630d92f4ed146102d8578063222388c214610330575b600080fd5b61030a6102e63660046146fb565b6072602052600090815260409020546fffffffffffffffffffffffffffffffff1681565b6040516fffffffffffffffffffffffffffffffff90911681526020015b60405180910390f35b61034361033e366004614736565b610846565b005b61034361035336600461478c565b610a7b565b6103436103663660046146fb565b610b6f565b6103436103793660046146fb565b610c5a565b6103a57f77ae3b5d012484be69eeed881350adb3189b651fac6e88b31ddff30c833a8b7f81565b604051908152602001610327565b6103436103c13660046146fb565b610db9565b6103436103d43660046147bf565b6111b9565b6103436103e73660046147d8565b61125f565b61048f6103fa366004614806565b67ffffffffffffffff908116600090815260776020908152604091829020825160c08101845281548082526001830154938201849052600283015494820185905260038301546fffffffffffffffffffffffffffffffff80821660608501819052700100000000000000000000000000000000909204166080840181905260049094015490961660a090920182905295929492565b604080519687526020870195909552938501929092526fffffffffffffffffffffffffffffffff908116606085015216608083015267ffffffffffffffff1660a082015260c001610327565b6103436104e9366004614806565b61159b565b6103436104fc366004614821565b611673565b61034361050f36600461483e565b611753565b61034361052236600461478c565b612495565b6103a56105353660046146fb565b60746020526000908152604090205481565b6103436105553660046146fb565b612585565b6103a57f59a1c48e5837ad7a7f3dcedcbe129bf3249ec4fbf651fd4f5e2600ead39fe2f581565b610343612792565b6103436105973660046146fb565b6127a6565b6105fa60655460685460695460665460675473ffffffffffffffffffffffffffffffffffffffff909416946fffffffffffffffffffffffffffffffff9093169367ffffffffffffffff80841694680100000000000000009094041692565b6040805173ffffffffffffffffffffffffffffffffffffffff90971687526fffffffffffffffffffffffffffffffff909516602087015267ffffffffffffffff9384169486019490945291166060840152608083015260a082015260c001610327565b61034361066b36600461478c565b612a54565b60335460405173ffffffffffffffffffffffffffffffffffffffff9091168152602001610327565b6106ab6106a63660046146fb565b612d87565b6040519015158152602001610327565b6106c3612d9a565b604051610327929190614935565b6103436106df366004614806565b612ddb565b6103436106f2366004614968565b612ec1565b610343610705366004614736565b613017565b6103436107183660046149a1565b613136565b6106ab61072b3660046149cd565b613248565b61034361073e366004614821565b613333565b610343610751366004614a14565b613408565b610769610764366004614821565b613553565b6040516103279190614a56565b6107896107843660046147bf565b613580565b6040516103279190614a69565b61079e61366c565b60405161032793929190614b40565b6103436107bb366004614806565b61369a565b6103436107ce36600461478c565b613747565b6103436107e13660046146fb565b61382b565b6103436107f43660046146fb565b6139f3565b6103436108073660046146fb565b613b8a565b61034361081a3660046146fb565b613c71565b6103a57f71840dc4906352362b0cdaf79870196c8e42acafade72d5d5a6d59291253ceb181565b610851606e33613d28565b6108bc576040517f08c379a000000000000000000000000000000000000000000000000000000000815260206004820152601d60248201527f53656e646572206973206e6f7420474f5645524e414e43455f524f4c4500000060448201526064015b60405180910390fd5b73ffffffffffffffffffffffffffffffffffffffff821660009081526074602052604090205415610949576040517f08c379a000000000000000000000000000000000000000000000000000000000815260206004820152601760248201527f4f70657261746f7220616c72656164792065786973747300000000000000000060448201526064016108b3565b73ffffffffffffffffffffffffffffffffffffffff821660009081526074602090815260408083207f77ae3b5d012484be69eeed881350adb3189b651fac6e88b31ddff30c833a8b7f90556072825280832080547fffffffffffffffffffffffffffffffff00000000000000000000000000000000166fffffffffffffffffffffffffffffffff86169081179091558352607390915290206109eb9083613d5a565b506040805173ffffffffffffffffffffffffffffffffffffffff841681526fffffffffffffffffffffffffffffffff831660208201527f77ae3b5d012484be69eeed881350adb3189b651fac6e88b31ddff30c833a8b7f918101919091527f797ca55fc7be0f65c71f10996f7a16f801094f8ae3811874afc5a39730772a42906060015b60405180910390a15050565b610a86606e33613d28565b610aec576040517f08c379a000000000000000000000000000000000000000000000000000000000815260206004820152601d60248201527f53656e646572206973206e6f7420474f5645524e414e43455f524f4c4500000060448201526064016108b3565b67ffffffffffffffff82811660008181526077602090815260409182902060030180547fffffffffffffffffffffffffffffffff00000000000000000000000000000000169486169485179055905192835290917f4e4c0afc3a2b327c2f061f8ff5190a491f1042ba8f292a887bab97840947b7a9910160405180910390a25050565b610b7a606e33613d28565b610be0576040517f08c379a000000000000000000000000000000000000000000000000000000000815260206004820152601d60248201527f53656e646572206973206e6f7420474f5645524e414e43455f524f4c4500000060448201526064016108b3565b606580547fffffffffffffffffffffffff00000000000000000000000000000000000000001673ffffffffffffffffffffffffffffffffffffffff83169081179091556040519081527f70016f37fc9a299f674d1e3083a27743406649810887ed947a79884b064d2de9906020015b60405180910390a150565b610c62613d7c565b73ffffffffffffffffffffffffffffffffffffffff811660009081526074602052604090205415610cef576040517f08c379a000000000000000000000000000000000000000000000000000000000815260206004820152601760248201527f4f70657261746f7220616c72656164792065786973747300000000000000000060448201526064016108b3565b73ffffffffffffffffffffffffffffffffffffffff811660009081526074602052604090207f71840dc4906352362b0cdaf79870196c8e42acafade72d5d5a6d59291253ceb19055610d42606e82613d5a565b506040805173ffffffffffffffffffffffffffffffffffffffff83168152600060208201527f71840dc4906352362b0cdaf79870196c8e42acafade72d5d5a6d59291253ceb1918101919091527f797ca55fc7be0f65c71f10996f7a16f801094f8ae3811874afc5a39730772a4290606001610c4f565b60655473ffffffffffffffffffffffffffffffffffffffff8281166000908152607260205260408082205490517f87326a0c0000000000000000000000000000000000000000000000000000000081526fffffffffffffffffffffffffffffffff909116600482015284939192909116906387326a0c90602401608060405180830381865afa158015610e50573d6000803e3d6000fd5b505050506040513d601f19601f82011682018060405250810190610e749190614b83565b50919250505073ffffffffffffffffffffffffffffffffffffffff81163314610ef9576040517f08c379a000000000000000000000000000000000000000000000000000000000815260206004820152601e60248201527f53656e646572206973206e6f74206f70657261746f72206d616e61676572000060448201526064016108b3565b73ffffffffffffffffffffffffffffffffffffffff83166000908152607460205260409020547f77ae3b5d012484be69eeed881350adb3189b651fac6e88b31ddff30c833a8b7f14610fa7576040517f08c379a000000000000000000000000000000000000000000000000000000000815260206004820152601360248201527f4f70657261746f72206973206e6f74204252500000000000000000000000000060448201526064016108b3565b610fb2606c84613d28565b15611019576040517f08c379a000000000000000000000000000000000000000000000000000000000815260206004820152601b60248201527f4f70657261746f7220697320616c726561647920656e61626c6564000000000060448201526064016108b3565b73ffffffffffffffffffffffffffffffffffffffff83166000908152607260205260409020546fffffffffffffffffffffffffffffffff1661105c606c85613d5a565b506fffffffffffffffffffffffffffffffff80821660009081526075602052604081208054909216919061108f83614c11565b82546101009290920a6fffffffffffffffffffffffffffffffff81810219909316918316021790915582811660009081526075602052604090205416600103905061116a576065546040517fedff4b610000000000000000000000000000000000000000000000000000000081526fffffffffffffffffffffffffffffffff8316600482015273ffffffffffffffffffffffffffffffffffffffff9091169063edff4b6190602401600060405180830381600087803b15801561115157600080fd5b505af1158015611165573d6000803e3d6000fd5b505050505b60405173ffffffffffffffffffffffffffffffffffffffff851681527f9e532d260bd7dde07708a6b1f7c64042546243d79bac23514cd74fcfc1a01fe49060200160405180910390a150505050565b6111c4606e33613d28565b61122a576040517f08c379a000000000000000000000000000000000000000000000000000000000815260206004820152601d60248201527f53656e646572206973206e6f7420474f5645524e414e43455f524f4c4500000060448201526064016108b3565b60668190556040518181527fe8c66e2621de650a92131e007d8bbc4cbf3bb8d4df7471d1f93eb20d70039a7c90602001610c4f565b600054610100900460ff161580801561127f5750600054600160ff909116105b806112995750303b158015611299575060005460ff166001145b611325576040517f08c379a000000000000000000000000000000000000000000000000000000000815260206004820152602e60248201527f496e697469616c697a61626c653a20636f6e747261637420697320616c72656160448201527f647920696e697469616c697a656400000000000000000000000000000000000060648201526084016108b3565b600080547fffffffffffffffffffffffffffffffffffffffffffffffffffffffffffffff00166001179055801561138357600080547fffffffffffffffffffffffffffffffffffffffffffffffffffffffffffff00ff166101001790555b61138b613dfd565b611396606e33613d5a565b506113c2606a7f71840dc4906352362b0cdaf79870196c8e42acafade72d5d5a6d59291253ceb1613e9c565b506113ee606a7f77ae3b5d012484be69eeed881350adb3189b651fac6e88b31ddff30c833a8b7f613e9c565b5061141a606a7f59a1c48e5837ad7a7f3dcedcbe129bf3249ec4fbf651fd4f5e2600ead39fe2f5613e9c565b506114316103d46002670de0b6b3a7640000614c6f565b611440655af3107a4000611673565b61144a60f061159b565b6114546002612ddb565b61145d82610b6f565b611468606e33613ea8565b5073ffffffffffffffffffffffffffffffffffffffff831660009081526074602052604090207f71840dc4906352362b0cdaf79870196c8e42acafade72d5d5a6d59291253ceb190556114bc606e84613d5a565b506040805173ffffffffffffffffffffffffffffffffffffffff85168152600060208201527f71840dc4906352362b0cdaf79870196c8e42acafade72d5d5a6d59291253ceb18183015290517f797ca55fc7be0f65c71f10996f7a16f801094f8ae3811874afc5a39730772a429181900360600190a1801561159657600080547fffffffffffffffffffffffffffffffffffffffffffffffffffffffffffff00ff169055604051600181527f7f26b83ff96e1f2b6a682f133852f6798a09c465da95921460cefb3847402498906020015b60405180910390a15b505050565b6115a6606e33613d28565b61160c576040517f08c379a000000000000000000000000000000000000000000000000000000000815260206004820152601d60248201527f53656e646572206973206e6f7420474f5645524e414e43455f524f4c4500000060448201526064016108b3565b606980547fffffffffffffffffffffffffffffffffffffffffffffffff00000000000000001667ffffffffffffffff83169081179091556040519081527f80972f2be3a50171fc4fb48963f365cbd47dc216ace7f3628a584503a80a9f9790602001610c4f565b61167e606e33613d28565b6116e4576040517f08c379a000000000000000000000000000000000000000000000000000000000815260206004820152601d60248201527f53656e646572206973206e6f7420474f5645524e414e43455f524f4c4500000060448201526064016108b3565b606880547fffffffffffffffffffffffffffffffff00000000000000000000000000000000166fffffffffffffffffffffffffffffffff83169081179091556040519081527fa425d7d9b858a4250625446e4504257053202ae93ba0d1dea68dce7ec87a05c590602001610c4f565b61175e606c33613d28565b6117ea576040517f08c379a000000000000000000000000000000000000000000000000000000000815260206004820152602860248201527f53656e646572206973206e6f7420424c4f434b5f524553554c545f50524f445560448201527f4345525f524f4c4500000000000000000000000000000000000000000000000060648201526084016108b3565b67ffffffffffffffff808716600090815260776020526040812060048101549092169003611874576040517f08c379a000000000000000000000000000000000000000000000000000000000815260206004820152601060248201527f496e76616c696420636861696e2049440000000000000000000000000000000060448201526064016108b3565b600481015461188d9067ffffffffffffffff1687614c83565b67ffffffffffffffff16156118fe576040517f08c379a000000000000000000000000000000000000000000000000000000000815260206004820152601460248201527f496e76616c696420626c6f636b2068656967687400000000000000000000000060448201526064016108b3565b67ffffffffffffffff80881660009081526076602090815260408083208a85168452825280832060038101543385526002820190935290832090939190911691829003611ecc57600383015468010000000000000000900460ff16156119c0576040517f08c379a000000000000000000000000000000000000000000000000000000000815260206004820152601f60248201527f53657373696f6e207375626d697373696f6e73206861766520636c6f7365640060448201526064016108b3565b600084600201546067548660010154436119da9190614caa565b6119e49190614cc1565b6119ee9190614c6f565b85546119fa9190614cfe565b60038601549091506000906fffffffffffffffffffffffffffffffff16821015611a25576000611a46565b6003860154611a46906fffffffffffffffffffffffffffffffff1683614caa565b90508a67ffffffffffffffff168111158015611a8c57506003860154611a7e906fffffffffffffffffffffffffffffffff1683614cfe565b8b67ffffffffffffffff1611155b611b18576040517f08c379a000000000000000000000000000000000000000000000000000000000815260206004820152602b60248201527f426c6f636b20686569676874206973206f7574206f6620626f756e647320666f60448201527f72206c6976652073796e6300000000000000000000000000000000000000000060648201526084016108b3565b606954611b2f9067ffffffffffffffff1643614cfe565b6003860180547fffffffffffffffffffffffffffffffffffffffffffffffff00000000000000001667ffffffffffffffff92909216919091179055606554336000908152607260205260408082205490517f4c4a17090000000000000000000000000000000000000000000000000000000081526fffffffffffffffffffffffffffffffff90911660048201529091829173ffffffffffffffffffffffffffffffffffffffff90911690634c4a1709906024016040805180830381865afa158015611bfe573d6000803e3d6000fd5b505050506040513d601f19601f82011682018060405250810190611c229190614d16565b60685491935091506fffffffffffffffffffffffffffffffff70010000000000000000000000000000000090910481169083161015611cbd576040517f08c379a000000000000000000000000000000000000000000000000000000000815260206004820152601f60248201527f496e73756666696369656e746c79207374616b656420746f207375626d69740060448201526064016108b3565b611cc78183614d45565b8560000160006101000a8154816fffffffffffffffffffffffffffffffff02191690836fffffffffffffffffffffffffffffffff160217905550866001018c908060018154018082558091505060019003906000526020600020016000909190919091505560008760000160008e81526020019081526020016000209050806001018c90806001815401808255809150506001900390600052602060002001600090919091909150558060000160008d8152602001908152602001600020339080600181540180825580915050600190039060005260206000200160009091909190916101000a81548173ffffffffffffffffffffffffffffffffffffffff021916908373ffffffffffffffffffffffffffffffffffffffff16021790555085600001601081819054906101000a90046fffffffffffffffffffffffffffffffff1680929190611e1690614c11565b91906101000a8154816fffffffffffffffffffffffffffffffff02191690836fffffffffffffffffffffffffffffffff160217905550508d67ffffffffffffffff168f67ffffffffffffffff167f8b1f889addbfa41db5227bae3b091bd5c8b9a9122f874dfe54ba2f75aabe1f4c8a60030160009054906101000a900467ffffffffffffffff16604051611eba919067ffffffffffffffff91909116815260200190565b60405180910390a35050505050612406565b8167ffffffffffffffff16431115611f40576040517f08c379a000000000000000000000000000000000000000000000000000000000815260206004820152601f60248201527f53657373696f6e207375626d697373696f6e73206861766520636c6f7365640060448201526064016108b3565b600384015481546fffffffffffffffffffffffffffffffff700100000000000000000000000000000000928390048116929091041610611fdc576040517f08c379a000000000000000000000000000000000000000000000000000000000815260206004820152601e60248201527f4d6178207375626d697373696f6e73206c696d6974206578636565646564000060448201526064016108b3565b6000888152602084905260409020815460018201906fffffffffffffffffffffffffffffffff161561215a5760005b815481101561215457600083600001600084848154811061202e5761202e614d79565b90600052602060002001548152602001908152602001600020905060005b815481101561213f573373ffffffffffffffffffffffffffffffffffffffff1682828154811061207e5761207e614d79565b60009182526020909120015473ffffffffffffffffffffffffffffffffffffffff160361212d576040517f08c379a000000000000000000000000000000000000000000000000000000000815260206004820152603660248201527f4f70657261746f7220616c7265616479207375626d697474656420666f72207460448201527f68652070726f766964656420626c6f636b20686173680000000000000000000060648201526084016108b3565b8061213781614da8565b91505061204c565b5050808061214c90614da8565b91505061200b565b506122f6565b606554336000908152607260205260408082205490517f4c4a17090000000000000000000000000000000000000000000000000000000081526fffffffffffffffffffffffffffffffff90911660048201529091829173ffffffffffffffffffffffffffffffffffffffff90911690634c4a1709906024016040805180830381865afa1580156121ee573d6000803e3d6000fd5b505050506040513d601f19601f820116820180604052508101906122129190614d16565b60685491935091506fffffffffffffffffffffffffffffffff700100000000000000000000000000000000909104811690831610156122ad576040517f08c379a000000000000000000000000000000000000000000000000000000000815260206004820152601f60248201527f496e73756666696369656e746c79207374616b656420746f207375626d69740060448201526064016108b3565b6122b78183614d45565b85547fffffffffffffffffffffffffffffffff00000000000000000000000000000000166fffffffffffffffffffffffffffffffff9190911617855550505b600089815260208390526040902081541561232f57805460000361232a578154600181018355600083815260209020018a90555b61235c565b600180870180548083018255600091825260208083209091018e9055845492830185558482529020018a90555b80546001810182556000828152602090200180547fffffffffffffffffffffffff0000000000000000000000000000000000000000163317905583546fffffffffffffffffffffffffffffffff700100000000000000000000000000000000909104168460106123cb83614c11565b91906101000a8154816fffffffffffffffffffffffffffffffff02191690836fffffffffffffffffffffffffffffffff160217905550505050505b600087815260786020908152604082208054600181018255908352912061242f91018787614608565b5080546040517f8741f5bf89731b15f24deb1e84e2bbd381947f009ee378a2daa15ed8abfb948591612481918d918d918d918d918d918d916fffffffffffffffffffffffffffffffff90911690614de0565b60405180910390a150505050505050505050565b6124a0606e33613d28565b612506576040517f08c379a000000000000000000000000000000000000000000000000000000000815260206004820152601d60248201527f53656e646572206973206e6f7420474f5645524e414e43455f524f4c4500000060448201526064016108b3565b67ffffffffffffffff82811660009081526077602090815260409182902060030180546fffffffffffffffffffffffffffffffff16938516700100000000000000000000000000000000810294909417905590519182527f1bca1fb481202bb14258ce1030d54e9e7bafc8b696d96b9eb733826e58a3a0309101610a6f565b612590606e33613d28565b6125f6576040517f08c379a000000000000000000000000000000000000000000000000000000000815260206004820152601d60248201527f53656e646572206973206e6f7420474f5645524e414e43455f524f4c4500000060448201526064016108b3565b73ffffffffffffffffffffffffffffffffffffffff81166000908152607460205260409020547f77ae3b5d012484be69eeed881350adb3189b651fac6e88b31ddff30c833a8b7f146126a4576040517f08c379a000000000000000000000000000000000000000000000000000000000815260206004820152601360248201527f4f70657261746f72206973206e6f74204252500000000000000000000000000060448201526064016108b3565b6126af606c82613d28565b156126bd576126bd81613eca565b73ffffffffffffffffffffffffffffffffffffffff81166000908152607260209081526040808320546fffffffffffffffffffffffffffffffff1683526073909152902061270b9082613ea8565b5073ffffffffffffffffffffffffffffffffffffffff8116600081815260726020908152604080832080547fffffffffffffffffffffffffffffffff00000000000000000000000000000000169055607482528083209290925590519182527f80c0b871b97b595b16a7741c1b06fed0c6f6f558639f18ccbce50724325dc40d9101610c4f565b61279a613d7c565b6127a46000613fe8565b565b60655473ffffffffffffffffffffffffffffffffffffffff8281166000908152607260205260408082205490517f87326a0c0000000000000000000000000000000000000000000000000000000081526fffffffffffffffffffffffffffffffff909116600482015284939192909116906387326a0c90602401608060405180830381865afa15801561283d573d6000803e3d6000fd5b505050506040513d601f19601f820116820180604052508101906128619190614b83565b50919250505073ffffffffffffffffffffffffffffffffffffffff811633146128e6576040517f08c379a000000000000000000000000000000000000000000000000000000000815260206004820152601e60248201527f53656e646572206973206e6f74206f70657261746f72206d616e61676572000060448201526064016108b3565b73ffffffffffffffffffffffffffffffffffffffff83166000908152607460205260409020547f77ae3b5d012484be69eeed881350adb3189b651fac6e88b31ddff30c833a8b7f14612994576040517f08c379a000000000000000000000000000000000000000000000000000000000815260206004820152601360248201527f4f70657261746f72206973206e6f74204252500000000000000000000000000060448201526064016108b3565b61299f606c84613d28565b612a05576040517f08c379a000000000000000000000000000000000000000000000000000000000815260206004820152601c60248201527f4f70657261746f7220697320616c72656164792064697361626c65640000000060448201526064016108b3565b612a0e83613eca565b60405173ffffffffffffffffffffffffffffffffffffffff841681527f23cd406c7cafe6d88c3f1c1cc16e438745a4236aec25906be2046ca16c36bd1e9060200161158d565b67ffffffffffffffff8083166000908152607660209081526040808320858516845290915290206003810154909116438110612aec576040517f08c379a000000000000000000000000000000000000000000000000000000000815260206004820152601960248201527f53657373696f6e206e6f74207061737420646561646c696e650000000000000060448201526064016108b3565b600382015468010000000000000000900460ff1615612b67576040517f08c379a000000000000000000000000000000000000000000000000000000000815260206004820152601b60248201527f53657373696f6e2063616e6e6f742062652066696e616c697a6564000000000060448201526064016108b3565b8067ffffffffffffffff16600003612bdb576040517f08c379a000000000000000000000000000000000000000000000000000000000815260206004820152601360248201527f53657373696f6e206e6f7420737461727465640000000000000000000000000060448201526064016108b3565b6000808080806001870181805b8254811015612ca657828181548110612c0357612c03614d79565b6000918252602080832090910154808352908c905260408220909350905b6001820154811015612c9157816001018181548110612c4257612c42614d79565b600091825260208083209091015480835290849052604090912054909950612c6a818c614cfe565b9a5088811115612c7e578098508497508996505b5080612c8981614da8565b915050612c21565b50508080612c9e90614da8565b915050612be8565b5060695468010000000000000000900467ffffffffffffffff168510801590612cec575060665487612ce0670de0b6b3a764000088614cc1565b612cea9190614c6f565b115b15612d0357612cfe898c8c878761405f565b612d45565b60405167ffffffffffffffff8b811682528c16907f398fd8f638a7242217f011fd0720a06747f7a85b7d28d7276684b841baea40219060200160405180910390a25b505050600390950180547fffffffffffffffffffffffffffffffffffffffffffffff000000000000000000166801000000000000000017905550505050505050565b6000612d94606c83613d28565b92915050565b60685460009060609070010000000000000000000000000000000090046fffffffffffffffffffffffffffffffff16612dd3606c6143bd565b915091509091565b612de6606e33613d28565b612e4c576040517f08c379a000000000000000000000000000000000000000000000000000000000815260206004820152601d60248201527f53656e646572206973206e6f7420474f5645524e414e43455f524f4c4500000060448201526064016108b3565b606980547fffffffffffffffffffffffffffffffff0000000000000000ffffffffffffffff166801000000000000000067ffffffffffffffff8416908102919091179091556040519081527febd426f3d605bdf7e97ba7cd4a971371661140ad0acc8e0081f067d2004a717690602001610c4f565b612ecc606e33613d28565b612f32576040517f08c379a000000000000000000000000000000000000000000000000000000000815260206004820152601d60248201527f53656e646572206973206e6f7420474f5645524e414e43455f524f4c4500000060448201526064016108b3565b67ffffffffffffffff8416600090815260776020526040902081612fb2576040517f08c379a000000000000000000000000000000000000000000000000000000000815260206004820152601d60248201527f5365636f6e64732070657220626c6f636b2063616e6e6f74206265203000000060448201526064016108b3565b8381556001810183905560028101829055604080518581526020810185905290810183905267ffffffffffffffff8616907ffd97af399d19e6be9256c99c8e52b1809cdbc4dc96816739612b6fd4e6d940b09060600160405180910390a25050505050565b613022606e33613d28565b613088576040517f08c379a000000000000000000000000000000000000000000000000000000000815260206004820152601d60248201527f53656e646572206973206e6f7420474f5645524e414e43455f524f4c4500000060448201526064016108b3565b6065546040517fa2e7e44100000000000000000000000000000000000000000000000000000000815273ffffffffffffffffffffffffffffffffffffffff84811660048301526fffffffffffffffffffffffffffffffff841660248301529091169063a2e7e441906044016020604051808303816000875af1158015613112573d6000803e3d6000fd5b505050506040513d601f19601f820116820180604052508101906115969190614e73565b613141606e33613d28565b6131a7576040517f08c379a000000000000000000000000000000000000000000000000000000000815260206004820152601d60248201527f53656e646572206973206e6f7420474f5645524e414e43455f524f4c4500000060448201526064016108b3565b6065546040517fad9e91ee0000000000000000000000000000000000000000000000000000000081526fffffffffffffffffffffffffffffffff841660048201526024810183905273ffffffffffffffffffffffffffffffffffffffff9091169063ad9e91ee906044015b600060405180830381600087803b15801561322c57600080fd5b505af1158015613240573d6000803e3d6000fd5b505050505050565b67ffffffffffffffff83811660008181526076602090815260408083208786168452825280832060038082015473ffffffffffffffffffffffffffffffffffffffff891686526002830185528386209686526077909452918420909101548454939591949290911692700100000000000000000000000000000000918290046fffffffffffffffffffffffffffffffff9081169290910416148015816132f857508267ffffffffffffffff164311155b80613327575067ffffffffffffffff83161580156133275750600384015468010000000000000000900460ff16155b98975050505050505050565b61333e606e33613d28565b6133a4576040517f08c379a000000000000000000000000000000000000000000000000000000000815260206004820152601d60248201527f53656e646572206973206e6f7420474f5645524e414e43455f524f4c4500000060448201526064016108b3565b606880546fffffffffffffffffffffffffffffffff908116700100000000000000000000000000000000918416918202179091556040519081527fb6c040bb0324b47cbf9a620cce03b311e24597626a57322173d5d5465f739d2790602001610c4f565b613413607033613d28565b613479576040517f08c379a000000000000000000000000000000000000000000000000000000000815260206004820152601a60248201527f53656e646572206973206e6f742041554449544f525f524f4c4500000000000060448201526064016108b3565b67ffffffffffffffff8481166000908152607660209081526040808320938716835292905220600381015468010000000000000000900460ff1661353f576040517f08c379a000000000000000000000000000000000000000000000000000000000815260206004820152602660248201527f53657373696f6e206d7573742062652066696e616c697a6564206265666f726560448201527f206175646974000000000000000000000000000000000000000000000000000060648201526084016108b3565b61354c818686868661405f565b5050505050565b6fffffffffffffffffffffffffffffffff81166000908152607360205260409020606090612d94906143bd565b606060786000838152602001908152602001600020805480602002602001604051908101604052809291908181526020016000905b828210156136615783829060005260206000200180546135d490614e8c565b80601f016020809104026020016040519081016040528092919081815260200182805461360090614e8c565b801561364d5780601f106136225761010080835404028352916020019161364d565b820191906000526020600020905b81548152906001019060200180831161363057829003601f168201915b5050505050815260200190600101906135b5565b505050509050919050565b606080606061367b606c6143bd565b613685606e6143bd565b61368f60706143bd565b925092509250909192565b6136a5606e33613d28565b61370b576040517f08c379a000000000000000000000000000000000000000000000000000000000815260206004820152601d60248201527f53656e646572206973206e6f7420474f5645524e414e43455f524f4c4500000060448201526064016108b3565b67ffffffffffffffff811660678190556040517fcaf46ba335d93b98398af7142ea3e362a6b8e91c57da6bf1e8a704f86374dde090600090a250565b613752606e33613d28565b6137b8576040517f08c379a000000000000000000000000000000000000000000000000000000000815260206004820152601d60248201527f53656e646572206973206e6f7420474f5645524e414e43455f524f4c4500000060448201526064016108b3565b67ffffffffffffffff82811660008181526077602052604080822060040180547fffffffffffffffffffffffffffffffffffffffffffffffff0000000000000000169486169485179055517fbbfa9310306e8a8485d109f8be6b0a808473ce55d2e94b8ca3447c9ddb2854b49190a35050565b613836606e33613d28565b61389c576040517f08c379a000000000000000000000000000000000000000000000000000000000815260206004820152601d60248201527f53656e646572206973206e6f7420474f5645524e414e43455f524f4c4500000060448201526064016108b3565b73ffffffffffffffffffffffffffffffffffffffff811660009081526074602052604090205415613929576040517f08c379a000000000000000000000000000000000000000000000000000000000815260206004820152601760248201527f4f70657261746f7220616c72656164792065786973747300000000000000000060448201526064016108b3565b73ffffffffffffffffffffffffffffffffffffffff811660009081526074602052604090207f59a1c48e5837ad7a7f3dcedcbe129bf3249ec4fbf651fd4f5e2600ead39fe2f5905561397c607082613d5a565b506040805173ffffffffffffffffffffffffffffffffffffffff83168152600060208201527f59a1c48e5837ad7a7f3dcedcbe129bf3249ec4fbf651fd4f5e2600ead39fe2f5918101919091527f797ca55fc7be0f65c71f10996f7a16f801094f8ae3811874afc5a39730772a4290606001610c4f565b6139fe606e33613d28565b613a64576040517f08c379a000000000000000000000000000000000000000000000000000000000815260206004820152601d60248201527f53656e646572206973206e6f7420474f5645524e414e43455f524f4c4500000060448201526064016108b3565b73ffffffffffffffffffffffffffffffffffffffff81166000908152607460205260409020547f59a1c48e5837ad7a7f3dcedcbe129bf3249ec4fbf651fd4f5e2600ead39fe2f514613b12576040517f08c379a000000000000000000000000000000000000000000000000000000000815260206004820152601760248201527f4f70657261746f72206973206e6f742061756469746f7200000000000000000060448201526064016108b3565b73ffffffffffffffffffffffffffffffffffffffff8116600090815260746020526040812055613b43607082613ea8565b5060405173ffffffffffffffffffffffffffffffffffffffff821681527f80c0b871b97b595b16a7741c1b06fed0c6f6f558639f18ccbce50724325dc40d90602001610c4f565b613b92613d7c565b73ffffffffffffffffffffffffffffffffffffffff81166000908152607460205260409020547f71840dc4906352362b0cdaf79870196c8e42acafade72d5d5a6d59291253ceb114613c40576040517f08c379a000000000000000000000000000000000000000000000000000000000815260206004820152601860248201527f4f70657261746f72206973206e6f7420676f7665726e6f72000000000000000060448201526064016108b3565b73ffffffffffffffffffffffffffffffffffffffff8116600090815260746020526040812055613b43606e82613ea8565b613c79613d7c565b73ffffffffffffffffffffffffffffffffffffffff8116613d1c576040517f08c379a000000000000000000000000000000000000000000000000000000000815260206004820152602660248201527f4f776e61626c653a206e6577206f776e657220697320746865207a65726f206160448201527f646472657373000000000000000000000000000000000000000000000000000060648201526084016108b3565b613d2581613fe8565b50565b73ffffffffffffffffffffffffffffffffffffffff8116600090815260018301602052604081205415155b9392505050565b6000613d538373ffffffffffffffffffffffffffffffffffffffff84166143ca565b60335473ffffffffffffffffffffffffffffffffffffffff1633146127a4576040517f08c379a000000000000000000000000000000000000000000000000000000000815260206004820181905260248201527f4f776e61626c653a2063616c6c6572206973206e6f7420746865206f776e657260448201526064016108b3565b600054610100900460ff16613e94576040517f08c379a000000000000000000000000000000000000000000000000000000000815260206004820152602b60248201527f496e697469616c697a61626c653a20636f6e7472616374206973206e6f74206960448201527f6e697469616c697a696e6700000000000000000000000000000000000000000060648201526084016108b3565b6127a4614419565b6000613d5383836143ca565b6000613d538373ffffffffffffffffffffffffffffffffffffffff84166144b9565b613ed5606c82613ea8565b5073ffffffffffffffffffffffffffffffffffffffff81166000908152607260209081526040808320546fffffffffffffffffffffffffffffffff9081168085526075909352908320805492939290911691613f3083614edf565b82546101009290920a6fffffffffffffffffffffffffffffffff81810219909316918316021790915582811660009081526075602052604081205490911690039050613fe4576065546040517fad9e91ee0000000000000000000000000000000000000000000000000000000081526fffffffffffffffffffffffffffffffff8316600482015243602482015273ffffffffffffffffffffffffffffffffffffffff9091169063ad9e91ee90604401613212565b5050565b6033805473ffffffffffffffffffffffffffffffffffffffff8381167fffffffffffffffffffffffff0000000000000000000000000000000000000000831681179093556040519116919082907f8be0079c531659141344cd1fd0a4f28419497f9722a3daafe3b4186f6b6457e090600090a35050565b60008281526020868152604080832084845290915281208054828167ffffffffffffffff81111561409257614092614f29565b6040519080825280602002602001820160405280156140bb578160200160208202803683370190505b50905060008267ffffffffffffffff8111156140d9576140d9614f29565b604051908082528060200260200182016040528015614102578160200160208202803683370190505b509050600060028b01815b8581101561418c5781600088838154811061412a5761412a614d79565b600091825260208083209091015473ffffffffffffffffffffffffffffffffffffffff168352820192909252604001902054614178906fffffffffffffffffffffffffffffffff1684614d45565b92508061418481614da8565b91505061410d565b5060005b858110156142b6578681815481106141aa576141aa614d79565b600091825260208083209091015473ffffffffffffffffffffffffffffffffffffffff1680835284825260408084206072909352909220548751929a5090916fffffffffffffffffffffffffffffffff9091169087908490811061421057614210614d79565b6fffffffffffffffffffffffffffffffff92831660209182029290920101526068548254868316926142459281169116614cc1565b61424f9190614c6f565b85838151811061426157614261614d79565b6fffffffffffffffffffffffffffffffff928316602091820292909201015281547001000000000000000000000000000000009004166001036142a357600081555b50806142ae81614da8565b915050614190565b506065546040517f605a501700000000000000000000000000000000000000000000000000000000815273ffffffffffffffffffffffffffffffffffffffff9091169063605a50179061430f9087908790600401614f9a565b600060405180830381600087803b15801561432957600080fd5b505af115801561433d573d6000803e3d6000fd5b50505050888a67ffffffffffffffff168c67ffffffffffffffff167f93dcf9329a330cb95723152c05719560f2fbd50e215c542854b27acc80c9108d8b60405161438991815260200190565b60405180910390a4600089815260208d905260408120906143ad60018301826146aa565b5050505050505050505050505050565b60606000613d53836145ac565b600081815260018301602052604081205461441157508154600181810184556000848152602080822090930184905584548482528286019093526040902091909155612d94565b506000612d94565b600054610100900460ff166144b0576040517f08c379a000000000000000000000000000000000000000000000000000000000815260206004820152602b60248201527f496e697469616c697a61626c653a20636f6e7472616374206973206e6f74206960448201527f6e697469616c697a696e6700000000000000000000000000000000000000000060648201526084016108b3565b6127a433613fe8565b600081815260018301602052604081205480156145a25760006144dd600183614caa565b85549091506000906144f190600190614caa565b905081811461455657600086600001828154811061451157614511614d79565b906000526020600020015490508087600001848154811061453457614534614d79565b6000918252602080832090910192909255918252600188019052604090208390555b855486908061456757614567614fc8565b600190038181906000526020600020016000905590558560010160008681526020019081526020016000206000905560019350505050612d94565b6000915050612d94565b6060816000018054806020026020016040519081016040528092919081815260200182805480156145fc57602002820191906000526020600020905b8154815260200190600101908083116145e8575b50505050509050919050565b82805461461490614e8c565b90600052602060002090601f016020900481019282614636576000855561469a565b82601f1061466d578280017fffffffffffffffffffffffffffffffffffffffffffffffffffffffffffffff0082351617855561469a565b8280016001018555821561469a579182015b8281111561469a57823582559160200191906001019061467f565b506146a69291506146c4565b5090565b5080546000825590600052602060002090810190613d2591905b5b808211156146a657600081556001016146c5565b73ffffffffffffffffffffffffffffffffffffffff81168114613d2557600080fd5b60006020828403121561470d57600080fd5b8135613d53816146d9565b6fffffffffffffffffffffffffffffffff81168114613d2557600080fd5b6000806040838503121561474957600080fd5b8235614754816146d9565b9150602083013561476481614718565b809150509250929050565b803567ffffffffffffffff8116811461478757600080fd5b919050565b6000806040838503121561479f57600080fd5b6147a88361476f565b91506147b66020840161476f565b90509250929050565b6000602082840312156147d157600080fd5b5035919050565b600080604083850312156147eb57600080fd5b82356147f6816146d9565b91506020830135614764816146d9565b60006020828403121561481857600080fd5b613d538261476f565b60006020828403121561483357600080fd5b8135613d5381614718565b60008060008060008060a0878903121561485757600080fd5b6148608761476f565b955061486e6020880161476f565b94506040870135935060608701359250608087013567ffffffffffffffff8082111561489957600080fd5b818901915089601f8301126148ad57600080fd5b8135818111156148bc57600080fd5b8a60208285010111156148ce57600080fd5b6020830194508093505050509295509295509295565b600081518084526020808501945080840160005b8381101561492a57815173ffffffffffffffffffffffffffffffffffffffff16875295820195908201906001016148f8565b509495945050505050565b6fffffffffffffffffffffffffffffffff8316815260406020820152600061496060408301846148e4565b949350505050565b6000806000806080858703121561497e57600080fd5b6149878561476f565b966020860135965060408601359560600135945092505050565b600080604083850312156149b457600080fd5b82356149bf81614718565b946020939093013593505050565b6000806000606084860312156149e257600080fd5b6149eb8461476f565b92506149f96020850161476f565b91506040840135614a09816146d9565b809150509250925092565b60008060008060808587031215614a2a57600080fd5b614a338561476f565b9350614a416020860161476f565b93969395505050506040820135916060013590565b602081526000613d5360208301846148e4565b6000602080830181845280855180835260408601915060408160051b87010192508387016000805b83811015614b32577fffffffffffffffffffffffffffffffffffffffffffffffffffffffffffffffc089870301855282518051808852835b81811015614ae4578281018a01518982018b01528901614ac9565b81811115614af457848a838b0101525b50601f017fffffffffffffffffffffffffffffffffffffffffffffffffffffffffffffffe01696909601870195509386019391860191600101614a91565b509398975050505050505050565b606081526000614b5360608301866148e4565b8281036020840152614b6581866148e4565b90508281036040840152614b7981856148e4565b9695505050505050565b60008060008060808587031215614b9957600080fd5b8451614ba4816146d9565b6020860151909450614bb581614718565b6040860151909350614bc681614718565b6060860151909250614bd781614718565b939692955090935050565b7f4e487b7100000000000000000000000000000000000000000000000000000000600052601160045260246000fd5b60006fffffffffffffffffffffffffffffffff808316818103614c3657614c36614be2565b6001019392505050565b7f4e487b7100000000000000000000000000000000000000000000000000000000600052601260045260246000fd5b600082614c7e57614c7e614c40565b500490565b600067ffffffffffffffff80841680614c9e57614c9e614c40565b92169190910692915050565b600082821015614cbc57614cbc614be2565b500390565b6000817fffffffffffffffffffffffffffffffffffffffffffffffffffffffffffffffff0483118215151615614cf957614cf9614be2565b500290565b60008219821115614d1157614d11614be2565b500190565b60008060408385031215614d2957600080fd5b8251614d3481614718565b602084015190925061476481614718565b60006fffffffffffffffffffffffffffffffff808316818516808303821115614d7057614d70614be2565b01949350505050565b7f4e487b7100000000000000000000000000000000000000000000000000000000600052603260045260246000fd5b60007fffffffffffffffffffffffffffffffffffffffffffffffffffffffffffffffff8203614dd957614dd9614be2565b5060010190565b600067ffffffffffffffff808a16835280891660208401525086604083015285606083015260c060808301528360c0830152838560e0840137600060e0858401015260e07fffffffffffffffffffffffffffffffffffffffffffffffffffffffffffffffe0601f86011683010190506fffffffffffffffffffffffffffffffff831660a083015298975050505050505050565b600060208284031215614e8557600080fd5b5051919050565b600181811c90821680614ea057607f821691505b602082108103614ed9577f4e487b7100000000000000000000000000000000000000000000000000000000600052602260045260246000fd5b50919050565b60006fffffffffffffffffffffffffffffffff821680614f0157614f01614be2565b7fffffffffffffffffffffffffffffffffffffffffffffffffffffffffffffffff0192915050565b7f4e487b7100000000000000000000000000000000000000000000000000000000600052604160045260246000fd5b600081518084526020808501945080840160005b8381101561492a5781516fffffffffffffffffffffffffffffffff1687529582019590820190600101614f6c565b604081526000614fad6040830185614f58565b8281036020840152614fbf8185614f58565b95945050505050565b7f4e487b7100000000000000000000000000000000000000000000000000000000600052603160045260246000fdfea2646970667358221220846bd9ac945ea1f3b0e8e4e274517d0ca26591e84b9cd7c0b2dc2f8e895a5b1964736f6c634300080d0033",
  "linkReferences": {},
  "deployedLinkReferences": {}
}