{
  "_format": "hh-sol-artifact-1",
  "contractName": "BlockSpecimenProofChain",
  "sourceName": "contracts/BlockSpecimenProofChain.sol",
  "abi": [
    {
      "anonymous": false,
      "inputs": [
        {
          "indexed": true,
          "internalType": "uint64",
          "name": "chainId",
          "type": "uint64"
        },
        {
          "indexed": false,
          "internalType": "uint64",
          "name": "threshold",
          "type": "uint64"
        }
      ],
      "name": "BlockHeightSubmissionThresholdChanged",
      "type": "event"
    },
    {
      "anonymous": false,
      "inputs": [
        {
          "indexed": false,
          "internalType": "uint64",
          "name": "chainId",
          "type": "uint64"
        },
        {
          "indexed": false,
          "internalType": "uint64",
          "name": "blockHeight",
          "type": "uint64"
        },
        {
          "indexed": false,
          "internalType": "bytes32",
          "name": "blockHash",
          "type": "bytes32"
        },
        {
          "indexed": false,
          "internalType": "bytes32",
          "name": "specimenHash",
          "type": "bytes32"
        },
        {
          "indexed": false,
          "internalType": "string",
          "name": "storageURL",
          "type": "string"
        },
        {
          "indexed": false,
          "internalType": "uint128",
          "name": "submittedStake",
          "type": "uint128"
        }
      ],
      "name": "BlockSpecimenProductionProofSubmitted",
      "type": "event"
    },
    {
      "anonymous": false,
      "inputs": [
        {
          "indexed": true,
          "internalType": "uint64",
          "name": "chainId",
          "type": "uint64"
        },
        {
          "indexed": true,
          "internalType": "uint64",
          "name": "blockHeight",
          "type": "uint64"
        },
        {
          "indexed": true,
          "internalType": "bytes32",
          "name": "blockhash",
          "type": "bytes32"
        },
        {
          "indexed": false,
          "internalType": "bytes32",
          "name": "specimenhash",
          "type": "bytes32"
        }
      ],
      "name": "BlockSpecimenRewardAwarded",
      "type": "event"
    },
    {
      "anonymous": false,
      "inputs": [
        {
          "indexed": false,
          "internalType": "uint128",
          "name": "newBlockSpecimenRewardAllocation",
          "type": "uint128"
        }
      ],
      "name": "BlockSpecimenRewardChanged",
      "type": "event"
    },
    {
      "anonymous": false,
      "inputs": [
        {
          "indexed": true,
          "internalType": "uint64",
          "name": "chainId",
          "type": "uint64"
        },
        {
          "indexed": false,
          "internalType": "uint256",
          "name": "blockOnTargetChain",
          "type": "uint256"
        },
        {
          "indexed": false,
          "internalType": "uint256",
          "name": "blockOnCurrentChain",
          "type": "uint256"
        },
        {
          "indexed": false,
          "internalType": "uint256",
          "name": "secondsPerBlock",
          "type": "uint256"
        }
      ],
      "name": "ChainSyncDataChanged",
      "type": "event"
    },
    {
      "anonymous": false,
      "inputs": [
        {
          "indexed": false,
          "internalType": "uint8",
          "name": "version",
          "type": "uint8"
        }
      ],
      "name": "Initialized",
      "type": "event"
    },
    {
      "anonymous": false,
      "inputs": [
        {
          "indexed": false,
          "internalType": "uint256",
          "name": "maxSubmissions",
          "type": "uint256"
        }
      ],
      "name": "MaxSubmissionsPerBlockHeightChanged",
      "type": "event"
    },
    {
      "anonymous": false,
      "inputs": [
        {
          "indexed": false,
          "internalType": "uint128",
          "name": "newStakeRequirement",
          "type": "uint128"
        }
      ],
      "name": "MinimumRequiredStakeChanged",
      "type": "event"
    },
    {
      "anonymous": false,
      "inputs": [
        {
          "indexed": true,
          "internalType": "uint64",
          "name": "chainId",
          "type": "uint64"
        },
        {
          "indexed": true,
          "internalType": "uint64",
          "name": "nthBlock",
          "type": "uint64"
        }
      ],
      "name": "NthBlockChanged",
      "type": "event"
    },
    {
      "anonymous": false,
      "inputs": [
        {
          "indexed": false,
          "internalType": "address",
          "name": "operator",
          "type": "address"
        },
        {
          "indexed": false,
          "internalType": "uint128",
          "name": "validatorId",
          "type": "uint128"
        },
        {
          "indexed": false,
          "internalType": "bytes32",
          "name": "role",
          "type": "bytes32"
        }
      ],
      "name": "OperatorAdded",
      "type": "event"
    },
    {
      "anonymous": false,
      "inputs": [
        {
          "indexed": false,
          "internalType": "address",
          "name": "operator",
          "type": "address"
        }
      ],
      "name": "OperatorDisabled",
      "type": "event"
    },
    {
      "anonymous": false,
      "inputs": [
        {
          "indexed": false,
          "internalType": "address",
          "name": "operator",
          "type": "address"
        }
      ],
      "name": "OperatorEnabled",
      "type": "event"
    },
    {
      "anonymous": false,
      "inputs": [
        {
          "indexed": false,
          "internalType": "address",
          "name": "operator",
          "type": "address"
        }
      ],
      "name": "OperatorRemoved",
      "type": "event"
    },
    {
      "anonymous": false,
      "inputs": [
        {
          "indexed": true,
          "internalType": "address",
          "name": "previousOwner",
          "type": "address"
        },
        {
          "indexed": true,
          "internalType": "address",
          "name": "newOwner",
          "type": "address"
        }
      ],
      "name": "OwnershipTransferred",
      "type": "event"
    },
    {
      "anonymous": false,
      "inputs": [
        {
          "indexed": true,
          "internalType": "uint64",
          "name": "chainId",
          "type": "uint64"
        },
        {
          "indexed": false,
          "internalType": "uint64",
          "name": "blockHeight",
          "type": "uint64"
        }
      ],
      "name": "QuorumNotReached",
      "type": "event"
    },
    {
      "anonymous": false,
      "inputs": [
        {
          "indexed": true,
          "internalType": "uint64",
          "name": "secondsPerBlock",
          "type": "uint64"
        }
      ],
      "name": "SecondsPerBlockChanged",
      "type": "event"
    },
    {
      "anonymous": false,
      "inputs": [
        {
          "indexed": true,
          "internalType": "uint64",
          "name": "chainId",
          "type": "uint64"
        },
        {
          "indexed": true,
          "internalType": "uint64",
          "name": "blockHeight",
          "type": "uint64"
        },
        {
          "indexed": false,
          "internalType": "uint64",
          "name": "deadline",
          "type": "uint64"
        }
      ],
      "name": "SessionStarted",
      "type": "event"
    },
    {
      "anonymous": false,
      "inputs": [
        {
          "indexed": false,
          "internalType": "uint64",
          "name": "newSessionDuration",
          "type": "uint64"
        }
      ],
      "name": "SpecimenSessionDurationChanged",
      "type": "event"
    },
    {
      "anonymous": false,
      "inputs": [
        {
          "indexed": false,
          "internalType": "uint64",
          "name": "minSubmissions",
          "type": "uint64"
        }
      ],
      "name": "SpecimenSessionMinSubmissionChanged",
      "type": "event"
    },
    {
      "anonymous": false,
      "inputs": [
        {
          "indexed": false,
          "internalType": "uint256",
          "name": "newQuorumThreshold",
          "type": "uint256"
        }
      ],
      "name": "SpecimenSessionQuorumChanged",
      "type": "event"
    },
    {
      "anonymous": false,
      "inputs": [
        {
          "indexed": false,
          "internalType": "address",
          "name": "newInterfaceAddress",
          "type": "address"
        }
      ],
      "name": "StakingInterfaceChanged",
      "type": "event"
    },
    {
      "inputs": [],
      "name": "AUDITOR_ROLE",
      "outputs": [
        {
          "internalType": "bytes32",
          "name": "",
          "type": "bytes32"
        }
      ],
      "stateMutability": "view",
      "type": "function"
    },
    {
      "inputs": [],
      "name": "BLOCK_SPECIMEN_PRODUCER_ROLE",
      "outputs": [
        {
          "internalType": "bytes32",
          "name": "",
          "type": "bytes32"
        }
      ],
      "stateMutability": "view",
      "type": "function"
    },
    {
      "inputs": [],
      "name": "GOVERNANCE_ROLE",
      "outputs": [
        {
          "internalType": "bytes32",
          "name": "",
          "type": "bytes32"
        }
      ],
      "stateMutability": "view",
      "type": "function"
    },
    {
      "inputs": [
        {
          "internalType": "address",
          "name": "auditor",
          "type": "address"
        }
      ],
      "name": "addAuditor",
      "outputs": [],
      "stateMutability": "nonpayable",
      "type": "function"
    },
    {
      "inputs": [
        {
          "internalType": "address",
          "name": "operator",
          "type": "address"
        },
        {
          "internalType": "uint128",
          "name": "validatorId",
          "type": "uint128"
        }
      ],
      "name": "addBSPOperator",
      "outputs": [],
      "stateMutability": "nonpayable",
      "type": "function"
    },
    {
      "inputs": [
        {
          "internalType": "address",
          "name": "governor",
          "type": "address"
        }
      ],
      "name": "addGovernor",
      "outputs": [],
      "stateMutability": "nonpayable",
      "type": "function"
    },
    {
      "inputs": [
        {
          "internalType": "address",
          "name": "validator",
          "type": "address"
        },
        {
          "internalType": "uint128",
          "name": "commissionRate",
          "type": "uint128"
        }
      ],
      "name": "addValidator",
      "outputs": [],
      "stateMutability": "nonpayable",
      "type": "function"
    },
    {
      "inputs": [
        {
          "internalType": "uint64",
          "name": "chainId",
          "type": "uint64"
        },
        {
          "internalType": "uint64",
          "name": "blockHeight",
          "type": "uint64"
        },
        {
          "internalType": "bytes32",
          "name": "blockHash",
          "type": "bytes32"
        },
        {
          "internalType": "bytes32",
          "name": "definitiveSpecimenHash",
          "type": "bytes32"
        }
      ],
      "name": "arbitrateBlockSpecimenSession",
      "outputs": [],
      "stateMutability": "nonpayable",
      "type": "function"
    },
    {
      "inputs": [
        {
          "internalType": "address",
          "name": "operator",
          "type": "address"
        }
      ],
      "name": "disableBSPOperator",
      "outputs": [],
      "stateMutability": "nonpayable",
      "type": "function"
    },
    {
      "inputs": [
        {
          "internalType": "uint128",
          "name": "validatorId",
          "type": "uint128"
        },
        {
          "internalType": "uint256",
          "name": "blockNumber",
          "type": "uint256"
        }
      ],
      "name": "disableValidator",
      "outputs": [],
      "stateMutability": "nonpayable",
      "type": "function"
    },
    {
      "inputs": [
        {
          "internalType": "address",
          "name": "operator",
          "type": "address"
        }
      ],
      "name": "enableBSPOperator",
      "outputs": [],
      "stateMutability": "nonpayable",
      "type": "function"
    },
    {
      "inputs": [
        {
          "internalType": "uint64",
          "name": "chainId",
          "type": "uint64"
        },
        {
          "internalType": "uint64",
          "name": "blockHeight",
          "type": "uint64"
        }
      ],
      "name": "finalizeAndRewardSpecimenSession",
      "outputs": [],
      "stateMutability": "nonpayable",
      "type": "function"
    },
    {
      "inputs": [],
      "name": "getAllOperators",
      "outputs": [
        {
          "internalType": "address[]",
          "name": "_bsps",
          "type": "address[]"
        },
        {
          "internalType": "address[]",
          "name": "__governors",
          "type": "address[]"
        },
        {
          "internalType": "address[]",
          "name": "__auditors",
          "type": "address[]"
        }
      ],
      "stateMutability": "view",
      "type": "function"
    },
    {
      "inputs": [],
      "name": "getBSPRoleData",
      "outputs": [
        {
          "internalType": "uint128",
          "name": "requiredStake",
          "type": "uint128"
        },
        {
          "internalType": "address[]",
          "name": "activeMembers",
          "type": "address[]"
        }
      ],
      "stateMutability": "view",
      "type": "function"
    },
    {
      "inputs": [
        {
          "internalType": "uint64",
          "name": "chainId",
          "type": "uint64"
        }
      ],
      "name": "getChainData",
      "outputs": [
        {
          "internalType": "uint256",
          "name": "blockOnTargetChain",
          "type": "uint256"
        },
        {
          "internalType": "uint256",
          "name": "blockOnCurrentChain",
          "type": "uint256"
        },
        {
          "internalType": "uint256",
          "name": "secondsPerBlock",
          "type": "uint256"
        },
        {
          "internalType": "uint128",
          "name": "allowedThreshold",
          "type": "uint128"
        },
        {
          "internalType": "uint128",
          "name": "maxSubmissionsPerBlockHeight",
          "type": "uint128"
        },
        {
          "internalType": "uint64",
          "name": "nthBlock",
          "type": "uint64"
        }
      ],
      "stateMutability": "view",
      "type": "function"
    },
    {
      "inputs": [],
      "name": "getMetadata",
      "outputs": [
        {
          "internalType": "address",
          "name": "stakingInterface",
          "type": "address"
        },
        {
          "internalType": "uint128",
          "name": "blockSpecimenRewardAllocation",
          "type": "uint128"
        },
        {
          "internalType": "uint64",
          "name": "blockSpecimenSessionDuration",
          "type": "uint64"
        },
        {
          "internalType": "uint64",
          "name": "minSubmissionsRequired",
          "type": "uint64"
        },
        {
          "internalType": "uint256",
          "name": "blockSpecimenQuorum",
          "type": "uint256"
        },
        {
          "internalType": "uint256",
          "name": "secondsPerBlock",
          "type": "uint256"
        }
      ],
      "stateMutability": "view",
      "type": "function"
    },
    {
      "inputs": [
        {
          "internalType": "uint128",
          "name": "validatorId",
          "type": "uint128"
        }
      ],
      "name": "getOperators",
      "outputs": [
        {
          "internalType": "address[]",
          "name": "",
          "type": "address[]"
        }
      ],
      "stateMutability": "view",
      "type": "function"
    },
    {
      "inputs": [
        {
          "internalType": "bytes32",
          "name": "specimenhash",
          "type": "bytes32"
        }
      ],
      "name": "getURLS",
      "outputs": [
        {
          "internalType": "string[]",
          "name": "",
          "type": "string[]"
        }
      ],
      "stateMutability": "view",
      "type": "function"
    },
    {
      "inputs": [
        {
          "internalType": "address",
          "name": "initialOwner",
          "type": "address"
        },
        {
          "internalType": "address",
          "name": "stakingContract",
          "type": "address"
        }
      ],
      "name": "initialize",
      "outputs": [],
      "stateMutability": "nonpayable",
      "type": "function"
    },
    {
      "inputs": [
        {
          "internalType": "address",
          "name": "operator",
          "type": "address"
        }
      ],
      "name": "isEnabled",
      "outputs": [
        {
          "internalType": "bool",
          "name": "",
          "type": "bool"
        }
      ],
      "stateMutability": "view",
      "type": "function"
    },
    {
      "inputs": [
        {
          "internalType": "uint64",
          "name": "chainId",
          "type": "uint64"
        },
        {
          "internalType": "uint64",
          "name": "blockHeight",
          "type": "uint64"
        },
        {
          "internalType": "address",
          "name": "operator",
          "type": "address"
        }
      ],
      "name": "isSessionOpen",
      "outputs": [
        {
          "internalType": "bool",
          "name": "",
          "type": "bool"
        }
      ],
      "stateMutability": "view",
      "type": "function"
    },
    {
      "inputs": [
        {
          "internalType": "address",
          "name": "",
          "type": "address"
        }
      ],
      "name": "operatorRoles",
      "outputs": [
        {
          "internalType": "bytes32",
          "name": "",
          "type": "bytes32"
        }
      ],
      "stateMutability": "view",
      "type": "function"
    },
    {
      "inputs": [],
      "name": "owner",
      "outputs": [
        {
          "internalType": "address",
          "name": "",
          "type": "address"
        }
      ],
      "stateMutability": "view",
      "type": "function"
    },
    {
      "inputs": [
        {
          "internalType": "address",
          "name": "auditor",
          "type": "address"
        }
      ],
      "name": "removeAuditor",
      "outputs": [],
      "stateMutability": "nonpayable",
      "type": "function"
    },
    {
      "inputs": [
        {
          "internalType": "address",
          "name": "operator",
          "type": "address"
        }
      ],
      "name": "removeBSPOperator",
      "outputs": [],
      "stateMutability": "nonpayable",
      "type": "function"
    },
    {
      "inputs": [
        {
          "internalType": "address",
          "name": "governor",
          "type": "address"
        }
      ],
      "name": "removeGovernor",
      "outputs": [],
      "stateMutability": "nonpayable",
      "type": "function"
    },
    {
      "inputs": [],
      "name": "renounceOwnership",
      "outputs": [],
      "stateMutability": "nonpayable",
      "type": "function"
    },
    {
      "inputs": [
        {
          "internalType": "uint128",
          "name": "newStakeAmount",
          "type": "uint128"
        }
      ],
      "name": "setBSPRequiredStake",
      "outputs": [],
      "stateMutability": "nonpayable",
      "type": "function"
    },
    {
      "inputs": [
        {
          "internalType": "uint64",
          "name": "chainId",
          "type": "uint64"
        },
        {
          "internalType": "uint64",
          "name": "threshold",
          "type": "uint64"
        }
      ],
      "name": "setBlockHeightSubmissionsThreshold",
      "outputs": [],
      "stateMutability": "nonpayable",
      "type": "function"
    },
    {
      "inputs": [
        {
          "internalType": "uint128",
          "name": "newBlockSpecimenReward",
          "type": "uint128"
        }
      ],
      "name": "setBlockSpecimenReward",
      "outputs": [],
      "stateMutability": "nonpayable",
      "type": "function"
    },
    {
      "inputs": [
        {
          "internalType": "uint64",
          "name": "newSessionDuration",
          "type": "uint64"
        }
      ],
      "name": "setBlockSpecimenSessionDuration",
      "outputs": [],
      "stateMutability": "nonpayable",
      "type": "function"
    },
    {
      "inputs": [
        {
          "internalType": "uint64",
          "name": "chainId",
          "type": "uint64"
        },
        {
          "internalType": "uint256",
          "name": "blockOnTargetChain",
          "type": "uint256"
        },
        {
          "internalType": "uint256",
          "name": "blockOnCurrentChain",
          "type": "uint256"
        },
        {
          "internalType": "uint256",
          "name": "secondsPerBlock",
          "type": "uint256"
        }
      ],
      "name": "setChainSyncData",
      "outputs": [],
      "stateMutability": "nonpayable",
      "type": "function"
    },
    {
      "inputs": [
        {
          "internalType": "uint64",
          "name": "chainId",
          "type": "uint64"
        },
        {
          "internalType": "uint64",
          "name": "maxSubmissions",
          "type": "uint64"
        }
      ],
      "name": "setMaxSubmissionsPerBlockHeight",
      "outputs": [],
      "stateMutability": "nonpayable",
      "type": "function"
    },
    {
      "inputs": [
        {
          "internalType": "uint64",
          "name": "minSubmissions",
          "type": "uint64"
        }
      ],
      "name": "setMinSubmissionsRequired",
      "outputs": [],
      "stateMutability": "nonpayable",
      "type": "function"
    },
    {
      "inputs": [
        {
          "internalType": "uint64",
          "name": "chainId",
          "type": "uint64"
        },
        {
          "internalType": "uint64",
          "name": "n",
          "type": "uint64"
        }
      ],
      "name": "setNthBlock",
      "outputs": [],
      "stateMutability": "nonpayable",
      "type": "function"
    },
    {
      "inputs": [
        {
          "internalType": "uint256",
          "name": "quorum",
          "type": "uint256"
        }
      ],
      "name": "setQuorumThreshold",
      "outputs": [],
      "stateMutability": "nonpayable",
      "type": "function"
    },
    {
      "inputs": [
        {
          "internalType": "uint64",
          "name": "secondsPerBlock",
          "type": "uint64"
        }
      ],
      "name": "setSecondsPerBlock",
      "outputs": [],
      "stateMutability": "nonpayable",
      "type": "function"
    },
    {
      "inputs": [
        {
          "internalType": "address",
          "name": "stakingContractAddress",
          "type": "address"
        }
      ],
      "name": "setStakingInterface",
      "outputs": [],
      "stateMutability": "nonpayable",
      "type": "function"
    },
    {
      "inputs": [
        {
          "internalType": "uint64",
          "name": "chainId",
          "type": "uint64"
        },
        {
          "internalType": "uint64",
          "name": "blockHeight",
          "type": "uint64"
        },
        {
          "internalType": "bytes32",
          "name": "blockHash",
          "type": "bytes32"
        },
        {
          "internalType": "bytes32",
          "name": "specimenHash",
          "type": "bytes32"
        },
        {
          "internalType": "string",
          "name": "storageURL",
          "type": "string"
        }
      ],
      "name": "submitBlockSpecimenProof",
      "outputs": [],
      "stateMutability": "nonpayable",
      "type": "function"
    },
    {
      "inputs": [
        {
          "internalType": "address",
          "name": "newOwner",
          "type": "address"
        }
      ],
      "name": "transferOwnership",
      "outputs": [],
      "stateMutability": "nonpayable",
      "type": "function"
    },
    {
      "inputs": [
        {
          "internalType": "address",
          "name": "",
          "type": "address"
        }
      ],
      "name": "validatorIDs",
      "outputs": [
        {
          "internalType": "uint128",
          "name": "",
          "type": "uint128"
        }
      ],
      "stateMutability": "view",
      "type": "function"
    }
  ],
  "bytecode": "0x608060405234801561001057600080fd5b50615030806100206000396000f3fe608060405234801561001057600080fd5b50600436106102d35760003560e01c80638ecd30bc11610186578063d3a8b2a8116100e3578063e320140911610097578063eecdac8811610071578063eecdac88146107f9578063f2fde38b1461080c578063f36c8f5c1461081f57600080fd5b8063e3201409146107c0578063e429cef1146107d3578063e6116cfd146107e657600080fd5b8063d911c632116100c8578063d911c63214610783578063dd36a8d51461079a578063df4112c2146107ad57600080fd5b8063d3a8b2a814610743578063d5839da91461076357600080fd5b8063a2e7e4411161013a578063ba75fd2f1161011f578063ba75fd2f1461070a578063cc96e4131461071d578063cf64a01d1461073057600080fd5b8063a2e7e441146106e4578063ad9e91ee146106f757600080fd5b806393742b561161016b57806393742b561461069757806399146284146106aa5780639c49d8ee146106bd57600080fd5b80638ecd30bc146106615780639015d3711461067457600080fd5b80635137b8b9116102345780636e1d616e116101e85780637a5b4f59116101cd5780637a5b4f591461056557806389587f05146106265780638da5cb5b1461063957600080fd5b80636e1d616e14610536578063715018a61461055d57600080fd5b806367585e441161021957806367585e44146104e257806367d07ad7146104f55780636ab9d8e81461050857600080fd5b80635137b8b9146103e057806354cfa69f146103f357600080fd5b80633646aded1161028b5780634414beeb116102705780634414beeb146103a75780634524c7e1146103ba578063485cc955146103cd57600080fd5b80633646aded146103815780633c4a25d01461039457600080fd5b8063151fd8f3116102bc578063151fd8f3146103455780631fd55ae9146103585780632c58ed421461036e57600080fd5b80630d92f4ed146102d857806313e3f45214610330575b600080fd5b61030a6102e63660046146fe565b6072602052600090815260409020546fffffffffffffffffffffffffffffffff1681565b6040516fffffffffffffffffffffffffffffffff90911681526020015b60405180910390f35b61034361033e3660046146fe565b610846565b005b610343610353366004614738565b610b02565b610360611844565b60405161032792919061482f565b61034361037c366004614862565b611885565b61034361038f3660046146fe565b611979565b6103436103a23660046146fe565b611a64565b6103436103b5366004614895565b611bc3565b6103436103c83660046148d7565b611d0e565b6103436103db3660046148f0565b611db3565b6103436103ee366004614947565b6120ea565b610496610401366004614964565b67ffffffffffffffff908116600090815260776020908152604091829020825160c08101845281548082526001830154938201849052600283015494820185905260038301546fffffffffffffffffffffffffffffffff80821660608501819052700100000000000000000000000000000000909204166080840181905260049094015490961660a090920182905295929492565b604080519687526020870195909552938501929092526fffffffffffffffffffffffffffffffff908116606085015216608083015267ffffffffffffffff1660a082015260c001610327565b6103436104f0366004614862565b6121bf565b610343610503366004614964565b6122b7565b6105286105163660046146fe565b60746020526000908152604090205481565b604051908152602001610327565b6105287f59a1c48e5837ad7a7f3dcedcbe129bf3249ec4fbf651fd4f5e2600ead39fe2f581565b61034361238f565b6105c360655460685460695460665460675473ffffffffffffffffffffffffffffffffffffffff909416946fffffffffffffffffffffffffffffffff9093169367ffffffffffffffff80841694680100000000000000009094041692565b6040805173ffffffffffffffffffffffffffffffffffffffff90971687526fffffffffffffffffffffffffffffffff909516602087015267ffffffffffffffff9384169486019490945291166060840152608083015260a082015260c001610327565b610343610634366004614947565b6123a3565b60335460405173ffffffffffffffffffffffffffffffffffffffff9091168152602001610327565b61034361066f366004614862565b612483565b6106876106823660046146fe565b6127b6565b6040519015158152602001610327565b6103436106a5366004614964565b6127c9565b6103436106b836600461497f565b6128af565b6105287f98d0bb2de1c65f6d2cbc3401e3d5d5086bfe815cb57e521dafd0ebdbef6ee85c81565b6103436106f23660046149b8565b612a05565b6103436107053660046149e6565b612b24565b610687610718366004614a12565b612c36565b61034361072b3660046149b8565b612d21565b61034361073e3660046146fe565b612f49565b610756610751366004614947565b613156565b6040516103279190614a59565b6107766107713660046148d7565b613183565b6040516103279190614a6c565b61078b61326f565b60405161032793929190614b43565b6103436107a8366004614964565b61329d565b6103436107bb3660046146fe565b61334a565b6103436107ce366004614862565b61374a565b6103436107e13660046146fe565b61382e565b6103436107f43660046146fe565b6139f6565b6103436108073660046146fe565b613b8d565b61034361081a3660046146fe565b613c74565b6105287f71840dc4906352362b0cdaf79870196c8e42acafade72d5d5a6d59291253ceb181565b60655473ffffffffffffffffffffffffffffffffffffffff8281166000908152607260205260408082205490517f87326a0c0000000000000000000000000000000000000000000000000000000081526fffffffffffffffffffffffffffffffff909116600482015284939192909116906387326a0c90602401608060405180830381865afa1580156108dd573d6000803e3d6000fd5b505050506040513d601f19601f820116820180604052508101906109019190614b86565b50919250505073ffffffffffffffffffffffffffffffffffffffff8116331461098b576040517f08c379a000000000000000000000000000000000000000000000000000000000815260206004820152601e60248201527f53656e646572206973206e6f74206f70657261746f72206d616e61676572000060448201526064015b60405180910390fd5b73ffffffffffffffffffffffffffffffffffffffff83166000908152607460205260409020547f98d0bb2de1c65f6d2cbc3401e3d5d5086bfe815cb57e521dafd0ebdbef6ee85c14610a39576040517f08c379a000000000000000000000000000000000000000000000000000000000815260206004820152601360248201527f4f70657261746f72206973206e6f7420425350000000000000000000000000006044820152606401610982565b610a44606c84613d2b565b610aaa576040517f08c379a000000000000000000000000000000000000000000000000000000000815260206004820152601c60248201527f4f70657261746f7220697320616c72656164792064697361626c6564000000006044820152606401610982565b610ab383613d5d565b60405173ffffffffffffffffffffffffffffffffffffffff841681527f23cd406c7cafe6d88c3f1c1cc16e438745a4236aec25906be2046ca16c36bd1e906020015b60405180910390a1505050565b610b0d606c33613d2b565b610b99576040517f08c379a000000000000000000000000000000000000000000000000000000000815260206004820152602a60248201527f53656e646572206973206e6f7420424c4f434b5f53504543494d454e5f50524f60448201527f44554345525f524f4c45000000000000000000000000000000000000000000006064820152608401610982565b67ffffffffffffffff808716600090815260776020526040812060048101549092169003610c23576040517f08c379a000000000000000000000000000000000000000000000000000000000815260206004820152601060248201527f496e76616c696420636861696e204944000000000000000000000000000000006044820152606401610982565b6004810154610c3c9067ffffffffffffffff1687614c14565b67ffffffffffffffff1615610cad576040517f08c379a000000000000000000000000000000000000000000000000000000000815260206004820152601460248201527f496e76616c696420626c6f636b206865696768740000000000000000000000006044820152606401610982565b67ffffffffffffffff80881660009081526076602090815260408083208a8516845282528083206003810154338552600282019093529083209093919091169182900361127b57600383015468010000000000000000900460ff1615610d6f576040517f08c379a000000000000000000000000000000000000000000000000000000000815260206004820152601f60248201527f53657373696f6e207375626d697373696f6e73206861766520636c6f736564006044820152606401610982565b60008460020154606754866001015443610d899190614c6a565b610d939190614c81565b610d9d9190614cbe565b8554610da99190614cd2565b60038601549091506000906fffffffffffffffffffffffffffffffff16821015610dd4576000610df5565b6003860154610df5906fffffffffffffffffffffffffffffffff1683614c6a565b90508a67ffffffffffffffff168111158015610e3b57506003860154610e2d906fffffffffffffffffffffffffffffffff1683614cd2565b8b67ffffffffffffffff1611155b610ec7576040517f08c379a000000000000000000000000000000000000000000000000000000000815260206004820152602b60248201527f426c6f636b20686569676874206973206f7574206f6620626f756e647320666f60448201527f72206c6976652073796e630000000000000000000000000000000000000000006064820152608401610982565b606954610ede9067ffffffffffffffff1643614cd2565b6003860180547fffffffffffffffffffffffffffffffffffffffffffffffff00000000000000001667ffffffffffffffff92909216919091179055606554336000908152607260205260408082205490517f4c4a17090000000000000000000000000000000000000000000000000000000081526fffffffffffffffffffffffffffffffff90911660048201529091829173ffffffffffffffffffffffffffffffffffffffff90911690634c4a1709906024016040805180830381865afa158015610fad573d6000803e3d6000fd5b505050506040513d601f19601f82011682018060405250810190610fd19190614cea565b60685491935091506fffffffffffffffffffffffffffffffff7001000000000000000000000000000000009091048116908316101561106c576040517f08c379a000000000000000000000000000000000000000000000000000000000815260206004820152601f60248201527f496e73756666696369656e746c79207374616b656420746f207375626d6974006044820152606401610982565b6110768183614d19565b8560000160006101000a8154816fffffffffffffffffffffffffffffffff02191690836fffffffffffffffffffffffffffffffff160217905550866001018c908060018154018082558091505060019003906000526020600020016000909190919091505560008760000160008e81526020019081526020016000209050806001018c90806001815401808255809150506001900390600052602060002001600090919091909150558060000160008d8152602001908152602001600020339080600181540180825580915050600190039060005260206000200160009091909190916101000a81548173ffffffffffffffffffffffffffffffffffffffff021916908373ffffffffffffffffffffffffffffffffffffffff16021790555085600001601081819054906101000a90046fffffffffffffffffffffffffffffffff16809291906111c590614d4d565b91906101000a8154816fffffffffffffffffffffffffffffffff02191690836fffffffffffffffffffffffffffffffff160217905550508d67ffffffffffffffff168f67ffffffffffffffff167f8b1f889addbfa41db5227bae3b091bd5c8b9a9122f874dfe54ba2f75aabe1f4c8a60030160009054906101000a900467ffffffffffffffff16604051611269919067ffffffffffffffff91909116815260200190565b60405180910390a350505050506117b5565b8167ffffffffffffffff164311156112ef576040517f08c379a000000000000000000000000000000000000000000000000000000000815260206004820152601f60248201527f53657373696f6e207375626d697373696f6e73206861766520636c6f736564006044820152606401610982565b600384015481546fffffffffffffffffffffffffffffffff70010000000000000000000000000000000092839004811692909104161061138b576040517f08c379a000000000000000000000000000000000000000000000000000000000815260206004820152601e60248201527f4d6178207375626d697373696f6e73206c696d697420657863656564656400006044820152606401610982565b6000888152602084905260409020815460018201906fffffffffffffffffffffffffffffffff16156115095760005b81548110156115035760008360000160008484815481106113dd576113dd614d7c565b90600052602060002001548152602001908152602001600020905060005b81548110156114ee573373ffffffffffffffffffffffffffffffffffffffff1682828154811061142d5761142d614d7c565b60009182526020909120015473ffffffffffffffffffffffffffffffffffffffff16036114dc576040517f08c379a000000000000000000000000000000000000000000000000000000000815260206004820152603660248201527f4f70657261746f7220616c7265616479207375626d697474656420666f72207460448201527f68652070726f766964656420626c6f636b2068617368000000000000000000006064820152608401610982565b806114e681614dab565b9150506113fb565b505080806114fb90614dab565b9150506113ba565b506116a5565b606554336000908152607260205260408082205490517f4c4a17090000000000000000000000000000000000000000000000000000000081526fffffffffffffffffffffffffffffffff90911660048201529091829173ffffffffffffffffffffffffffffffffffffffff90911690634c4a1709906024016040805180830381865afa15801561159d573d6000803e3d6000fd5b505050506040513d601f19601f820116820180604052508101906115c19190614cea565b60685491935091506fffffffffffffffffffffffffffffffff7001000000000000000000000000000000009091048116908316101561165c576040517f08c379a000000000000000000000000000000000000000000000000000000000815260206004820152601f60248201527f496e73756666696369656e746c79207374616b656420746f207375626d6974006044820152606401610982565b6116668183614d19565b85547fffffffffffffffffffffffffffffffff00000000000000000000000000000000166fffffffffffffffffffffffffffffffff9190911617855550505b60008981526020839052604090208154156116de5780546000036116d9578154600181018355600083815260209020018a90555b61170b565b600180870180548083018255600091825260208083209091018e9055845492830185558482529020018a90555b80546001810182556000828152602090200180547fffffffffffffffffffffffff0000000000000000000000000000000000000000163317905583546fffffffffffffffffffffffffffffffff7001000000000000000000000000000000009091041684601061177a83614d4d565b91906101000a8154816fffffffffffffffffffffffffffffffff02191690836fffffffffffffffffffffffffffffffff160217905550505050505b60008781526078602090815260408220805460018101825590835291206117de9101878761460b565b5080546040517f57b0cb34d2ff9ed661f8b3c684aaee6cbf0bda5da02f4044205556817fa8e76c91611830918d918d918d918d918d918d916fffffffffffffffffffffffffffffffff90911690614de3565b60405180910390a150505050505050505050565b60685460009060609070010000000000000000000000000000000090046fffffffffffffffffffffffffffffffff1661187d606c613e7b565b915091509091565b611890606e33613d2b565b6118f6576040517f08c379a000000000000000000000000000000000000000000000000000000000815260206004820152601d60248201527f53656e646572206973206e6f7420474f5645524e414e43455f524f4c450000006044820152606401610982565b67ffffffffffffffff82811660008181526077602090815260409182902060030180547fffffffffffffffffffffffffffffffff00000000000000000000000000000000169486169485179055905192835290917f4e4c0afc3a2b327c2f061f8ff5190a491f1042ba8f292a887bab97840947b7a9910160405180910390a25050565b611984606e33613d2b565b6119ea576040517f08c379a000000000000000000000000000000000000000000000000000000000815260206004820152601d60248201527f53656e646572206973206e6f7420474f5645524e414e43455f524f4c450000006044820152606401610982565b606580547fffffffffffffffffffffffff00000000000000000000000000000000000000001673ffffffffffffffffffffffffffffffffffffffff83169081179091556040519081527f70016f37fc9a299f674d1e3083a27743406649810887ed947a79884b064d2de9906020015b60405180910390a150565b611a6c613e88565b73ffffffffffffffffffffffffffffffffffffffff811660009081526074602052604090205415611af9576040517f08c379a000000000000000000000000000000000000000000000000000000000815260206004820152601760248201527f4f70657261746f7220616c7265616479206578697374730000000000000000006044820152606401610982565b73ffffffffffffffffffffffffffffffffffffffff811660009081526074602052604090207f71840dc4906352362b0cdaf79870196c8e42acafade72d5d5a6d59291253ceb19055611b4c606e82613f09565b506040805173ffffffffffffffffffffffffffffffffffffffff83168152600060208201527f71840dc4906352362b0cdaf79870196c8e42acafade72d5d5a6d59291253ceb1918101919091527f797ca55fc7be0f65c71f10996f7a16f801094f8ae3811874afc5a39730772a4290606001611a59565b611bce607033613d2b565b611c34576040517f08c379a000000000000000000000000000000000000000000000000000000000815260206004820152601a60248201527f53656e646572206973206e6f742041554449544f525f524f4c450000000000006044820152606401610982565b67ffffffffffffffff8481166000908152607660209081526040808320938716835292905220600381015468010000000000000000900460ff16611cfa576040517f08c379a000000000000000000000000000000000000000000000000000000000815260206004820152602660248201527f53657373696f6e206d7573742062652066696e616c697a6564206265666f726560448201527f20617564697400000000000000000000000000000000000000000000000000006064820152608401610982565b611d078186868686613f2b565b5050505050565b611d19606e33613d2b565b611d7f576040517f08c379a000000000000000000000000000000000000000000000000000000000815260206004820152601d60248201527f53656e646572206973206e6f7420474f5645524e414e43455f524f4c450000006044820152606401610982565b60668190556040518181527eec8eefea39d742ff523b872c1931ff4d509ab873041c5d6e237d5f0fc053f890602001611a59565b600054610100900460ff1615808015611dd35750600054600160ff909116105b80611ded5750303b158015611ded575060005460ff166001145b611e79576040517f08c379a000000000000000000000000000000000000000000000000000000000815260206004820152602e60248201527f496e697469616c697a61626c653a20636f6e747261637420697320616c72656160448201527f647920696e697469616c697a65640000000000000000000000000000000000006064820152608401610982565b600080547fffffffffffffffffffffffffffffffffffffffffffffffffffffffffffffff001660011790558015611ed757600080547fffffffffffffffffffffffffffffffffffffffffffffffffffffffffffff00ff166101001790555b611edf614289565b611eea606e33613f09565b50611f16606a7f71840dc4906352362b0cdaf79870196c8e42acafade72d5d5a6d59291253ceb1614328565b50611f42606a7f98d0bb2de1c65f6d2cbc3401e3d5d5086bfe815cb57e521dafd0ebdbef6ee85c614328565b50611f6e606a7f59a1c48e5837ad7a7f3dcedcbe129bf3249ec4fbf651fd4f5e2600ead39fe2f5614328565b50611f856103c86002670de0b6b3a7640000614cbe565b611f94655af3107a40006123a3565b611f9e60f06122b7565b611fa860026127c9565b611fb182611979565b611fbc606e33614334565b5073ffffffffffffffffffffffffffffffffffffffff831660009081526074602052604090207f71840dc4906352362b0cdaf79870196c8e42acafade72d5d5a6d59291253ceb19055612010606e84613f09565b506040805173ffffffffffffffffffffffffffffffffffffffff85168152600060208201527f71840dc4906352362b0cdaf79870196c8e42acafade72d5d5a6d59291253ceb18183015290517f797ca55fc7be0f65c71f10996f7a16f801094f8ae3811874afc5a39730772a429181900360600190a180156120e557600080547fffffffffffffffffffffffffffffffffffffffffffffffffffffffffffff00ff169055604051600181527f7f26b83ff96e1f2b6a682f133852f6798a09c465da95921460cefb384740249890602001610af5565b505050565b6120f5606e33613d2b565b61215b576040517f08c379a000000000000000000000000000000000000000000000000000000000815260206004820152601d60248201527f53656e646572206973206e6f7420474f5645524e414e43455f524f4c450000006044820152606401610982565b606880546fffffffffffffffffffffffffffffffff908116700100000000000000000000000000000000918416918202179091556040519081527fb6c040bb0324b47cbf9a620cce03b311e24597626a57322173d5d5465f739d2790602001611a59565b6121ca606e33613d2b565b612230576040517f08c379a000000000000000000000000000000000000000000000000000000000815260206004820152601d60248201527f53656e646572206973206e6f7420474f5645524e414e43455f524f4c450000006044820152606401610982565b67ffffffffffffffff82811660009081526077602090815260409182902060030180546fffffffffffffffffffffffffffffffff16938516700100000000000000000000000000000000810294909417905590519182527f1bca1fb481202bb14258ce1030d54e9e7bafc8b696d96b9eb733826e58a3a03091015b60405180910390a15050565b6122c2606e33613d2b565b612328576040517f08c379a000000000000000000000000000000000000000000000000000000000815260206004820152601d60248201527f53656e646572206973206e6f7420474f5645524e414e43455f524f4c450000006044820152606401610982565b606980547fffffffffffffffffffffffffffffffffffffffffffffffff00000000000000001667ffffffffffffffff83169081179091556040519081527f94bc488f4d9a985dd5f9d11e8f0a614a62828888eb65b704a90fa852be93754990602001611a59565b612397613e88565b6123a16000614356565b565b6123ae606e33613d2b565b612414576040517f08c379a000000000000000000000000000000000000000000000000000000000815260206004820152601d60248201527f53656e646572206973206e6f7420474f5645524e414e43455f524f4c450000006044820152606401610982565b606880547fffffffffffffffffffffffffffffffff00000000000000000000000000000000166fffffffffffffffffffffffffffffffff83169081179091556040519081527f01eb821dd596243f2f8c5f6c7478e281b855ac12a9f4be2c486cb2778a0bb81e90602001611a59565b67ffffffffffffffff808316600090815260766020908152604080832085851684529091529020600381015490911643811061251b576040517f08c379a000000000000000000000000000000000000000000000000000000000815260206004820152601960248201527f53657373696f6e206e6f74207061737420646561646c696e65000000000000006044820152606401610982565b600382015468010000000000000000900460ff1615612596576040517f08c379a000000000000000000000000000000000000000000000000000000000815260206004820152601b60248201527f53657373696f6e2063616e6e6f742062652066696e616c697a656400000000006044820152606401610982565b8067ffffffffffffffff1660000361260a576040517f08c379a000000000000000000000000000000000000000000000000000000000815260206004820152601360248201527f53657373696f6e206e6f742073746172746564000000000000000000000000006044820152606401610982565b6000808080806001870181805b82548110156126d55782818154811061263257612632614d7c565b6000918252602080832090910154808352908c905260408220909350905b60018201548110156126c05781600101818154811061267157612671614d7c565b600091825260208083209091015480835290849052604090912054909950612699818c614cd2565b9a50888111156126ad578098508497508996505b50806126b881614dab565b915050612650565b505080806126cd90614dab565b915050612617565b5060695468010000000000000000900467ffffffffffffffff16851080159061271b57506066548761270f670de0b6b3a764000088614c81565b6127199190614cbe565b115b156127325761272d898c8c8787613f2b565b612774565b60405167ffffffffffffffff8b811682528c16907f398fd8f638a7242217f011fd0720a06747f7a85b7d28d7276684b841baea40219060200160405180910390a25b505050600390950180547fffffffffffffffffffffffffffffffffffffffffffffff000000000000000000166801000000000000000017905550505050505050565b60006127c3606c83613d2b565b92915050565b6127d4606e33613d2b565b61283a576040517f08c379a000000000000000000000000000000000000000000000000000000000815260206004820152601d60248201527f53656e646572206973206e6f7420474f5645524e414e43455f524f4c450000006044820152606401610982565b606980547fffffffffffffffffffffffffffffffff0000000000000000ffffffffffffffff166801000000000000000067ffffffffffffffff8416908102919091179091556040519081527f28312bbddd51eea4439db773218c441a4057f6ed285c642a569f1dcdba1cc04790602001611a59565b6128ba606e33613d2b565b612920576040517f08c379a000000000000000000000000000000000000000000000000000000000815260206004820152601d60248201527f53656e646572206973206e6f7420474f5645524e414e43455f524f4c450000006044820152606401610982565b67ffffffffffffffff84166000908152607760205260409020816129a0576040517f08c379a000000000000000000000000000000000000000000000000000000000815260206004820152601d60248201527f5365636f6e64732070657220626c6f636b2063616e6e6f7420626520300000006044820152606401610982565b8381556001810183905560028101829055604080518581526020810185905290810183905267ffffffffffffffff8616907ffd97af399d19e6be9256c99c8e52b1809cdbc4dc96816739612b6fd4e6d940b09060600160405180910390a25050505050565b612a10606e33613d2b565b612a76576040517f08c379a000000000000000000000000000000000000000000000000000000000815260206004820152601d60248201527f53656e646572206973206e6f7420474f5645524e414e43455f524f4c450000006044820152606401610982565b6065546040517fa2e7e44100000000000000000000000000000000000000000000000000000000815273ffffffffffffffffffffffffffffffffffffffff84811660048301526fffffffffffffffffffffffffffffffff841660248301529091169063a2e7e441906044016020604051808303816000875af1158015612b00573d6000803e3d6000fd5b505050506040513d601f19601f820116820180604052508101906120e59190614e76565b612b2f606e33613d2b565b612b95576040517f08c379a000000000000000000000000000000000000000000000000000000000815260206004820152601d60248201527f53656e646572206973206e6f7420474f5645524e414e43455f524f4c450000006044820152606401610982565b6065546040517fad9e91ee0000000000000000000000000000000000000000000000000000000081526fffffffffffffffffffffffffffffffff841660048201526024810183905273ffffffffffffffffffffffffffffffffffffffff9091169063ad9e91ee906044015b600060405180830381600087803b158015612c1a57600080fd5b505af1158015612c2e573d6000803e3d6000fd5b505050505050565b67ffffffffffffffff83811660008181526076602090815260408083208786168452825280832060038082015473ffffffffffffffffffffffffffffffffffffffff891686526002830185528386209686526077909452918420909101548454939591949290911692700100000000000000000000000000000000918290046fffffffffffffffffffffffffffffffff908116929091041614801581612ce657508267ffffffffffffffff164311155b80612d15575067ffffffffffffffff8316158015612d155750600384015468010000000000000000900460ff16155b98975050505050505050565b612d2c606e33613d2b565b612d92576040517f08c379a000000000000000000000000000000000000000000000000000000000815260206004820152601d60248201527f53656e646572206973206e6f7420474f5645524e414e43455f524f4c450000006044820152606401610982565b73ffffffffffffffffffffffffffffffffffffffff821660009081526074602052604090205415612e1f576040517f08c379a000000000000000000000000000000000000000000000000000000000815260206004820152601760248201527f4f70657261746f7220616c7265616479206578697374730000000000000000006044820152606401610982565b73ffffffffffffffffffffffffffffffffffffffff821660009081526074602090815260408083207f98d0bb2de1c65f6d2cbc3401e3d5d5086bfe815cb57e521dafd0ebdbef6ee85c90556072825280832080547fffffffffffffffffffffffffffffffff00000000000000000000000000000000166fffffffffffffffffffffffffffffffff8616908117909155835260739091529020612ec19083613f09565b506040805173ffffffffffffffffffffffffffffffffffffffff841681526fffffffffffffffffffffffffffffffff831660208201527f98d0bb2de1c65f6d2cbc3401e3d5d5086bfe815cb57e521dafd0ebdbef6ee85c918101919091527f797ca55fc7be0f65c71f10996f7a16f801094f8ae3811874afc5a39730772a42906060016122ab565b612f54606e33613d2b565b612fba576040517f08c379a000000000000000000000000000000000000000000000000000000000815260206004820152601d60248201527f53656e646572206973206e6f7420474f5645524e414e43455f524f4c450000006044820152606401610982565b73ffffffffffffffffffffffffffffffffffffffff81166000908152607460205260409020547f98d0bb2de1c65f6d2cbc3401e3d5d5086bfe815cb57e521dafd0ebdbef6ee85c14613068576040517f08c379a000000000000000000000000000000000000000000000000000000000815260206004820152601360248201527f4f70657261746f72206973206e6f7420425350000000000000000000000000006044820152606401610982565b613073606c82613d2b565b156130815761308181613d5d565b73ffffffffffffffffffffffffffffffffffffffff81166000908152607260209081526040808320546fffffffffffffffffffffffffffffffff168352607390915290206130cf9082614334565b5073ffffffffffffffffffffffffffffffffffffffff8116600081815260726020908152604080832080547fffffffffffffffffffffffffffffffff00000000000000000000000000000000169055607482528083209290925590519182527f80c0b871b97b595b16a7741c1b06fed0c6f6f558639f18ccbce50724325dc40d9101611a59565b6fffffffffffffffffffffffffffffffff811660009081526073602052604090206060906127c390613e7b565b606060786000838152602001908152602001600020805480602002602001604051908101604052809291908181526020016000905b828210156132645783829060005260206000200180546131d790614e8f565b80601f016020809104026020016040519081016040528092919081815260200182805461320390614e8f565b80156132505780601f1061322557610100808354040283529160200191613250565b820191906000526020600020905b81548152906001019060200180831161323357829003601f168201915b5050505050815260200190600101906131b8565b505050509050919050565b606080606061327e606c613e7b565b613288606e613e7b565b6132926070613e7b565b925092509250909192565b6132a8606e33613d2b565b61330e576040517f08c379a000000000000000000000000000000000000000000000000000000000815260206004820152601d60248201527f53656e646572206973206e6f7420474f5645524e414e43455f524f4c450000006044820152606401610982565b67ffffffffffffffff811660678190556040517fcaf46ba335d93b98398af7142ea3e362a6b8e91c57da6bf1e8a704f86374dde090600090a250565b60655473ffffffffffffffffffffffffffffffffffffffff8281166000908152607260205260408082205490517f87326a0c0000000000000000000000000000000000000000000000000000000081526fffffffffffffffffffffffffffffffff909116600482015284939192909116906387326a0c90602401608060405180830381865afa1580156133e1573d6000803e3d6000fd5b505050506040513d601f19601f820116820180604052508101906134059190614b86565b50919250505073ffffffffffffffffffffffffffffffffffffffff8116331461348a576040517f08c379a000000000000000000000000000000000000000000000000000000000815260206004820152601e60248201527f53656e646572206973206e6f74206f70657261746f72206d616e6167657200006044820152606401610982565b73ffffffffffffffffffffffffffffffffffffffff83166000908152607460205260409020547f98d0bb2de1c65f6d2cbc3401e3d5d5086bfe815cb57e521dafd0ebdbef6ee85c14613538576040517f08c379a000000000000000000000000000000000000000000000000000000000815260206004820152601360248201527f4f70657261746f72206973206e6f7420425350000000000000000000000000006044820152606401610982565b613543606c84613d2b565b156135aa576040517f08c379a000000000000000000000000000000000000000000000000000000000815260206004820152601b60248201527f4f70657261746f7220697320616c726561647920656e61626c656400000000006044820152606401610982565b73ffffffffffffffffffffffffffffffffffffffff83166000908152607260205260409020546fffffffffffffffffffffffffffffffff166135ed606c85613f09565b506fffffffffffffffffffffffffffffffff80821660009081526075602052604081208054909216919061362083614d4d565b82546101009290920a6fffffffffffffffffffffffffffffffff8181021990931691831602179091558281166000908152607560205260409020541660010390506136fb576065546040517fedff4b610000000000000000000000000000000000000000000000000000000081526fffffffffffffffffffffffffffffffff8316600482015273ffffffffffffffffffffffffffffffffffffffff9091169063edff4b6190602401600060405180830381600087803b1580156136e257600080fd5b505af11580156136f6573d6000803e3d6000fd5b505050505b60405173ffffffffffffffffffffffffffffffffffffffff851681527f9e532d260bd7dde07708a6b1f7c64042546243d79bac23514cd74fcfc1a01fe49060200160405180910390a150505050565b613755606e33613d2b565b6137bb576040517f08c379a000000000000000000000000000000000000000000000000000000000815260206004820152601d60248201527f53656e646572206973206e6f7420474f5645524e414e43455f524f4c450000006044820152606401610982565b67ffffffffffffffff82811660008181526077602052604080822060040180547fffffffffffffffffffffffffffffffffffffffffffffffff0000000000000000169486169485179055517fbbfa9310306e8a8485d109f8be6b0a808473ce55d2e94b8ca3447c9ddb2854b49190a35050565b613839606e33613d2b565b61389f576040517f08c379a000000000000000000000000000000000000000000000000000000000815260206004820152601d60248201527f53656e646572206973206e6f7420474f5645524e414e43455f524f4c450000006044820152606401610982565b73ffffffffffffffffffffffffffffffffffffffff81166000908152607460205260409020541561392c576040517f08c379a000000000000000000000000000000000000000000000000000000000815260206004820152601760248201527f4f70657261746f7220616c7265616479206578697374730000000000000000006044820152606401610982565b73ffffffffffffffffffffffffffffffffffffffff811660009081526074602052604090207f59a1c48e5837ad7a7f3dcedcbe129bf3249ec4fbf651fd4f5e2600ead39fe2f5905561397f607082613f09565b506040805173ffffffffffffffffffffffffffffffffffffffff83168152600060208201527f59a1c48e5837ad7a7f3dcedcbe129bf3249ec4fbf651fd4f5e2600ead39fe2f5918101919091527f797ca55fc7be0f65c71f10996f7a16f801094f8ae3811874afc5a39730772a4290606001611a59565b613a01606e33613d2b565b613a67576040517f08c379a000000000000000000000000000000000000000000000000000000000815260206004820152601d60248201527f53656e646572206973206e6f7420474f5645524e414e43455f524f4c450000006044820152606401610982565b73ffffffffffffffffffffffffffffffffffffffff81166000908152607460205260409020547f59a1c48e5837ad7a7f3dcedcbe129bf3249ec4fbf651fd4f5e2600ead39fe2f514613b15576040517f08c379a000000000000000000000000000000000000000000000000000000000815260206004820152601760248201527f4f70657261746f72206973206e6f742061756469746f720000000000000000006044820152606401610982565b73ffffffffffffffffffffffffffffffffffffffff8116600090815260746020526040812055613b46607082614334565b5060405173ffffffffffffffffffffffffffffffffffffffff821681527f80c0b871b97b595b16a7741c1b06fed0c6f6f558639f18ccbce50724325dc40d90602001611a59565b613b95613e88565b73ffffffffffffffffffffffffffffffffffffffff81166000908152607460205260409020547f71840dc4906352362b0cdaf79870196c8e42acafade72d5d5a6d59291253ceb114613c43576040517f08c379a000000000000000000000000000000000000000000000000000000000815260206004820152601860248201527f4f70657261746f72206973206e6f7420676f7665726e6f7200000000000000006044820152606401610982565b73ffffffffffffffffffffffffffffffffffffffff8116600090815260746020526040812055613b46606e82614334565b613c7c613e88565b73ffffffffffffffffffffffffffffffffffffffff8116613d1f576040517f08c379a000000000000000000000000000000000000000000000000000000000815260206004820152602660248201527f4f776e61626c653a206e6577206f776e657220697320746865207a65726f206160448201527f64647265737300000000000000000000000000000000000000000000000000006064820152608401610982565b613d2881614356565b50565b73ffffffffffffffffffffffffffffffffffffffff8116600090815260018301602052604081205415155b9392505050565b613d68606c82614334565b5073ffffffffffffffffffffffffffffffffffffffff81166000908152607260209081526040808320546fffffffffffffffffffffffffffffffff9081168085526075909352908320805492939290911691613dc383614ee2565b82546101009290920a6fffffffffffffffffffffffffffffffff81810219909316918316021790915582811660009081526075602052604081205490911690039050613e77576065546040517fad9e91ee0000000000000000000000000000000000000000000000000000000081526fffffffffffffffffffffffffffffffff8316600482015243602482015273ffffffffffffffffffffffffffffffffffffffff9091169063ad9e91ee90604401612c00565b5050565b60606000613d56836143cd565b60335473ffffffffffffffffffffffffffffffffffffffff1633146123a1576040517f08c379a000000000000000000000000000000000000000000000000000000000815260206004820181905260248201527f4f776e61626c653a2063616c6c6572206973206e6f7420746865206f776e65726044820152606401610982565b6000613d568373ffffffffffffffffffffffffffffffffffffffff8416614429565b60008281526020868152604080832084845290915281208054828167ffffffffffffffff811115613f5e57613f5e614f2c565b604051908082528060200260200182016040528015613f87578160200160208202803683370190505b50905060008267ffffffffffffffff811115613fa557613fa5614f2c565b604051908082528060200260200182016040528015613fce578160200160208202803683370190505b509050600060028b01815b8581101561405857816000888381548110613ff657613ff6614d7c565b600091825260208083209091015473ffffffffffffffffffffffffffffffffffffffff168352820192909252604001902054614044906fffffffffffffffffffffffffffffffff1684614d19565b92508061405081614dab565b915050613fd9565b5060005b858110156141825786818154811061407657614076614d7c565b600091825260208083209091015473ffffffffffffffffffffffffffffffffffffffff1680835284825260408084206072909352909220548751929a5090916fffffffffffffffffffffffffffffffff909116908790849081106140dc576140dc614d7c565b6fffffffffffffffffffffffffffffffff92831660209182029290920101526068548254868316926141119281169116614c81565b61411b9190614cbe565b85838151811061412d5761412d614d7c565b6fffffffffffffffffffffffffffffffff9283166020918202929092010152815470010000000000000000000000000000000090041660010361416f57600081555b508061417a81614dab565b91505061405c565b506065546040517f605a501700000000000000000000000000000000000000000000000000000000815273ffffffffffffffffffffffffffffffffffffffff9091169063605a5017906141db9087908790600401614f9d565b600060405180830381600087803b1580156141f557600080fd5b505af1158015614209573d6000803e3d6000fd5b50505050888a67ffffffffffffffff168c67ffffffffffffffff167ff05ac779af1ec75a7b2fbe9415b33a67c00294a121786f7ce2eb3f92e4a6424a8b60405161425591815260200190565b60405180910390a4600089815260208d9052604081209061427960018301826146ad565b5050505050505050505050505050565b600054610100900460ff16614320576040517f08c379a000000000000000000000000000000000000000000000000000000000815260206004820152602b60248201527f496e697469616c697a61626c653a20636f6e7472616374206973206e6f74206960448201527f6e697469616c697a696e670000000000000000000000000000000000000000006064820152608401610982565b6123a1614478565b6000613d568383614429565b6000613d568373ffffffffffffffffffffffffffffffffffffffff8416614518565b6033805473ffffffffffffffffffffffffffffffffffffffff8381167fffffffffffffffffffffffff0000000000000000000000000000000000000000831681179093556040519116919082907f8be0079c531659141344cd1fd0a4f28419497f9722a3daafe3b4186f6b6457e090600090a35050565b60608160000180548060200260200160405190810160405280929190818152602001828054801561441d57602002820191906000526020600020905b815481526020019060010190808311614409575b50505050509050919050565b6000818152600183016020526040812054614470575081546001818101845560008481526020808220909301849055845484825282860190935260409020919091556127c3565b5060006127c3565b600054610100900460ff1661450f576040517f08c379a000000000000000000000000000000000000000000000000000000000815260206004820152602b60248201527f496e697469616c697a61626c653a20636f6e7472616374206973206e6f74206960448201527f6e697469616c697a696e670000000000000000000000000000000000000000006064820152608401610982565b6123a133614356565b6000818152600183016020526040812054801561460157600061453c600183614c6a565b855490915060009061455090600190614c6a565b90508181146145b557600086600001828154811061457057614570614d7c565b906000526020600020015490508087600001848154811061459357614593614d7c565b6000918252602080832090910192909255918252600188019052604090208390555b85548690806145c6576145c6614fcb565b6001900381819060005260206000200160009055905585600101600086815260200190815260200160002060009055600193505050506127c3565b60009150506127c3565b82805461461790614e8f565b90600052602060002090601f016020900481019282614639576000855561469d565b82601f10614670578280017fffffffffffffffffffffffffffffffffffffffffffffffffffffffffffffff0082351617855561469d565b8280016001018555821561469d579182015b8281111561469d578235825591602001919060010190614682565b506146a99291506146c7565b5090565b5080546000825590600052602060002090810190613d2891905b5b808211156146a957600081556001016146c8565b73ffffffffffffffffffffffffffffffffffffffff81168114613d2857600080fd5b60006020828403121561471057600080fd5b8135613d56816146dc565b803567ffffffffffffffff8116811461473357600080fd5b919050565b60008060008060008060a0878903121561475157600080fd5b61475a8761471b565b95506147686020880161471b565b94506040870135935060608701359250608087013567ffffffffffffffff8082111561479357600080fd5b818901915089601f8301126147a757600080fd5b8135818111156147b657600080fd5b8a60208285010111156147c857600080fd5b6020830194508093505050509295509295509295565b600081518084526020808501945080840160005b8381101561482457815173ffffffffffffffffffffffffffffffffffffffff16875295820195908201906001016147f2565b509495945050505050565b6fffffffffffffffffffffffffffffffff8316815260406020820152600061485a60408301846147de565b949350505050565b6000806040838503121561487557600080fd5b61487e8361471b565b915061488c6020840161471b565b90509250929050565b600080600080608085870312156148ab57600080fd5b6148b48561471b565b93506148c26020860161471b565b93969395505050506040820135916060013590565b6000602082840312156148e957600080fd5b5035919050565b6000806040838503121561490357600080fd5b823561490e816146dc565b9150602083013561491e816146dc565b809150509250929050565b6fffffffffffffffffffffffffffffffff81168114613d2857600080fd5b60006020828403121561495957600080fd5b8135613d5681614929565b60006020828403121561497657600080fd5b613d568261471b565b6000806000806080858703121561499557600080fd5b61499e8561471b565b966020860135965060408601359560600135945092505050565b600080604083850312156149cb57600080fd5b82356149d6816146dc565b9150602083013561491e81614929565b600080604083850312156149f957600080fd5b8235614a0481614929565b946020939093013593505050565b600080600060608486031215614a2757600080fd5b614a308461471b565b9250614a3e6020850161471b565b91506040840135614a4e816146dc565b809150509250925092565b602081526000613d5660208301846147de565b6000602080830181845280855180835260408601915060408160051b87010192508387016000805b83811015614b35577fffffffffffffffffffffffffffffffffffffffffffffffffffffffffffffffc089870301855282518051808852835b81811015614ae7578281018a01518982018b01528901614acc565b81811115614af757848a838b0101525b50601f017fffffffffffffffffffffffffffffffffffffffffffffffffffffffffffffffe01696909601870195509386019391860191600101614a94565b509398975050505050505050565b606081526000614b5660608301866147de565b8281036020840152614b6881866147de565b90508281036040840152614b7c81856147de565b9695505050505050565b60008060008060808587031215614b9c57600080fd5b8451614ba7816146dc565b6020860151909450614bb881614929565b6040860151909350614bc981614929565b6060860151909250614bda81614929565b939692955090935050565b7f4e487b7100000000000000000000000000000000000000000000000000000000600052601260045260246000fd5b600067ffffffffffffffff80841680614c2f57614c2f614be5565b92169190910692915050565b7f4e487b7100000000000000000000000000000000000000000000000000000000600052601160045260246000fd5b600082821015614c7c57614c7c614c3b565b500390565b6000817fffffffffffffffffffffffffffffffffffffffffffffffffffffffffffffffff0483118215151615614cb957614cb9614c3b565b500290565b600082614ccd57614ccd614be5565b500490565b60008219821115614ce557614ce5614c3b565b500190565b60008060408385031215614cfd57600080fd5b8251614d0881614929565b602084015190925061491e81614929565b60006fffffffffffffffffffffffffffffffff808316818516808303821115614d4457614d44614c3b565b01949350505050565b60006fffffffffffffffffffffffffffffffff808316818103614d7257614d72614c3b565b6001019392505050565b7f4e487b7100000000000000000000000000000000000000000000000000000000600052603260045260246000fd5b60007fffffffffffffffffffffffffffffffffffffffffffffffffffffffffffffffff8203614ddc57614ddc614c3b565b5060010190565b600067ffffffffffffffff808a16835280891660208401525086604083015285606083015260c060808301528360c0830152838560e0840137600060e0858401015260e07fffffffffffffffffffffffffffffffffffffffffffffffffffffffffffffffe0601f86011683010190506fffffffffffffffffffffffffffffffff831660a083015298975050505050505050565b600060208284031215614e8857600080fd5b5051919050565b600181811c90821680614ea357607f821691505b602082108103614edc577f4e487b7100000000000000000000000000000000000000000000000000000000600052602260045260246000fd5b50919050565b60006fffffffffffffffffffffffffffffffff821680614f0457614f04614c3b565b7fffffffffffffffffffffffffffffffffffffffffffffffffffffffffffffffff0192915050565b7f4e487b7100000000000000000000000000000000000000000000000000000000600052604160045260246000fd5b600081518084526020808501945080840160005b838110156148245781516fffffffffffffffffffffffffffffffff1687529582019590820190600101614f6f565b604081526000614fb06040830185614f5b565b8281036020840152614fc28185614f5b565b95945050505050565b7f4e487b7100000000000000000000000000000000000000000000000000000000600052603160045260246000fdfea26469706673582212207c547b7058e0d7c39005a2bcb2583e909d2bcf21c195aa52eb85ecd16e90ba8364736f6c634300080d0033",
  "linkReferences": {},
  "deployedLinkReferences": {}
}